{
  "_format": "hh-sol-artifact-1",
  "contractName": "Ed25519",
  "sourceName": "src/utils/Ed25519.sol",
  "abi": [
    {
      "inputs": [
        {
          "internalType": "bytes32",
          "name": "k",
          "type": "bytes32"
        },
        {
          "internalType": "bytes32",
          "name": "r",
          "type": "bytes32"
        },
        {
          "internalType": "bytes32",
          "name": "s",
          "type": "bytes32"
        },
        {
          "internalType": "bytes32",
          "name": "m1",
          "type": "bytes32"
        },
        {
          "internalType": "bytes9",
          "name": "m2",
          "type": "bytes9"
        }
      ],
      "name": "check",
      "outputs": [
        {
          "internalType": "bool",
          "name": "",
          "type": "bool"
        }
      ],
      "stateMutability": "pure",
      "type": "function"
    }
  ],
  "bytecode": "0x6183b462000055600b82828239805160001a60731462000048577f4e487b7100000000000000000000000000000000000000000000000000000000600052600060045260246000fd5b30600052607381538281f3fe73000000000000000000000000000000000000000030146080604052600436106100355760003560e01c8063ebd1b9511461003a575b600080fd5b610054600480360381019061004f919061826f565b61006a565b6040516100619190618305565b60405180910390f35b60008060006040518061020001604052806040518060a0016040528067428a2f98d728ae22815260200167e49b69c19ef14ad281526020016727b70a8546d22ffc81526020016719a4c116b8d2d0c8815260200167ca273eceea26619c81525081526020016040518060a00160405280677137449123ef65cd815260200167efbe4786384f25e38152602001672e1b21385c26c9268152602001671e376c085141ab53815260200167d186b8c721c0c20781525081526020016040518060a0016040528067b5c0fbcfec4d3b2f8152602001670fc19dc68b8cd5b58152602001674d2c6dfc5ac42aed8152602001672748774cdf8eeb99815260200167eada7dd6cde0eb1e81525081526020016040518060a0016040528067e9b5dba58189dbbc815260200167240ca1cc77ac9c6581526020016753380d139d95b3df81526020016734b0bcb5e19b48a8815260200167f57d4f7fee6ed17881525081526020016040518060a00160405280673956c25bf348b5388152602001672de92c6f592b0275815260200167650a73548baf63de815260200167391c0cb3c5c95a6381526020016706f067aa72176fba81525081526020016040518060a001604052806759f111f1b605d0198152602001674a7484aa6ea6e483815260200167766a0abb3c77b2a88152602001674ed8aa4ae3418acb8152602001670a637dc5a2c898a681525081526020016040518060a0016040528067923f82a4af194f9b8152602001675cb0a9dcbd41fbd481526020016781c2c92e47edaee68152602001675b9cca4f7763e373815260200167113f9804bef90dae81525081526020016040518060a0016040528067ab1c5ed5da6d811881526020016776f988da831153b581526020016792722c851482353b815260200167682e6ff3d6b2b8a38152602001671b710b35131c471b81525081526020016040518060a0016040528067d807aa98a3030242815260200167983e5152ee66dfab815260200167a2bfe8a14cf10364815260200167748f82ee5defb2fc81526020016728db77f523047d8481525081526020016040518060a001604052806712835b0145706fbe815260200167a831c66d2db43210815260200167a81a664bbc42300181526020016778a5636f43172f6081526020016732caab7b40c7249381525081526020016040518060a0016040528067243185be4ee4b28c815260200167b00327c898fb213f815260200167c24b8b70d0f8979181526020016784c87814a1f0ab728152602001673c9ebe0a15c9bebc81525081526020016040518060a0016040528067550c7dc3d5ffb4e2815260200167bf597fc7beef0ee4815260200167c76c51a30654be308152602001678cc702081a6439ec815260200167431d67c49c100d4c81525081526020016040518060a001604052806772be5d74f27b896f815260200167c6e00bf33da88fc2815260200167d192e819d6ef521881526020016790befffa23631e288152602001674cc5d4becb3e42b681525081526020016040518060a001604052806780deb1fe3b1696b1815260200167d5a79147930aa725815260200167d69906245565a910815260200167a4506cebde82bde9815260200167597f299cfc657e2a81525081526020016040518060a00160405280679bdc06a725c7123581526020016706ca6351e003826f815260200167f40e35855771202a815260200167bef9a3f7b2c679158152602001675fcb6fab3ad6faec81525081526020016040518060a0016040528067c19bf174cf692694815260200167142929670a0e6e70815260200167106aa07032bbd1b8815260200167c67178f2e372532b8152602001676c44198c4a4758178152508152509050600060406fffffffffffffffff00000000000000008960001c16901b604077ffffffffffffffff000000000000000000000000000000008a60001c16901c7fffffffffffffffff00000000000000000000000000000000ffffffffffffffff8a60001c1617179050600060406fffffffffffffffff00000000000000008b60001c16901b604077ffffffffffffffff000000000000000000000000000000008c60001c16901c7fffffffffffffffff00000000000000000000000000000000ffffffffffffffff8c60001c1617179050600060406fffffffffffffffff00000000000000008960001c16901b604077ffffffffffffffff000000000000000000000000000000008a60001c16901c7fffffffffffffffff00000000000000000000000000000000ffffffffffffffff8a60001c161717905060006e800000000000000000000000000348604077ffffffffffffffff000000000000000000000000000000008a76ffffffffffffffffffffffffffffffffffffffffffffff191660001c16901c7fffffffffffffffff0000000000000000000000000000000000000000000000008a76ffffffffffffffffffffffffffffffffffffffffffffff191660001c16171790506000676a09e667f3bcc9089050600067bb67ae8584caa73b90506000673c6ef372fe94f82b9050600067a54ff53a5f1d36f19050600067510e527fade682d190506000679b05688c2b3e6c1f90506000671f83d9abfb41bd6b90506000675be0cd19137e2179905060005b60008067ffffffffffffffff871696506000604088901b881790506000602982901c601283901c600e84901c18189050600087888a188b16189050808288010194505050508f60006010811061084957610848618320565b5b602002015183600581106108605761085f618320565b5b60200201518201915060c08f901c8201915067ffffffffffffffff8b169a50600060408c901b8c1790506000602782901c602283901c601c84901c1818905060008b8d168c8e178f16179050808201935050505084935085945086955081880196508897508998508a99508082019a50505060008067ffffffffffffffff871696506000604088901b881790506000602982901c601283901c600e84901c18189050600087888a188b16189050808288010194505050508f60016010811061092b5761092a618320565b5b6020020151836005811061094257610941618320565b5b60200201518201915060408f901c8201915067ffffffffffffffff8b169a50600060408c901b8c1790506000602782901c602283901c601c84901c1818905060008b8d168c8e178f16179050808201935050505084935085945086955081880196508897508998508a99508082019a50505060008067ffffffffffffffff871696506000604088901b881790506000602982901c601283901c600e84901c18189050600087888a188b16189050808288010194505050508f600260108110610a0d57610a0c618320565b5b60200201518360058110610a2457610a23618320565b5b60200201518201915060808f901c8201915067ffffffffffffffff8b169a50600060408c901b8c1790506000602782901c602283901c601c84901c1818905060008b8d168c8e178f16179050808201935050505084935085945086955081880196508897508998508a99508082019a50505060008067ffffffffffffffff871696506000604088901b881790506000602982901c601283901c600e84901c18189050600087888a188b16189050808288010194505050508f600360108110610aef57610aee618320565b5b60200201518360058110610b0657610b05618320565b5b6020020151820191508e8201915067ffffffffffffffff8b169a50600060408c901b8c1790506000602782901c602283901c601c84901c1818905060008b8d168c8e178f16179050808201935050505084935085945086955081880196508897508998508a99508082019a50505060008067ffffffffffffffff871696506000604088901b881790506000602982901c601283901c600e84901c18189050600087888a188b16189050808288010194505050508f600460108110610bcd57610bcc618320565b5b60200201518360058110610be457610be3618320565b5b60200201518201915060c08e901c8201915067ffffffffffffffff8b169a50600060408c901b8c1790506000602782901c602283901c601c84901c1818905060008b8d168c8e178f16179050808201935050505084935085945086955081880196508897508998508a99508082019a50505060008067ffffffffffffffff871696506000604088901b881790506000602982901c601283901c600e84901c18189050600087888a188b16189050808288010194505050508f600560108110610caf57610cae618320565b5b60200201518360058110610cc657610cc5618320565b5b60200201518201915060408e901c8201915067ffffffffffffffff8b169a50600060408c901b8c1790506000602782901c602283901c601c84901c1818905060008b8d168c8e178f16179050808201935050505084935085945086955081880196508897508998508a99508082019a50505060008067ffffffffffffffff871696506000604088901b881790506000602982901c601283901c600e84901c18189050600087888a188b16189050808288010194505050508f600660108110610d9157610d90618320565b5b60200201518360058110610da857610da7618320565b5b60200201518201915060808e901c8201915067ffffffffffffffff8b169a50600060408c901b8c1790506000602782901c602283901c601c84901c1818905060008b8d168c8e178f16179050808201935050505084935085945086955081880196508897508998508a99508082019a50505060008067ffffffffffffffff871696506000604088901b881790506000602982901c601283901c600e84901c18189050600087888a188b16189050808288010194505050508f600760108110610e7357610e72618320565b5b60200201518360058110610e8a57610e89618320565b5b6020020151820191508d8201915067ffffffffffffffff8b169a50600060408c901b8c1790506000602782901c602283901c601c84901c1818905060008b8d168c8e178f16179050808201935050505084935085945086955081880196508897508998508a99508082019a50505060008067ffffffffffffffff871696506000604088901b881790506000602982901c601283901c600e84901c18189050600087888a188b16189050808288010194505050508f600860108110610f5157610f50618320565b5b60200201518360058110610f6857610f67618320565b5b60200201518201915060c08d901c8201915067ffffffffffffffff8b169a50600060408c901b8c1790506000602782901c602283901c601c84901c1818905060008b8d168c8e178f16179050808201935050505084935085945086955081880196508897508998508a99508082019a50505060008067ffffffffffffffff871696506000604088901b881790506000602982901c601283901c600e84901c18189050600087888a188b16189050808288010194505050508f60096010811061103357611032618320565b5b6020020151836005811061104a57611049618320565b5b60200201518201915060408d901c8201915067ffffffffffffffff8b169a50600060408c901b8c1790506000602782901c602283901c601c84901c1818905060008b8d168c8e178f16179050808201935050505084935085945086955081880196508897508998508a99508082019a50505060008067ffffffffffffffff871696506000604088901b881790506000602982901c601283901c600e84901c18189050600087888a188b16189050808288010194505050508f600a6010811061111557611114618320565b5b6020020151836005811061112c5761112b618320565b5b60200201518201915060808d901c8201915067ffffffffffffffff8b169a50600060408c901b8c1790506000602782901c602283901c601c84901c1818905060008b8d168c8e178f16179050808201935050505084935085945086955081880196508897508998508a99508082019a50505060008067ffffffffffffffff871696506000604088901b881790506000602982901c601283901c600e84901c18189050600087888a188b16189050808288010194505050508f600b601081106111f7576111f6618320565b5b6020020151836005811061120e5761120d618320565b5b6020020151820191508c8201915067ffffffffffffffff8b169a50600060408c901b8c1790506000602782901c602283901c601c84901c1818905060008b8d168c8e178f16179050808201935050505084935085945086955081880196508897508998508a99508082019a50505060008067ffffffffffffffff871696506000604088901b881790506000602982901c601283901c600e84901c18189050600087888a188b16189050808288010194505050508f600c601081106112d5576112d4618320565b5b602002015183600581106112ec576112eb618320565b5b60200201518201915060c08c901c8201915067ffffffffffffffff8b169a50600060408c901b8c1790506000602782901c602283901c601c84901c1818905060008b8d168c8e178f16179050808201935050505084935085945086955081880196508897508998508a99508082019a50505060008067ffffffffffffffff871696506000604088901b881790506000602982901c601283901c600e84901c18189050600087888a188b16189050808288010194505050508f600d601081106113b7576113b6618320565b5b602002015183600581106113ce576113cd618320565b5b60200201518201915060408c901c8201915067ffffffffffffffff8b169a50600060408c901b8c1790506000602782901c602283901c601c84901c1818905060008b8d168c8e178f16179050808201935050505084935085945086955081880196508897508998508a99508082019a50505060008067ffffffffffffffff871696506000604088901b881790506000602982901c601283901c600e84901c18189050600087888a188b16189050808288010194505050508f600e6010811061149957611498618320565b5b602002015183600581106114b0576114af618320565b5b60200201518201915060808c901c8201915067ffffffffffffffff8b169a50600060408c901b8c1790506000602782901c602283901c601c84901c1818905060008b8d168c8e178f16179050808201935050505084935085945086955081880196508897508998508a99508082019a50505060008067ffffffffffffffff871696506000604088901b881790506000602982901c601283901c600e84901c18189050600087888a188b16189050808288010194505050508f600f6010811061157b5761157a618320565b5b6020020151836005811061159257611591618320565b5b6020020151820191508b8201915067ffffffffffffffff8b169a50600060408c901b8c1790506000602782901c602283901c601c84901c1818905060008b8d168c8e178f16179050808201935050505084935085945086955081880196508897508998508a99508082019a5050506004810315611f8e5760008d905060008d905060008d905060008d905060007fffffffffffffffff0000000000000000ffffffffffffffff000000000000000085169050604077ffffffffffffffff000000000000000000000000000000008416901c60806fffffffffffffffff00000000000000008516901b17810190506000608077ffffffffffffffff000000000000000000000000000000008716901c60406fffffffffffffffff00000000000000008816901b1790506000604082901b821790507fffffffffffffffff0000000000000000ffffffffffffffff0000000000000000603983901b603883901b603f84901b181816830192505050600077ffffffffffffffff0000000000000000ffffffffffffffff831690506000604082901b821790507fffffffffffffffff0000000000000000ffffffffffffffff0000000000000000603a83901b600383901b602d84901b1818168301925050507fffffffffffffffff0000000000000000ffffffffffffffff000000000000000081169050600077ffffffffffffffff0000000000000000ffffffffffffffff8616905060c083901c608067ffffffffffffffff8616901b1781019050600060c086901c608067ffffffffffffffff8916901b1790506000604082901b8217905077ffffffffffffffff0000000000000000ffffffffffffffff600783901c600883901c600184901c1818168301925050506000604083901c8317905077ffffffffffffffff0000000000000000ffffffffffffffff604684901c603d83901c601384901c181816820191505077ffffffffffffffff0000000000000000ffffffffffffffff811690508082179550505060007fffffffffffffffff0000000000000000ffffffffffffffff000000000000000084169050604077ffffffffffffffff000000000000000000000000000000008316901c60806fffffffffffffffff00000000000000008416901b17810190506000608077ffffffffffffffff000000000000000000000000000000008616901c60406fffffffffffffffff00000000000000008716901b1790506000604082901b821790507fffffffffffffffff0000000000000000ffffffffffffffff0000000000000000603983901b603883901b603f84901b181816830192505050600077ffffffffffffffff0000000000000000ffffffffffffffff861690506000604082901b821790507fffffffffffffffff0000000000000000ffffffffffffffff0000000000000000603a83901b600383901b602d84901b1818168301925050507fffffffffffffffff0000000000000000ffffffffffffffff000000000000000081169050600077ffffffffffffffff0000000000000000ffffffffffffffff8516905060c086901c608067ffffffffffffffff8516901b1781019050600060c085901c608067ffffffffffffffff8816901b1790506000604082901b8217905077ffffffffffffffff0000000000000000ffffffffffffffff600783901c600883901c600184901c1818168301925050506000604083901c8317905077ffffffffffffffff0000000000000000ffffffffffffffff604684901c603d83901c601384901c181816820191505077ffffffffffffffff0000000000000000ffffffffffffffff811690508082179450505060007fffffffffffffffff0000000000000000ffffffffffffffff000000000000000083169050604077ffffffffffffffff000000000000000000000000000000008616901c60806fffffffffffffffff00000000000000008716901b17810190506000608077ffffffffffffffff000000000000000000000000000000008516901c60406fffffffffffffffff00000000000000008616901b1790506000604082901b821790507fffffffffffffffff0000000000000000ffffffffffffffff0000000000000000603983901b603883901b603f84901b181816830192505050600077ffffffffffffffff0000000000000000ffffffffffffffff851690506000604082901b821790507fffffffffffffffff0000000000000000ffffffffffffffff0000000000000000603a83901b600383901b602d84901b1818168301925050507fffffffffffffffff0000000000000000ffffffffffffffff000000000000000081169050600077ffffffffffffffff0000000000000000ffffffffffffffff8416905060c085901c608067ffffffffffffffff8816901b1781019050600060c084901c608067ffffffffffffffff8716901b1790506000604082901b8217905077ffffffffffffffff0000000000000000ffffffffffffffff600783901c600883901c600184901c1818168301925050506000604083901c8317905077ffffffffffffffff0000000000000000ffffffffffffffff604684901c603d83901c601384901c181816820191505077ffffffffffffffff0000000000000000ffffffffffffffff811690508082179350505060007fffffffffffffffff0000000000000000ffffffffffffffff000000000000000082169050604077ffffffffffffffff000000000000000000000000000000008516901c60806fffffffffffffffff00000000000000008616901b17810190506000608077ffffffffffffffff000000000000000000000000000000008416901c60406fffffffffffffffff00000000000000008516901b1790506000604082901b821790507fffffffffffffffff0000000000000000ffffffffffffffff0000000000000000603983901b603883901b603f84901b181816830192505050600077ffffffffffffffff0000000000000000ffffffffffffffff841690506000604082901b821790507fffffffffffffffff0000000000000000ffffffffffffffff0000000000000000603a83901b600383901b602d84901b1818168301925050507fffffffffffffffff0000000000000000ffffffffffffffff000000000000000081169050600077ffffffffffffffff0000000000000000ffffffffffffffff8316905060c084901c608067ffffffffffffffff8716901b1781019050600060c087901c608067ffffffffffffffff8616901b1790506000604082901b8217905077ffffffffffffffff0000000000000000ffffffffffffffff600783901c600883901c600184901c1818168301925050506000604083901c8317905077ffffffffffffffff0000000000000000ffffffffffffffff604684901c603d83901c601384901c181816820191505077ffffffffffffffff0000000000000000ffffffffffffffff8116905080821792505050809d50819e505050809d50819e50505080806001019150506107f0565b50600060c067a54ff53a5f1d36f18701901b608067ffffffffffffffff673c6ef372fe94f82b8a0116901b604067ffffffffffffffff67bb67ae8584caa73b8c0116901b67ffffffffffffffff676a09e667f3bcc9088d0116171717905060087fff00ff00ff00ff00ff00ff00ff00ff00ff00ff00ff00ff00ff00ff00ff00ff008216901c60087eff00ff00ff00ff00ff00ff00ff00ff00ff00ff00ff00ff00ff00ff00ff00ff8316901b17905060107fffff0000ffff0000ffff0000ffff0000ffff0000ffff0000ffff0000ffff00008216901c60107dffff0000ffff0000ffff0000ffff0000ffff0000ffff0000ffff0000ffff8316901b17905060207fffffffff00000000ffffffff00000000ffffffff00000000ffffffff000000008216901c60207bffffffff00000000ffffffff00000000ffffffff00000000ffffffff8316901b179050600060c0675be0cd19137e21798401901b608067ffffffffffffffff671f83d9abfb41bd6b870116901b604067ffffffffffffffff679b05688c2b3e6c1f890116901b67ffffffffffffffff67510e527fade682d18a0116171717905060087fff00ff00ff00ff00ff00ff00ff00ff00ff00ff00ff00ff00ff00ff00ff00ff008216901c60087eff00ff00ff00ff00ff00ff00ff00ff00ff00ff00ff00ff00ff00ff00ff00ff8316901b17905060107fffff0000ffff0000ffff0000ffff0000ffff0000ffff0000ffff0000ffff00008216901c60107dffff0000ffff0000ffff0000ffff0000ffff0000ffff0000ffff0000ffff8316901b17905060207fffffffff00000000ffffffff00000000ffffffff00000000ffffffff000000008216901c60207bffffffff00000000ffffffff00000000ffffffff00000000ffffffff8316901b1790507f1000000000000000000000000000000014def9dea2f79cd65812631a5cf5d3ed806122505761224f61834f565b5b7f1000000000000000000000000000000014def9dea2f79cd65812631a5cf5d3ed8061227f5761227e61834f565b5b7f0ffffffffffffffffffffffffffffffec6ef5bf4737dcf70d6ec31748d98951d830983089f5050505050505050505050505050505060087fff00ff00ff00ff00ff00ff00ff00ff00ff00ff00ff00ff00ff00ff00ff00ff008860001c16901c60087eff00ff00ff00ff00ff00ff00ff00ff00ff00ff00ff00ff00ff00ff00ff00ff8960001c16901b1760001b965060107fffff0000ffff0000ffff0000ffff0000ffff0000ffff0000ffff0000ffff00008860001c16901c60107dffff0000ffff0000ffff0000ffff0000ffff0000ffff0000ffff0000ffff8960001c16901b1760001b965060207fffffffff00000000ffffffff00000000ffffffff00000000ffffffff000000008860001c16901c60207bffffffff00000000ffffffff00000000ffffffff00000000ffffffff8960001c16901b1760001b965060407fffffffffffffffff0000000000000000ffffffffffffffff00000000000000008860001c16901c604077ffffffffffffffff0000000000000000ffffffffffffffff8960001c16901b1760001b965060808760001c901c60808860001c901b1760001b965060007f7fffffffffffffffffffffffffffffffffffffffffffffffffffffffffffffff8860001c1690506000807f7fffffffffffffffffffffffffffffffffffffffffffffffffffffffffffffed806124805761247f61834f565b5b838409905060007f7fffffffffffffffffffffffffffffffffffffffffffffffffffffffffffffed806124b6576124b561834f565b5b7f7fffffffffffffffffffffffffffffffffffffffffffffffffffffffffffffec83089050600060017f7fffffffffffffffffffffffffffffffffffffffffffffffffffffffffffffed8061250e5761250d61834f565b5b7f52036cee2b6ffe738cc740797779e89800700a4d4141d8ab75eb4dca135978a3850901905060007f7fffffffffffffffffffffffffffffffffffffffffffffffffffffffffffffed806125655761256461834f565b5b828409905061257381614cbb565b50809550507f7fffffffffffffffffffffffffffffffffffffffffffffffffffffffffffffed806125a7576125a661834f565b5b85860994507f7fffffffffffffffffffffffffffffffffffffffffffffffffffffffffffffed806125db576125da61834f565b5b7f7fffffffffffffffffffffffffffffffffffffffffffffffffffffffffffffed8061260a5761260961834f565b5b827f7fffffffffffffffffffffffffffffffffffffffffffffffffffffffffffffed8061263a5761263961834f565b5b88890909840994507f7fffffffffffffffffffffffffffffffffffffffffffffffffffffffffffffed806126715761267061834f565b5b827f7fffffffffffffffffffffffffffffffffffffffffffffffffffffffffffffed806126a1576126a061834f565b5b87880909905082811461273c57827f7fffffffffffffffffffffffffffffffffffffffffffffffffffffffffffffed0381146126e7576000975050505050505050614cb2565b7f7fffffffffffffffffffffffffffffffffffffffffffffffffffffffffffffed806127165761271561834f565b5b7f2b8324804fc1df0b2b4d00993dfbd7a72f431806ad2fe478c4ee1b274a0ea0b0860994505b5050505060ff8960001c901c600182161461277757807f7fffffffffffffffffffffffffffffffffffffffffffffffffffffffffffffed0390505b60087fff00ff00ff00ff00ff00ff00ff00ff00ff00ff00ff00ff00ff00ff00ff00ff008860001c16901c60087eff00ff00ff00ff00ff00ff00ff00ff00ff00ff00ff00ff00ff00ff00ff00ff8960001c16901b1760001b965060107fffff0000ffff0000ffff0000ffff0000ffff0000ffff0000ffff0000ffff00008860001c16901c60107dffff0000ffff0000ffff0000ffff0000ffff0000ffff0000ffff0000ffff8960001c16901b1760001b965060207fffffffff00000000ffffffff00000000ffffffff00000000ffffffff000000008860001c16901c60207bffffffff00000000ffffffff00000000ffffffff00000000ffffffff8960001c16901b1760001b965060407fffffffffffffffff0000000000000000ffffffffffffffff00000000000000008860001c16901c604077ffffffffffffffff0000000000000000ffffffffffffffff8960001c16901b1760001b965060808760001c901c60808860001c901b1760001b96507f1000000000000000000000000000000014def9dea2f79cd65812631a5cf5d3ed8760001c1061291c5760009350505050614cb2565b60008060008061292a61815f565b600086880190506000877f7fffffffffffffffffffffffffffffffffffffffffffffffffffffffffffffed8a0103905060007f7fffffffffffffffffffffffffffffffffffffffffffffffffffffffffffffed8061298b5761298a61834f565b5b7f2406d9dc56dffce7198e80f2eef3d13000e0149a8283b156ebd69b9426b2f1597f7fffffffffffffffffffffffffffffffffffffffffffffffffffffffffffffed806129db576129da61834f565b5b8c8c0909905060008a905060008a905060006001905060006001905060007f7fffffffffffffffffffffffffffffffffffffffffffffffffffffffffffffed80612a2857612a2761834f565b5b828509905060007f7fffffffffffffffffffffffffffffffffffffffffffffffffffffffffffffed80612a5e57612a5d61834f565b5b848709905060007f7fffffffffffffffffffffffffffffffffffffffffffffffffffffffffffffed80612a9457612a9361834f565b5b848609905060007f7fffffffffffffffffffffffffffffffffffffffffffffffffffffffffffffed80612aca57612ac961834f565b5b848509905060007f7fffffffffffffffffffffffffffffffffffffffffffffffffffffffffffffed80612b0057612aff61834f565b5b848509905060007f7fffffffffffffffffffffffffffffffffffffffffffffffffffffffffffffed80612b3657612b3561834f565b5b858709905060007f7fffffffffffffffffffffffffffffffffffffffffffffffffffffffffffffed80612b6c57612b6b61834f565b5b858609905081820199507f7fffffffffffffffffffffffffffffffffffffffffffffffffffffffffffffed8484030198508284019a507f7fffffffffffffffffffffffffffffffffffffffffffffffffffffffffffffed80612bd157612bd061834f565b5b897fffffffffffffffffffffffffffffffffffffffffffffffffffffffffffffffda038283010897505050505050505060007f7fffffffffffffffffffffffffffffffffffffffffffffffffffffffffffffed80612c3257612c3161834f565b5b828509905060007f7fffffffffffffffffffffffffffffffffffffffffffffffffffffffffffffed80612c6857612c6761834f565b5b848709905060007f7fffffffffffffffffffffffffffffffffffffffffffffffffffffffffffffed80612c9e57612c9d61834f565b5b848609905060007f7fffffffffffffffffffffffffffffffffffffffffffffffffffffffffffffed80612cd457612cd361834f565b5b848509905060007f7fffffffffffffffffffffffffffffffffffffffffffffffffffffffffffffed80612d0a57612d0961834f565b5b848509905060007f7fffffffffffffffffffffffffffffffffffffffffffffffffffffffffffffed80612d4057612d3f61834f565b5b858709905060007f7fffffffffffffffffffffffffffffffffffffffffffffffffffffffffffffed80612d7657612d7561834f565b5b858609905081820199507f7fffffffffffffffffffffffffffffffffffffffffffffffffffffffffffffed8484030198508284019a507f7fffffffffffffffffffffffffffffffffffffffffffffffffffffffffffffed80612ddb57612dda61834f565b5b897fffffffffffffffffffffffffffffffffffffffffffffffffffffffffffffffda038283010897505050505050505060007f7fffffffffffffffffffffffffffffffffffffffffffffffffffffffffffffed80612e3c57612e3b61834f565b5b828509905060007f7fffffffffffffffffffffffffffffffffffffffffffffffffffffffffffffed80612e7257612e7161834f565b5b848709905060007f7fffffffffffffffffffffffffffffffffffffffffffffffffffffffffffffed80612ea857612ea761834f565b5b848609905060007f7fffffffffffffffffffffffffffffffffffffffffffffffffffffffffffffed80612ede57612edd61834f565b5b848509905060007f7fffffffffffffffffffffffffffffffffffffffffffffffffffffffffffffed80612f1457612f1361834f565b5b848509905060007f7fffffffffffffffffffffffffffffffffffffffffffffffffffffffffffffed80612f4a57612f4961834f565b5b858709905060007f7fffffffffffffffffffffffffffffffffffffffffffffffffffffffffffffed80612f8057612f7f61834f565b5b858609905081820199507f7fffffffffffffffffffffffffffffffffffffffffffffffffffffffffffffed8484030198508284019a507f7fffffffffffffffffffffffffffffffffffffffffffffffffffffffffffffed80612fe557612fe461834f565b5b897fffffffffffffffffffffffffffffffffffffffffffffffffffffffffffffffda0382830108975050505050505050600060019050600089905060005b60008060008060007f7fffffffffffffffffffffffffffffffffffffffffffffffffffffffffffffed8061305a5761305961834f565b5b898c09905060007f7fffffffffffffffffffffffffffffffffffffffffffffffffffffffffffffed806130905761308f61834f565b5b8b8e09905060007f7fffffffffffffffffffffffffffffffffffffffffffffffffffffffffffffed806130c6576130c561834f565b5b8b8d0990507f7fffffffffffffffffffffffffffffffffffffffffffffffffffffffffffffed806130fa576130f961834f565b5b8e8e09945082820196507f7fffffffffffffffffffffffffffffffffffffffffffffffffffffffffffffed8383030195508081019350505050838660016002811061314857613147618320565b5b60200201516000600381106131605761315f618320565b5b6020020151866008811061317757613176618320565b5b602002018181525050828660016002811061319557613194618320565b5b60200201516001600381106131ad576131ac618320565b5b602002015186600881106131c4576131c3618320565b5b6020020181815250507f7fffffffffffffffffffffffffffffffffffffffffffffffffffffffffffffed806131fc576131fb61834f565b5b7f2406d9dc56dffce7198e80f2eef3d13000e0149a8283b156ebd69b9426b2f15983098660016002811061323357613232618320565b5b602002015160026003811061324b5761324a618320565b5b6020020151866008811061326257613261618320565b5b60200201818152505080866000600281106132805761327f618320565b5b602002015160006003811061329857613297618320565b5b602002015186600881106132af576132ae618320565b5b60200201818152505086866000600281106132cd576132cc618320565b5b60200201516001600381106132e5576132e4618320565b5b602002015186600881106132fc576132fb618320565b5b6020020181815250507f7fffffffffffffffffffffffffffffffffffffffffffffffffffffffffffffed806133345761333361834f565b5b81880996506007850361334a57505050506134b6565b60007f7fffffffffffffffffffffffffffffffffffffffffffffffffffffffffffffed8061337b5761337a61834f565b5b8f8609905060007f7fffffffffffffffffffffffffffffffffffffffffffffffffffffffffffffed806133b1576133b061834f565b5b8f8609905060007f7fffffffffffffffffffffffffffffffffffffffffffffffffffffffffffffed806133e7576133e661834f565b5b8f860990507f7fffffffffffffffffffffffffffffffffffffffffffffffffffffffffffffed828403019c507f7fffffffffffffffffffffffffffffffffffffffffffffffffffffffffffffed806134425761344161834f565b5b8185089b508183019d507f7fffffffffffffffffffffffffffffffffffffffffffffffffffffffffffffed8061347b5761347a61834f565b5b817f7fffffffffffffffffffffffffffffffffffffffffffffffffffffffffffffed0385089a50505050505050508080600101915050613023565b5060006134c283614cbb565b80925081945050507f7fffffffffffffffffffffffffffffffffffffffffffffffffffffffffffffed806134f9576134f861834f565b5b83840992507f7fffffffffffffffffffffffffffffffffffffffffffffffffffffffffffffed8061352d5761352c61834f565b5b83840992507f7fffffffffffffffffffffffffffffffffffffffffffffffffffffffffffffed806135615761356061834f565b5b83840992507f7fffffffffffffffffffffffffffffffffffffffffffffffffffffffffffffed806135955761359461834f565b5b83840992507f7fffffffffffffffffffffffffffffffffffffffffffffffffffffffffffffed806135c9576135c861834f565b5b83840992507f7fffffffffffffffffffffffffffffffffffffffffffffffffffffffffffffed806135fd576135fc61834f565b5b81840992506000600790505b60007f7fffffffffffffffffffffffffffffffffffffffffffffffffffffffffffffed8061363a5761363961834f565b5b8460006002811061364e5761364d618320565b5b602002015160016003811061366657613665618320565b5b6020020151836008811061367d5761367c618320565b5b6020020151860990507f7fffffffffffffffffffffffffffffffffffffffffffffffffffffffffffffed806136b5576136b461834f565b5b81856001600281106136ca576136c9618320565b5b60200201516000600381106136e2576136e1618320565b5b602002015184600881106136f9576136f8618320565b5b6020020151098460016002811061371357613712618320565b5b602002015160006003811061372b5761372a618320565b5b6020020151836008811061374257613741618320565b5b6020020181815250507f7fffffffffffffffffffffffffffffffffffffffffffffffffffffffffffffed8061377a5761377961834f565b5b818560016002811061378f5761378e618320565b5b60200201516001600381106137a7576137a6618320565b5b602002015184600881106137be576137bd618320565b5b602002015109846001600281106137d8576137d7618320565b5b60200201516001600381106137f0576137ef618320565b5b6020020151836008811061380757613806618320565b5b6020020181815250507f7fffffffffffffffffffffffffffffffffffffffffffffffffffffffffffffed8061383f5761383e61834f565b5b818560016002811061385457613853618320565b5b602002015160026003811061386c5761386b618320565b5b6020020151846008811061388357613882618320565b5b6020020151098460016002811061389d5761389c618320565b5b60200201516002600381106138b5576138b4618320565b5b602002015183600881106138cc576138cb618320565b5b602002018181525050600082036138e3575061396d565b7f7fffffffffffffffffffffffffffffffffffffffffffffffffffffffffffffed806139125761391161834f565b5b8460006002811061392657613925618320565b5b602002015160006003811061393e5761393d618320565b5b6020020151836008811061395557613954618320565b5b60200201518609945050808060019003915050613609565b5060405180606001604052806040518061010001604052807f43e7ce9d19ea5d329385a44c321ea16167c996e37dc6070c97de49e37ac61db981526020017f40cff34425d8ec30a3bb74ba58cd5854fa1e38186ad0d31ebc8ae251ceb2c97e81526020017f459bd27046e8dd45aea7008db87a5a8f7906779253d64523589518599fdfbf4b81526020017f69fdd1e28c23cc3894d0c8ff90e76f6d5b6e4c2e620136d04dd83c4a51581ab981526020017f54dceb3413ce5cfa11196dfc960b6edaf4b380c6d4d2378419cc0279ba49c5f381526020017f4e24184dd71a3d77eef3729f7f8cf7c17224cf40aa7b9548b9942f3c5084ceed81526020017f5a0e5aab20262674ae1175761cbf5e889b52a55fd7ac5027c228cebdc8d2360a81526020017f26239334073e9b38c62859556d451c3dcc8d30e84b361174f488eadde2cf17d981525081526020016040518061010001604052807f227e97c94c7c0933d2e0c21a3447c504fe9ccf82e8a05f59ce881c82eba0489f81526020017f226a3e0ecc4afec6fd0d288413014a9dbddecf06c1a2f0bb702ba77c613d820981526020017f34d7efc851d45c5e71efeb0f235b794691de6228877569b3a8d52bf058b8a4a081526020017f3c1f5fb3ca7166fce1471c9b752b6d28c56301ad7b65e8451b2c8c5526726e1281526020017f6102416cf02f02ff5be75275f55f28db89b2a9d2456b860ce22fc0e5031f7cc581526020017f40adf677f1bfdae057f0fd179c12617918ddaa2891a6530fb1a4294fa866549081526020017f61936f3c415609046187b8baa978cbc9b47893363ae5a3cc7d909f3635ae7f4881526020017f562a9662b6ec47f9e979d473c02b51e4423368238c58ddb52f0e5c6a180e641081525081526020016040518061010001604052807f3788bdb44f8632d42d0dbee5eea1acc6136cf411e655624f55e48902c3bd553481526020017f6190cf2c2a7b5ad769d594a82844f23b4167fa7c8ac30e51aa6cfbebdcd4b94581526020017f65f7787096be9204123a71f3ac88a87be1513217737d6a1e2f3a13a43d7e3a9a81526020017f023af32dbfa67975536479a7a7ce74a02142147fac0480187f1f13349cda1f2d81526020017f64fc44b7fc6841bddb0ced8b8b0fe6759137ef87ee96651215fc1dbcd25c64dc81526020017f1434aa3748b701d5b69df3d7d340c1fe3f6b9c1efc617484caadb47e382f447581526020017f457a6da8c962ef35f2b217423e5844e9d23534527e8ea4290d24e3ddf21720c681526020017f63b9540ceb60ccb51e4d989d956e053cf2511837efb79089d2ff40284202c53d81525081525082600060028110613d4857613d47618320565b5b602002018190525050505050505050505050600060038d60001c901b905060007f80000000000000000000000000000000a6f7cef517bce6b2c09318d2e7ae9f608a01905060008060019050600060019050600060019050600060fc90505b6000816008901b90506000818916146140b55760008060008060007f7fffffffffffffffffffffffffffffffffffffffffffffffffffffffffffffed80613df157613df061834f565b5b888c09905060007f7fffffffffffffffffffffffffffffffffffffffffffffffffffffffffffffed80613e2757613e2661834f565b5b8b8b09905081810195507f7fffffffffffffffffffffffffffffffffffffffffffffffffffffffffffffed8282030194507f7fffffffffffffffffffffffffffffffffffffffffffffffffffffffffffffed80613e8757613e8661834f565b5b898c0993507f7fffffffffffffffffffffffffffffffffffffffffffffffffffffffffffffed80613ebb57613eba61834f565b5b8a8d099250505060006007878e901c169050866007901b198d169c5060008e905060007f7fffffffffffffffffffffffffffffffffffffffffffffffffffffffffffffed80613f0d57613f0c61834f565b5b82600060028110613f2157613f20618320565b5b6020020151600160038110613f3957613f38618320565b5b60200201518460088110613f5057613f4f618320565b5b60200201518709905060007f7fffffffffffffffffffffffffffffffffffffffffffffffffffffffffffffed80613f8a57613f8961834f565b5b83600060028110613f9e57613f9d618320565b5b6020020151600060038110613fb657613fb5618320565b5b60200201518560088110613fcd57613fcc618320565b5b60200201518909905060007f7fffffffffffffffffffffffffffffffffffffffffffffffffffffffffffffed806140075761400661834f565b5b8460006002811061401b5761401a618320565b5b602002015160026003811061403357614032618320565b5b6020020151866008811061404a57614049618320565b5b6020020151870990507f7fffffffffffffffffffffffffffffffffffffffffffffffffffffffffffffed838303019e508087019d508282019c507f7fffffffffffffffffffffffffffffffffffffffffffffffffffffffffffffed818803019b505050505050505050505b6000818816146143ba5760008060008060007f7fffffffffffffffffffffffffffffffffffffffffffffffffffffffffffffed806140f6576140f561834f565b5b888c09905060007f7fffffffffffffffffffffffffffffffffffffffffffffffffffffffffffffed8061412c5761412b61834f565b5b8b8b09905081810195507f7fffffffffffffffffffffffffffffffffffffffffffffffffffffffffffffed8282030194507f7fffffffffffffffffffffffffffffffffffffffffffffffffffffffffffffed8061418c5761418b61834f565b5b898c0993507f7fffffffffffffffffffffffffffffffffffffffffffffffffffffffffffffed806141c0576141bf61834f565b5b8a8d099250505060006007878d901c169050866007901b198c169b5060008e905060007f7fffffffffffffffffffffffffffffffffffffffffffffffffffffffffffffed806142125761421161834f565b5b8260016002811061422657614225618320565b5b602002015160006003811061423e5761423d618320565b5b6020020151846008811061425557614254618320565b5b60200201518709905060007f7fffffffffffffffffffffffffffffffffffffffffffffffffffffffffffffed8061428f5761428e61834f565b5b836001600281106142a3576142a2618320565b5b60200201516001600381106142bb576142ba618320565b5b602002015185600881106142d2576142d1618320565b5b60200201518909905060007f7fffffffffffffffffffffffffffffffffffffffffffffffffffffffffffffed8061430c5761430b61834f565b5b846001600281106143205761431f618320565b5b602002015160026003811061433857614337618320565b5b6020020151866008811061434f5761434e618320565b5b6020020151870990507f7fffffffffffffffffffffffffffffffffffffffffffffffffffffffffffffed838303019e507f7fffffffffffffffffffffffffffffffffffffffffffffffffffffffffffffed818803019d508282019c508087019b505050505050505050505b600082036146b55760008060008060007f7fffffffffffffffffffffffffffffffffffffffffffffffffffffffffffffed806143f9576143f861834f565b5b888c09905060007f7fffffffffffffffffffffffffffffffffffffffffffffffffffffffffffffed8061442f5761442e61834f565b5b8b8b09905081810195507f7fffffffffffffffffffffffffffffffffffffffffffffffffffffffffffffed8282030194507f7fffffffffffffffffffffffffffffffffffffffffffffffffffffffffffffed8061448f5761448e61834f565b5b898c0993507f7fffffffffffffffffffffffffffffffffffffffffffffffffffffffffffffed806144c3576144c261834f565b5b8a8d0992505050600060078c16905060008e905060007f7fffffffffffffffffffffffffffffffffffffffffffffffffffffffffffffed806145085761450761834f565b5b8260016002811061451c5761451b618320565b5b602002015160006003811061453457614533618320565b5b6020020151846008811061454b5761454a618320565b5b60200201518709905060007f7fffffffffffffffffffffffffffffffffffffffffffffffffffffffffffffed806145855761458461834f565b5b8360016002811061459957614598618320565b5b60200201516001600381106145b1576145b0618320565b5b602002015185600881106145c8576145c7618320565b5b60200201518909905060007f7fffffffffffffffffffffffffffffffffffffffffffffffffffffffffffffed806146025761460161834f565b5b8460016002811061461657614615618320565b5b602002015160026003811061462e5761462d618320565b5b6020020151866008811061464557614644618320565b5b6020020151870990507f7fffffffffffffffffffffffffffffffffffffffffffffffffffffffffffffed838303019e507f7fffffffffffffffffffffffffffffffffffffffffffffffffffffffffffffed818803019d508282019c508087019b50505050505050505050506148ce565b60007f7fffffffffffffffffffffffffffffffffffffffffffffffffffffffffffffed806146e6576146e561834f565b5b848809905060007f7fffffffffffffffffffffffffffffffffffffffffffffffffffffffffffffed8061471c5761471b61834f565b5b878709905060007f7fffffffffffffffffffffffffffffffffffffffffffffffffffffffffffffed806147525761475161834f565b5b868909905060007f7fffffffffffffffffffffffffffffffffffffffffffffffffffffffffffffed806147885761478761834f565b5b848509905060007f7fffffffffffffffffffffffffffffffffffffffffffffffffffffffffffffed806147be576147bd61834f565b5b848509905060007f7fffffffffffffffffffffffffffffffffffffffffffffffffffffffffffffed806147f4576147f361834f565b5b858709905060007f7fffffffffffffffffffffffffffffffffffffffffffffffffffffffffffffed8061482a5761482961834f565b5b85860990508182019c507f7fffffffffffffffffffffffffffffffffffffffffffffffffffffffffffffed848403019b508284019a507f7fffffffffffffffffffffffffffffffffffffffffffffffffffffffffffffed8061488f5761488e61834f565b5b8c7fffffffffffffffffffffffffffffffffffffffffffffffffffffffffffffffda038283010899505050505050505050808060019003915050613da7565b50839a5082995081985080975050505050505060008061491e7f7fffffffffffffffffffffffffffffffffffffffffffffffffffffffffffffed806149165761491561834f565b5b858809614cbb565b915091507f7fffffffffffffffffffffffffffffffffffffffffffffffffffffffffffffed806149515761495061834f565b5b82830991507f7fffffffffffffffffffffffffffffffffffffffffffffffffffffffffffffed806149855761498461834f565b5b82830991507f7fffffffffffffffffffffffffffffffffffffffffffffffffffffffffffffed806149b9576149b861834f565b5b82830991507f7fffffffffffffffffffffffffffffffffffffffffffffffffffffffffffffed806149ed576149ec61834f565b5b82830991507f7fffffffffffffffffffffffffffffffffffffffffffffffffffffffffffffed80614a2157614a2061834f565b5b82830991507f7fffffffffffffffffffffffffffffffffffffffffffffffffffffffffffffed80614a5557614a5461834f565b5b81830991507f7fffffffffffffffffffffffffffffffffffffffffffffffffffffffffffffed80614a8957614a8861834f565b5b7f7fffffffffffffffffffffffffffffffffffffffffffffffffffffffffffffed80614ab857614ab761834f565b5b858409880996507f7fffffffffffffffffffffffffffffffffffffffffffffffffffffffffffffed80614aee57614aed61834f565b5b7f7fffffffffffffffffffffffffffffffffffffffffffffffffffffffffffffed80614b1d57614b1c61834f565b5b87840986099450600060ff88901b861760001b905060087fff00ff00ff00ff00ff00ff00ff00ff00ff00ff00ff00ff00ff00ff00ff00ff008260001c16901c60087eff00ff00ff00ff00ff00ff00ff00ff00ff00ff00ff00ff00ff00ff00ff00ff8360001c16901b1760001b905060107fffff0000ffff0000ffff0000ffff0000ffff0000ffff0000ffff0000ffff00008260001c16901c60107dffff0000ffff0000ffff0000ffff0000ffff0000ffff0000ffff0000ffff8360001c16901b1760001b905060207fffffffff00000000ffffffff00000000ffffffff00000000ffffffff000000008260001c16901c60207bffffffff00000000ffffffff00000000ffffffff00000000ffffffff8360001c16901b1760001b905060407fffffffffffffffff0000000000000000ffffffffffffffff00000000000000008260001c16901c604077ffffffffffffffff0000000000000000ffffffffffffffff8360001c16901b1760001b905060808160001c901c60808260001c901b1760001b90508f81149b5050505050505050505050505b95945050505050565b6000807f7fffffffffffffffffffffffffffffffffffffffffffffffffffffffffffffed80614ced57614cec61834f565b5b83840990507f7fffffffffffffffffffffffffffffffffffffffffffffffffffffffffffffed80614d2157614d2061834f565b5b81820991507f7fffffffffffffffffffffffffffffffffffffffffffffffffffffffffffffed80614d5557614d5461834f565b5b837f7fffffffffffffffffffffffffffffffffffffffffffffffffffffffffffffed80614d8557614d8461834f565b5b8485090991507f7fffffffffffffffffffffffffffffffffffffffffffffffffffffffffffffed80614dba57614db961834f565b5b81830990507f7fffffffffffffffffffffffffffffffffffffffffffffffffffffffffffffed80614dee57614ded61834f565b5b827f7fffffffffffffffffffffffffffffffffffffffffffffffffffffffffffffed80614e1e57614e1d61834f565b5b83840909915060007f7fffffffffffffffffffffffffffffffffffffffffffffffffffffffffffffed80614e5557614e5461834f565b5b83840990507f7fffffffffffffffffffffffffffffffffffffffffffffffffffffffffffffed80614e8957614e8861834f565b5b81820990507f7fffffffffffffffffffffffffffffffffffffffffffffffffffffffffffffed80614ebd57614ebc61834f565b5b81820990507f7fffffffffffffffffffffffffffffffffffffffffffffffffffffffffffffed80614ef157614ef061834f565b5b81820990507f7fffffffffffffffffffffffffffffffffffffffffffffffffffffffffffffed80614f2557614f2461834f565b5b81820990507f7fffffffffffffffffffffffffffffffffffffffffffffffffffffffffffffed80614f5957614f5861834f565b5b81840992507f7fffffffffffffffffffffffffffffffffffffffffffffffffffffffffffffed80614f8d57614f8c61834f565b5b83840990507f7fffffffffffffffffffffffffffffffffffffffffffffffffffffffffffffed80614fc157614fc061834f565b5b81820990507f7fffffffffffffffffffffffffffffffffffffffffffffffffffffffffffffed80614ff557614ff461834f565b5b81820990507f7fffffffffffffffffffffffffffffffffffffffffffffffffffffffffffffed806150295761502861834f565b5b81820990507f7fffffffffffffffffffffffffffffffffffffffffffffffffffffffffffffed8061505d5761505c61834f565b5b81820990507f7fffffffffffffffffffffffffffffffffffffffffffffffffffffffffffffed806150915761509061834f565b5b81820990507f7fffffffffffffffffffffffffffffffffffffffffffffffffffffffffffffed806150c5576150c461834f565b5b81820990507f7fffffffffffffffffffffffffffffffffffffffffffffffffffffffffffffed806150f9576150f861834f565b5b81820990507f7fffffffffffffffffffffffffffffffffffffffffffffffffffffffffffffed8061512d5761512c61834f565b5b81820990507f7fffffffffffffffffffffffffffffffffffffffffffffffffffffffffffffed806151615761516061834f565b5b81820990507f7fffffffffffffffffffffffffffffffffffffffffffffffffffffffffffffed806151955761519461834f565b5b818409905060007f7fffffffffffffffffffffffffffffffffffffffffffffffffffffffffffffed806151cb576151ca61834f565b5b82830990507f7fffffffffffffffffffffffffffffffffffffffffffffffffffffffffffffed806151ff576151fe61834f565b5b81820990507f7fffffffffffffffffffffffffffffffffffffffffffffffffffffffffffffed806152335761523261834f565b5b81820990507f7fffffffffffffffffffffffffffffffffffffffffffffffffffffffffffffed806152675761526661834f565b5b81820990507f7fffffffffffffffffffffffffffffffffffffffffffffffffffffffffffffed8061529b5761529a61834f565b5b81820990507f7fffffffffffffffffffffffffffffffffffffffffffffffffffffffffffffed806152cf576152ce61834f565b5b81820990507f7fffffffffffffffffffffffffffffffffffffffffffffffffffffffffffffed806153035761530261834f565b5b81820990507f7fffffffffffffffffffffffffffffffffffffffffffffffffffffffffffffed806153375761533661834f565b5b81820990507f7fffffffffffffffffffffffffffffffffffffffffffffffffffffffffffffed8061536b5761536a61834f565b5b81820990507f7fffffffffffffffffffffffffffffffffffffffffffffffffffffffffffffed8061539f5761539e61834f565b5b81820990507f7fffffffffffffffffffffffffffffffffffffffffffffffffffffffffffffed806153d3576153d261834f565b5b81820990507f7fffffffffffffffffffffffffffffffffffffffffffffffffffffffffffffed806154075761540661834f565b5b81820990507f7fffffffffffffffffffffffffffffffffffffffffffffffffffffffffffffed8061543b5761543a61834f565b5b81820990507f7fffffffffffffffffffffffffffffffffffffffffffffffffffffffffffffed8061546f5761546e61834f565b5b81820990507f7fffffffffffffffffffffffffffffffffffffffffffffffffffffffffffffed806154a3576154a261834f565b5b81820990507f7fffffffffffffffffffffffffffffffffffffffffffffffffffffffffffffed806154d7576154d661834f565b5b81820990507f7fffffffffffffffffffffffffffffffffffffffffffffffffffffffffffffed8061550b5761550a61834f565b5b81820990507f7fffffffffffffffffffffffffffffffffffffffffffffffffffffffffffffed8061553f5761553e61834f565b5b81820990507f7fffffffffffffffffffffffffffffffffffffffffffffffffffffffffffffed806155735761557261834f565b5b81820990507f7fffffffffffffffffffffffffffffffffffffffffffffffffffffffffffffed806155a7576155a661834f565b5b81820990507f7fffffffffffffffffffffffffffffffffffffffffffffffffffffffffffffed806155db576155da61834f565b5b81830991507f7fffffffffffffffffffffffffffffffffffffffffffffffffffffffffffffed8061560f5761560e61834f565b5b82830991507f7fffffffffffffffffffffffffffffffffffffffffffffffffffffffffffffed806156435761564261834f565b5b82830991507f7fffffffffffffffffffffffffffffffffffffffffffffffffffffffffffffed806156775761567661834f565b5b82830991507f7fffffffffffffffffffffffffffffffffffffffffffffffffffffffffffffed806156ab576156aa61834f565b5b82830991507f7fffffffffffffffffffffffffffffffffffffffffffffffffffffffffffffed806156df576156de61834f565b5b82830991507f7fffffffffffffffffffffffffffffffffffffffffffffffffffffffffffffed806157135761571261834f565b5b82830991507f7fffffffffffffffffffffffffffffffffffffffffffffffffffffffffffffed806157475761574661834f565b5b82830991507f7fffffffffffffffffffffffffffffffffffffffffffffffffffffffffffffed8061577b5761577a61834f565b5b82830991507f7fffffffffffffffffffffffffffffffffffffffffffffffffffffffffffffed806157af576157ae61834f565b5b82830991507f7fffffffffffffffffffffffffffffffffffffffffffffffffffffffffffffed806157e3576157e261834f565b5b82830991507f7fffffffffffffffffffffffffffffffffffffffffffffffffffffffffffffed806158175761581661834f565b5b82850993507f7fffffffffffffffffffffffffffffffffffffffffffffffffffffffffffffed8061584b5761584a61834f565b5b84850991507f7fffffffffffffffffffffffffffffffffffffffffffffffffffffffffffffed8061587f5761587e61834f565b5b82830991507f7fffffffffffffffffffffffffffffffffffffffffffffffffffffffffffffed806158b3576158b261834f565b5b82830991507f7fffffffffffffffffffffffffffffffffffffffffffffffffffffffffffffed806158e7576158e661834f565b5b82830991507f7fffffffffffffffffffffffffffffffffffffffffffffffffffffffffffffed8061591b5761591a61834f565b5b82830991507f7fffffffffffffffffffffffffffffffffffffffffffffffffffffffffffffed8061594f5761594e61834f565b5b82830991507f7fffffffffffffffffffffffffffffffffffffffffffffffffffffffffffffed806159835761598261834f565b5b82830991507f7fffffffffffffffffffffffffffffffffffffffffffffffffffffffffffffed806159b7576159b661834f565b5b82830991507f7fffffffffffffffffffffffffffffffffffffffffffffffffffffffffffffed806159eb576159ea61834f565b5b82830991507f7fffffffffffffffffffffffffffffffffffffffffffffffffffffffffffffed80615a1f57615a1e61834f565b5b82830991507f7fffffffffffffffffffffffffffffffffffffffffffffffffffffffffffffed80615a5357615a5261834f565b5b82830991507f7fffffffffffffffffffffffffffffffffffffffffffffffffffffffffffffed80615a8757615a8661834f565b5b82830991507f7fffffffffffffffffffffffffffffffffffffffffffffffffffffffffffffed80615abb57615aba61834f565b5b82830991507f7fffffffffffffffffffffffffffffffffffffffffffffffffffffffffffffed80615aef57615aee61834f565b5b82830991507f7fffffffffffffffffffffffffffffffffffffffffffffffffffffffffffffed80615b2357615b2261834f565b5b82830991507f7fffffffffffffffffffffffffffffffffffffffffffffffffffffffffffffed80615b5757615b5661834f565b5b82830991507f7fffffffffffffffffffffffffffffffffffffffffffffffffffffffffffffed80615b8b57615b8a61834f565b5b82830991507f7fffffffffffffffffffffffffffffffffffffffffffffffffffffffffffffed80615bbf57615bbe61834f565b5b82830991507f7fffffffffffffffffffffffffffffffffffffffffffffffffffffffffffffed80615bf357615bf261834f565b5b82830991507f7fffffffffffffffffffffffffffffffffffffffffffffffffffffffffffffed80615c2757615c2661834f565b5b82830991507f7fffffffffffffffffffffffffffffffffffffffffffffffffffffffffffffed80615c5b57615c5a61834f565b5b82830991507f7fffffffffffffffffffffffffffffffffffffffffffffffffffffffffffffed80615c8f57615c8e61834f565b5b82830991507f7fffffffffffffffffffffffffffffffffffffffffffffffffffffffffffffed80615cc357615cc261834f565b5b82830991507f7fffffffffffffffffffffffffffffffffffffffffffffffffffffffffffffed80615cf757615cf661834f565b5b82830991507f7fffffffffffffffffffffffffffffffffffffffffffffffffffffffffffffed80615d2b57615d2a61834f565b5b82830991507f7fffffffffffffffffffffffffffffffffffffffffffffffffffffffffffffed80615d5f57615d5e61834f565b5b82830991507f7fffffffffffffffffffffffffffffffffffffffffffffffffffffffffffffed80615d9357615d9261834f565b5b82830991507f7fffffffffffffffffffffffffffffffffffffffffffffffffffffffffffffed80615dc757615dc661834f565b5b82830991507f7fffffffffffffffffffffffffffffffffffffffffffffffffffffffffffffed80615dfb57615dfa61834f565b5b82830991507f7fffffffffffffffffffffffffffffffffffffffffffffffffffffffffffffed80615e2f57615e2e61834f565b5b82830991507f7fffffffffffffffffffffffffffffffffffffffffffffffffffffffffffffed80615e6357615e6261834f565b5b82830991507f7fffffffffffffffffffffffffffffffffffffffffffffffffffffffffffffed80615e9757615e9661834f565b5b82830991507f7fffffffffffffffffffffffffffffffffffffffffffffffffffffffffffffed80615ecb57615eca61834f565b5b82830991507f7fffffffffffffffffffffffffffffffffffffffffffffffffffffffffffffed80615eff57615efe61834f565b5b82830991507f7fffffffffffffffffffffffffffffffffffffffffffffffffffffffffffffed80615f3357615f3261834f565b5b82830991507f7fffffffffffffffffffffffffffffffffffffffffffffffffffffffffffffed80615f6757615f6661834f565b5b82830991507f7fffffffffffffffffffffffffffffffffffffffffffffffffffffffffffffed80615f9b57615f9a61834f565b5b82830991507f7fffffffffffffffffffffffffffffffffffffffffffffffffffffffffffffed80615fcf57615fce61834f565b5b82830991507f7fffffffffffffffffffffffffffffffffffffffffffffffffffffffffffffed806160035761600261834f565b5b82830991507f7fffffffffffffffffffffffffffffffffffffffffffffffffffffffffffffed806160375761603661834f565b5b82830991507f7fffffffffffffffffffffffffffffffffffffffffffffffffffffffffffffed8061606b5761606a61834f565b5b82830991507f7fffffffffffffffffffffffffffffffffffffffffffffffffffffffffffffed8061609f5761609e61834f565b5b82830991507f7fffffffffffffffffffffffffffffffffffffffffffffffffffffffffffffed806160d3576160d261834f565b5b82830991507f7fffffffffffffffffffffffffffffffffffffffffffffffffffffffffffffed806161075761610661834f565b5b82830991507f7fffffffffffffffffffffffffffffffffffffffffffffffffffffffffffffed8061613b5761613a61834f565b5b82830991507f7fffffffffffffffffffffffffffffffffffffffffffffffffffffffffffffed8061616f5761616e61834f565b5b82830991507f7fffffffffffffffffffffffffffffffffffffffffffffffffffffffffffffed806161a3576161a261834f565b5b82830991507f7fffffffffffffffffffffffffffffffffffffffffffffffffffffffffffffed806161d7576161d661834f565b5b82830991507f7fffffffffffffffffffffffffffffffffffffffffffffffffffffffffffffed8061620b5761620a61834f565b5b82830991507f7fffffffffffffffffffffffffffffffffffffffffffffffffffffffffffffed8061623f5761623e61834f565b5b82830991507f7fffffffffffffffffffffffffffffffffffffffffffffffffffffffffffffed806162735761627261834f565b5b82850991507f7fffffffffffffffffffffffffffffffffffffffffffffffffffffffffffffed806162a7576162a661834f565b5b82830990507f7fffffffffffffffffffffffffffffffffffffffffffffffffffffffffffffed806162db576162da61834f565b5b81820990507f7fffffffffffffffffffffffffffffffffffffffffffffffffffffffffffffed8061630f5761630e61834f565b5b81820990507f7fffffffffffffffffffffffffffffffffffffffffffffffffffffffffffffed806163435761634261834f565b5b81820990507f7fffffffffffffffffffffffffffffffffffffffffffffffffffffffffffffed806163775761637661834f565b5b81820990507f7fffffffffffffffffffffffffffffffffffffffffffffffffffffffffffffed806163ab576163aa61834f565b5b81820990507f7fffffffffffffffffffffffffffffffffffffffffffffffffffffffffffffed806163df576163de61834f565b5b81820990507f7fffffffffffffffffffffffffffffffffffffffffffffffffffffffffffffed806164135761641261834f565b5b81820990507f7fffffffffffffffffffffffffffffffffffffffffffffffffffffffffffffed806164475761644661834f565b5b81820990507f7fffffffffffffffffffffffffffffffffffffffffffffffffffffffffffffed8061647b5761647a61834f565b5b81820990507f7fffffffffffffffffffffffffffffffffffffffffffffffffffffffffffffed806164af576164ae61834f565b5b81820990507f7fffffffffffffffffffffffffffffffffffffffffffffffffffffffffffffed806164e3576164e261834f565b5b81820990507f7fffffffffffffffffffffffffffffffffffffffffffffffffffffffffffffed806165175761651661834f565b5b81820990507f7fffffffffffffffffffffffffffffffffffffffffffffffffffffffffffffed8061654b5761654a61834f565b5b81820990507f7fffffffffffffffffffffffffffffffffffffffffffffffffffffffffffffed8061657f5761657e61834f565b5b81820990507f7fffffffffffffffffffffffffffffffffffffffffffffffffffffffffffffed806165b3576165b261834f565b5b81820990507f7fffffffffffffffffffffffffffffffffffffffffffffffffffffffffffffed806165e7576165e661834f565b5b81820990507f7fffffffffffffffffffffffffffffffffffffffffffffffffffffffffffffed8061661b5761661a61834f565b5b81820990507f7fffffffffffffffffffffffffffffffffffffffffffffffffffffffffffffed8061664f5761664e61834f565b5b81820990507f7fffffffffffffffffffffffffffffffffffffffffffffffffffffffffffffed806166835761668261834f565b5b81820990507f7fffffffffffffffffffffffffffffffffffffffffffffffffffffffffffffed806166b7576166b661834f565b5b81820990507f7fffffffffffffffffffffffffffffffffffffffffffffffffffffffffffffed806166eb576166ea61834f565b5b81820990507f7fffffffffffffffffffffffffffffffffffffffffffffffffffffffffffffed8061671f5761671e61834f565b5b81820990507f7fffffffffffffffffffffffffffffffffffffffffffffffffffffffffffffed806167535761675261834f565b5b81820990507f7fffffffffffffffffffffffffffffffffffffffffffffffffffffffffffffed806167875761678661834f565b5b81820990507f7fffffffffffffffffffffffffffffffffffffffffffffffffffffffffffffed806167bb576167ba61834f565b5b81820990507f7fffffffffffffffffffffffffffffffffffffffffffffffffffffffffffffed806167ef576167ee61834f565b5b81820990507f7fffffffffffffffffffffffffffffffffffffffffffffffffffffffffffffed806168235761682261834f565b5b81820990507f7fffffffffffffffffffffffffffffffffffffffffffffffffffffffffffffed806168575761685661834f565b5b81820990507f7fffffffffffffffffffffffffffffffffffffffffffffffffffffffffffffed8061688b5761688a61834f565b5b81820990507f7fffffffffffffffffffffffffffffffffffffffffffffffffffffffffffffed806168bf576168be61834f565b5b81820990507f7fffffffffffffffffffffffffffffffffffffffffffffffffffffffffffffed806168f3576168f261834f565b5b81820990507f7fffffffffffffffffffffffffffffffffffffffffffffffffffffffffffffed806169275761692661834f565b5b81820990507f7fffffffffffffffffffffffffffffffffffffffffffffffffffffffffffffed8061695b5761695a61834f565b5b81820990507f7fffffffffffffffffffffffffffffffffffffffffffffffffffffffffffffed8061698f5761698e61834f565b5b81820990507f7fffffffffffffffffffffffffffffffffffffffffffffffffffffffffffffed806169c3576169c261834f565b5b81820990507f7fffffffffffffffffffffffffffffffffffffffffffffffffffffffffffffed806169f7576169f661834f565b5b81820990507f7fffffffffffffffffffffffffffffffffffffffffffffffffffffffffffffed80616a2b57616a2a61834f565b5b81820990507f7fffffffffffffffffffffffffffffffffffffffffffffffffffffffffffffed80616a5f57616a5e61834f565b5b81820990507f7fffffffffffffffffffffffffffffffffffffffffffffffffffffffffffffed80616a9357616a9261834f565b5b81820990507f7fffffffffffffffffffffffffffffffffffffffffffffffffffffffffffffed80616ac757616ac661834f565b5b81820990507f7fffffffffffffffffffffffffffffffffffffffffffffffffffffffffffffed80616afb57616afa61834f565b5b81820990507f7fffffffffffffffffffffffffffffffffffffffffffffffffffffffffffffed80616b2f57616b2e61834f565b5b81820990507f7fffffffffffffffffffffffffffffffffffffffffffffffffffffffffffffed80616b6357616b6261834f565b5b81820990507f7fffffffffffffffffffffffffffffffffffffffffffffffffffffffffffffed80616b9757616b9661834f565b5b81820990507f7fffffffffffffffffffffffffffffffffffffffffffffffffffffffffffffed80616bcb57616bca61834f565b5b81820990507f7fffffffffffffffffffffffffffffffffffffffffffffffffffffffffffffed80616bff57616bfe61834f565b5b81820990507f7fffffffffffffffffffffffffffffffffffffffffffffffffffffffffffffed80616c3357616c3261834f565b5b81820990507f7fffffffffffffffffffffffffffffffffffffffffffffffffffffffffffffed80616c6757616c6661834f565b5b81820990507f7fffffffffffffffffffffffffffffffffffffffffffffffffffffffffffffed80616c9b57616c9a61834f565b5b81820990507f7fffffffffffffffffffffffffffffffffffffffffffffffffffffffffffffed80616ccf57616cce61834f565b5b81820990507f7fffffffffffffffffffffffffffffffffffffffffffffffffffffffffffffed80616d0357616d0261834f565b5b81820990507f7fffffffffffffffffffffffffffffffffffffffffffffffffffffffffffffed80616d3757616d3661834f565b5b81820990507f7fffffffffffffffffffffffffffffffffffffffffffffffffffffffffffffed80616d6b57616d6a61834f565b5b81820990507f7fffffffffffffffffffffffffffffffffffffffffffffffffffffffffffffed80616d9f57616d9e61834f565b5b81820990507f7fffffffffffffffffffffffffffffffffffffffffffffffffffffffffffffed80616dd357616dd261834f565b5b81820990507f7fffffffffffffffffffffffffffffffffffffffffffffffffffffffffffffed80616e0757616e0661834f565b5b81820990507f7fffffffffffffffffffffffffffffffffffffffffffffffffffffffffffffed80616e3b57616e3a61834f565b5b81820990507f7fffffffffffffffffffffffffffffffffffffffffffffffffffffffffffffed80616e6f57616e6e61834f565b5b81820990507f7fffffffffffffffffffffffffffffffffffffffffffffffffffffffffffffed80616ea357616ea261834f565b5b81820990507f7fffffffffffffffffffffffffffffffffffffffffffffffffffffffffffffed80616ed757616ed661834f565b5b81820990507f7fffffffffffffffffffffffffffffffffffffffffffffffffffffffffffffed80616f0b57616f0a61834f565b5b81820990507f7fffffffffffffffffffffffffffffffffffffffffffffffffffffffffffffed80616f3f57616f3e61834f565b5b81820990507f7fffffffffffffffffffffffffffffffffffffffffffffffffffffffffffffed80616f7357616f7261834f565b5b81820990507f7fffffffffffffffffffffffffffffffffffffffffffffffffffffffffffffed80616fa757616fa661834f565b5b81820990507f7fffffffffffffffffffffffffffffffffffffffffffffffffffffffffffffed80616fdb57616fda61834f565b5b81820990507f7fffffffffffffffffffffffffffffffffffffffffffffffffffffffffffffed8061700f5761700e61834f565b5b81820990507f7fffffffffffffffffffffffffffffffffffffffffffffffffffffffffffffed806170435761704261834f565b5b81820990507f7fffffffffffffffffffffffffffffffffffffffffffffffffffffffffffffed806170775761707661834f565b5b81820990507f7fffffffffffffffffffffffffffffffffffffffffffffffffffffffffffffed806170ab576170aa61834f565b5b81820990507f7fffffffffffffffffffffffffffffffffffffffffffffffffffffffffffffed806170df576170de61834f565b5b81820990507f7fffffffffffffffffffffffffffffffffffffffffffffffffffffffffffffed806171135761711261834f565b5b81820990507f7fffffffffffffffffffffffffffffffffffffffffffffffffffffffffffffed806171475761714661834f565b5b81820990507f7fffffffffffffffffffffffffffffffffffffffffffffffffffffffffffffed8061717b5761717a61834f565b5b81820990507f7fffffffffffffffffffffffffffffffffffffffffffffffffffffffffffffed806171af576171ae61834f565b5b81820990507f7fffffffffffffffffffffffffffffffffffffffffffffffffffffffffffffed806171e3576171e261834f565b5b81820990507f7fffffffffffffffffffffffffffffffffffffffffffffffffffffffffffffed806172175761721661834f565b5b81820990507f7fffffffffffffffffffffffffffffffffffffffffffffffffffffffffffffed8061724b5761724a61834f565b5b81820990507f7fffffffffffffffffffffffffffffffffffffffffffffffffffffffffffffed8061727f5761727e61834f565b5b81820990507f7fffffffffffffffffffffffffffffffffffffffffffffffffffffffffffffed806172b3576172b261834f565b5b81820990507f7fffffffffffffffffffffffffffffffffffffffffffffffffffffffffffffed806172e7576172e661834f565b5b81820990507f7fffffffffffffffffffffffffffffffffffffffffffffffffffffffffffffed8061731b5761731a61834f565b5b81820990507f7fffffffffffffffffffffffffffffffffffffffffffffffffffffffffffffed8061734f5761734e61834f565b5b81820990507f7fffffffffffffffffffffffffffffffffffffffffffffffffffffffffffffed806173835761738261834f565b5b81820990507f7fffffffffffffffffffffffffffffffffffffffffffffffffffffffffffffed806173b7576173b661834f565b5b81820990507f7fffffffffffffffffffffffffffffffffffffffffffffffffffffffffffffed806173eb576173ea61834f565b5b81820990507f7fffffffffffffffffffffffffffffffffffffffffffffffffffffffffffffed8061741f5761741e61834f565b5b81820990507f7fffffffffffffffffffffffffffffffffffffffffffffffffffffffffffffed806174535761745261834f565b5b81820990507f7fffffffffffffffffffffffffffffffffffffffffffffffffffffffffffffed806174875761748661834f565b5b81820990507f7fffffffffffffffffffffffffffffffffffffffffffffffffffffffffffffed806174bb576174ba61834f565b5b81820990507f7fffffffffffffffffffffffffffffffffffffffffffffffffffffffffffffed806174ef576174ee61834f565b5b81820990507f7fffffffffffffffffffffffffffffffffffffffffffffffffffffffffffffed806175235761752261834f565b5b81820990507f7fffffffffffffffffffffffffffffffffffffffffffffffffffffffffffffed806175575761755661834f565b5b81820990507f7fffffffffffffffffffffffffffffffffffffffffffffffffffffffffffffed8061758b5761758a61834f565b5b81820990507f7fffffffffffffffffffffffffffffffffffffffffffffffffffffffffffffed806175bf576175be61834f565b5b81820990507f7fffffffffffffffffffffffffffffffffffffffffffffffffffffffffffffed806175f3576175f261834f565b5b81820990507f7fffffffffffffffffffffffffffffffffffffffffffffffffffffffffffffed806176275761762661834f565b5b81820990507f7fffffffffffffffffffffffffffffffffffffffffffffffffffffffffffffed8061765b5761765a61834f565b5b81820990507f7fffffffffffffffffffffffffffffffffffffffffffffffffffffffffffffed8061768f5761768e61834f565b5b81820990507f7fffffffffffffffffffffffffffffffffffffffffffffffffffffffffffffed806176c3576176c261834f565b5b81820990507f7fffffffffffffffffffffffffffffffffffffffffffffffffffffffffffffed806176f7576176f661834f565b5b81830991507f7fffffffffffffffffffffffffffffffffffffffffffffffffffffffffffffed8061772b5761772a61834f565b5b82830991507f7fffffffffffffffffffffffffffffffffffffffffffffffffffffffffffffed8061775f5761775e61834f565b5b82830991507f7fffffffffffffffffffffffffffffffffffffffffffffffffffffffffffffed806177935761779261834f565b5b82830991507f7fffffffffffffffffffffffffffffffffffffffffffffffffffffffffffffed806177c7576177c661834f565b5b82830991507f7fffffffffffffffffffffffffffffffffffffffffffffffffffffffffffffed806177fb576177fa61834f565b5b82830991507f7fffffffffffffffffffffffffffffffffffffffffffffffffffffffffffffed8061782f5761782e61834f565b5b82830991507f7fffffffffffffffffffffffffffffffffffffffffffffffffffffffffffffed806178635761786261834f565b5b82830991507f7fffffffffffffffffffffffffffffffffffffffffffffffffffffffffffffed806178975761789661834f565b5b82830991507f7fffffffffffffffffffffffffffffffffffffffffffffffffffffffffffffed806178cb576178ca61834f565b5b82830991507f7fffffffffffffffffffffffffffffffffffffffffffffffffffffffffffffed806178ff576178fe61834f565b5b82830991507f7fffffffffffffffffffffffffffffffffffffffffffffffffffffffffffffed806179335761793261834f565b5b82830991507f7fffffffffffffffffffffffffffffffffffffffffffffffffffffffffffffed806179675761796661834f565b5b82830991507f7fffffffffffffffffffffffffffffffffffffffffffffffffffffffffffffed8061799b5761799a61834f565b5b82830991507f7fffffffffffffffffffffffffffffffffffffffffffffffffffffffffffffed806179cf576179ce61834f565b5b82830991507f7fffffffffffffffffffffffffffffffffffffffffffffffffffffffffffffed80617a0357617a0261834f565b5b82830991507f7fffffffffffffffffffffffffffffffffffffffffffffffffffffffffffffed80617a3757617a3661834f565b5b82830991507f7fffffffffffffffffffffffffffffffffffffffffffffffffffffffffffffed80617a6b57617a6a61834f565b5b82830991507f7fffffffffffffffffffffffffffffffffffffffffffffffffffffffffffffed80617a9f57617a9e61834f565b5b82830991507f7fffffffffffffffffffffffffffffffffffffffffffffffffffffffffffffed80617ad357617ad261834f565b5b82830991507f7fffffffffffffffffffffffffffffffffffffffffffffffffffffffffffffed80617b0757617b0661834f565b5b82830991507f7fffffffffffffffffffffffffffffffffffffffffffffffffffffffffffffed80617b3b57617b3a61834f565b5b82830991507f7fffffffffffffffffffffffffffffffffffffffffffffffffffffffffffffed80617b6f57617b6e61834f565b5b82830991507f7fffffffffffffffffffffffffffffffffffffffffffffffffffffffffffffed80617ba357617ba261834f565b5b82830991507f7fffffffffffffffffffffffffffffffffffffffffffffffffffffffffffffed80617bd757617bd661834f565b5b82830991507f7fffffffffffffffffffffffffffffffffffffffffffffffffffffffffffffed80617c0b57617c0a61834f565b5b82830991507f7fffffffffffffffffffffffffffffffffffffffffffffffffffffffffffffed80617c3f57617c3e61834f565b5b82830991507f7fffffffffffffffffffffffffffffffffffffffffffffffffffffffffffffed80617c7357617c7261834f565b5b82830991507f7fffffffffffffffffffffffffffffffffffffffffffffffffffffffffffffed80617ca757617ca661834f565b5b82830991507f7fffffffffffffffffffffffffffffffffffffffffffffffffffffffffffffed80617cdb57617cda61834f565b5b82830991507f7fffffffffffffffffffffffffffffffffffffffffffffffffffffffffffffed80617d0f57617d0e61834f565b5b82830991507f7fffffffffffffffffffffffffffffffffffffffffffffffffffffffffffffed80617d4357617d4261834f565b5b82830991507f7fffffffffffffffffffffffffffffffffffffffffffffffffffffffffffffed80617d7757617d7661834f565b5b82830991507f7fffffffffffffffffffffffffffffffffffffffffffffffffffffffffffffed80617dab57617daa61834f565b5b82830991507f7fffffffffffffffffffffffffffffffffffffffffffffffffffffffffffffed80617ddf57617dde61834f565b5b82830991507f7fffffffffffffffffffffffffffffffffffffffffffffffffffffffffffffed80617e1357617e1261834f565b5b82830991507f7fffffffffffffffffffffffffffffffffffffffffffffffffffffffffffffed80617e4757617e4661834f565b5b82830991507f7fffffffffffffffffffffffffffffffffffffffffffffffffffffffffffffed80617e7b57617e7a61834f565b5b82830991507f7fffffffffffffffffffffffffffffffffffffffffffffffffffffffffffffed80617eaf57617eae61834f565b5b82830991507f7fffffffffffffffffffffffffffffffffffffffffffffffffffffffffffffed80617ee357617ee261834f565b5b82830991507f7fffffffffffffffffffffffffffffffffffffffffffffffffffffffffffffed80617f1757617f1661834f565b5b82830991507f7fffffffffffffffffffffffffffffffffffffffffffffffffffffffffffffed80617f4b57617f4a61834f565b5b82830991507f7fffffffffffffffffffffffffffffffffffffffffffffffffffffffffffffed80617f7f57617f7e61834f565b5b82830991507f7fffffffffffffffffffffffffffffffffffffffffffffffffffffffffffffed80617fb357617fb261834f565b5b82830991507f7fffffffffffffffffffffffffffffffffffffffffffffffffffffffffffffed80617fe757617fe661834f565b5b82830991507f7fffffffffffffffffffffffffffffffffffffffffffffffffffffffffffffed8061801b5761801a61834f565b5b82830991507f7fffffffffffffffffffffffffffffffffffffffffffffffffffffffffffffed8061804f5761804e61834f565b5b82830991507f7fffffffffffffffffffffffffffffffffffffffffffffffffffffffffffffed806180835761808261834f565b5b82830991507f7fffffffffffffffffffffffffffffffffffffffffffffffffffffffffffffed806180b7576180b661834f565b5b82830991507f7fffffffffffffffffffffffffffffffffffffffffffffffffffffffffffffed806180eb576180ea61834f565b5b82830991507f7fffffffffffffffffffffffffffffffffffffffffffffffffffffffffffffed8061811f5761811e61834f565b5b82830991507f7fffffffffffffffffffffffffffffffffffffffffffffffffffffffffffffed806181535761815261834f565b5b82850993505050915091565b60405180604001604052806002905b61817661818c565b81526020019060019003908161816e5790505090565b60405180606001604052806003905b6181a36181b9565b81526020019060019003908161819b5790505090565b604051806101000160405280600890602082028036833780820191505090505090565b600080fd5b6000819050919050565b6181f4816181e1565b81146181ff57600080fd5b50565b600081359050618211816181eb565b92915050565b60007fffffffffffffffffff000000000000000000000000000000000000000000000082169050919050565b61824c81618217565b811461825757600080fd5b50565b60008135905061826981618243565b92915050565b600080600080600060a0868803121561828b5761828a6181dc565b5b600061829988828901618202565b95505060206182aa88828901618202565b94505060406182bb88828901618202565b93505060606182cc88828901618202565b92505060806182dd8882890161825a565b9150509295509295909350565b60008115159050919050565b6182ff816182ea565b82525050565b600060208201905061831a60008301846182f6565b92915050565b7f4e487b7100000000000000000000000000000000000000000000000000000000600052603260045260246000fd5b7f4e487b7100000000000000000000000000000000000000000000000000000000600052601260045260246000fdfea2646970667358221220b17ac238d33e86a539e8ed4076751aea0ec3526ae7a40c199ef6534192eb89bd64736f6c63430008170033",
  "linkReferences": {},
  "deployedLinkReferences": {}
}