{
  "_format": "hh-sol-artifact-1",
  "contractName": "L2Governor",
  "sourceName": "src/L2/L2Governor.sol",
  "abi": [
    {
      "inputs": [],
      "stateMutability": "nonpayable",
      "type": "constructor"
    },
    {
      "inputs": [
        {
          "internalType": "address",
          "name": "target",
          "type": "address"
        }
      ],
      "name": "AddressEmptyCode",
      "type": "error"
    },
    {
      "inputs": [
        {
          "internalType": "address",
          "name": "implementation",
          "type": "address"
        }
      ],
      "name": "ERC1967InvalidImplementation",
      "type": "error"
    },
    {
      "inputs": [],
      "name": "ERC1967NonPayable",
      "type": "error"
    },
    {
      "inputs": [],
      "name": "FailedInnerCall",
      "type": "error"
    },
    {
      "inputs": [
        {
          "internalType": "address",
          "name": "voter",
          "type": "address"
        }
      ],
      "name": "GovernorAlreadyCastVote",
      "type": "error"
    },
    {
      "inputs": [
        {
          "internalType": "uint256",
          "name": "proposalId",
          "type": "uint256"
        }
      ],
      "name": "GovernorAlreadyQueuedProposal",
      "type": "error"
    },
    {
      "inputs": [],
      "name": "GovernorDisabledDeposit",
      "type": "error"
    },
    {
      "inputs": [
        {
          "internalType": "address",
          "name": "proposer",
          "type": "address"
        },
        {
          "internalType": "uint256",
          "name": "votes",
          "type": "uint256"
        },
        {
          "internalType": "uint256",
          "name": "threshold",
          "type": "uint256"
        }
      ],
      "name": "GovernorInsufficientProposerVotes",
      "type": "error"
    },
    {
      "inputs": [
        {
          "internalType": "uint256",
          "name": "targets",
          "type": "uint256"
        },
        {
          "internalType": "uint256",
          "name": "calldatas",
          "type": "uint256"
        },
        {
          "internalType": "uint256",
          "name": "values",
          "type": "uint256"
        }
      ],
      "name": "GovernorInvalidProposalLength",
      "type": "error"
    },
    {
      "inputs": [
        {
          "internalType": "address",
          "name": "voter",
          "type": "address"
        }
      ],
      "name": "GovernorInvalidSignature",
      "type": "error"
    },
    {
      "inputs": [],
      "name": "GovernorInvalidVoteType",
      "type": "error"
    },
    {
      "inputs": [
        {
          "internalType": "uint256",
          "name": "votingPeriod",
          "type": "uint256"
        }
      ],
      "name": "GovernorInvalidVotingPeriod",
      "type": "error"
    },
    {
      "inputs": [
        {
          "internalType": "uint256",
          "name": "proposalId",
          "type": "uint256"
        }
      ],
      "name": "GovernorNonexistentProposal",
      "type": "error"
    },
    {
      "inputs": [
        {
          "internalType": "uint256",
          "name": "proposalId",
          "type": "uint256"
        }
      ],
      "name": "GovernorNotQueuedProposal",
      "type": "error"
    },
    {
      "inputs": [
        {
          "internalType": "address",
          "name": "account",
          "type": "address"
        }
      ],
      "name": "GovernorOnlyExecutor",
      "type": "error"
    },
    {
      "inputs": [
        {
          "internalType": "address",
          "name": "account",
          "type": "address"
        }
      ],
      "name": "GovernorOnlyProposer",
      "type": "error"
    },
    {
      "inputs": [],
      "name": "GovernorQueueNotImplemented",
      "type": "error"
    },
    {
      "inputs": [
        {
          "internalType": "address",
          "name": "proposer",
          "type": "address"
        }
      ],
      "name": "GovernorRestrictedProposer",
      "type": "error"
    },
    {
      "inputs": [
        {
          "internalType": "uint256",
          "name": "proposalId",
          "type": "uint256"
        },
        {
          "internalType": "enum IGovernor.ProposalState",
          "name": "current",
          "type": "uint8"
        },
        {
          "internalType": "bytes32",
          "name": "expectedStates",
          "type": "bytes32"
        }
      ],
      "name": "GovernorUnexpectedProposalState",
      "type": "error"
    },
    {
      "inputs": [
        {
          "internalType": "address",
          "name": "account",
          "type": "address"
        },
        {
          "internalType": "uint256",
          "name": "currentNonce",
          "type": "uint256"
        }
      ],
      "name": "InvalidAccountNonce",
      "type": "error"
    },
    {
      "inputs": [],
      "name": "InvalidInitialization",
      "type": "error"
    },
    {
      "inputs": [],
      "name": "NotInitializing",
      "type": "error"
    },
    {
      "inputs": [
        {
          "internalType": "address",
          "name": "owner",
          "type": "address"
        }
      ],
      "name": "OwnableInvalidOwner",
      "type": "error"
    },
    {
      "inputs": [
        {
          "internalType": "address",
          "name": "account",
          "type": "address"
        }
      ],
      "name": "OwnableUnauthorizedAccount",
      "type": "error"
    },
    {
      "inputs": [],
      "name": "QueueEmpty",
      "type": "error"
    },
    {
      "inputs": [],
      "name": "QueueFull",
      "type": "error"
    },
    {
      "inputs": [
        {
          "internalType": "uint8",
          "name": "bits",
          "type": "uint8"
        },
        {
          "internalType": "uint256",
          "name": "value",
          "type": "uint256"
        }
      ],
      "name": "SafeCastOverflowedUintDowncast",
      "type": "error"
    },
    {
      "inputs": [],
      "name": "UUPSUnauthorizedCallContext",
      "type": "error"
    },
    {
      "inputs": [
        {
          "internalType": "bytes32",
          "name": "slot",
          "type": "bytes32"
        }
      ],
      "name": "UUPSUnsupportedProxiableUUID",
      "type": "error"
    },
    {
      "anonymous": false,
      "inputs": [],
      "name": "EIP712DomainChanged",
      "type": "event"
    },
    {
      "anonymous": false,
      "inputs": [
        {
          "indexed": false,
          "internalType": "uint64",
          "name": "version",
          "type": "uint64"
        }
      ],
      "name": "Initialized",
      "type": "event"
    },
    {
      "anonymous": false,
      "inputs": [
        {
          "indexed": true,
          "internalType": "address",
          "name": "previousOwner",
          "type": "address"
        },
        {
          "indexed": true,
          "internalType": "address",
          "name": "newOwner",
          "type": "address"
        }
      ],
      "name": "OwnershipTransferStarted",
      "type": "event"
    },
    {
      "anonymous": false,
      "inputs": [
        {
          "indexed": true,
          "internalType": "address",
          "name": "previousOwner",
          "type": "address"
        },
        {
          "indexed": true,
          "internalType": "address",
          "name": "newOwner",
          "type": "address"
        }
      ],
      "name": "OwnershipTransferred",
      "type": "event"
    },
    {
      "anonymous": false,
      "inputs": [
        {
          "indexed": false,
          "internalType": "uint256",
          "name": "proposalId",
          "type": "uint256"
        }
      ],
      "name": "ProposalCanceled",
      "type": "event"
    },
    {
      "anonymous": false,
      "inputs": [
        {
          "indexed": false,
          "internalType": "uint256",
          "name": "proposalId",
          "type": "uint256"
        },
        {
          "indexed": false,
          "internalType": "address",
          "name": "proposer",
          "type": "address"
        },
        {
          "indexed": false,
          "internalType": "address[]",
          "name": "targets",
          "type": "address[]"
        },
        {
          "indexed": false,
          "internalType": "uint256[]",
          "name": "values",
          "type": "uint256[]"
        },
        {
          "indexed": false,
          "internalType": "string[]",
          "name": "signatures",
          "type": "string[]"
        },
        {
          "indexed": false,
          "internalType": "bytes[]",
          "name": "calldatas",
          "type": "bytes[]"
        },
        {
          "indexed": false,
          "internalType": "uint256",
          "name": "voteStart",
          "type": "uint256"
        },
        {
          "indexed": false,
          "internalType": "uint256",
          "name": "voteEnd",
          "type": "uint256"
        },
        {
          "indexed": false,
          "internalType": "string",
          "name": "description",
          "type": "string"
        }
      ],
      "name": "ProposalCreated",
      "type": "event"
    },
    {
      "anonymous": false,
      "inputs": [
        {
          "indexed": false,
          "internalType": "uint256",
          "name": "proposalId",
          "type": "uint256"
        }
      ],
      "name": "ProposalExecuted",
      "type": "event"
    },
    {
      "anonymous": false,
      "inputs": [
        {
          "indexed": false,
          "internalType": "uint256",
          "name": "proposalId",
          "type": "uint256"
        },
        {
          "indexed": false,
          "internalType": "uint256",
          "name": "etaSeconds",
          "type": "uint256"
        }
      ],
      "name": "ProposalQueued",
      "type": "event"
    },
    {
      "anonymous": false,
      "inputs": [
        {
          "indexed": false,
          "internalType": "uint256",
          "name": "oldProposalThreshold",
          "type": "uint256"
        },
        {
          "indexed": false,
          "internalType": "uint256",
          "name": "newProposalThreshold",
          "type": "uint256"
        }
      ],
      "name": "ProposalThresholdSet",
      "type": "event"
    },
    {
      "anonymous": false,
      "inputs": [
        {
          "indexed": false,
          "internalType": "address",
          "name": "oldTimelock",
          "type": "address"
        },
        {
          "indexed": false,
          "internalType": "address",
          "name": "newTimelock",
          "type": "address"
        }
      ],
      "name": "TimelockChange",
      "type": "event"
    },
    {
      "anonymous": false,
      "inputs": [
        {
          "indexed": true,
          "internalType": "address",
          "name": "implementation",
          "type": "address"
        }
      ],
      "name": "Upgraded",
      "type": "event"
    },
    {
      "anonymous": false,
      "inputs": [
        {
          "indexed": true,
          "internalType": "address",
          "name": "voter",
          "type": "address"
        },
        {
          "indexed": false,
          "internalType": "uint256",
          "name": "proposalId",
          "type": "uint256"
        },
        {
          "indexed": false,
          "internalType": "uint8",
          "name": "support",
          "type": "uint8"
        },
        {
          "indexed": false,
          "internalType": "uint256",
          "name": "weight",
          "type": "uint256"
        },
        {
          "indexed": false,
          "internalType": "string",
          "name": "reason",
          "type": "string"
        }
      ],
      "name": "VoteCast",
      "type": "event"
    },
    {
      "anonymous": false,
      "inputs": [
        {
          "indexed": true,
          "internalType": "address",
          "name": "voter",
          "type": "address"
        },
        {
          "indexed": false,
          "internalType": "uint256",
          "name": "proposalId",
          "type": "uint256"
        },
        {
          "indexed": false,
          "internalType": "uint8",
          "name": "support",
          "type": "uint8"
        },
        {
          "indexed": false,
          "internalType": "uint256",
          "name": "weight",
          "type": "uint256"
        },
        {
          "indexed": false,
          "internalType": "string",
          "name": "reason",
          "type": "string"
        },
        {
          "indexed": false,
          "internalType": "bytes",
          "name": "params",
          "type": "bytes"
        }
      ],
      "name": "VoteCastWithParams",
      "type": "event"
    },
    {
      "anonymous": false,
      "inputs": [
        {
          "indexed": false,
          "internalType": "uint256",
          "name": "oldVotingDelay",
          "type": "uint256"
        },
        {
          "indexed": false,
          "internalType": "uint256",
          "name": "newVotingDelay",
          "type": "uint256"
        }
      ],
      "name": "VotingDelaySet",
      "type": "event"
    },
    {
      "anonymous": false,
      "inputs": [
        {
          "indexed": false,
          "internalType": "uint256",
          "name": "oldVotingPeriod",
          "type": "uint256"
        },
        {
          "indexed": false,
          "internalType": "uint256",
          "name": "newVotingPeriod",
          "type": "uint256"
        }
      ],
      "name": "VotingPeriodSet",
      "type": "event"
    },
    {
      "inputs": [],
      "name": "BALLOT_TYPEHASH",
      "outputs": [
        {
          "internalType": "bytes32",
          "name": "",
          "type": "bytes32"
        }
      ],
      "stateMutability": "view",
      "type": "function"
    },
    {
      "inputs": [],
      "name": "CLOCK_MODE",
      "outputs": [
        {
          "internalType": "string",
          "name": "",
          "type": "string"
        }
      ],
      "stateMutability": "view",
      "type": "function"
    },
    {
      "inputs": [],
      "name": "COUNTING_MODE",
      "outputs": [
        {
          "internalType": "string",
          "name": "",
          "type": "string"
        }
      ],
      "stateMutability": "pure",
      "type": "function"
    },
    {
      "inputs": [],
      "name": "EXTENDED_BALLOT_TYPEHASH",
      "outputs": [
        {
          "internalType": "bytes32",
          "name": "",
          "type": "bytes32"
        }
      ],
      "stateMutability": "view",
      "type": "function"
    },
    {
      "inputs": [],
      "name": "NAME",
      "outputs": [
        {
          "internalType": "string",
          "name": "",
          "type": "string"
        }
      ],
      "stateMutability": "view",
      "type": "function"
    },
    {
      "inputs": [],
      "name": "PROPOSAL_THRESHOLD",
      "outputs": [
        {
          "internalType": "uint256",
          "name": "",
          "type": "uint256"
        }
      ],
      "stateMutability": "view",
      "type": "function"
    },
    {
      "inputs": [],
      "name": "QUORUM_THRESHOLD",
      "outputs": [
        {
          "internalType": "uint256",
          "name": "",
          "type": "uint256"
        }
      ],
      "stateMutability": "view",
      "type": "function"
    },
    {
      "inputs": [],
      "name": "UPGRADE_INTERFACE_VERSION",
      "outputs": [
        {
          "internalType": "string",
          "name": "",
          "type": "string"
        }
      ],
      "stateMutability": "view",
      "type": "function"
    },
    {
      "inputs": [],
      "name": "VOTING_DELAY",
      "outputs": [
        {
          "internalType": "uint48",
          "name": "",
          "type": "uint48"
        }
      ],
      "stateMutability": "view",
      "type": "function"
    },
    {
      "inputs": [],
      "name": "VOTING_PERIOD",
      "outputs": [
        {
          "internalType": "uint32",
          "name": "",
          "type": "uint32"
        }
      ],
      "stateMutability": "view",
      "type": "function"
    },
    {
      "inputs": [],
      "name": "acceptOwnership",
      "outputs": [],
      "stateMutability": "nonpayable",
      "type": "function"
    },
    {
      "inputs": [
        {
          "internalType": "address[]",
          "name": "targets",
          "type": "address[]"
        },
        {
          "internalType": "uint256[]",
          "name": "values",
          "type": "uint256[]"
        },
        {
          "internalType": "bytes[]",
          "name": "calldatas",
          "type": "bytes[]"
        },
        {
          "internalType": "bytes32",
          "name": "descriptionHash",
          "type": "bytes32"
        }
      ],
      "name": "cancel",
      "outputs": [
        {
          "internalType": "uint256",
          "name": "",
          "type": "uint256"
        }
      ],
      "stateMutability": "nonpayable",
      "type": "function"
    },
    {
      "inputs": [
        {
          "internalType": "uint256",
          "name": "proposalId",
          "type": "uint256"
        },
        {
          "internalType": "uint8",
          "name": "support",
          "type": "uint8"
        }
      ],
      "name": "castVote",
      "outputs": [
        {
          "internalType": "uint256",
          "name": "",
          "type": "uint256"
        }
      ],
      "stateMutability": "nonpayable",
      "type": "function"
    },
    {
      "inputs": [
        {
          "internalType": "uint256",
          "name": "proposalId",
          "type": "uint256"
        },
        {
          "internalType": "uint8",
          "name": "support",
          "type": "uint8"
        },
        {
          "internalType": "address",
          "name": "voter",
          "type": "address"
        },
        {
          "internalType": "bytes",
          "name": "signature",
          "type": "bytes"
        }
      ],
      "name": "castVoteBySig",
      "outputs": [
        {
          "internalType": "uint256",
          "name": "",
          "type": "uint256"
        }
      ],
      "stateMutability": "nonpayable",
      "type": "function"
    },
    {
      "inputs": [
        {
          "internalType": "uint256",
          "name": "proposalId",
          "type": "uint256"
        },
        {
          "internalType": "uint8",
          "name": "support",
          "type": "uint8"
        },
        {
          "internalType": "string",
          "name": "reason",
          "type": "string"
        }
      ],
      "name": "castVoteWithReason",
      "outputs": [
        {
          "internalType": "uint256",
          "name": "",
          "type": "uint256"
        }
      ],
      "stateMutability": "nonpayable",
      "type": "function"
    },
    {
      "inputs": [
        {
          "internalType": "uint256",
          "name": "proposalId",
          "type": "uint256"
        },
        {
          "internalType": "uint8",
          "name": "support",
          "type": "uint8"
        },
        {
          "internalType": "string",
          "name": "reason",
          "type": "string"
        },
        {
          "internalType": "bytes",
          "name": "params",
          "type": "bytes"
        }
      ],
      "name": "castVoteWithReasonAndParams",
      "outputs": [
        {
          "internalType": "uint256",
          "name": "",
          "type": "uint256"
        }
      ],
      "stateMutability": "nonpayable",
      "type": "function"
    },
    {
      "inputs": [
        {
          "internalType": "uint256",
          "name": "proposalId",
          "type": "uint256"
        },
        {
          "internalType": "uint8",
          "name": "support",
          "type": "uint8"
        },
        {
          "internalType": "address",
          "name": "voter",
          "type": "address"
        },
        {
          "internalType": "string",
          "name": "reason",
          "type": "string"
        },
        {
          "internalType": "bytes",
          "name": "params",
          "type": "bytes"
        },
        {
          "internalType": "bytes",
          "name": "signature",
          "type": "bytes"
        }
      ],
      "name": "castVoteWithReasonAndParamsBySig",
      "outputs": [
        {
          "internalType": "uint256",
          "name": "",
          "type": "uint256"
        }
      ],
      "stateMutability": "nonpayable",
      "type": "function"
    },
    {
      "inputs": [],
      "name": "clock",
      "outputs": [
        {
          "internalType": "uint48",
          "name": "",
          "type": "uint48"
        }
      ],
      "stateMutability": "view",
      "type": "function"
    },
    {
      "inputs": [],
      "name": "eip712Domain",
      "outputs": [
        {
          "internalType": "bytes1",
          "name": "fields",
          "type": "bytes1"
        },
        {
          "internalType": "string",
          "name": "name",
          "type": "string"
        },
        {
          "internalType": "string",
          "name": "version",
          "type": "string"
        },
        {
          "internalType": "uint256",
          "name": "chainId",
          "type": "uint256"
        },
        {
          "internalType": "address",
          "name": "verifyingContract",
          "type": "address"
        },
        {
          "internalType": "bytes32",
          "name": "salt",
          "type": "bytes32"
        },
        {
          "internalType": "uint256[]",
          "name": "extensions",
          "type": "uint256[]"
        }
      ],
      "stateMutability": "view",
      "type": "function"
    },
    {
      "inputs": [
        {
          "internalType": "address[]",
          "name": "targets",
          "type": "address[]"
        },
        {
          "internalType": "uint256[]",
          "name": "values",
          "type": "uint256[]"
        },
        {
          "internalType": "bytes[]",
          "name": "calldatas",
          "type": "bytes[]"
        },
        {
          "internalType": "bytes32",
          "name": "descriptionHash",
          "type": "bytes32"
        }
      ],
      "name": "execute",
      "outputs": [
        {
          "internalType": "uint256",
          "name": "",
          "type": "uint256"
        }
      ],
      "stateMutability": "payable",
      "type": "function"
    },
    {
      "inputs": [
        {
          "internalType": "address",
          "name": "account",
          "type": "address"
        },
        {
          "internalType": "uint256",
          "name": "timepoint",
          "type": "uint256"
        }
      ],
      "name": "getVotes",
      "outputs": [
        {
          "internalType": "uint256",
          "name": "",
          "type": "uint256"
        }
      ],
      "stateMutability": "view",
      "type": "function"
    },
    {
      "inputs": [
        {
          "internalType": "address",
          "name": "account",
          "type": "address"
        },
        {
          "internalType": "uint256",
          "name": "timepoint",
          "type": "uint256"
        },
        {
          "internalType": "bytes",
          "name": "params",
          "type": "bytes"
        }
      ],
      "name": "getVotesWithParams",
      "outputs": [
        {
          "internalType": "uint256",
          "name": "",
          "type": "uint256"
        }
      ],
      "stateMutability": "view",
      "type": "function"
    },
    {
      "inputs": [
        {
          "internalType": "uint256",
          "name": "proposalId",
          "type": "uint256"
        },
        {
          "internalType": "address",
          "name": "account",
          "type": "address"
        }
      ],
      "name": "hasVoted",
      "outputs": [
        {
          "internalType": "bool",
          "name": "",
          "type": "bool"
        }
      ],
      "stateMutability": "view",
      "type": "function"
    },
    {
      "inputs": [
        {
          "internalType": "address[]",
          "name": "targets",
          "type": "address[]"
        },
        {
          "internalType": "uint256[]",
          "name": "values",
          "type": "uint256[]"
        },
        {
          "internalType": "bytes[]",
          "name": "calldatas",
          "type": "bytes[]"
        },
        {
          "internalType": "bytes32",
          "name": "descriptionHash",
          "type": "bytes32"
        }
      ],
      "name": "hashProposal",
      "outputs": [
        {
          "internalType": "uint256",
          "name": "",
          "type": "uint256"
        }
      ],
      "stateMutability": "pure",
      "type": "function"
    },
    {
      "inputs": [
        {
          "internalType": "contract IVotes",
          "name": "votesToken",
          "type": "address"
        },
        {
          "internalType": "contract TimelockControllerUpgradeable",
          "name": "timelockController",
          "type": "address"
        },
        {
          "internalType": "address",
          "name": "initialOwner",
          "type": "address"
        }
      ],
      "name": "initialize",
      "outputs": [],
      "stateMutability": "nonpayable",
      "type": "function"
    },
    {
      "inputs": [],
      "name": "name",
      "outputs": [
        {
          "internalType": "string",
          "name": "",
          "type": "string"
        }
      ],
      "stateMutability": "view",
      "type": "function"
    },
    {
      "inputs": [
        {
          "internalType": "address",
          "name": "owner",
          "type": "address"
        }
      ],
      "name": "nonces",
      "outputs": [
        {
          "internalType": "uint256",
          "name": "",
          "type": "uint256"
        }
      ],
      "stateMutability": "view",
      "type": "function"
    },
    {
      "inputs": [
        {
          "internalType": "address",
          "name": "",
          "type": "address"
        },
        {
          "internalType": "address",
          "name": "",
          "type": "address"
        },
        {
          "internalType": "uint256[]",
          "name": "",
          "type": "uint256[]"
        },
        {
          "internalType": "uint256[]",
          "name": "",
          "type": "uint256[]"
        },
        {
          "internalType": "bytes",
          "name": "",
          "type": "bytes"
        }
      ],
      "name": "onERC1155BatchReceived",
      "outputs": [
        {
          "internalType": "bytes4",
          "name": "",
          "type": "bytes4"
        }
      ],
      "stateMutability": "nonpayable",
      "type": "function"
    },
    {
      "inputs": [
        {
          "internalType": "address",
          "name": "",
          "type": "address"
        },
        {
          "internalType": "address",
          "name": "",
          "type": "address"
        },
        {
          "internalType": "uint256",
          "name": "",
          "type": "uint256"
        },
        {
          "internalType": "uint256",
          "name": "",
          "type": "uint256"
        },
        {
          "internalType": "bytes",
          "name": "",
          "type": "bytes"
        }
      ],
      "name": "onERC1155Received",
      "outputs": [
        {
          "internalType": "bytes4",
          "name": "",
          "type": "bytes4"
        }
      ],
      "stateMutability": "nonpayable",
      "type": "function"
    },
    {
      "inputs": [
        {
          "internalType": "address",
          "name": "",
          "type": "address"
        },
        {
          "internalType": "address",
          "name": "",
          "type": "address"
        },
        {
          "internalType": "uint256",
          "name": "",
          "type": "uint256"
        },
        {
          "internalType": "bytes",
          "name": "",
          "type": "bytes"
        }
      ],
      "name": "onERC721Received",
      "outputs": [
        {
          "internalType": "bytes4",
          "name": "",
          "type": "bytes4"
        }
      ],
      "stateMutability": "nonpayable",
      "type": "function"
    },
    {
      "inputs": [],
      "name": "owner",
      "outputs": [
        {
          "internalType": "address",
          "name": "",
          "type": "address"
        }
      ],
      "stateMutability": "view",
      "type": "function"
    },
    {
      "inputs": [],
      "name": "pendingOwner",
      "outputs": [
        {
          "internalType": "address",
          "name": "",
          "type": "address"
        }
      ],
      "stateMutability": "view",
      "type": "function"
    },
    {
      "inputs": [
        {
          "internalType": "uint256",
          "name": "proposalId",
          "type": "uint256"
        }
      ],
      "name": "proposalDeadline",
      "outputs": [
        {
          "internalType": "uint256",
          "name": "",
          "type": "uint256"
        }
      ],
      "stateMutability": "view",
      "type": "function"
    },
    {
      "inputs": [
        {
          "internalType": "uint256",
          "name": "proposalId",
          "type": "uint256"
        }
      ],
      "name": "proposalEta",
      "outputs": [
        {
          "internalType": "uint256",
          "name": "",
          "type": "uint256"
        }
      ],
      "stateMutability": "view",
      "type": "function"
    },
    {
      "inputs": [
        {
          "internalType": "uint256",
          "name": "proposalId",
          "type": "uint256"
        }
      ],
      "name": "proposalNeedsQueuing",
      "outputs": [
        {
          "internalType": "bool",
          "name": "",
          "type": "bool"
        }
      ],
      "stateMutability": "view",
      "type": "function"
    },
    {
      "inputs": [
        {
          "internalType": "uint256",
          "name": "proposalId",
          "type": "uint256"
        }
      ],
      "name": "proposalProposer",
      "outputs": [
        {
          "internalType": "address",
          "name": "",
          "type": "address"
        }
      ],
      "stateMutability": "view",
      "type": "function"
    },
    {
      "inputs": [
        {
          "internalType": "uint256",
          "name": "proposalId",
          "type": "uint256"
        }
      ],
      "name": "proposalSnapshot",
      "outputs": [
        {
          "internalType": "uint256",
          "name": "",
          "type": "uint256"
        }
      ],
      "stateMutability": "view",
      "type": "function"
    },
    {
      "inputs": [],
      "name": "proposalThreshold",
      "outputs": [
        {
          "internalType": "uint256",
          "name": "",
          "type": "uint256"
        }
      ],
      "stateMutability": "view",
      "type": "function"
    },
    {
      "inputs": [
        {
          "internalType": "uint256",
          "name": "proposalId",
          "type": "uint256"
        }
      ],
      "name": "proposalVotes",
      "outputs": [
        {
          "internalType": "uint256",
          "name": "againstVotes",
          "type": "uint256"
        },
        {
          "internalType": "uint256",
          "name": "forVotes",
          "type": "uint256"
        },
        {
          "internalType": "uint256",
          "name": "abstainVotes",
          "type": "uint256"
        }
      ],
      "stateMutability": "view",
      "type": "function"
    },
    {
      "inputs": [
        {
          "internalType": "address[]",
          "name": "targets",
          "type": "address[]"
        },
        {
          "internalType": "uint256[]",
          "name": "values",
          "type": "uint256[]"
        },
        {
          "internalType": "bytes[]",
          "name": "calldatas",
          "type": "bytes[]"
        },
        {
          "internalType": "string",
          "name": "description",
          "type": "string"
        }
      ],
      "name": "propose",
      "outputs": [
        {
          "internalType": "uint256",
          "name": "",
          "type": "uint256"
        }
      ],
      "stateMutability": "nonpayable",
      "type": "function"
    },
    {
      "inputs": [],
      "name": "proxiableUUID",
      "outputs": [
        {
          "internalType": "bytes32",
          "name": "",
          "type": "bytes32"
        }
      ],
      "stateMutability": "view",
      "type": "function"
    },
    {
      "inputs": [
        {
          "internalType": "address[]",
          "name": "targets",
          "type": "address[]"
        },
        {
          "internalType": "uint256[]",
          "name": "values",
          "type": "uint256[]"
        },
        {
          "internalType": "bytes[]",
          "name": "calldatas",
          "type": "bytes[]"
        },
        {
          "internalType": "bytes32",
          "name": "descriptionHash",
          "type": "bytes32"
        }
      ],
      "name": "queue",
      "outputs": [
        {
          "internalType": "uint256",
          "name": "",
          "type": "uint256"
        }
      ],
      "stateMutability": "nonpayable",
      "type": "function"
    },
    {
      "inputs": [
        {
          "internalType": "uint256",
          "name": "",
          "type": "uint256"
        }
      ],
      "name": "quorum",
      "outputs": [
        {
          "internalType": "uint256",
          "name": "",
          "type": "uint256"
        }
      ],
      "stateMutability": "pure",
      "type": "function"
    },
    {
      "inputs": [
        {
          "internalType": "address",
          "name": "target",
          "type": "address"
        },
        {
          "internalType": "uint256",
          "name": "value",
          "type": "uint256"
        },
        {
          "internalType": "bytes",
          "name": "data",
          "type": "bytes"
        }
      ],
      "name": "relay",
      "outputs": [],
      "stateMutability": "payable",
      "type": "function"
    },
    {
      "inputs": [],
      "name": "renounceOwnership",
      "outputs": [],
      "stateMutability": "nonpayable",
      "type": "function"
    },
    {
      "inputs": [
        {
          "internalType": "uint256",
          "name": "newProposalThreshold",
          "type": "uint256"
        }
      ],
      "name": "setProposalThreshold",
      "outputs": [],
      "stateMutability": "nonpayable",
      "type": "function"
    },
    {
      "inputs": [
        {
          "internalType": "uint48",
          "name": "newVotingDelay",
          "type": "uint48"
        }
      ],
      "name": "setVotingDelay",
      "outputs": [],
      "stateMutability": "nonpayable",
      "type": "function"
    },
    {
      "inputs": [
        {
          "internalType": "uint32",
          "name": "newVotingPeriod",
          "type": "uint32"
        }
      ],
      "name": "setVotingPeriod",
      "outputs": [],
      "stateMutability": "nonpayable",
      "type": "function"
    },
    {
      "inputs": [
        {
          "internalType": "uint256",
          "name": "proposalId",
          "type": "uint256"
        }
      ],
      "name": "state",
      "outputs": [
        {
          "internalType": "enum IGovernor.ProposalState",
          "name": "",
          "type": "uint8"
        }
      ],
      "stateMutability": "view",
      "type": "function"
    },
    {
      "inputs": [
        {
          "internalType": "bytes4",
          "name": "interfaceId",
          "type": "bytes4"
        }
      ],
      "name": "supportsInterface",
      "outputs": [
        {
          "internalType": "bool",
          "name": "",
          "type": "bool"
        }
      ],
      "stateMutability": "view",
      "type": "function"
    },
    {
      "inputs": [],
      "name": "timelock",
      "outputs": [
        {
          "internalType": "address",
          "name": "",
          "type": "address"
        }
      ],
      "stateMutability": "view",
      "type": "function"
    },
    {
      "inputs": [],
      "name": "token",
      "outputs": [
        {
          "internalType": "contract IERC5805",
          "name": "",
          "type": "address"
        }
      ],
      "stateMutability": "view",
      "type": "function"
    },
    {
      "inputs": [
        {
          "internalType": "address",
          "name": "newOwner",
          "type": "address"
        }
      ],
      "name": "transferOwnership",
      "outputs": [],
      "stateMutability": "nonpayable",
      "type": "function"
    },
    {
      "inputs": [
        {
          "internalType": "contract TimelockControllerUpgradeable",
          "name": "newTimelock",
          "type": "address"
        }
      ],
      "name": "updateTimelock",
      "outputs": [],
      "stateMutability": "nonpayable",
      "type": "function"
    },
    {
      "inputs": [
        {
          "internalType": "address",
          "name": "newImplementation",
          "type": "address"
        },
        {
          "internalType": "bytes",
          "name": "data",
          "type": "bytes"
        }
      ],
      "name": "upgradeToAndCall",
      "outputs": [],
      "stateMutability": "payable",
      "type": "function"
    },
    {
      "inputs": [],
      "name": "version",
      "outputs": [
        {
          "internalType": "string",
          "name": "",
          "type": "string"
        }
      ],
      "stateMutability": "pure",
      "type": "function"
    },
    {
      "inputs": [],
      "name": "votingDelay",
      "outputs": [
        {
          "internalType": "uint256",
          "name": "",
          "type": "uint256"
        }
      ],
      "stateMutability": "view",
      "type": "function"
    },
    {
      "inputs": [],
      "name": "votingPeriod",
      "outputs": [
        {
          "internalType": "uint256",
          "name": "",
          "type": "uint256"
        }
      ],
      "stateMutability": "view",
      "type": "function"
    },
    {
      "stateMutability": "payable",
      "type": "receive"
    }
  ],
  "bytecode": "0x60a06040523073ffffffffffffffffffffffffffffffffffffffff1660809073ffffffffffffffffffffffffffffffffffffffff168152503480156200004457600080fd5b50620000556200005b60201b60201c565b620001cf565b60006200006d6200016560201b60201c565b90508060000160089054906101000a900460ff1615620000b9576040517ff92ee8a900000000000000000000000000000000000000000000000000000000815260040160405180910390fd5b67ffffffffffffffff80168160000160009054906101000a900467ffffffffffffffff1667ffffffffffffffff1614620001625767ffffffffffffffff8160000160006101000a81548167ffffffffffffffff021916908367ffffffffffffffff1602179055507fc7f505b2f371ae2175ee4913f4499e1f2633a7b5936321eed1cdaeb6115181d267ffffffffffffffff604051620001599190620001b2565b60405180910390a15b50565b60007ff0c57e16840df040f15088dc2f81fe391c3923bec73e23a9662efc9c229c6a00905090565b600067ffffffffffffffff82169050919050565b620001ac816200018d565b82525050565b6000602082019050620001c96000830184620001a1565b92915050565b608051617f92620001f960003960008181612dfc01528181612e51015261300c0152617f926000f3fe6080604052600436106103855760003560e01c80638da5cb5b116101d1578063c0c53b8b11610102578063e30c3978116100a0578063f23a6e611161006f578063f23a6e6114610e6a578063f2fde38b14610ea7578063f8ce560a14610ed0578063fc0c546a14610f0d576103f8565b8063e30c397814610db0578063e540d01d14610ddb578063eb9019d414610e04578063ece40cc114610e41576103f8565b8063d33219b4116100dc578063d33219b414610d04578063d6159fe514610d2f578063dd4e2ba514610d5a578063deaaa7cc14610d85576103f8565b8063c0c53b8b14610c82578063c28bc2fa14610cab578063c59057e414610cc7576103f8565b8063a9a952941161016f578063b1610d7e11610149578063b1610d7e14610bb2578063b58131b014610bdd578063bc197c8114610c08578063c01f9e3714610c45576103f8565b8063a9a9529414610b0d578063ab58fb8e14610b4a578063ad3cb1cc14610b87576103f8565b80639a802a6d116101ab5780639a802a6d14610a51578063a3f4df7e14610a8e578063a6c2660314610ab9578063a890c91014610ae4576103f8565b80638da5cb5b146109be5780638ff262e3146109e957806391ddadf414610a26576103f8565b80634f1ef286116102b65780635f398a14116102545780637b3c71d3116102235780637b3c71d3146108d65780637d5e81e2146109135780637ecebe001461095057806384b0196e1461098d576103f8565b80635f398a1414610842578063715018a61461087f578063790518871461089657806379ba5097146108bf576103f8565b806354fd4d501161029057806354fd4d5014610772578063567813881461079d5780635b8d0e0d146107da5780635e510b6014610817576103f8565b80634f1ef286146106ec57806352d1902d14610708578063544ffc9c14610733576103f8565b80632d63f693116103235780633e4f49e6116102fd5780633e4f49e61461060a5780634385963214610647578063452115d6146106845780634bf5d7e9146106c1576103f8565b80632d63f693146105775780632fe3e261146105b45780633932abb1146105df576103f8565b8063143489d01161035f578063143489d014610490578063150b7a02146104cd578063160cbed71461050a5780632656227d14610547576103f8565b806301ffc9a7146103fd57806302a251a31461043a57806306fdde0314610465576103f8565b366103f8573073ffffffffffffffffffffffffffffffffffffffff166103a9610f38565b73ffffffffffffffffffffffffffffffffffffffff16146103f6576040517fe90a651e00000000000000000000000000000000000000000000000000000000815260040160405180910390fd5b005b600080fd5b34801561040957600080fd5b50610424600480360381019061041f919061552c565b610f47565b6040516104319190615574565b60405180910390f35b34801561044657600080fd5b5061044f611029565b60405161045c91906155a8565b60405180910390f35b34801561047157600080fd5b5061047a611057565b6040516104879190615653565b60405180910390f35b34801561049c57600080fd5b506104b760048036038101906104b291906156a1565b6110f8565b6040516104c4919061570f565b60405180910390f35b3480156104d957600080fd5b506104f460048036038101906104ef919061588b565b611146565b604051610501919061591d565b60405180910390f35b34801561051657600080fd5b50610531600480360381019061052c9190615bda565b6111c6565b60405161053e91906155a8565b60405180910390f35b610561600480360381019061055c9190615bda565b6112d1565b60405161056e91906155a8565b60405180910390f35b34801561058357600080fd5b5061059e600480360381019061059991906156a1565b6114c5565b6040516105ab91906155a8565b60405180910390f35b3480156105c057600080fd5b506105c961150d565b6040516105d69190615ca4565b60405180910390f35b3480156105eb57600080fd5b506105f4611531565b60405161060191906155a8565b60405180910390f35b34801561061657600080fd5b50610631600480360381019061062c91906156a1565b611563565b60405161063e9190615d36565b60405180910390f35b34801561065357600080fd5b5061066e60048036038101906106699190615d51565b611575565b60405161067b9190615574565b60405180910390f35b34801561069057600080fd5b506106ab60048036038101906106a69190615bda565b6115ee565b6040516106b891906155a8565b60405180910390f35b3480156106cd57600080fd5b506106d66116b0565b6040516106e39190615653565b60405180910390f35b61070660048036038101906107019190615d91565b61176f565b005b34801561071457600080fd5b5061071d61178e565b60405161072a9190615ca4565b60405180910390f35b34801561073f57600080fd5b5061075a600480360381019061075591906156a1565b6117c1565b60405161076993929190615ded565b60405180910390f35b34801561077e57600080fd5b50610787611808565b6040516107949190615653565b60405180910390f35b3480156107a957600080fd5b506107c460048036038101906107bf9190615e5d565b611845565b6040516107d191906155a8565b60405180910390f35b3480156107e657600080fd5b5061080160048036038101906107fc9190615ef8565b611876565b60405161080e91906155a8565b60405180910390f35b34801561082357600080fd5b5061082c6119a7565b60405161083991906155a8565b60405180910390f35b34801561084e57600080fd5b5061086960048036038101906108649190615fdf565b6119b6565b60405161087691906155a8565b60405180910390f35b34801561088b57600080fd5b50610894611a20565b005b3480156108a257600080fd5b506108bd60048036038101906108b891906160c1565b611a34565b005b3480156108cb57600080fd5b506108d4611a48565b005b3480156108e257600080fd5b506108fd60048036038101906108f891906160ee565b611ad7565b60405161090a91906155a8565b60405180910390f35b34801561091f57600080fd5b5061093a60048036038101906109359190616203565b611b3f565b60405161094791906155a8565b60405180910390f35b34801561095c57600080fd5b50610977600480360381019061097291906162da565b611c2f565b60405161098491906155a8565b60405180910390f35b34801561099957600080fd5b506109a2611c86565b6040516109b59796959493929190616400565b60405180910390f35b3480156109ca57600080fd5b506109d3611d98565b6040516109e0919061570f565b60405180910390f35b3480156109f557600080fd5b50610a106004803603810190610a0b9190616484565b611dd0565b604051610a1d91906155a8565b60405180910390f35b348015610a3257600080fd5b50610a3b611ea6565b604051610a489190616516565b60405180910390f35b348015610a5d57600080fd5b50610a786004803603810190610a739190616531565b611f32565b604051610a8591906155a8565b60405180910390f35b348015610a9a57600080fd5b50610aa3611f48565b604051610ab09190615653565b60405180910390f35b348015610ac557600080fd5b50610ace611f81565b604051610adb91906155a8565b60405180910390f35b348015610af057600080fd5b50610b0b6004803603810190610b0691906165f0565b611f8f565b005b348015610b1957600080fd5b50610b346004803603810190610b2f91906156a1565b611fa3565b604051610b419190615574565b60405180910390f35b348015610b5657600080fd5b50610b716004803603810190610b6c91906156a1565b611fb5565b604051610b7e91906155a8565b60405180910390f35b348015610b9357600080fd5b50610b9c611ffd565b604051610ba99190615653565b60405180910390f35b348015610bbe57600080fd5b50610bc7612036565b604051610bd4919061663c565b60405180910390f35b348015610be957600080fd5b50610bf261203d565b604051610bff91906155a8565b60405180910390f35b348015610c1457600080fd5b50610c2f6004803603810190610c2a9190616657565b61204c565b604051610c3c919061591d565b60405180910390f35b348015610c5157600080fd5b50610c6c6004803603810190610c6791906156a1565b6120cd565b604051610c7991906155a8565b60405180910390f35b348015610c8e57600080fd5b50610ca96004803603810190610ca49190616764565b61214e565b005b610cc56004803603810190610cc0919061680d565b6124ad565b005b348015610cd357600080fd5b50610cee6004803603810190610ce99190615bda565b61253a565b604051610cfb91906155a8565b60405180910390f35b348015610d1057600080fd5b50610d19612576565b604051610d26919061570f565b60405180910390f35b348015610d3b57600080fd5b50610d446125ae565b604051610d519190616516565b60405180910390f35b348015610d6657600080fd5b50610d6f6125b3565b604051610d7c9190615653565b60405180910390f35b348015610d9157600080fd5b50610d9a6125f0565b604051610da79190615ca4565b60405180910390f35b348015610dbc57600080fd5b50610dc5612614565b604051610dd2919061570f565b60405180910390f35b348015610de757600080fd5b50610e026004803603810190610dfd91906168ad565b61264c565b005b348015610e1057600080fd5b50610e2b6004803603810190610e2691906168da565b612660565b604051610e3891906155a8565b60405180910390f35b348015610e4d57600080fd5b50610e686004803603810190610e6391906156a1565b61267c565b005b348015610e7657600080fd5b50610e916004803603810190610e8c919061691a565b612690565b604051610e9e919061591d565b60405180910390f35b348015610eb357600080fd5b50610ece6004803603810190610ec991906162da565b612711565b005b348015610edc57600080fd5b50610ef76004803603810190610ef291906156a1565b6127cd565b604051610f0491906155a8565b60405180910390f35b348015610f1957600080fd5b50610f226127e2565b604051610f2f9190616a10565b60405180910390f35b6000610f4261281a565b905090565b60007f65455a86000000000000000000000000000000000000000000000000000000007bffffffffffffffffffffffffffffffffffffffffffffffffffffffff1916827bffffffffffffffffffffffffffffffffffffffffffffffffffffffff1916148061101257507f4e2312e0000000000000000000000000000000000000000000000000000000007bffffffffffffffffffffffffffffffffffffffffffffffffffffffff1916827bffffffffffffffffffffffffffffffffffffffffffffffffffffffff1916145b80611022575061102182612852565b5b9050919050565b6000806110346128bc565b90508060010160069054906101000a900463ffffffff1663ffffffff1691505090565b606060006110636128e3565b905080600001805461107490616a5a565b80601f01602080910402602001604051908101604052809291908181526020018280546110a090616a5a565b80156110ed5780601f106110c2576101008083540402835291602001916110ed565b820191906000526020600020905b8154815290600101906020018083116110d057829003601f168201915b505050505091505090565b6000806111036128e3565b905080600101600084815260200190815260200160002060000160009054906101000a900473ffffffffffffffffffffffffffffffffffffffff16915050919050565b60003073ffffffffffffffffffffffffffffffffffffffff16611167610f38565b73ffffffffffffffffffffffffffffffffffffffff16146111b4576040517fe90a651e00000000000000000000000000000000000000000000000000000000815260040160405180910390fd5b63150b7a0260e01b9050949350505050565b6000806111d16128e3565b905060006111e18787878761253a565b90506111f6816111f1600461290b565b612931565b506000611206828989898961299e565b905060008165ffffffffffff1614611291578083600101600084815260200190815260200160002060010160006101000a81548165ffffffffffff021916908365ffffffffffff1602179055507f9a2e42fd6722813d69113e7d0079d3d940171428df7373df9c7f7617cfda28928282604051611284929190616abc565b60405180910390a16112c3565b6040517f90884a4600000000000000000000000000000000000000000000000000000000815260040160405180910390fd5b819350505050949350505050565b6000806112dc6128e3565b905060006112ec8787878761253a565b905061130c816112fc600561290b565b611306600461290b565b17612931565b506001826001016000838152602001908152602001600020600001601e6101000a81548160ff0219169083151502179055503073ffffffffffffffffffffffffffffffffffffffff1661135d610f38565b73ffffffffffffffffffffffffffffffffffffffff16146114165760005b8751811015611414573073ffffffffffffffffffffffffffffffffffffffff168882815181106113ae576113ad616ae5565b5b602002602001015173ffffffffffffffffffffffffffffffffffffffff1603611409576114088682815181106113e7576113e6616ae5565b5b602002602001015180519060200120846002016129b890919063ffffffff16565b5b80600101905061137b565b505b6114238188888888612ade565b3073ffffffffffffffffffffffffffffffffffffffff16611442610f38565b73ffffffffffffffffffffffffffffffffffffffff161415801561146f575061146d82600201612af2565b155b156114815761148082600201612b62565b5b7f712ae1383f79ac853f8d882153778e0260ef8f03b504e2866e0593e04d2b291f816040516114b091906155a8565b60405180910390a18092505050949350505050565b6000806114d06128e3565b905080600101600084815260200190815260200160002060000160149054906101000a900465ffffffffffff1665ffffffffffff16915050919050565b7f3e83946653575f9a39005e1545185629e92736b7528ab20ca3816f315424a81181565b60008061153c6128bc565b90508060010160009054906101000a900465ffffffffffff1665ffffffffffff1691505090565b600061156e82612bdd565b9050919050565b600080611580612db2565b905080600001600085815260200190815260200160002060030160008473ffffffffffffffffffffffffffffffffffffffff1673ffffffffffffffffffffffffffffffffffffffff16815260200190815260200160002060009054906101000a900460ff1691505092915050565b6000806115fd8686868661253a565b90506116128161160d600061290b565b612931565b5061161c816110f8565b73ffffffffffffffffffffffffffffffffffffffff1661163a612dda565b73ffffffffffffffffffffffffffffffffffffffff16146116995761165d612dda565b6040517f233d98e3000000000000000000000000000000000000000000000000000000008152600401611690919061570f565b60405180910390fd5b6116a586868686612de2565b915050949350505050565b60606116ba6127e2565b73ffffffffffffffffffffffffffffffffffffffff16634bf5d7e96040518163ffffffff1660e01b8152600401600060405180830381865afa92505050801561172657506040513d6000823e3d601f19601f820116820180604052508101906117239190616b84565b60015b611767576040518060400160405280601d81526020017f6d6f64653d626c6f636b6e756d6265722666726f6d3d64656661756c74000000815250905061176c565b809150505b90565b611777612dfa565b61178082612ee0565b61178a8282612eeb565b5050565b600061179861300a565b7f360894a13ba1a3210667c828492db98dca3e2076cc3735a920a3ca505d382bbc60001b905090565b6000806000806117cf612db2565b90506000816000016000878152602001908152602001600020905080600001548160010154826002015494509450945050509193909250565b60606040518060400160405280600581526020017f312e302e30000000000000000000000000000000000000000000000000000000815250905090565b600080611850612dda565b905061186d84828560405180602001604052806000815250613091565b91505092915050565b600080611904876118fe7f3e83946653575f9a39005e1545185629e92736b7528ab20ca3816f315424a8118c8c8c6118ad8e6130b1565b8d8d6040516118bd929190616bfd565b60405180910390208c805190602001206040516020016118e39796959493929190616c25565b60405160208183030381529060405280519060200120613116565b85613130565b90508061194857866040517f94ab6c0700000000000000000000000000000000000000000000000000000000815260040161193f919061570f565b60405180910390fd5b61199989888a89898080601f016020809104026020016040519081016040528093929190818152602001838380828437600081840152601f19601f82011690508083019250505050505050886131c0565b915050979650505050505050565b6a13da329b6336471800000081565b6000806119c1612dda565b9050611a1487828888888080601f016020809104026020016040519081016040528093929190818152602001838380828437600081840152601f19601f82011690508083019250505050505050876131c0565b91505095945050505050565b611a286132c0565b611a326000613347565b565b611a3c613387565b611a458161348c565b50565b6000611a52612dda565b90508073ffffffffffffffffffffffffffffffffffffffff16611a73612614565b73ffffffffffffffffffffffffffffffffffffffff1614611acb57806040517f118cdaa7000000000000000000000000000000000000000000000000000000008152600401611ac2919061570f565b60405180910390fd5b611ad481613347565b50565b600080611ae2612dda565b9050611b3486828787878080601f016020809104026020016040519081016040528093929190818152602001838380828437600081840152601f19601f82011690508083019250505050505050613091565b915050949350505050565b600080611b4a612dda565b9050611b568184613512565b611b9757806040517fd9b39557000000000000000000000000000000000000000000000000000000008152600401611b8e919061570f565b60405180910390fd5b6000611bbe826001611ba7611ea6565b611bb19190616cc3565b65ffffffffffff16612660565b90506000611bca61203d565b905080821015611c15578282826040517fc242ee16000000000000000000000000000000000000000000000000000000008152600401611c0c93929190616cfd565b60405180910390fd5b611c22888888888761365e565b9350505050949350505050565b600080611c3a613903565b90508060000160008473ffffffffffffffffffffffffffffffffffffffff1673ffffffffffffffffffffffffffffffffffffffff16815260200190815260200160002054915050919050565b6000606080600080600060606000611c9c61392b565b90506000801b8160000154148015611cba57506000801b8160010154145b611cf9576040517f08c379a0000000000000000000000000000000000000000000000000000000008152600401611cf090616d80565b60405180910390fd5b611d01613953565b611d096139f4565b46306000801b600067ffffffffffffffff811115611d2a57611d29615760565b5b604051908082528060200260200182016040528015611d585781602001602082028036833780820191505090505b507f0f0000000000000000000000000000000000000000000000000000000000000095949392919097509750975097509750975097505090919293949596565b600080611da3613a95565b90508060000160009054906101000a900473ffffffffffffffffffffffffffffffffffffffff1691505090565b600080611e3c84611e367ff2aad550cf55f045cb27e9c559f9889fdfb6e6cdaa032301d6ea397784ae51d7898989611e078b6130b1565b604051602001611e1b959493929190616da0565b60405160208183030381529060405280519060200120613116565b85613130565b905080611e8057836040517f94ab6c07000000000000000000000000000000000000000000000000000000008152600401611e77919061570f565b60405180910390fd5b611e9b86858760405180602001604052806000815250613091565b915050949350505050565b6000611eb06127e2565b73ffffffffffffffffffffffffffffffffffffffff166391ddadf46040518163ffffffff1660e01b8152600401602060405180830381865afa925050508015611f1757506040513d601f19601f82011682018060405250810190611f149190616e08565b60015b611f2a57611f23613abd565b9050611f2f565b809150505b90565b6000611f3f848484613acd565b90509392505050565b6040518060400160405280600d81526020017f4c69736b20476f7665726e6f720000000000000000000000000000000000000081525081565b693f870857a3e0e380000081565b611f97613387565b611fa081613b5b565b50565b6000611fae82613c0b565b9050919050565b600080611fc06128e3565b905080600101600084815260200190815260200160002060010160009054906101000a900465ffffffffffff1665ffffffffffff16915050919050565b6040518060400160405280600581526020017f352e302e3000000000000000000000000000000000000000000000000000000081525081565b62093a8081565b6000612047613c16565b905090565b60003073ffffffffffffffffffffffffffffffffffffffff1661206d610f38565b73ffffffffffffffffffffffffffffffffffffffff16146120ba576040517fe90a651e00000000000000000000000000000000000000000000000000000000815260040160405180910390fd5b63bc197c8160e01b905095945050505050565b6000806120d86128e3565b9050806001016000848152602001908152602001600020600001601a9054906101000a900463ffffffff1663ffffffff1681600101600085815260200190815260200160002060000160149054906101000a900465ffffffffffff1661213e9190616e35565b65ffffffffffff16915050919050565b6000612158613c2e565b905060008160000160089054906101000a900460ff1615905060008260000160009054906101000a900467ffffffffffffffff1690506000808267ffffffffffffffff161480156121a65750825b9050600060018367ffffffffffffffff161480156121db575060003073ffffffffffffffffffffffffffffffffffffffff163b145b9050811580156121e9575080155b15612220576040517ff92ee8a900000000000000000000000000000000000000000000000000000000815260040160405180910390fd5b60018560000160006101000a81548167ffffffffffffffff021916908367ffffffffffffffff16021790555083156122705760018560000160086101000a81548160ff0219169083151502179055505b600073ffffffffffffffffffffffffffffffffffffffff168873ffffffffffffffffffffffffffffffffffffffff16036122df576040517f08c379a00000000000000000000000000000000000000000000000000000000081526004016122d690616ee1565b60405180910390fd5b600073ffffffffffffffffffffffffffffffffffffffff168773ffffffffffffffffffffffffffffffffffffffff160361234e576040517f08c379a000000000000000000000000000000000000000000000000000000000815260040161234590616f73565b60405180910390fd5b600073ffffffffffffffffffffffffffffffffffffffff168673ffffffffffffffffffffffffffffffffffffffff16036123bd576040517f08c379a00000000000000000000000000000000000000000000000000000000081526004016123b490617005565b60405180910390fd5b6123fb6040518060400160405280600d81526020017f4c69736b20476f7665726e6f7200000000000000000000000000000000000000815250613c56565b612414600062093a80693f870857a3e0e3800000613c7b565b61241c613c93565b61242588613c9d565b61242e87613cb1565b612436613cc5565b61243f86613ccf565b612447613ce3565b83156124a35760008560000160086101000a81548160ff0219169083151502179055507fc7f505b2f371ae2175ee4913f4499e1f2633a7b5936321eed1cdaeb6115181d2600160405161249a9190617074565b60405180910390a15b5050505050505050565b6124b5613387565b6000808573ffffffffffffffffffffffffffffffffffffffff168585856040516124e0929190616bfd565b60006040518083038185875af1925050503d806000811461251d576040519150601f19603f3d011682016040523d82523d6000602084013e612522565b606091505b50915091506125318282613ced565b50505050505050565b6000848484846040516020016125539493929190617264565b6040516020818303038152906040528051906020012060001c9050949350505050565b600080612581613d11565b90508060000160009054906101000a900473ffffffffffffffffffffffffffffffffffffffff1691505090565b600081565b60606040518060400160405280602081526020017f737570706f72743d627261766f2671756f72756d3d666f722c6162737461696e815250905090565b7ff2aad550cf55f045cb27e9c559f9889fdfb6e6cdaa032301d6ea397784ae51d781565b60008061261f613d39565b90508060000160009054906101000a900473ffffffffffffffffffffffffffffffffffffffff1691505090565b612654613387565b61265d81613d61565b50565b6000612674838361266f613e2d565b613acd565b905092915050565b612684613387565b61268d81613e44565b50565b60003073ffffffffffffffffffffffffffffffffffffffff166126b1610f38565b73ffffffffffffffffffffffffffffffffffffffff16146126fe576040517fe90a651e00000000000000000000000000000000000000000000000000000000815260040160405180910390fd5b63f23a6e6160e01b905095945050505050565b6127196132c0565b6000612723613d39565b9050818160000160006101000a81548173ffffffffffffffffffffffffffffffffffffffff021916908373ffffffffffffffffffffffffffffffffffffffff1602179055508173ffffffffffffffffffffffffffffffffffffffff16612787611d98565b73ffffffffffffffffffffffffffffffffffffffff167f38d16b8cac22d99fc7c124b9cd0de2d3fa1faef420bfe791d8c362d765e2270060405160405180910390a35050565b60006a13da329b633647180000009050919050565b6000806127ed613e9a565b90508060000160009054906101000a900473ffffffffffffffffffffffffffffffffffffffff1691505090565b600080612825613d11565b90508060000160009054906101000a900473ffffffffffffffffffffffffffffffffffffffff1691505090565b60007f01ffc9a7000000000000000000000000000000000000000000000000000000007bffffffffffffffffffffffffffffffffffffffffffffffffffffffff1916827bffffffffffffffffffffffffffffffffffffffffffffffffffffffff1916149050919050565b60007ed7616c8fe29c6c2fbe1d0c5bc8f2faa4c35b43746e70b24b4d532752affd00905090565b60007f7c712897014dbe49c045ef1299aa2d5f9e67e48eea4403efa21f1e0f3ac0cb00905090565b60008160078111156129205761291f615cbf565b5b60ff166001901b60001b9050919050565b60008061293d84611563565b90506000801b8361294d8361290b565b1603612994578381846040517f31b75e4d00000000000000000000000000000000000000000000000000000000815260040161298b939291906172be565b60405180910390fd5b8091505092915050565b60006129ad8686868686613ec2565b905095945050505050565b60008260000160109054906101000a90046fffffffffffffffffffffffffffffffff1690508260000160009054906101000a90046fffffffffffffffffffffffffffffffff166fffffffffffffffffffffffffffffffff16600182016fffffffffffffffffffffffffffffffff1603612a5d576040517f8acb5f2700000000000000000000000000000000000000000000000000000000815260040160405180910390fd5b81836001016000836fffffffffffffffffffffffffffffffff166fffffffffffffffffffffffffffffffff16815260200190815260200160002081905550600181018360000160106101000a8154816fffffffffffffffffffffffffffffffff02191690836fffffffffffffffffffffffffffffffff160217905550505050565b612aeb85858585856140ef565b5050505050565b60008160000160009054906101000a90046fffffffffffffffffffffffffffffffff166fffffffffffffffffffffffffffffffff168260000160109054906101000a90046fffffffffffffffffffffffffffffffff166fffffffffffffffffffffffffffffffff16149050919050565b60008160000160006101000a8154816fffffffffffffffffffffffffffffffff02191690836fffffffffffffffffffffffffffffffff16021790555060008160000160106101000a8154816fffffffffffffffffffffffffffffffff02191690836fffffffffffffffffffffffffffffffff16021790555050565b600080612be8613d11565b90506000612bf5846141bd565b905060056007811115612c0b57612c0a615cbf565b5b816007811115612c1e57612c1d615cbf565b5b14612c2d578092505050612dad565b60008260010160008681526020019081526020016000205490508260000160009054906101000a900473ffffffffffffffffffffffffffffffffffffffff1673ffffffffffffffffffffffffffffffffffffffff1663584b153e826040518263ffffffff1660e01b8152600401612ca49190615ca4565b602060405180830381865afa158015612cc1573d6000803e3d6000fd5b505050506040513d601f19601f82011682018060405250810190612ce59190617321565b15612cf65760059350505050612dad565b8260000160009054906101000a900473ffffffffffffffffffffffffffffffffffffffff1673ffffffffffffffffffffffffffffffffffffffff16632ab0f529826040518263ffffffff1660e01b8152600401612d539190615ca4565b602060405180830381865afa158015612d70573d6000803e3d6000fd5b505050506040513d601f19601f82011682018060405250810190612d949190617321565b15612da55760079350505050612dad565b600293505050505b919050565b60007fa1cefa0f43667ef127a258e673c94202a79b656e62899531c4376d87a7f39800905090565b600033905090565b6000612df085858585614336565b9050949350505050565b7f000000000000000000000000000000000000000000000000000000000000000073ffffffffffffffffffffffffffffffffffffffff163073ffffffffffffffffffffffffffffffffffffffff161480612ea757507f000000000000000000000000000000000000000000000000000000000000000073ffffffffffffffffffffffffffffffffffffffff16612e8e61442e565b73ffffffffffffffffffffffffffffffffffffffff1614155b15612ede576040517fe07c8dba00000000000000000000000000000000000000000000000000000000815260040160405180910390fd5b565b612ee86132c0565b50565b8173ffffffffffffffffffffffffffffffffffffffff166352d1902d6040518163ffffffff1660e01b8152600401602060405180830381865afa925050508015612f5357506040513d601f19601f82011682018060405250810190612f509190617363565b60015b612f9457816040517f4c9c8ce3000000000000000000000000000000000000000000000000000000008152600401612f8b919061570f565b60405180910390fd5b7f360894a13ba1a3210667c828492db98dca3e2076cc3735a920a3ca505d382bbc60001b8114612ffb57806040517faa1d49a4000000000000000000000000000000000000000000000000000000008152600401612ff29190615ca4565b60405180910390fd5b6130058383614485565b505050565b7f000000000000000000000000000000000000000000000000000000000000000073ffffffffffffffffffffffffffffffffffffffff163073ffffffffffffffffffffffffffffffffffffffff161461308f576040517fe07c8dba00000000000000000000000000000000000000000000000000000000815260040160405180910390fd5b565b60006130a7858585856130a2613e2d565b6131c0565b9050949350505050565b6000806130bc613903565b90508060000160008473ffffffffffffffffffffffffffffffffffffffff1673ffffffffffffffffffffffffffffffffffffffff168152602001908152602001600020600081548092919060010191905055915050919050565b60006131296131236144f8565b83614507565b9050919050565b600080600061313f8585614548565b50915091506000600381111561315857613157615cbf565b5b81600381111561316b5761316a615cbf565b5b1480156131a357508573ffffffffffffffffffffffffffffffffffffffff168273ffffffffffffffffffffffffffffffffffffffff16145b806131b557506131b48686866145a4565b5b925050509392505050565b60006131d5866131d0600161290b565b612931565b5060006131eb866131e5896114c5565b85613acd565b90506131fa87878784876146c8565b600083510361325c578573ffffffffffffffffffffffffffffffffffffffff167fb8e138887d0aa13bab447e82de9d5c1777041ecd21ca36ba824ff1e6c07ddda48887848860405161324f9493929190617390565b60405180910390a26132b3565b8573ffffffffffffffffffffffffffffffffffffffff167fe2babfbac5889a709b63bb7f598b324e08bc5a4fb9ec647fb3cbc9ec07eb871288878488886040516132aa959493929190617426565b60405180910390a25b8091505095945050505050565b6132c8612dda565b73ffffffffffffffffffffffffffffffffffffffff166132e6611d98565b73ffffffffffffffffffffffffffffffffffffffff161461334557613309612dda565b6040517f118cdaa700000000000000000000000000000000000000000000000000000000815260040161333c919061570f565b60405180910390fd5b565b6000613351613d39565b90508060000160006101000a81549073ffffffffffffffffffffffffffffffffffffffff0219169055613383826148d4565b5050565b60006133916128e3565b905061339b612dda565b73ffffffffffffffffffffffffffffffffffffffff166133b9610f38565b73ffffffffffffffffffffffffffffffffffffffff1614613418576133dc612dda565b6040517f47096e4700000000000000000000000000000000000000000000000000000000815260040161340f919061570f565b60405180910390fd5b3073ffffffffffffffffffffffffffffffffffffffff16613437610f38565b73ffffffffffffffffffffffffffffffffffffffff161461348957600061345c6149ab565b60405161346a929190616bfd565b604051809103902090505b80613482836002016149b8565b0361347557505b50565b60006134966128bc565b90507fc565b045403dc03c2eea82b81a0465edad9e2e7fc4d97e11421c209da93d7a938160010160009054906101000a900465ffffffffffff16836040516134df929190617487565b60405180910390a1818160010160006101000a81548165ffffffffffff021916908365ffffffffffff1602179055505050565b60008082519050603481101561352c576001915050613658565b60006014820384015190507f2370726f706f7365723d3078000000000000000000000000000000000000000073ffffffffffffffffffffffffffffffffffffffff19168173ffffffffffffffffffffffffffffffffffffffff19161461359757600192505050613658565b6000806028846135a791906174b0565b90505b83811015613622576000806135db8884815181106135cb576135ca616ae5565b5b602001015160f81c60f81b614b18565b91509150816135f35760019650505050505050613658565b8060ff1660048573ffffffffffffffffffffffffffffffffffffffff16901b17935050508060010190506135aa565b508573ffffffffffffffffffffffffffffffffffffffff168173ffffffffffffffffffffffffffffffffffffffff161493505050505b92915050565b6000806136696128e3565b905061367e878787878051906020012061253a565b91508551875114158061369357508451875114155b8061369f575060008751145b156136e8578651855187516040517f447b05d00000000000000000000000000000000000000000000000000000000081526004016136df93929190615ded565b60405180910390fd5b600081600101600084815260200190815260200160002060000160149054906101000a900465ffffffffffff1665ffffffffffff161461376e578161372c83611563565b6000801b6040517f31b75e4d000000000000000000000000000000000000000000000000000000008152600401613765939291906172be565b60405180910390fd5b6000613778611531565b613780611ea6565b65ffffffffffff1661379291906174e4565b9050600061379e611029565b905060008360010160008681526020019081526020016000209050858160000160006101000a81548173ffffffffffffffffffffffffffffffffffffffff021916908373ffffffffffffffffffffffffffffffffffffffff16021790555061380583614bb2565b8160000160146101000a81548165ffffffffffff021916908365ffffffffffff16021790555061383482614c0c565b81600001601a6101000a81548163ffffffff021916908363ffffffff1602179055507f7d84a6263ae0d98d3329bd7b46bb4e8d6f98cd35a7adb45c274c8b7fd5ebd5e085878c8c8e5167ffffffffffffffff81111561389657613895615760565b5b6040519080825280602002602001820160405280156138c957816020015b60608152602001906001900390816138b45790505b508d89898b6138d891906174e4565b8f6040516138ee99989796959493929190617624565b60405180910390a15050505095945050505050565b60007f5ab42ced628888259c08ac98db1eb0cf702fc1501344311d8b100cd1bfe4bb00905090565b60007fa16a46d94261c7517cc8ff89f61c0ce93598e3c849801011dee649a6a557d100905090565b6060600061395f61392b565b905080600201805461397090616a5a565b80601f016020809104026020016040519081016040528092919081815260200182805461399c90616a5a565b80156139e95780601f106139be576101008083540402835291602001916139e9565b820191906000526020600020905b8154815290600101906020018083116139cc57829003601f168201915b505050505091505090565b60606000613a0061392b565b9050806003018054613a1190616a5a565b80601f0160208091040260200160405190810160405280929190818152602001828054613a3d90616a5a565b8015613a8a5780601f10613a5f57610100808354040283529160200191613a8a565b820191906000526020600020905b815481529060010190602001808311613a6d57829003601f168201915b505050505091505090565b60007f9016d09d72d40fdae2fd8ceac6b6234c7706214fd39c1cd1e609a0528c199300905090565b6000613ac843614bb2565b905090565b6000613ad76127e2565b73ffffffffffffffffffffffffffffffffffffffff16633a46b1a885856040518363ffffffff1660e01b8152600401613b119291906176d4565b602060405180830381865afa158015613b2e573d6000803e3d6000fd5b505050506040513d601f19601f82011682018060405250810190613b529190617712565b90509392505050565b6000613b65613d11565b90507f08f74ea46ef7894f65eabfb5e6e695de773a000b47c529ab559178069b2264018160000160009054906101000a900473ffffffffffffffffffffffffffffffffffffffff1683604051613bbc92919061773f565b60405180910390a1818160000160006101000a81548173ffffffffffffffffffffffffffffffffffffffff021916908373ffffffffffffffffffffffffffffffffffffffff1602179055505050565b600060019050919050565b600080613c216128bc565b9050806000015491505090565b60007ff0c57e16840df040f15088dc2f81fe391c3923bec73e23a9662efc9c229c6a00905090565b613c5e614c64565b613c6f81613c6a611808565b614ca4565b613c7881614cf9565b50565b613c83614c64565b613c8e838383614d23565b505050565b613c9b614c64565b565b613ca5614c64565b613cae81614d4b565b50565b613cb9614c64565b613cc281614da6565b50565b613ccd614c64565b565b613cd7614c64565b613ce081614dba565b50565b613ceb614c64565b565b606082613d0257613cfd82614e40565b613d0a565b819050613d0b565b5b92915050565b60007f0d5829787b8befdbc6044ef7457d8a95c2a04bc99235349f1a212c063e59d400905090565b60007f237e158222e3e6968b72b9db0d8043aacf074ad9f650f0d1606b4d82ee432c00905090565b6000613d6b6128bc565b905060008263ffffffff1603613db95760006040517ff1cfbf05000000000000000000000000000000000000000000000000000000008152600401613db091906177a3565b60405180910390fd5b7f7e3f7f0708a84de9203036abaa450dccc85ad5ff52f78c170f3edb55cf5e88288160010160069054906101000a900463ffffffff1683604051613dfe9291906177ef565b60405180910390a1818160010160066101000a81548163ffffffff021916908363ffffffff1602179055505050565b606060405180602001604052806000815250905090565b6000613e4e6128bc565b90507fccb45da8d5717e6c4544694297c4ba5cf151d455c9bb0ed4fc7a38411bc05461816000015483604051613e85929190617818565b60405180910390a18181600001819055505050565b60007f3ba4977254e415696610a40ebf2258dbfa0ec6a2ff64e84bfe715ff16977cc00905090565b600080613ecd613d11565b905060008160000160009054906101000a900473ffffffffffffffffffffffffffffffffffffffff1673ffffffffffffffffffffffffffffffffffffffff1663f27a0c926040518163ffffffff1660e01b8152600401602060405180830381865afa158015613f40573d6000803e3d6000fd5b505050506040513d601f19601f82011682018060405250810190613f649190617712565b90506000613f7185614e85565b90508260000160009054906101000a900473ffffffffffffffffffffffffffffffffffffffff1673ffffffffffffffffffffffffffffffffffffffff1663b1c5f4278989896000866040518663ffffffff1660e01b8152600401613fd995949392919061787f565b602060405180830381865afa158015613ff6573d6000803e3d6000fd5b505050506040513d601f19601f8201168201806040525081019061401a9190617363565b8360010160008b8152602001908152602001600020819055508260000160009054906101000a900473ffffffffffffffffffffffffffffffffffffffff1673ffffffffffffffffffffffffffffffffffffffff16638f2a0bb0898989600086886040518763ffffffff1660e01b815260040161409b969594939291906178e7565b600060405180830381600087803b1580156140b557600080fd5b505af11580156140c9573d6000803e3d6000fd5b505050506140e182426140dc91906174e4565b614bb2565b935050505095945050505050565b60006140f9613d11565b90508060000160009054906101000a900473ffffffffffffffffffffffffffffffffffffffff1673ffffffffffffffffffffffffffffffffffffffff1663e38335e534878787600061414a89614e85565b6040518763ffffffff1660e01b815260040161416a95949392919061787f565b6000604051808303818588803b15801561418357600080fd5b505af1158015614197573d6000803e3d6000fd5b505050505080600101600087815260200190815260200160002060009055505050505050565b6000806141c86128e3565b905060008160010160008581526020019081526020016000209050600081600001601e9054906101000a900460ff169050600082600001601f9054906101000a900460ff1690508115614222576007945050505050614331565b8015614235576002945050505050614331565b6000614240876114c5565b90506000810361428757866040517f6ad0607500000000000000000000000000000000000000000000000000000000815260040161427e91906155a8565b60405180910390fd5b6000614291611ea6565b65ffffffffffff1690508082106142b15760009650505050505050614331565b60006142bc896120cd565b90508181106142d5576001975050505050505050614331565b6142de89614ea3565b15806142f057506142ee89614ef9565b155b15614305576003975050505050505050614331565b60006143108a611fb5565b03614325576004975050505050505050614331565b60059750505050505050505b919050565b600080614341613d11565b9050600061435187878787614f33565b905060008260010160008381526020019081526020016000205490506000801b8114614420578260000160009054906101000a900473ffffffffffffffffffffffffffffffffffffffff1673ffffffffffffffffffffffffffffffffffffffff1663c4d252f5826040518263ffffffff1660e01b81526004016143d49190615ca4565b600060405180830381600087803b1580156143ee57600080fd5b505af1158015614402573d6000803e3d6000fd5b50505050826001016000838152602001908152602001600020600090555b819350505050949350505050565b600061445c7f360894a13ba1a3210667c828492db98dca3e2076cc3735a920a3ca505d382bbc60001b615029565b60000160009054906101000a900473ffffffffffffffffffffffffffffffffffffffff16905090565b61448e82615033565b8173ffffffffffffffffffffffffffffffffffffffff167fbc7cd75a20ee27fd9adebab32041f755214dbc6bffa90cc0225b39da2e5c2d3b60405160405180910390a26000815111156144eb576144e58282615100565b506144f4565b6144f3615184565b5b5050565b60006145026151c1565b905090565b60006040517f190100000000000000000000000000000000000000000000000000000000000081528360028201528260228201526042812091505092915050565b6000806000604184510361458d5760008060006020870151925060408701519150606087015160001a905061457f88828585615225565b95509550955050505061459d565b60006002855160001b9250925092505b9250925092565b60008060008573ffffffffffffffffffffffffffffffffffffffff1685856040516024016145d392919061795d565b604051602081830303815290604052631626ba7e60e01b6020820180517bffffffffffffffffffffffffffffffffffffffffffffffffffffffff838183161783525050505060405161462591906179be565b600060405180830381855afa9150503d8060008114614660576040519150601f19603f3d011682016040523d82523d6000602084013e614665565b606091505b509150915081801561467957506020815110155b80156146bd5750631626ba7e60e01b7bffffffffffffffffffffffffffffffffffffffffffffffffffffffff1916818060200190518101906146bb9190617363565b145b925050509392505050565b60006146d2612db2565b9050600081600001600088815260200190815260200160002090508060030160008773ffffffffffffffffffffffffffffffffffffffff1673ffffffffffffffffffffffffffffffffffffffff16815260200190815260200160002060009054906101000a900460ff161561477e57856040517f71c6af49000000000000000000000000000000000000000000000000000000008152600401614775919061570f565b60405180910390fd5b60018160030160008873ffffffffffffffffffffffffffffffffffffffff1673ffffffffffffffffffffffffffffffffffffffff16815260200190815260200160002060006101000a81548160ff021916908315150217905550600060028111156147ec576147eb615cbf565b5b60ff168560ff1603614818578381600001600082825461480c91906174e4565b925050819055506148cb565b6001600281111561482c5761482b615cbf565b5b60ff168560ff1603614858578381600101600082825461484c91906174e4565b925050819055506148ca565b60028081111561486b5761486a615cbf565b5b60ff168560ff1603614897578381600201600082825461488b91906174e4565b925050819055506148c9565b6040517f06b337c200000000000000000000000000000000000000000000000000000000815260040160405180910390fd5b5b5b50505050505050565b60006148de613a95565b905060008160000160009054906101000a900473ffffffffffffffffffffffffffffffffffffffff169050828260000160006101000a81548173ffffffffffffffffffffffffffffffffffffffff021916908373ffffffffffffffffffffffffffffffffffffffff1602179055508273ffffffffffffffffffffffffffffffffffffffff168173ffffffffffffffffffffffffffffffffffffffff167f8be0079c531659141344cd1fd0a4f28419497f9722a3daafe3b4186f6b6457e060405160405180910390a3505050565b3660008036915091509091565b6000808260000160009054906101000a90046fffffffffffffffffffffffffffffffff1690508260000160109054906101000a90046fffffffffffffffffffffffffffffffff166fffffffffffffffffffffffffffffffff16816fffffffffffffffffffffffffffffffff1603614a5b576040517f75e52f4f00000000000000000000000000000000000000000000000000000000815260040160405180910390fd5b826001016000826fffffffffffffffffffffffffffffffff166fffffffffffffffffffffffffffffffff168152602001908152602001600020549150826001016000826fffffffffffffffffffffffffffffffff166fffffffffffffffffffffffffffffffff16815260200190815260200160002060009055600181018360000160006101000a8154816fffffffffffffffffffffffffffffffff02191690836fffffffffffffffffffffffffffffffff16021790555050919050565b60008060008360f81c90508060ff16602f108015614b395750603a8160ff16105b15614b4e576001603082039250925050614bad565b8060ff166040108015614b64575060478160ff16105b15614b79576001603782039250925050614bad565b8060ff166060108015614b8f575060678160ff16105b15614ba4576001605782039250925050614bad565b60008092509250505b915091565b600065ffffffffffff8016821115614c04576030826040517f6dfcc650000000000000000000000000000000000000000000000000000000008152600401614bfb929190617a10565b60405180910390fd5b819050919050565b600063ffffffff8016821115614c5c576020826040517f6dfcc650000000000000000000000000000000000000000000000000000000008152600401614c53929190617a74565b60405180910390fd5b819050919050565b614c6c615319565b614ca2576040517fd7e6bcf800000000000000000000000000000000000000000000000000000000815260040160405180910390fd5b565b614cac614c64565b6000614cb661392b565b905082816002019081614cc99190617c3f565b5081816003019081614cdb9190617c3f565b506000801b81600001819055506000801b8160010181905550505050565b614d01614c64565b6000614d0b6128e3565b905081816000019081614d1e9190617c3f565b505050565b614d2b614c64565b614d348361348c565b614d3d82613d61565b614d4681613e44565b505050565b614d53614c64565b6000614d5d613e9a565b9050818160000160006101000a81548173ffffffffffffffffffffffffffffffffffffffff021916908373ffffffffffffffffffffffffffffffffffffffff1602179055505050565b614dae614c64565b614db781613b5b565b50565b614dc2614c64565b600073ffffffffffffffffffffffffffffffffffffffff168173ffffffffffffffffffffffffffffffffffffffff1603614e345760006040517f1e4fbdf7000000000000000000000000000000000000000000000000000000008152600401614e2b919061570f565b60405180910390fd5b614e3d81613347565b50565b600081511115614e535780518082602001fd5b6040517f1425ea4200000000000000000000000000000000000000000000000000000000815260040160405180910390fd5b6000813060601b6bffffffffffffffffffffffff1916189050919050565b600080614eae612db2565b90506000816000016000858152602001908152602001600020905080600201548160010154614edd91906174e4565b614eee614ee9866114c5565b6127cd565b111592505050919050565b600080614f04612db2565b905060008160000160008581526020019081526020016000209050806000015481600101541192505050919050565b600080614f3e6128e3565b90506000614f4e8787878761253a565b9050614fb381614f5e600761290b565b614f68600661290b565b614f72600261290b565b600180600780811115614f8857614f87615cbf565b5b614f929190617d11565b6002614f9e9190617e79565b614fa891906174b0565b60001b181818612931565b506001826001016000838152602001908152602001600020600001601f6101000a81548160ff0219169083151502179055507f789cf55be980739dad1d0699b93b58e806b51c9d96619bfa8fe0a28abaa7b30c8160405161501491906155a8565b60405180910390a18092505050949350505050565b6000819050919050565b60008173ffffffffffffffffffffffffffffffffffffffff163b0361508f57806040517f4c9c8ce3000000000000000000000000000000000000000000000000000000008152600401615086919061570f565b60405180910390fd5b806150bc7f360894a13ba1a3210667c828492db98dca3e2076cc3735a920a3ca505d382bbc60001b615029565b60000160006101000a81548173ffffffffffffffffffffffffffffffffffffffff021916908373ffffffffffffffffffffffffffffffffffffffff16021790555050565b60606000808473ffffffffffffffffffffffffffffffffffffffff168460405161512a91906179be565b600060405180830381855af49150503d8060008114615165576040519150601f19603f3d011682016040523d82523d6000602084013e61516a565b606091505b509150915061517a858383615339565b9250505092915050565b60003411156151bf576040517fb398979f00000000000000000000000000000000000000000000000000000000815260040160405180910390fd5b565b60007f8b73c3c69bb8fe3d512ecc4cf759cc79239f7b179b0ffacaa9a75d522b39400f6151ec6153c8565b6151f4615444565b463060405160200161520a959493929190617ec4565b60405160208183030381529060405280519060200120905090565b60008060007f7fffffffffffffffffffffffffffffff5d576e7357a4501ddfe92f46681b20a08460001c111561526557600060038592509250925061530f565b60006001888888886040516000815260200160405260405161528a9493929190617f17565b6020604051602081039080840390855afa1580156152ac573d6000803e3d6000fd5b505050602060405103519050600073ffffffffffffffffffffffffffffffffffffffff168173ffffffffffffffffffffffffffffffffffffffff160361530057600060016000801b9350935093505061530f565b8060008060001b935093509350505b9450945094915050565b6000615323613c2e565b60000160089054906101000a900460ff16905090565b60608261534e5761534982614e40565b6153c0565b60008251148015615376575060008473ffffffffffffffffffffffffffffffffffffffff163b145b156153b857836040517f9996b3150000000000000000000000000000000000000000000000000000000081526004016153af919061570f565b60405180910390fd5b8190506153c1565b5b9392505050565b6000806153d361392b565b905060006153df613953565b90506000815111156153fc57808051906020012092505050615441565b6000826000015490506000801b811461541a57809350505050615441565b7fc5d2460186f7233c927e7db2dcc703c0e500b653ca82273b7bfad8045d85a47093505050505b90565b60008061544f61392b565b9050600061545b6139f4565b9050600081511115615478578080519060200120925050506154bd565b6000826001015490506000801b8114615496578093505050506154bd565b7fc5d2460186f7233c927e7db2dcc703c0e500b653ca82273b7bfad8045d85a47093505050505b90565b6000604051905090565b600080fd5b600080fd5b60007fffffffff0000000000000000000000000000000000000000000000000000000082169050919050565b615509816154d4565b811461551457600080fd5b50565b60008135905061552681615500565b92915050565b600060208284031215615542576155416154ca565b5b600061555084828501615517565b91505092915050565b60008115159050919050565b61556e81615559565b82525050565b60006020820190506155896000830184615565565b92915050565b6000819050919050565b6155a28161558f565b82525050565b60006020820190506155bd6000830184615599565b92915050565b600081519050919050565b600082825260208201905092915050565b60005b838110156155fd5780820151818401526020810190506155e2565b60008484015250505050565b6000601f19601f8301169050919050565b6000615625826155c3565b61562f81856155ce565b935061563f8185602086016155df565b61564881615609565b840191505092915050565b6000602082019050818103600083015261566d818461561a565b905092915050565b61567e8161558f565b811461568957600080fd5b50565b60008135905061569b81615675565b92915050565b6000602082840312156156b7576156b66154ca565b5b60006156c58482850161568c565b91505092915050565b600073ffffffffffffffffffffffffffffffffffffffff82169050919050565b60006156f9826156ce565b9050919050565b615709816156ee565b82525050565b60006020820190506157246000830184615700565b92915050565b615733816156ee565b811461573e57600080fd5b50565b6000813590506157508161572a565b92915050565b600080fd5b600080fd5b7f4e487b7100000000000000000000000000000000000000000000000000000000600052604160045260246000fd5b61579882615609565b810181811067ffffffffffffffff821117156157b7576157b6615760565b5b80604052505050565b60006157ca6154c0565b90506157d6828261578f565b919050565b600067ffffffffffffffff8211156157f6576157f5615760565b5b6157ff82615609565b9050602081019050919050565b82818337600083830152505050565b600061582e615829846157db565b6157c0565b90508281526020810184848401111561584a5761584961575b565b5b61585584828561580c565b509392505050565b600082601f83011261587257615871615756565b5b813561588284826020860161581b565b91505092915050565b600080600080608085870312156158a5576158a46154ca565b5b60006158b387828801615741565b94505060206158c487828801615741565b93505060406158d58782880161568c565b925050606085013567ffffffffffffffff8111156158f6576158f56154cf565b5b6159028782880161585d565b91505092959194509250565b615917816154d4565b82525050565b6000602082019050615932600083018461590e565b92915050565b600067ffffffffffffffff82111561595357615952615760565b5b602082029050602081019050919050565b600080fd5b600061597c61597784615938565b6157c0565b9050808382526020820190506020840283018581111561599f5761599e615964565b5b835b818110156159c857806159b48882615741565b8452602084019350506020810190506159a1565b5050509392505050565b600082601f8301126159e7576159e6615756565b5b81356159f7848260208601615969565b91505092915050565b600067ffffffffffffffff821115615a1b57615a1a615760565b5b602082029050602081019050919050565b6000615a3f615a3a84615a00565b6157c0565b90508083825260208201905060208402830185811115615a6257615a61615964565b5b835b81811015615a8b5780615a77888261568c565b845260208401935050602081019050615a64565b5050509392505050565b600082601f830112615aaa57615aa9615756565b5b8135615aba848260208601615a2c565b91505092915050565b600067ffffffffffffffff821115615ade57615add615760565b5b602082029050602081019050919050565b6000615b02615afd84615ac3565b6157c0565b90508083825260208201905060208402830185811115615b2557615b24615964565b5b835b81811015615b6c57803567ffffffffffffffff811115615b4a57615b49615756565b5b808601615b57898261585d565b85526020850194505050602081019050615b27565b5050509392505050565b600082601f830112615b8b57615b8a615756565b5b8135615b9b848260208601615aef565b91505092915050565b6000819050919050565b615bb781615ba4565b8114615bc257600080fd5b50565b600081359050615bd481615bae565b92915050565b60008060008060808587031215615bf457615bf36154ca565b5b600085013567ffffffffffffffff811115615c1257615c116154cf565b5b615c1e878288016159d2565b945050602085013567ffffffffffffffff811115615c3f57615c3e6154cf565b5b615c4b87828801615a95565b935050604085013567ffffffffffffffff811115615c6c57615c6b6154cf565b5b615c7887828801615b76565b9250506060615c8987828801615bc5565b91505092959194509250565b615c9e81615ba4565b82525050565b6000602082019050615cb96000830184615c95565b92915050565b7f4e487b7100000000000000000000000000000000000000000000000000000000600052602160045260246000fd5b60088110615cff57615cfe615cbf565b5b50565b6000819050615d1082615cee565b919050565b6000615d2082615d02565b9050919050565b615d3081615d15565b82525050565b6000602082019050615d4b6000830184615d27565b92915050565b60008060408385031215615d6857615d676154ca565b5b6000615d768582860161568c565b9250506020615d8785828601615741565b9150509250929050565b60008060408385031215615da857615da76154ca565b5b6000615db685828601615741565b925050602083013567ffffffffffffffff811115615dd757615dd66154cf565b5b615de38582860161585d565b9150509250929050565b6000606082019050615e026000830186615599565b615e0f6020830185615599565b615e1c6040830184615599565b949350505050565b600060ff82169050919050565b615e3a81615e24565b8114615e4557600080fd5b50565b600081359050615e5781615e31565b92915050565b60008060408385031215615e7457615e736154ca565b5b6000615e828582860161568c565b9250506020615e9385828601615e48565b9150509250929050565b600080fd5b60008083601f840112615eb857615eb7615756565b5b8235905067ffffffffffffffff811115615ed557615ed4615e9d565b5b602083019150836001820283011115615ef157615ef0615964565b5b9250929050565b600080600080600080600060c0888a031215615f1757615f166154ca565b5b6000615f258a828b0161568c565b9750506020615f368a828b01615e48565b9650506040615f478a828b01615741565b955050606088013567ffffffffffffffff811115615f6857615f676154cf565b5b615f748a828b01615ea2565b9450945050608088013567ffffffffffffffff811115615f9757615f966154cf565b5b615fa38a828b0161585d565b92505060a088013567ffffffffffffffff811115615fc457615fc36154cf565b5b615fd08a828b0161585d565b91505092959891949750929550565b600080600080600060808688031215615ffb57615ffa6154ca565b5b60006160098882890161568c565b955050602061601a88828901615e48565b945050604086013567ffffffffffffffff81111561603b5761603a6154cf565b5b61604788828901615ea2565b9350935050606086013567ffffffffffffffff81111561606a576160696154cf565b5b6160768882890161585d565b9150509295509295909350565b600065ffffffffffff82169050919050565b61609e81616083565b81146160a957600080fd5b50565b6000813590506160bb81616095565b92915050565b6000602082840312156160d7576160d66154ca565b5b60006160e5848285016160ac565b91505092915050565b60008060008060608587031215616108576161076154ca565b5b60006161168782880161568c565b945050602061612787828801615e48565b935050604085013567ffffffffffffffff811115616148576161476154cf565b5b61615487828801615ea2565b925092505092959194509250565b600067ffffffffffffffff82111561617d5761617c615760565b5b61618682615609565b9050602081019050919050565b60006161a66161a184616162565b6157c0565b9050828152602081018484840111156161c2576161c161575b565b5b6161cd84828561580c565b509392505050565b600082601f8301126161ea576161e9615756565b5b81356161fa848260208601616193565b91505092915050565b6000806000806080858703121561621d5761621c6154ca565b5b600085013567ffffffffffffffff81111561623b5761623a6154cf565b5b616247878288016159d2565b945050602085013567ffffffffffffffff811115616268576162676154cf565b5b61627487828801615a95565b935050604085013567ffffffffffffffff811115616295576162946154cf565b5b6162a187828801615b76565b925050606085013567ffffffffffffffff8111156162c2576162c16154cf565b5b6162ce878288016161d5565b91505092959194509250565b6000602082840312156162f0576162ef6154ca565b5b60006162fe84828501615741565b91505092915050565b60007fff0000000000000000000000000000000000000000000000000000000000000082169050919050565b61633c81616307565b82525050565b600081519050919050565b600082825260208201905092915050565b6000819050602082019050919050565b6163778161558f565b82525050565b6000616389838361636e565b60208301905092915050565b6000602082019050919050565b60006163ad82616342565b6163b7818561634d565b93506163c28361635e565b8060005b838110156163f35781516163da888261637d565b97506163e583616395565b9250506001810190506163c6565b5085935050505092915050565b600060e082019050616415600083018a616333565b8181036020830152616427818961561a565b9050818103604083015261643b818861561a565b905061644a6060830187615599565b6164576080830186615700565b61646460a0830185615c95565b81810360c083015261647681846163a2565b905098975050505050505050565b6000806000806080858703121561649e5761649d6154ca565b5b60006164ac8782880161568c565b94505060206164bd87828801615e48565b93505060406164ce87828801615741565b925050606085013567ffffffffffffffff8111156164ef576164ee6154cf565b5b6164fb8782880161585d565b91505092959194509250565b61651081616083565b82525050565b600060208201905061652b6000830184616507565b92915050565b60008060006060848603121561654a576165496154ca565b5b600061655886828701615741565b93505060206165698682870161568c565b925050604084013567ffffffffffffffff81111561658a576165896154cf565b5b6165968682870161585d565b9150509250925092565b60006165ab826156ce565b9050919050565b60006165bd826165a0565b9050919050565b6165cd816165b2565b81146165d857600080fd5b50565b6000813590506165ea816165c4565b92915050565b600060208284031215616606576166056154ca565b5b6000616614848285016165db565b91505092915050565b600063ffffffff82169050919050565b6166368161661d565b82525050565b6000602082019050616651600083018461662d565b92915050565b600080600080600060a08688031215616673576166726154ca565b5b600061668188828901615741565b955050602061669288828901615741565b945050604086013567ffffffffffffffff8111156166b3576166b26154cf565b5b6166bf88828901615a95565b935050606086013567ffffffffffffffff8111156166e0576166df6154cf565b5b6166ec88828901615a95565b925050608086013567ffffffffffffffff81111561670d5761670c6154cf565b5b6167198882890161585d565b9150509295509295909350565b6000616731826156ee565b9050919050565b61674181616726565b811461674c57600080fd5b50565b60008135905061675e81616738565b92915050565b60008060006060848603121561677d5761677c6154ca565b5b600061678b8682870161674f565b935050602061679c868287016165db565b92505060406167ad86828701615741565b9150509250925092565b60008083601f8401126167cd576167cc615756565b5b8235905067ffffffffffffffff8111156167ea576167e9615e9d565b5b60208301915083600182028301111561680657616805615964565b5b9250929050565b60008060008060608587031215616827576168266154ca565b5b600061683587828801615741565b94505060206168468782880161568c565b935050604085013567ffffffffffffffff811115616867576168666154cf565b5b616873878288016167b7565b925092505092959194509250565b61688a8161661d565b811461689557600080fd5b50565b6000813590506168a781616881565b92915050565b6000602082840312156168c3576168c26154ca565b5b60006168d184828501616898565b91505092915050565b600080604083850312156168f1576168f06154ca565b5b60006168ff85828601615741565b92505060206169108582860161568c565b9150509250929050565b600080600080600060a08688031215616936576169356154ca565b5b600061694488828901615741565b955050602061695588828901615741565b94505060406169668882890161568c565b93505060606169778882890161568c565b925050608086013567ffffffffffffffff811115616998576169976154cf565b5b6169a48882890161585d565b9150509295509295909350565b6000819050919050565b60006169d66169d16169cc846156ce565b6169b1565b6156ce565b9050919050565b60006169e8826169bb565b9050919050565b60006169fa826169dd565b9050919050565b616a0a816169ef565b82525050565b6000602082019050616a256000830184616a01565b92915050565b7f4e487b7100000000000000000000000000000000000000000000000000000000600052602260045260246000fd5b60006002820490506001821680616a7257607f821691505b602082108103616a8557616a84616a2b565b5b50919050565b6000616aa6616aa1616a9c84616083565b6169b1565b61558f565b9050919050565b616ab681616a8b565b82525050565b6000604082019050616ad16000830185615599565b616ade6020830184616aad565b9392505050565b7f4e487b7100000000000000000000000000000000000000000000000000000000600052603260045260246000fd5b6000616b27616b2284616162565b6157c0565b905082815260208101848484011115616b4357616b4261575b565b5b616b4e8482856155df565b509392505050565b600082601f830112616b6b57616b6a615756565b5b8151616b7b848260208601616b14565b91505092915050565b600060208284031215616b9a57616b996154ca565b5b600082015167ffffffffffffffff811115616bb857616bb76154cf565b5b616bc484828501616b56565b91505092915050565b600081905092915050565b6000616be48385616bcd565b9350616bf183858461580c565b82840190509392505050565b6000616c0a828486616bd8565b91508190509392505050565b616c1f81615e24565b82525050565b600060e082019050616c3a600083018a615c95565b616c476020830189615599565b616c546040830188616c16565b616c616060830187615700565b616c6e6080830186615599565b616c7b60a0830185615c95565b616c8860c0830184615c95565b98975050505050505050565b7f4e487b7100000000000000000000000000000000000000000000000000000000600052601160045260246000fd5b6000616cce82616083565b9150616cd983616083565b9250828203905065ffffffffffff811115616cf757616cf6616c94565b5b92915050565b6000606082019050616d126000830186615700565b616d1f6020830185615599565b616d2c6040830184615599565b949350505050565b7f4549503731323a20556e696e697469616c697a65640000000000000000000000600082015250565b6000616d6a6015836155ce565b9150616d7582616d34565b602082019050919050565b60006020820190508181036000830152616d9981616d5d565b9050919050565b600060a082019050616db56000830188615c95565b616dc26020830187615599565b616dcf6040830186616c16565b616ddc6060830185615700565b616de96080830184615599565b9695505050505050565b600081519050616e0281616095565b92915050565b600060208284031215616e1e57616e1d6154ca565b5b6000616e2c84828501616df3565b91505092915050565b6000616e4082616083565b9150616e4b83616083565b9250828201905065ffffffffffff811115616e6957616e68616c94565b5b92915050565b7f4c32476f7665726e6f723a20566f74657320746f6b656e20616464726573732060008201527f63616e6e6f742062652030000000000000000000000000000000000000000000602082015250565b6000616ecb602b836155ce565b9150616ed682616e6f565b604082019050919050565b60006020820190508181036000830152616efa81616ebe565b9050919050565b7f4c32476f7665726e6f723a2054696d656c6f636b20436f6e74726f6c6c65722060008201527f616464726573732063616e6e6f74206265203000000000000000000000000000602082015250565b6000616f5d6033836155ce565b9150616f6882616f01565b604082019050919050565b60006020820190508181036000830152616f8c81616f50565b9050919050565b7f4c32476f7665726e6f723a20696e697469616c206f776e65722061646472657360008201527f732063616e6e6f74206265203000000000000000000000000000000000000000602082015250565b6000616fef602d836155ce565b9150616ffa82616f93565b604082019050919050565b6000602082019050818103600083015261701e81616fe2565b9050919050565b6000819050919050565b600067ffffffffffffffff82169050919050565b600061705e61705961705484617025565b6169b1565b61702f565b9050919050565b61706e81617043565b82525050565b60006020820190506170896000830184617065565b92915050565b600081519050919050565b600082825260208201905092915050565b6000819050602082019050919050565b6170c4816156ee565b82525050565b60006170d683836170bb565b60208301905092915050565b6000602082019050919050565b60006170fa8261708f565b617104818561709a565b935061710f836170ab565b8060005b8381101561714057815161712788826170ca565b9750617132836170e2565b925050600181019050617113565b5085935050505092915050565b600081519050919050565b600082825260208201905092915050565b6000819050602082019050919050565b600081519050919050565b600082825260208201905092915050565b60006171a082617179565b6171aa8185617184565b93506171ba8185602086016155df565b6171c381615609565b840191505092915050565b60006171da8383617195565b905092915050565b6000602082019050919050565b60006171fa8261714d565b6172048185617158565b93508360208202850161721685617169565b8060005b85811015617252578484038952815161723385826171ce565b945061723e836171e2565b925060208a0199505060018101905061721a565b50829750879550505050505092915050565b6000608082019050818103600083015261727e81876170ef565b9050818103602083015261729281866163a2565b905081810360408301526172a681856171ef565b90506172b56060830184615c95565b95945050505050565b60006060820190506172d36000830186615599565b6172e06020830185615d27565b6172ed6040830184615c95565b949350505050565b6172fe81615559565b811461730957600080fd5b50565b60008151905061731b816172f5565b92915050565b600060208284031215617337576173366154ca565b5b60006173458482850161730c565b91505092915050565b60008151905061735d81615bae565b92915050565b600060208284031215617379576173786154ca565b5b60006173878482850161734e565b91505092915050565b60006080820190506173a56000830187615599565b6173b26020830186616c16565b6173bf6040830185615599565b81810360608301526173d1818461561a565b905095945050505050565b600082825260208201905092915050565b60006173f882617179565b61740281856173dc565b93506174128185602086016155df565b61741b81615609565b840191505092915050565b600060a08201905061743b6000830188615599565b6174486020830187616c16565b6174556040830186615599565b8181036060830152617467818561561a565b9050818103608083015261747b81846173ed565b90509695505050505050565b600060408201905061749c6000830185616aad565b6174a96020830184616aad565b9392505050565b60006174bb8261558f565b91506174c68361558f565b92508282039050818111156174de576174dd616c94565b5b92915050565b60006174ef8261558f565b91506174fa8361558f565b925082820190508082111561751257617511616c94565b5b92915050565b600081519050919050565b600082825260208201905092915050565b6000819050602082019050919050565b600082825260208201905092915050565b6000617560826155c3565b61756a8185617544565b935061757a8185602086016155df565b61758381615609565b840191505092915050565b600061759a8383617555565b905092915050565b6000602082019050919050565b60006175ba82617518565b6175c48185617523565b9350836020820285016175d685617534565b8060005b8581101561761257848403895281516175f3858261758e565b94506175fe836175a2565b925060208a019950506001810190506175da565b50829750879550505050505092915050565b60006101208201905061763a600083018c615599565b617647602083018b615700565b8181036040830152617659818a6170ef565b9050818103606083015261766d81896163a2565b9050818103608083015261768181886175af565b905081810360a083015261769581876171ef565b90506176a460c0830186615599565b6176b160e0830185615599565b8181036101008301526176c4818461561a565b90509a9950505050505050505050565b60006040820190506176e96000830185615700565b6176f66020830184615599565b9392505050565b60008151905061770c81615675565b92915050565b600060208284031215617728576177276154ca565b5b6000617736848285016176fd565b91505092915050565b60006040820190506177546000830185615700565b6177616020830184615700565b9392505050565b6000819050919050565b600061778d61778861778384617768565b6169b1565b61558f565b9050919050565b61779d81617772565b82525050565b60006020820190506177b86000830184617794565b92915050565b60006177d96177d46177cf8461661d565b6169b1565b61558f565b9050919050565b6177e9816177be565b82525050565b600060408201905061780460008301856177e0565b61781160208301846177e0565b9392505050565b600060408201905061782d6000830185615599565b61783a6020830184615599565b9392505050565b60008160001b9050919050565b600061786961786461785f84617768565b617841565b615ba4565b9050919050565b6178798161784e565b82525050565b600060a082019050818103600083015261789981886170ef565b905081810360208301526178ad81876163a2565b905081810360408301526178c181866171ef565b90506178d06060830185617870565b6178dd6080830184615c95565b9695505050505050565b600060c082019050818103600083015261790181896170ef565b9050818103602083015261791581886163a2565b9050818103604083015261792981876171ef565b90506179386060830186617870565b6179456080830185615c95565b61795260a0830184615599565b979650505050505050565b60006040820190506179726000830185615c95565b818103602083015261798481846173ed565b90509392505050565b600061799882617179565b6179a28185616bcd565b93506179b28185602086016155df565b80840191505092915050565b60006179ca828461798d565b915081905092915050565b6000819050919050565b60006179fa6179f56179f0846179d5565b6169b1565b615e24565b9050919050565b617a0a816179df565b82525050565b6000604082019050617a256000830185617a01565b617a326020830184615599565b9392505050565b6000819050919050565b6000617a5e617a59617a5484617a39565b6169b1565b615e24565b9050919050565b617a6e81617a43565b82525050565b6000604082019050617a896000830185617a65565b617a966020830184615599565b9392505050565b60008190508160005260206000209050919050565b60006020601f8301049050919050565b600082821b905092915050565b600060088302617aff7fffffffffffffffffffffffffffffffffffffffffffffffffffffffffffffffff82617ac2565b617b098683617ac2565b95508019841693508086168417925050509392505050565b6000617b3c617b37617b328461558f565b6169b1565b61558f565b9050919050565b6000819050919050565b617b5683617b21565b617b6a617b6282617b43565b848454617acf565b825550505050565b600090565b617b7f617b72565b617b8a818484617b4d565b505050565b5b81811015617bae57617ba3600082617b77565b600181019050617b90565b5050565b601f821115617bf357617bc481617a9d565b617bcd84617ab2565b81016020851015617bdc578190505b617bf0617be885617ab2565b830182617b8f565b50505b505050565b600082821c905092915050565b6000617c1660001984600802617bf8565b1980831691505092915050565b6000617c2f8383617c05565b9150826002028217905092915050565b617c48826155c3565b67ffffffffffffffff811115617c6157617c60615760565b5b617c6b8254616a5a565b617c76828285617bb2565b600060209050601f831160018114617ca95760008415617c97578287015190505b617ca18582617c23565b865550617d09565b601f198416617cb786617a9d565b60005b82811015617cdf57848901518255600182019150602085019450602081019050617cba565b86831015617cfc5784890151617cf8601f891682617c05565b8355505b6001600288020188555050505b505050505050565b6000617d1c82615e24565b9150617d2783615e24565b9250828201905060ff811115617d4057617d3f616c94565b5b92915050565b60008160011c9050919050565b6000808291508390505b6001851115617d9d57808604811115617d7957617d78616c94565b5b6001851615617d885780820291505b8081029050617d9685617d46565b9450617d5d565b94509492505050565b600082617db65760019050617e72565b81617dc45760009050617e72565b8160018114617dda5760028114617de457617e13565b6001915050617e72565b60ff841115617df657617df5616c94565b5b8360020a915084821115617e0d57617e0c616c94565b5b50617e72565b5060208310610133831016604e8410600b8410161715617e485782820a905083811115617e4357617e42616c94565b5b617e72565b617e558484846001617d53565b92509050818404811115617e6c57617e6b616c94565b5b81810290505b9392505050565b6000617e848261558f565b9150617e8f83615e24565b9250617ebc7fffffffffffffffffffffffffffffffffffffffffffffffffffffffffffffffff8484617da6565b905092915050565b600060a082019050617ed96000830188615c95565b617ee66020830187615c95565b617ef36040830186615c95565b617f006060830185615599565b617f0d6080830184615700565b9695505050505050565b6000608082019050617f2c6000830187615c95565b617f396020830186616c16565b617f466040830185615c95565b617f536060830184615c95565b9594505050505056fea2646970667358221220291d8467a0b246872f4021d6db2b77cb9e43cf87bb92e798b5759095bbd2aa2364736f6c63430008170033",
  "linkReferences": {},
  "deployedLinkReferences": {}
}