{
  "_format": "hh-sol-artifact-1",
  "contractName": "VestingWalletUpgradeable",
  "sourceName": "@openzeppelin-upgradeable/contracts/finance/VestingWalletUpgradeable.sol",
  "abi": [
    {
      "inputs": [
        {
          "internalType": "address",
          "name": "target",
          "type": "address"
        }
      ],
      "name": "AddressEmptyCode",
      "type": "error"
    },
    {
      "inputs": [
        {
          "internalType": "address",
          "name": "account",
          "type": "address"
        }
      ],
      "name": "AddressInsufficientBalance",
      "type": "error"
    },
    {
      "inputs": [],
      "name": "FailedInnerCall",
      "type": "error"
    },
    {
      "inputs": [],
      "name": "InvalidInitialization",
      "type": "error"
    },
    {
      "inputs": [],
      "name": "NotInitializing",
      "type": "error"
    },
    {
      "inputs": [
        {
          "internalType": "address",
          "name": "owner",
          "type": "address"
        }
      ],
      "name": "OwnableInvalidOwner",
      "type": "error"
    },
    {
      "inputs": [
        {
          "internalType": "address",
          "name": "account",
          "type": "address"
        }
      ],
      "name": "OwnableUnauthorizedAccount",
      "type": "error"
    },
    {
      "inputs": [
        {
          "internalType": "address",
          "name": "token",
          "type": "address"
        }
      ],
      "name": "SafeERC20FailedOperation",
      "type": "error"
    },
    {
      "anonymous": false,
      "inputs": [
        {
          "indexed": true,
          "internalType": "address",
          "name": "token",
          "type": "address"
        },
        {
          "indexed": false,
          "internalType": "uint256",
          "name": "amount",
          "type": "uint256"
        }
      ],
      "name": "ERC20Released",
      "type": "event"
    },
    {
      "anonymous": false,
      "inputs": [
        {
          "indexed": false,
          "internalType": "uint256",
          "name": "amount",
          "type": "uint256"
        }
      ],
      "name": "EtherReleased",
      "type": "event"
    },
    {
      "anonymous": false,
      "inputs": [
        {
          "indexed": false,
          "internalType": "uint64",
          "name": "version",
          "type": "uint64"
        }
      ],
      "name": "Initialized",
      "type": "event"
    },
    {
      "anonymous": false,
      "inputs": [
        {
          "indexed": true,
          "internalType": "address",
          "name": "previousOwner",
          "type": "address"
        },
        {
          "indexed": true,
          "internalType": "address",
          "name": "newOwner",
          "type": "address"
        }
      ],
      "name": "OwnershipTransferred",
      "type": "event"
    },
    {
      "inputs": [],
      "name": "duration",
      "outputs": [
        {
          "internalType": "uint256",
          "name": "",
          "type": "uint256"
        }
      ],
      "stateMutability": "view",
      "type": "function"
    },
    {
      "inputs": [],
      "name": "end",
      "outputs": [
        {
          "internalType": "uint256",
          "name": "",
          "type": "uint256"
        }
      ],
      "stateMutability": "view",
      "type": "function"
    },
    {
      "inputs": [],
      "name": "owner",
      "outputs": [
        {
          "internalType": "address",
          "name": "",
          "type": "address"
        }
      ],
      "stateMutability": "view",
      "type": "function"
    },
    {
      "inputs": [
        {
          "internalType": "address",
          "name": "token",
          "type": "address"
        }
      ],
      "name": "releasable",
      "outputs": [
        {
          "internalType": "uint256",
          "name": "",
          "type": "uint256"
        }
      ],
      "stateMutability": "view",
      "type": "function"
    },
    {
      "inputs": [],
      "name": "releasable",
      "outputs": [
        {
          "internalType": "uint256",
          "name": "",
          "type": "uint256"
        }
      ],
      "stateMutability": "view",
      "type": "function"
    },
    {
      "inputs": [
        {
          "internalType": "address",
          "name": "token",
          "type": "address"
        }
      ],
      "name": "release",
      "outputs": [],
      "stateMutability": "nonpayable",
      "type": "function"
    },
    {
      "inputs": [],
      "name": "release",
      "outputs": [],
      "stateMutability": "nonpayable",
      "type": "function"
    },
    {
      "inputs": [],
      "name": "released",
      "outputs": [
        {
          "internalType": "uint256",
          "name": "",
          "type": "uint256"
        }
      ],
      "stateMutability": "view",
      "type": "function"
    },
    {
      "inputs": [
        {
          "internalType": "address",
          "name": "token",
          "type": "address"
        }
      ],
      "name": "released",
      "outputs": [
        {
          "internalType": "uint256",
          "name": "",
          "type": "uint256"
        }
      ],
      "stateMutability": "view",
      "type": "function"
    },
    {
      "inputs": [],
      "name": "renounceOwnership",
      "outputs": [],
      "stateMutability": "nonpayable",
      "type": "function"
    },
    {
      "inputs": [],
      "name": "start",
      "outputs": [
        {
          "internalType": "uint256",
          "name": "",
          "type": "uint256"
        }
      ],
      "stateMutability": "view",
      "type": "function"
    },
    {
      "inputs": [
        {
          "internalType": "address",
          "name": "newOwner",
          "type": "address"
        }
      ],
      "name": "transferOwnership",
      "outputs": [],
      "stateMutability": "nonpayable",
      "type": "function"
    },
    {
      "inputs": [
        {
          "internalType": "uint64",
          "name": "timestamp",
          "type": "uint64"
        }
      ],
      "name": "vestedAmount",
      "outputs": [
        {
          "internalType": "uint256",
          "name": "",
          "type": "uint256"
        }
      ],
      "stateMutability": "view",
      "type": "function"
    },
    {
      "inputs": [
        {
          "internalType": "address",
          "name": "token",
          "type": "address"
        },
        {
          "internalType": "uint64",
          "name": "timestamp",
          "type": "uint64"
        }
      ],
      "name": "vestedAmount",
      "outputs": [
        {
          "internalType": "uint256",
          "name": "",
          "type": "uint256"
        }
      ],
      "stateMutability": "view",
      "type": "function"
    },
    {
      "stateMutability": "payable",
      "type": "receive"
    }
  ],
  "bytecode": "0x608060405234801561001057600080fd5b5061123e806100206000396000f3fe6080604052600436106100e15760003560e01c8063961325211161007f578063be9a655511610059578063be9a6555146102b9578063efbe1c1c146102e4578063f2fde38b1461030f578063fbccedae14610338576100e8565b806396132521146102145780639852595c1461023f578063a3f8eace1461027c576100e8565b8063715018a6116100bb578063715018a61461017e578063810ec23b1461019557806386d1a69f146101d25780638da5cb5b146101e9576100e8565b80630a17b06b146100ed5780630fb5a6b41461012a5780631916558714610155576100e8565b366100e857005b600080fd5b3480156100f957600080fd5b50610114600480360381019061010f9190610dcf565b610363565b6040516101219190610e15565b60405180910390f35b34801561013657600080fd5b5061013f610388565b60405161014c9190610e15565b60405180910390f35b34801561016157600080fd5b5061017c60048036038101906101779190610e8e565b6103be565b005b34801561018a57600080fd5b50610193610494565b005b3480156101a157600080fd5b506101bc60048036038101906101b79190610ebb565b6104a8565b6040516101c99190610e15565b60405180910390f35b3480156101de57600080fd5b506101e7610548565b005b3480156101f557600080fd5b506101fe6105c7565b60405161020b9190610f0a565b60405180910390f35b34801561022057600080fd5b506102296105ff565b6040516102369190610e15565b60405180910390f35b34801561024b57600080fd5b5061026660048036038101906102619190610e8e565b610617565b6040516102739190610e15565b60405180910390f35b34801561028857600080fd5b506102a3600480360381019061029e9190610e8e565b61066e565b6040516102b09190610e15565b60405180910390f35b3480156102c557600080fd5b506102ce610694565b6040516102db9190610e15565b60405180910390f35b3480156102f057600080fd5b506102f96106ca565b6040516103069190610e15565b60405180910390f35b34801561031b57600080fd5b5061033660048036038101906103319190610e8e565b6106eb565b005b34801561034457600080fd5b5061034d610771565b60405161035a9190610e15565b60405180910390f35b60006103816103706105ff565b4761037b9190610f54565b83610793565b9050919050565b60008061039361081a565b90508060020160089054906101000a900467ffffffffffffffff1667ffffffffffffffff1691505090565b60006103c861081a565b905060006103d58361066e565b9050808260010160008573ffffffffffffffffffffffffffffffffffffffff1673ffffffffffffffffffffffffffffffffffffffff16815260200190815260200160002060008282546104289190610f54565b925050819055508273ffffffffffffffffffffffffffffffffffffffff167fc0e523490dd523c33b1878c9eb14ff46991e3f5b2cd33710918618f2a39cba1b826040516104759190610e15565b60405180910390a261048f836104896105c7565b83610842565b505050565b61049c6108c1565b6104a66000610948565b565b60006105406104b684610617565b8473ffffffffffffffffffffffffffffffffffffffff166370a08231306040518263ffffffff1660e01b81526004016104ef9190610f0a565b602060405180830381865afa15801561050c573d6000803e3d6000fd5b505050506040513d601f19601f820116820180604052508101906105309190610fb4565b61053a9190610f54565b83610793565b905092915050565b600061055261081a565b9050600061055e610771565b9050808260000160008282546105749190610f54565b925050819055507fda9d4e5f101b8b9b1c5b76d0c5a9f7923571acfc02376aa076b75a8c080c956b816040516105aa9190610e15565b60405180910390a16105c36105bd6105c7565b82610a1f565b5050565b6000806105d2610b0c565b90508060000160009054906101000a900473ffffffffffffffffffffffffffffffffffffffff1691505090565b60008061060a61081a565b9050806000015491505090565b60008061062261081a565b90508060010160008473ffffffffffffffffffffffffffffffffffffffff1673ffffffffffffffffffffffffffffffffffffffff16815260200190815260200160002054915050919050565b600061067982610617565b61068383426104a8565b61068d9190610fe1565b9050919050565b60008061069f61081a565b90508060020160009054906101000a900467ffffffffffffffff1667ffffffffffffffff1691505090565b60006106d4610388565b6106dc610694565b6106e69190610f54565b905090565b6106f36108c1565b600073ffffffffffffffffffffffffffffffffffffffff168173ffffffffffffffffffffffffffffffffffffffff16036107655760006040517f1e4fbdf700000000000000000000000000000000000000000000000000000000815260040161075c9190610f0a565b60405180910390fd5b61076e81610948565b50565b600061077b6105ff565b61078442610363565b61078e9190610fe1565b905090565b600061079d610694565b8267ffffffffffffffff1610156107b75760009050610814565b6107bf6106ca565b8267ffffffffffffffff16106107d757829050610814565b6107df610388565b6107e7610694565b8367ffffffffffffffff166107fc9190610fe1565b846108079190611015565b6108119190611086565b90505b92915050565b60007fa1eac494560f7591e4da38ed031587f09556afdfc4399dd2e205b935fdfa3900905090565b6108bc838473ffffffffffffffffffffffffffffffffffffffff1663a9059cbb85856040516024016108759291906110b7565b604051602081830303815290604052915060e01b6020820180517bffffffffffffffffffffffffffffffffffffffffffffffffffffffff8381831617835250505050610b34565b505050565b6108c9610bcb565b73ffffffffffffffffffffffffffffffffffffffff166108e76105c7565b73ffffffffffffffffffffffffffffffffffffffff16146109465761090a610bcb565b6040517f118cdaa700000000000000000000000000000000000000000000000000000000815260040161093d9190610f0a565b60405180910390fd5b565b6000610952610b0c565b905060008160000160009054906101000a900473ffffffffffffffffffffffffffffffffffffffff169050828260000160006101000a81548173ffffffffffffffffffffffffffffffffffffffff021916908373ffffffffffffffffffffffffffffffffffffffff1602179055508273ffffffffffffffffffffffffffffffffffffffff168173ffffffffffffffffffffffffffffffffffffffff167f8be0079c531659141344cd1fd0a4f28419497f9722a3daafe3b4186f6b6457e060405160405180910390a3505050565b80471015610a6457306040517fcd786059000000000000000000000000000000000000000000000000000000008152600401610a5b9190610f0a565b60405180910390fd5b60008273ffffffffffffffffffffffffffffffffffffffff1682604051610a8a90611111565b60006040518083038185875af1925050503d8060008114610ac7576040519150601f19603f3d011682016040523d82523d6000602084013e610acc565b606091505b5050905080610b07576040517f1425ea4200000000000000000000000000000000000000000000000000000000815260040160405180910390fd5b505050565b60007f9016d09d72d40fdae2fd8ceac6b6234c7706214fd39c1cd1e609a0528c199300905090565b6000610b5f828473ffffffffffffffffffffffffffffffffffffffff16610bd390919063ffffffff16565b90506000815114158015610b84575080806020019051810190610b82919061115e565b155b15610bc657826040517f5274afe7000000000000000000000000000000000000000000000000000000008152600401610bbd9190610f0a565b60405180910390fd5b505050565b600033905090565b6060610be183836000610be9565b905092915050565b606081471015610c3057306040517fcd786059000000000000000000000000000000000000000000000000000000008152600401610c279190610f0a565b60405180910390fd5b6000808573ffffffffffffffffffffffffffffffffffffffff168486604051610c5991906111f1565b60006040518083038185875af1925050503d8060008114610c96576040519150601f19603f3d011682016040523d82523d6000602084013e610c9b565b606091505b5091509150610cab868383610cb6565b925050509392505050565b606082610ccb57610cc682610d45565b610d3d565b60008251148015610cf3575060008473ffffffffffffffffffffffffffffffffffffffff163b145b15610d3557836040517f9996b315000000000000000000000000000000000000000000000000000000008152600401610d2c9190610f0a565b60405180910390fd5b819050610d3e565b5b9392505050565b600081511115610d585780518082602001fd5b6040517f1425ea4200000000000000000000000000000000000000000000000000000000815260040160405180910390fd5b600080fd5b600067ffffffffffffffff82169050919050565b610dac81610d8f565b8114610db757600080fd5b50565b600081359050610dc981610da3565b92915050565b600060208284031215610de557610de4610d8a565b5b6000610df384828501610dba565b91505092915050565b6000819050919050565b610e0f81610dfc565b82525050565b6000602082019050610e2a6000830184610e06565b92915050565b600073ffffffffffffffffffffffffffffffffffffffff82169050919050565b6000610e5b82610e30565b9050919050565b610e6b81610e50565b8114610e7657600080fd5b50565b600081359050610e8881610e62565b92915050565b600060208284031215610ea457610ea3610d8a565b5b6000610eb284828501610e79565b91505092915050565b60008060408385031215610ed257610ed1610d8a565b5b6000610ee085828601610e79565b9250506020610ef185828601610dba565b9150509250929050565b610f0481610e50565b82525050565b6000602082019050610f1f6000830184610efb565b92915050565b7f4e487b7100000000000000000000000000000000000000000000000000000000600052601160045260246000fd5b6000610f5f82610dfc565b9150610f6a83610dfc565b9250828201905080821115610f8257610f81610f25565b5b92915050565b610f9181610dfc565b8114610f9c57600080fd5b50565b600081519050610fae81610f88565b92915050565b600060208284031215610fca57610fc9610d8a565b5b6000610fd884828501610f9f565b91505092915050565b6000610fec82610dfc565b9150610ff783610dfc565b925082820390508181111561100f5761100e610f25565b5b92915050565b600061102082610dfc565b915061102b83610dfc565b925082820261103981610dfc565b915082820484148315176110505761104f610f25565b5b5092915050565b7f4e487b7100000000000000000000000000000000000000000000000000000000600052601260045260246000fd5b600061109182610dfc565b915061109c83610dfc565b9250826110ac576110ab611057565b5b828204905092915050565b60006040820190506110cc6000830185610efb565b6110d96020830184610e06565b9392505050565b600081905092915050565b50565b60006110fb6000836110e0565b9150611106826110eb565b600082019050919050565b600061111c826110ee565b9150819050919050565b60008115159050919050565b61113b81611126565b811461114657600080fd5b50565b60008151905061115881611132565b92915050565b60006020828403121561117457611173610d8a565b5b600061118284828501611149565b91505092915050565b600081519050919050565b60005b838110156111b4578082015181840152602081019050611199565b60008484015250505050565b60006111cb8261118b565b6111d581856110e0565b93506111e5818560208601611196565b80840191505092915050565b60006111fd82846111c0565b91508190509291505056fea2646970667358221220798023971446c71f6183248c293fb4f16c8bd032e03d6278b4d0dbce99d926bb64736f6c63430008170033",
  "linkReferences": {},
  "deployedLinkReferences": {}
}