{
  "_format": "hh-sol-artifact-1",
  "contractName": "L2LiskToken",
  "sourceName": "src/L2/L2LiskToken.sol",
  "abi": [
    {
      "inputs": [
        {
          "internalType": "address",
          "name": "remoteTokenAddr",
          "type": "address"
        }
      ],
      "stateMutability": "nonpayable",
      "type": "constructor"
    },
    {
      "inputs": [],
      "name": "ECDSAInvalidSignature",
      "type": "error"
    },
    {
      "inputs": [
        {
          "internalType": "uint256",
          "name": "length",
          "type": "uint256"
        }
      ],
      "name": "ECDSAInvalidSignatureLength",
      "type": "error"
    },
    {
      "inputs": [
        {
          "internalType": "bytes32",
          "name": "s",
          "type": "bytes32"
        }
      ],
      "name": "ECDSAInvalidSignatureS",
      "type": "error"
    },
    {
      "inputs": [
        {
          "internalType": "address",
          "name": "spender",
          "type": "address"
        },
        {
          "internalType": "uint256",
          "name": "allowance",
          "type": "uint256"
        },
        {
          "internalType": "uint256",
          "name": "needed",
          "type": "uint256"
        }
      ],
      "name": "ERC20InsufficientAllowance",
      "type": "error"
    },
    {
      "inputs": [
        {
          "internalType": "address",
          "name": "sender",
          "type": "address"
        },
        {
          "internalType": "uint256",
          "name": "balance",
          "type": "uint256"
        },
        {
          "internalType": "uint256",
          "name": "needed",
          "type": "uint256"
        }
      ],
      "name": "ERC20InsufficientBalance",
      "type": "error"
    },
    {
      "inputs": [
        {
          "internalType": "address",
          "name": "approver",
          "type": "address"
        }
      ],
      "name": "ERC20InvalidApprover",
      "type": "error"
    },
    {
      "inputs": [
        {
          "internalType": "address",
          "name": "receiver",
          "type": "address"
        }
      ],
      "name": "ERC20InvalidReceiver",
      "type": "error"
    },
    {
      "inputs": [
        {
          "internalType": "address",
          "name": "sender",
          "type": "address"
        }
      ],
      "name": "ERC20InvalidSender",
      "type": "error"
    },
    {
      "inputs": [
        {
          "internalType": "address",
          "name": "spender",
          "type": "address"
        }
      ],
      "name": "ERC20InvalidSpender",
      "type": "error"
    },
    {
      "inputs": [
        {
          "internalType": "uint256",
          "name": "deadline",
          "type": "uint256"
        }
      ],
      "name": "ERC2612ExpiredSignature",
      "type": "error"
    },
    {
      "inputs": [
        {
          "internalType": "address",
          "name": "signer",
          "type": "address"
        },
        {
          "internalType": "address",
          "name": "owner",
          "type": "address"
        }
      ],
      "name": "ERC2612InvalidSigner",
      "type": "error"
    },
    {
      "inputs": [
        {
          "internalType": "address",
          "name": "account",
          "type": "address"
        },
        {
          "internalType": "uint256",
          "name": "currentNonce",
          "type": "uint256"
        }
      ],
      "name": "InvalidAccountNonce",
      "type": "error"
    },
    {
      "inputs": [],
      "name": "InvalidShortString",
      "type": "error"
    },
    {
      "inputs": [
        {
          "internalType": "string",
          "name": "str",
          "type": "string"
        }
      ],
      "name": "StringTooLong",
      "type": "error"
    },
    {
      "anonymous": false,
      "inputs": [
        {
          "indexed": true,
          "internalType": "address",
          "name": "owner",
          "type": "address"
        },
        {
          "indexed": true,
          "internalType": "address",
          "name": "spender",
          "type": "address"
        },
        {
          "indexed": false,
          "internalType": "uint256",
          "name": "value",
          "type": "uint256"
        }
      ],
      "name": "Approval",
      "type": "event"
    },
    {
      "anonymous": false,
      "inputs": [
        {
          "indexed": true,
          "internalType": "address",
          "name": "oldBridgeAddr",
          "type": "address"
        },
        {
          "indexed": true,
          "internalType": "address",
          "name": "newBridgeAddr",
          "type": "address"
        }
      ],
      "name": "BridgeAddressChanged",
      "type": "event"
    },
    {
      "anonymous": false,
      "inputs": [
        {
          "indexed": true,
          "internalType": "address",
          "name": "account",
          "type": "address"
        },
        {
          "indexed": false,
          "internalType": "uint256",
          "name": "amount",
          "type": "uint256"
        }
      ],
      "name": "Burn",
      "type": "event"
    },
    {
      "anonymous": false,
      "inputs": [],
      "name": "EIP712DomainChanged",
      "type": "event"
    },
    {
      "anonymous": false,
      "inputs": [
        {
          "indexed": true,
          "internalType": "address",
          "name": "account",
          "type": "address"
        },
        {
          "indexed": false,
          "internalType": "uint256",
          "name": "amount",
          "type": "uint256"
        }
      ],
      "name": "Mint",
      "type": "event"
    },
    {
      "anonymous": false,
      "inputs": [
        {
          "indexed": true,
          "internalType": "address",
          "name": "from",
          "type": "address"
        },
        {
          "indexed": true,
          "internalType": "address",
          "name": "to",
          "type": "address"
        },
        {
          "indexed": false,
          "internalType": "uint256",
          "name": "value",
          "type": "uint256"
        }
      ],
      "name": "Transfer",
      "type": "event"
    },
    {
      "inputs": [],
      "name": "BRIDGE",
      "outputs": [
        {
          "internalType": "address",
          "name": "",
          "type": "address"
        }
      ],
      "stateMutability": "view",
      "type": "function"
    },
    {
      "inputs": [],
      "name": "DOMAIN_SEPARATOR",
      "outputs": [
        {
          "internalType": "bytes32",
          "name": "",
          "type": "bytes32"
        }
      ],
      "stateMutability": "view",
      "type": "function"
    },
    {
      "inputs": [],
      "name": "REMOTE_TOKEN",
      "outputs": [
        {
          "internalType": "address",
          "name": "",
          "type": "address"
        }
      ],
      "stateMutability": "view",
      "type": "function"
    },
    {
      "inputs": [
        {
          "internalType": "address",
          "name": "owner",
          "type": "address"
        },
        {
          "internalType": "address",
          "name": "spender",
          "type": "address"
        }
      ],
      "name": "allowance",
      "outputs": [
        {
          "internalType": "uint256",
          "name": "",
          "type": "uint256"
        }
      ],
      "stateMutability": "view",
      "type": "function"
    },
    {
      "inputs": [
        {
          "internalType": "address",
          "name": "spender",
          "type": "address"
        },
        {
          "internalType": "uint256",
          "name": "value",
          "type": "uint256"
        }
      ],
      "name": "approve",
      "outputs": [
        {
          "internalType": "bool",
          "name": "",
          "type": "bool"
        }
      ],
      "stateMutability": "nonpayable",
      "type": "function"
    },
    {
      "inputs": [
        {
          "internalType": "address",
          "name": "account",
          "type": "address"
        }
      ],
      "name": "balanceOf",
      "outputs": [
        {
          "internalType": "uint256",
          "name": "",
          "type": "uint256"
        }
      ],
      "stateMutability": "view",
      "type": "function"
    },
    {
      "inputs": [],
      "name": "bridge",
      "outputs": [
        {
          "internalType": "address",
          "name": "",
          "type": "address"
        }
      ],
      "stateMutability": "view",
      "type": "function"
    },
    {
      "inputs": [
        {
          "internalType": "address",
          "name": "from",
          "type": "address"
        },
        {
          "internalType": "uint256",
          "name": "amount",
          "type": "uint256"
        }
      ],
      "name": "burn",
      "outputs": [],
      "stateMutability": "nonpayable",
      "type": "function"
    },
    {
      "inputs": [],
      "name": "decimals",
      "outputs": [
        {
          "internalType": "uint8",
          "name": "",
          "type": "uint8"
        }
      ],
      "stateMutability": "view",
      "type": "function"
    },
    {
      "inputs": [],
      "name": "eip712Domain",
      "outputs": [
        {
          "internalType": "bytes1",
          "name": "fields",
          "type": "bytes1"
        },
        {
          "internalType": "string",
          "name": "name",
          "type": "string"
        },
        {
          "internalType": "string",
          "name": "version",
          "type": "string"
        },
        {
          "internalType": "uint256",
          "name": "chainId",
          "type": "uint256"
        },
        {
          "internalType": "address",
          "name": "verifyingContract",
          "type": "address"
        },
        {
          "internalType": "bytes32",
          "name": "salt",
          "type": "bytes32"
        },
        {
          "internalType": "uint256[]",
          "name": "extensions",
          "type": "uint256[]"
        }
      ],
      "stateMutability": "view",
      "type": "function"
    },
    {
      "inputs": [
        {
          "internalType": "address",
          "name": "bridgeAddr",
          "type": "address"
        }
      ],
      "name": "initialize",
      "outputs": [],
      "stateMutability": "nonpayable",
      "type": "function"
    },
    {
      "inputs": [
        {
          "internalType": "address",
          "name": "to",
          "type": "address"
        },
        {
          "internalType": "uint256",
          "name": "amount",
          "type": "uint256"
        }
      ],
      "name": "mint",
      "outputs": [],
      "stateMutability": "nonpayable",
      "type": "function"
    },
    {
      "inputs": [],
      "name": "name",
      "outputs": [
        {
          "internalType": "string",
          "name": "",
          "type": "string"
        }
      ],
      "stateMutability": "view",
      "type": "function"
    },
    {
      "inputs": [
        {
          "internalType": "address",
          "name": "owner",
          "type": "address"
        }
      ],
      "name": "nonces",
      "outputs": [
        {
          "internalType": "uint256",
          "name": "",
          "type": "uint256"
        }
      ],
      "stateMutability": "view",
      "type": "function"
    },
    {
      "inputs": [
        {
          "internalType": "address",
          "name": "owner",
          "type": "address"
        },
        {
          "internalType": "address",
          "name": "spender",
          "type": "address"
        },
        {
          "internalType": "uint256",
          "name": "value",
          "type": "uint256"
        },
        {
          "internalType": "uint256",
          "name": "deadline",
          "type": "uint256"
        },
        {
          "internalType": "uint8",
          "name": "v",
          "type": "uint8"
        },
        {
          "internalType": "bytes32",
          "name": "r",
          "type": "bytes32"
        },
        {
          "internalType": "bytes32",
          "name": "s",
          "type": "bytes32"
        }
      ],
      "name": "permit",
      "outputs": [],
      "stateMutability": "nonpayable",
      "type": "function"
    },
    {
      "inputs": [],
      "name": "remoteToken",
      "outputs": [
        {
          "internalType": "address",
          "name": "",
          "type": "address"
        }
      ],
      "stateMutability": "view",
      "type": "function"
    },
    {
      "inputs": [
        {
          "internalType": "bytes4",
          "name": "interfaceId",
          "type": "bytes4"
        }
      ],
      "name": "supportsInterface",
      "outputs": [
        {
          "internalType": "bool",
          "name": "",
          "type": "bool"
        }
      ],
      "stateMutability": "pure",
      "type": "function"
    },
    {
      "inputs": [],
      "name": "symbol",
      "outputs": [
        {
          "internalType": "string",
          "name": "",
          "type": "string"
        }
      ],
      "stateMutability": "view",
      "type": "function"
    },
    {
      "inputs": [],
      "name": "totalSupply",
      "outputs": [
        {
          "internalType": "uint256",
          "name": "",
          "type": "uint256"
        }
      ],
      "stateMutability": "view",
      "type": "function"
    },
    {
      "inputs": [
        {
          "internalType": "address",
          "name": "to",
          "type": "address"
        },
        {
          "internalType": "uint256",
          "name": "value",
          "type": "uint256"
        }
      ],
      "name": "transfer",
      "outputs": [
        {
          "internalType": "bool",
          "name": "",
          "type": "bool"
        }
      ],
      "stateMutability": "nonpayable",
      "type": "function"
    },
    {
      "inputs": [
        {
          "internalType": "address",
          "name": "from",
          "type": "address"
        },
        {
          "internalType": "address",
          "name": "to",
          "type": "address"
        },
        {
          "internalType": "uint256",
          "name": "value",
          "type": "uint256"
        }
      ],
      "name": "transferFrom",
      "outputs": [
        {
          "internalType": "bool",
          "name": "",
          "type": "bool"
        }
      ],
      "stateMutability": "nonpayable",
      "type": "function"
    }
  ],
  "bytecode": "0x6101a06040523480156200001257600080fd5b506040516200319738038062003197833981810160405281019062000038919062000461565b6040518060400160405280600481526020017f4c69736b00000000000000000000000000000000000000000000000000000000815250806040518060400160405280600181526020017f31000000000000000000000000000000000000000000000000000000000000008152506040518060400160405280600481526020017f4c69736b000000000000000000000000000000000000000000000000000000008152506040518060400160405280600381526020017f4c534b000000000000000000000000000000000000000000000000000000000081525081600390816200012291906200070d565b5080600490816200013491906200070d565b5050506200014d600583620002cb60201b90919060201c565b61012081815250506200016b600682620002cb60201b90919060201c565b6101408181525050818051906020012060e08181525050808051906020012061010081815250504660a08181525050620001aa6200032360201b60201c565b608081815250503073ffffffffffffffffffffffffffffffffffffffff1660c08173ffffffffffffffffffffffffffffffffffffffff1681525050505050600073ffffffffffffffffffffffffffffffffffffffff168173ffffffffffffffffffffffffffffffffffffffff16036200025a576040517f08c379a000000000000000000000000000000000000000000000000000000000815260040162000251906200087b565b60405180910390fd5b8073ffffffffffffffffffffffffffffffffffffffff166101808173ffffffffffffffffffffffffffffffffffffffff16815250503273ffffffffffffffffffffffffffffffffffffffff166101608173ffffffffffffffffffffffffffffffffffffffff16815250505062000a7b565b6000602083511015620002f157620002e9836200038060201b60201c565b90506200031d565b826200030383620003ed60201b60201c565b60000190816200031491906200070d565b5060ff60001b90505b92915050565b60007f8b73c3c69bb8fe3d512ecc4cf759cc79239f7b179b0ffacaa9a75d522b39400f60e05161010051463060405160200162000365959493929190620008da565b60405160208183030381529060405280519060200120905090565b600080829050601f81511115620003d057826040517f305a27a9000000000000000000000000000000000000000000000000000000008152600401620003c79190620009b5565b60405180910390fd5b805181620003de9062000a0b565b60001c1760001b915050919050565b6000819050919050565b600080fd5b600073ffffffffffffffffffffffffffffffffffffffff82169050919050565b60006200042982620003fc565b9050919050565b6200043b816200041c565b81146200044757600080fd5b50565b6000815190506200045b8162000430565b92915050565b6000602082840312156200047a5762000479620003f7565b5b60006200048a848285016200044a565b91505092915050565b600081519050919050565b7f4e487b7100000000000000000000000000000000000000000000000000000000600052604160045260246000fd5b7f4e487b7100000000000000000000000000000000000000000000000000000000600052602260045260246000fd5b600060028204905060018216806200051557607f821691505b6020821081036200052b576200052a620004cd565b5b50919050565b60008190508160005260206000209050919050565b60006020601f8301049050919050565b600082821b905092915050565b600060088302620005957fffffffffffffffffffffffffffffffffffffffffffffffffffffffffffffffff8262000556565b620005a1868362000556565b95508019841693508086168417925050509392505050565b6000819050919050565b6000819050919050565b6000620005ee620005e8620005e284620005b9565b620005c3565b620005b9565b9050919050565b6000819050919050565b6200060a83620005cd565b620006226200061982620005f5565b84845462000563565b825550505050565b600090565b620006396200062a565b62000646818484620005ff565b505050565b5b818110156200066e57620006626000826200062f565b6001810190506200064c565b5050565b601f821115620006bd57620006878162000531565b620006928462000546565b81016020851015620006a2578190505b620006ba620006b18562000546565b8301826200064b565b50505b505050565b600082821c905092915050565b6000620006e260001984600802620006c2565b1980831691505092915050565b6000620006fd8383620006cf565b9150826002028217905092915050565b620007188262000493565b67ffffffffffffffff8111156200073457620007336200049e565b5b620007408254620004fc565b6200074d82828562000672565b600060209050601f83116001811462000785576000841562000770578287015190505b6200077c8582620006ef565b865550620007ec565b601f198416620007958662000531565b60005b82811015620007bf5784890151825560018201915060208501945060208101905062000798565b86831015620007df5784890151620007db601f891682620006cf565b8355505b6001600288020188555050505b505050505050565b600082825260208201905092915050565b7f4c324c69736b546f6b656e3a2072656d6f7465546f6b656e416464722063616e60008201527f206e6f74206265207a65726f0000000000000000000000000000000000000000602082015250565b600062000863602c83620007f4565b9150620008708262000805565b604082019050919050565b60006020820190508181036000830152620008968162000854565b9050919050565b6000819050919050565b620008b2816200089d565b82525050565b620008c381620005b9565b82525050565b620008d4816200041c565b82525050565b600060a082019050620008f16000830188620008a7565b620009006020830187620008a7565b6200090f6040830186620008a7565b6200091e6060830185620008b8565b6200092d6080830184620008c9565b9695505050505050565b60005b83811015620009575780820151818401526020810190506200093a565b60008484015250505050565b6000601f19601f8301169050919050565b6000620009818262000493565b6200098d8185620007f4565b93506200099f81856020860162000937565b620009aa8162000963565b840191505092915050565b60006020820190508181036000830152620009d1818462000974565b905092915050565b600081519050919050565b6000819050602082019050919050565b600062000a0282516200089d565b80915050919050565b600062000a1882620009d9565b8262000a2484620009e4565b905062000a3181620009f4565b9250602082101562000a745762000a6f7fffffffffffffffffffffffffffffffffffffffffffffffffffffffffffffffff8360200360080262000556565b831692505b5050919050565b60805160a05160c05160e05161010051610120516101405161016051610180516126a462000af36000396000818161050d0152610d3f015260006109c8015260006111a201526000611167015260006117390152600061171801526000610fe0015260006110360152600061105f01526126a46000f3fe608060405234801561001057600080fd5b50600436106101375760003560e01c80637ecebe00116100b8578063c4d66de81161007c578063c4d66de81461036c578063d505accf14610388578063d6c0b2c4146103a4578063dd62ed3e146103c2578063e78cea92146103f2578063ee9a31a21461041057610137565b80637ecebe00146102ae57806384b0196e146102de57806395d89b41146103025780639dc29fac14610320578063a9059cbb1461033c57610137565b806323b872dd116100ff57806323b872dd146101f6578063313ce567146102265780633644e5151461024457806340c10f191461026257806370a082311461027e57610137565b806301ffc9a71461013c578063033964be1461016c57806306fdde031461018a578063095ea7b3146101a857806318160ddd146101d8575b600080fd5b61015660048036038101906101519190611bf3565b61042e565b6040516101639190611c3b565b60405180910390f35b61017461050b565b6040516101819190611c97565b60405180910390f35b61019261052f565b60405161019f9190611d42565b60405180910390f35b6101c260048036038101906101bd9190611dc6565b6105c1565b6040516101cf9190611c3b565b60405180910390f35b6101e06105e4565b6040516101ed9190611e15565b60405180910390f35b610210600480360381019061020b9190611e30565b6105ee565b60405161021d9190611c3b565b60405180910390f35b61022e61061d565b60405161023b9190611e9f565b60405180910390f35b61024c610626565b6040516102599190611ed3565b60405180910390f35b61027c60048036038101906102779190611dc6565b610635565b005b61029860048036038101906102939190611eee565b610721565b6040516102a59190611e15565b60405180910390f35b6102c860048036038101906102c39190611eee565b610769565b6040516102d59190611e15565b60405180910390f35b6102e661077b565b6040516102f99796959493929190612014565b60405180910390f35b61030a610825565b6040516103179190611d42565b60405180910390f35b61033a60048036038101906103359190611dc6565b6108b7565b005b61035660048036038101906103519190611dc6565b6109a3565b6040516103639190611c3b565b60405180910390f35b61038660048036038101906103819190611eee565b6109c6565b005b6103a2600480360381019061039d91906120f0565b610bf3565b005b6103ac610d3b565b6040516103b99190611c97565b60405180910390f35b6103dc60048036038101906103d79190612192565b610d63565b6040516103e99190611e15565b60405180910390f35b6103fa610dea565b6040516104079190611c97565b60405180910390f35b610418610e14565b6040516104259190611c97565b60405180910390f35b6000807f01ffc9a700000000000000000000000000000000000000000000000000000000905060007fec4fc8e3000000000000000000000000000000000000000000000000000000009050817bffffffffffffffffffffffffffffffffffffffffffffffffffffffff1916847bffffffffffffffffffffffffffffffffffffffffffffffffffffffff191614806105025750807bffffffffffffffffffffffffffffffffffffffffffffffffffffffff1916847bffffffffffffffffffffffffffffffffffffffffffffffffffffffff1916145b92505050919050565b7f000000000000000000000000000000000000000000000000000000000000000081565b60606003805461053e90612201565b80601f016020809104026020016040519081016040528092919081815260200182805461056a90612201565b80156105b75780601f1061058c576101008083540402835291602001916105b7565b820191906000526020600020905b81548152906001019060200180831161059a57829003601f168201915b5050505050905090565b6000806105cc610e3a565b90506105d9818585610e42565b600191505092915050565b6000600254905090565b6000806105f9610e3a565b9050610606858285610e54565b610611858585610ee8565b60019150509392505050565b60006012905090565b6000610630610fdc565b905090565b600860009054906101000a900473ffffffffffffffffffffffffffffffffffffffff1673ffffffffffffffffffffffffffffffffffffffff163373ffffffffffffffffffffffffffffffffffffffff16146106c5576040517f08c379a00000000000000000000000000000000000000000000000000000000081526004016106bc906122a4565b60405180910390fd5b6106cf8282611093565b8173ffffffffffffffffffffffffffffffffffffffff167f0f6798a560793a54c3bcfe86a93cde1e73087d944c0ea20544137d4121396885826040516107159190611e15565b60405180910390a25050565b60008060008373ffffffffffffffffffffffffffffffffffffffff1673ffffffffffffffffffffffffffffffffffffffff168152602001908152602001600020549050919050565b600061077482611115565b9050919050565b60006060806000806000606061078f61115e565b610797611199565b46306000801b600067ffffffffffffffff8111156107b8576107b76122c4565b5b6040519080825280602002602001820160405280156107e65781602001602082028036833780820191505090505b507f0f00000000000000000000000000000000000000000000000000000000000000959493929190965096509650965096509650965090919293949596565b60606004805461083490612201565b80601f016020809104026020016040519081016040528092919081815260200182805461086090612201565b80156108ad5780601f10610882576101008083540402835291602001916108ad565b820191906000526020600020905b81548152906001019060200180831161089057829003601f168201915b5050505050905090565b600860009054906101000a900473ffffffffffffffffffffffffffffffffffffffff1673ffffffffffffffffffffffffffffffffffffffff163373ffffffffffffffffffffffffffffffffffffffff1614610947576040517f08c379a000000000000000000000000000000000000000000000000000000000815260040161093e906122a4565b60405180910390fd5b61095182826111d4565b8173ffffffffffffffffffffffffffffffffffffffff167fcc16f5dbb4873280815c1ee09dbd06736cffcc184412cf7a71a0fdb75d397ca5826040516109979190611e15565b60405180910390a25050565b6000806109ae610e3a565b90506109bb818585610ee8565b600191505092915050565b7f000000000000000000000000000000000000000000000000000000000000000073ffffffffffffffffffffffffffffffffffffffff163373ffffffffffffffffffffffffffffffffffffffff1614610a54576040517f08c379a0000000000000000000000000000000000000000000000000000000008152600401610a4b90612365565b60405180910390fd5b600073ffffffffffffffffffffffffffffffffffffffff168173ffffffffffffffffffffffffffffffffffffffff1603610ac3576040517f08c379a0000000000000000000000000000000000000000000000000000000008152600401610aba906123f7565b60405180910390fd5b600073ffffffffffffffffffffffffffffffffffffffff16600860009054906101000a900473ffffffffffffffffffffffffffffffffffffffff1673ffffffffffffffffffffffffffffffffffffffff1614610b54576040517f08c379a0000000000000000000000000000000000000000000000000000000008152600401610b4b90612463565b60405180910390fd5b80600860006101000a81548173ffffffffffffffffffffffffffffffffffffffff021916908373ffffffffffffffffffffffffffffffffffffffff1602179055508073ffffffffffffffffffffffffffffffffffffffff16600073ffffffffffffffffffffffffffffffffffffffff167fecfc86cbcf0a44a77658de7fc62df1f08579e15cc8f872b51231ec8a19bc850760405160405180910390a350565b83421115610c3857836040517f62791302000000000000000000000000000000000000000000000000000000008152600401610c2f9190611e15565b60405180910390fd5b60007f6e71edae12b1b97f4d1f60370fef10105fa2faae0126114a169c64845d6126c9888888610c678c611256565b89604051602001610c7d96959493929190612483565b6040516020818303038152906040528051906020012090506000610ca0826112ad565b90506000610cb0828787876112c7565b90508973ffffffffffffffffffffffffffffffffffffffff168173ffffffffffffffffffffffffffffffffffffffff1614610d2457808a6040517f4b800e46000000000000000000000000000000000000000000000000000000008152600401610d1b9291906124e4565b60405180910390fd5b610d2f8a8a8a610e42565b50505050505050505050565b60007f0000000000000000000000000000000000000000000000000000000000000000905090565b6000600160008473ffffffffffffffffffffffffffffffffffffffff1673ffffffffffffffffffffffffffffffffffffffff16815260200190815260200160002060008373ffffffffffffffffffffffffffffffffffffffff1673ffffffffffffffffffffffffffffffffffffffff16815260200190815260200160002054905092915050565b6000600860009054906101000a900473ffffffffffffffffffffffffffffffffffffffff16905090565b600860009054906101000a900473ffffffffffffffffffffffffffffffffffffffff1681565b600033905090565b610e4f83838360016112f7565b505050565b6000610e608484610d63565b90507fffffffffffffffffffffffffffffffffffffffffffffffffffffffffffffffff8114610ee25781811015610ed2578281836040517ffb8f41b2000000000000000000000000000000000000000000000000000000008152600401610ec99392919061250d565b60405180910390fd5b610ee1848484840360006112f7565b5b50505050565b600073ffffffffffffffffffffffffffffffffffffffff168373ffffffffffffffffffffffffffffffffffffffff1603610f5a5760006040517f96c6fd1e000000000000000000000000000000000000000000000000000000008152600401610f519190611c97565b60405180910390fd5b600073ffffffffffffffffffffffffffffffffffffffff168273ffffffffffffffffffffffffffffffffffffffff1603610fcc5760006040517fec442f05000000000000000000000000000000000000000000000000000000008152600401610fc39190611c97565b60405180910390fd5b610fd78383836114ce565b505050565b60007f000000000000000000000000000000000000000000000000000000000000000073ffffffffffffffffffffffffffffffffffffffff163073ffffffffffffffffffffffffffffffffffffffff1614801561105857507f000000000000000000000000000000000000000000000000000000000000000046145b15611085577f00000000000000000000000000000000000000000000000000000000000000009050611090565b61108d6116f3565b90505b90565b600073ffffffffffffffffffffffffffffffffffffffff168273ffffffffffffffffffffffffffffffffffffffff16036111055760006040517fec442f050000000000000000000000000000000000000000000000000000000081526004016110fc9190611c97565b60405180910390fd5b611111600083836114ce565b5050565b6000600760008373ffffffffffffffffffffffffffffffffffffffff1673ffffffffffffffffffffffffffffffffffffffff168152602001908152602001600020549050919050565b606061119460057f000000000000000000000000000000000000000000000000000000000000000061178990919063ffffffff16565b905090565b60606111cf60067f000000000000000000000000000000000000000000000000000000000000000061178990919063ffffffff16565b905090565b600073ffffffffffffffffffffffffffffffffffffffff168273ffffffffffffffffffffffffffffffffffffffff16036112465760006040517f96c6fd1e00000000000000000000000000000000000000000000000000000000815260040161123d9190611c97565b60405180910390fd5b611252826000836114ce565b5050565b6000600760008373ffffffffffffffffffffffffffffffffffffffff1673ffffffffffffffffffffffffffffffffffffffff1681526020019081526020016000206000815480929190600101919050559050919050565b60006112c06112ba610fdc565b83611839565b9050919050565b6000806000806112d98888888861187a565b9250925092506112e9828261196e565b829350505050949350505050565b600073ffffffffffffffffffffffffffffffffffffffff168473ffffffffffffffffffffffffffffffffffffffff16036113695760006040517fe602df050000000000000000000000000000000000000000000000000000000081526004016113609190611c97565b60405180910390fd5b600073ffffffffffffffffffffffffffffffffffffffff168373ffffffffffffffffffffffffffffffffffffffff16036113db5760006040517f94280d620000000000000000000000000000000000000000000000000000000081526004016113d29190611c97565b60405180910390fd5b81600160008673ffffffffffffffffffffffffffffffffffffffff1673ffffffffffffffffffffffffffffffffffffffff16815260200190815260200160002060008573ffffffffffffffffffffffffffffffffffffffff1673ffffffffffffffffffffffffffffffffffffffff1681526020019081526020016000208190555080156114c8578273ffffffffffffffffffffffffffffffffffffffff168473ffffffffffffffffffffffffffffffffffffffff167f8c5be1e5ebec7d5bd14f71427d1e84f3dd0314c0f7b2291e5b200ac8c7c3b925846040516114bf9190611e15565b60405180910390a35b50505050565b600073ffffffffffffffffffffffffffffffffffffffff168373ffffffffffffffffffffffffffffffffffffffff16036115205780600260008282546115149190612573565b925050819055506115f3565b60008060008573ffffffffffffffffffffffffffffffffffffffff1673ffffffffffffffffffffffffffffffffffffffff168152602001908152602001600020549050818110156115ac578381836040517fe450d38c0000000000000000000000000000000000000000000000000000000081526004016115a39392919061250d565b60405180910390fd5b8181036000808673ffffffffffffffffffffffffffffffffffffffff1673ffffffffffffffffffffffffffffffffffffffff16815260200190815260200160002081905550505b600073ffffffffffffffffffffffffffffffffffffffff168273ffffffffffffffffffffffffffffffffffffffff160361163c5780600260008282540392505081905550611689565b806000808473ffffffffffffffffffffffffffffffffffffffff1673ffffffffffffffffffffffffffffffffffffffff168152602001908152602001600020600082825401925050819055505b8173ffffffffffffffffffffffffffffffffffffffff168373ffffffffffffffffffffffffffffffffffffffff167fddf252ad1be2c89b69c2b068fc378daa952ba7f163c4a11628f55a4df523b3ef836040516116e69190611e15565b60405180910390a3505050565b60007f8b73c3c69bb8fe3d512ecc4cf759cc79239f7b179b0ffacaa9a75d522b39400f7f00000000000000000000000000000000000000000000000000000000000000007f0000000000000000000000000000000000000000000000000000000000000000463060405160200161176e9594939291906125a7565b60405160208183030381529060405280519060200120905090565b606060ff60001b83146117a65761179f83611ad2565b9050611833565b8180546117b290612201565b80601f01602080910402602001604051908101604052809291908181526020018280546117de90612201565b801561182b5780601f106118005761010080835404028352916020019161182b565b820191906000526020600020905b81548152906001019060200180831161180e57829003601f168201915b505050505090505b92915050565b60006040517f190100000000000000000000000000000000000000000000000000000000000081528360028201528260228201526042812091505092915050565b60008060007f7fffffffffffffffffffffffffffffff5d576e7357a4501ddfe92f46681b20a08460001c11156118ba576000600385925092509250611964565b6000600188888888604051600081526020016040526040516118df94939291906125fa565b6020604051602081039080840390855afa158015611901573d6000803e3d6000fd5b505050602060405103519050600073ffffffffffffffffffffffffffffffffffffffff168173ffffffffffffffffffffffffffffffffffffffff160361195557600060016000801b93509350935050611964565b8060008060001b935093509350505b9450945094915050565b600060038111156119825761198161263f565b5b8260038111156119955761199461263f565b5b0315611ace57600160038111156119af576119ae61263f565b5b8260038111156119c2576119c161263f565b5b036119f9576040517ff645eedf00000000000000000000000000000000000000000000000000000000815260040160405180910390fd5b60026003811115611a0d57611a0c61263f565b5b826003811115611a2057611a1f61263f565b5b03611a65578060001c6040517ffce698f7000000000000000000000000000000000000000000000000000000008152600401611a5c9190611e15565b60405180910390fd5b600380811115611a7857611a7761263f565b5b826003811115611a8b57611a8a61263f565b5b03611acd57806040517fd78bce0c000000000000000000000000000000000000000000000000000000008152600401611ac49190611ed3565b60405180910390fd5b5b5050565b60606000611adf83611b46565b90506000602067ffffffffffffffff811115611afe57611afd6122c4565b5b6040519080825280601f01601f191660200182016040528015611b305781602001600182028036833780820191505090505b5090508181528360208201528092505050919050565b60008060ff8360001c169050601f811115611b8d576040517fb3512b0c00000000000000000000000000000000000000000000000000000000815260040160405180910390fd5b80915050919050565b600080fd5b60007fffffffff0000000000000000000000000000000000000000000000000000000082169050919050565b611bd081611b9b565b8114611bdb57600080fd5b50565b600081359050611bed81611bc7565b92915050565b600060208284031215611c0957611c08611b96565b5b6000611c1784828501611bde565b91505092915050565b60008115159050919050565b611c3581611c20565b82525050565b6000602082019050611c506000830184611c2c565b92915050565b600073ffffffffffffffffffffffffffffffffffffffff82169050919050565b6000611c8182611c56565b9050919050565b611c9181611c76565b82525050565b6000602082019050611cac6000830184611c88565b92915050565b600081519050919050565b600082825260208201905092915050565b60005b83811015611cec578082015181840152602081019050611cd1565b60008484015250505050565b6000601f19601f8301169050919050565b6000611d1482611cb2565b611d1e8185611cbd565b9350611d2e818560208601611cce565b611d3781611cf8565b840191505092915050565b60006020820190508181036000830152611d5c8184611d09565b905092915050565b611d6d81611c76565b8114611d7857600080fd5b50565b600081359050611d8a81611d64565b92915050565b6000819050919050565b611da381611d90565b8114611dae57600080fd5b50565b600081359050611dc081611d9a565b92915050565b60008060408385031215611ddd57611ddc611b96565b5b6000611deb85828601611d7b565b9250506020611dfc85828601611db1565b9150509250929050565b611e0f81611d90565b82525050565b6000602082019050611e2a6000830184611e06565b92915050565b600080600060608486031215611e4957611e48611b96565b5b6000611e5786828701611d7b565b9350506020611e6886828701611d7b565b9250506040611e7986828701611db1565b9150509250925092565b600060ff82169050919050565b611e9981611e83565b82525050565b6000602082019050611eb46000830184611e90565b92915050565b6000819050919050565b611ecd81611eba565b82525050565b6000602082019050611ee86000830184611ec4565b92915050565b600060208284031215611f0457611f03611b96565b5b6000611f1284828501611d7b565b91505092915050565b60007fff0000000000000000000000000000000000000000000000000000000000000082169050919050565b611f5081611f1b565b82525050565b600081519050919050565b600082825260208201905092915050565b6000819050602082019050919050565b611f8b81611d90565b82525050565b6000611f9d8383611f82565b60208301905092915050565b6000602082019050919050565b6000611fc182611f56565b611fcb8185611f61565b9350611fd683611f72565b8060005b83811015612007578151611fee8882611f91565b9750611ff983611fa9565b925050600181019050611fda565b5085935050505092915050565b600060e082019050612029600083018a611f47565b818103602083015261203b8189611d09565b9050818103604083015261204f8188611d09565b905061205e6060830187611e06565b61206b6080830186611c88565b61207860a0830185611ec4565b81810360c083015261208a8184611fb6565b905098975050505050505050565b6120a181611e83565b81146120ac57600080fd5b50565b6000813590506120be81612098565b92915050565b6120cd81611eba565b81146120d857600080fd5b50565b6000813590506120ea816120c4565b92915050565b600080600080600080600060e0888a03121561210f5761210e611b96565b5b600061211d8a828b01611d7b565b975050602061212e8a828b01611d7b565b965050604061213f8a828b01611db1565b95505060606121508a828b01611db1565b94505060806121618a828b016120af565b93505060a06121728a828b016120db565b92505060c06121838a828b016120db565b91505092959891949750929550565b600080604083850312156121a9576121a8611b96565b5b60006121b785828601611d7b565b92505060206121c885828601611d7b565b9150509250929050565b7f4e487b7100000000000000000000000000000000000000000000000000000000600052602260045260246000fd5b6000600282049050600182168061221957607f821691505b60208210810361222c5761222b6121d2565b5b50919050565b7f4c324c69736b546f6b656e3a206f6e6c79206272696467652063616e206d696e60008201527f74206f72206275726e0000000000000000000000000000000000000000000000602082015250565b600061228e602983611cbd565b915061229982612232565b604082019050919050565b600060208201905081810360008301526122bd81612281565b9050919050565b7f4e487b7100000000000000000000000000000000000000000000000000000000600052604160045260246000fd5b7f4c324c69736b546f6b656e3a206f6e6c7920696e697469616c697a657220636160008201527f6e20696e697469616c697a65207468697320636f6e7472616374000000000000602082015250565b600061234f603a83611cbd565b915061235a826122f3565b604082019050919050565b6000602082019050818103600083015261237e81612342565b9050919050565b7f4c324c69736b546f6b656e3a20627269646765416464722063616e206e6f742060008201527f6265207a65726f00000000000000000000000000000000000000000000000000602082015250565b60006123e1602783611cbd565b91506123ec82612385565b604082019050919050565b60006020820190508181036000830152612410816123d4565b9050919050565b7f4c324c69736b546f6b656e3a20616c726561647920696e697469616c697a6564600082015250565b600061244d602083611cbd565b915061245882612417565b602082019050919050565b6000602082019050818103600083015261247c81612440565b9050919050565b600060c0820190506124986000830189611ec4565b6124a56020830188611c88565b6124b26040830187611c88565b6124bf6060830186611e06565b6124cc6080830185611e06565b6124d960a0830184611e06565b979650505050505050565b60006040820190506124f96000830185611c88565b6125066020830184611c88565b9392505050565b60006060820190506125226000830186611c88565b61252f6020830185611e06565b61253c6040830184611e06565b949350505050565b7f4e487b7100000000000000000000000000000000000000000000000000000000600052601160045260246000fd5b600061257e82611d90565b915061258983611d90565b92508282019050808211156125a1576125a0612544565b5b92915050565b600060a0820190506125bc6000830188611ec4565b6125c96020830187611ec4565b6125d66040830186611ec4565b6125e36060830185611e06565b6125f06080830184611c88565b9695505050505050565b600060808201905061260f6000830187611ec4565b61261c6020830186611e90565b6126296040830185611ec4565b6126366060830184611ec4565b95945050505050565b7f4e487b7100000000000000000000000000000000000000000000000000000000600052602160045260246000fdfea26469706673582212201b4c1ce1a8c75dc6c265e6ea8b4014024e0ed4433181884b95c80b28c3080fbb64736f6c63430008170033",
  "linkReferences": {},
  "deployedLinkReferences": {}
}