{
  "_format": "hh-sol-artifact-1",
  "contractName": "L2LockingPosition",
  "sourceName": "src/L2/L2LockingPosition.sol",
  "abi": [
    {
      "inputs": [],
      "stateMutability": "nonpayable",
      "type": "constructor"
    },
    {
      "inputs": [
        {
          "internalType": "address",
          "name": "target",
          "type": "address"
        }
      ],
      "name": "AddressEmptyCode",
      "type": "error"
    },
    {
      "inputs": [
        {
          "internalType": "address",
          "name": "implementation",
          "type": "address"
        }
      ],
      "name": "ERC1967InvalidImplementation",
      "type": "error"
    },
    {
      "inputs": [],
      "name": "ERC1967NonPayable",
      "type": "error"
    },
    {
      "inputs": [],
      "name": "ERC721EnumerableForbiddenBatchMint",
      "type": "error"
    },
    {
      "inputs": [
        {
          "internalType": "address",
          "name": "sender",
          "type": "address"
        },
        {
          "internalType": "uint256",
          "name": "tokenId",
          "type": "uint256"
        },
        {
          "internalType": "address",
          "name": "owner",
          "type": "address"
        }
      ],
      "name": "ERC721IncorrectOwner",
      "type": "error"
    },
    {
      "inputs": [
        {
          "internalType": "address",
          "name": "operator",
          "type": "address"
        },
        {
          "internalType": "uint256",
          "name": "tokenId",
          "type": "uint256"
        }
      ],
      "name": "ERC721InsufficientApproval",
      "type": "error"
    },
    {
      "inputs": [
        {
          "internalType": "address",
          "name": "approver",
          "type": "address"
        }
      ],
      "name": "ERC721InvalidApprover",
      "type": "error"
    },
    {
      "inputs": [
        {
          "internalType": "address",
          "name": "operator",
          "type": "address"
        }
      ],
      "name": "ERC721InvalidOperator",
      "type": "error"
    },
    {
      "inputs": [
        {
          "internalType": "address",
          "name": "owner",
          "type": "address"
        }
      ],
      "name": "ERC721InvalidOwner",
      "type": "error"
    },
    {
      "inputs": [
        {
          "internalType": "address",
          "name": "receiver",
          "type": "address"
        }
      ],
      "name": "ERC721InvalidReceiver",
      "type": "error"
    },
    {
      "inputs": [
        {
          "internalType": "address",
          "name": "sender",
          "type": "address"
        }
      ],
      "name": "ERC721InvalidSender",
      "type": "error"
    },
    {
      "inputs": [
        {
          "internalType": "uint256",
          "name": "tokenId",
          "type": "uint256"
        }
      ],
      "name": "ERC721NonexistentToken",
      "type": "error"
    },
    {
      "inputs": [
        {
          "internalType": "address",
          "name": "owner",
          "type": "address"
        },
        {
          "internalType": "uint256",
          "name": "index",
          "type": "uint256"
        }
      ],
      "name": "ERC721OutOfBoundsIndex",
      "type": "error"
    },
    {
      "inputs": [],
      "name": "FailedInnerCall",
      "type": "error"
    },
    {
      "inputs": [],
      "name": "InvalidInitialization",
      "type": "error"
    },
    {
      "inputs": [],
      "name": "NotInitializing",
      "type": "error"
    },
    {
      "inputs": [
        {
          "internalType": "address",
          "name": "owner",
          "type": "address"
        }
      ],
      "name": "OwnableInvalidOwner",
      "type": "error"
    },
    {
      "inputs": [
        {
          "internalType": "address",
          "name": "account",
          "type": "address"
        }
      ],
      "name": "OwnableUnauthorizedAccount",
      "type": "error"
    },
    {
      "inputs": [],
      "name": "UUPSUnauthorizedCallContext",
      "type": "error"
    },
    {
      "inputs": [
        {
          "internalType": "bytes32",
          "name": "slot",
          "type": "bytes32"
        }
      ],
      "name": "UUPSUnsupportedProxiableUUID",
      "type": "error"
    },
    {
      "anonymous": false,
      "inputs": [
        {
          "indexed": true,
          "internalType": "address",
          "name": "owner",
          "type": "address"
        },
        {
          "indexed": true,
          "internalType": "address",
          "name": "approved",
          "type": "address"
        },
        {
          "indexed": true,
          "internalType": "uint256",
          "name": "tokenId",
          "type": "uint256"
        }
      ],
      "name": "Approval",
      "type": "event"
    },
    {
      "anonymous": false,
      "inputs": [
        {
          "indexed": true,
          "internalType": "address",
          "name": "owner",
          "type": "address"
        },
        {
          "indexed": true,
          "internalType": "address",
          "name": "operator",
          "type": "address"
        },
        {
          "indexed": false,
          "internalType": "bool",
          "name": "approved",
          "type": "bool"
        }
      ],
      "name": "ApprovalForAll",
      "type": "event"
    },
    {
      "anonymous": false,
      "inputs": [
        {
          "indexed": false,
          "internalType": "uint64",
          "name": "version",
          "type": "uint64"
        }
      ],
      "name": "Initialized",
      "type": "event"
    },
    {
      "anonymous": false,
      "inputs": [
        {
          "indexed": true,
          "internalType": "uint256",
          "name": "positionId",
          "type": "uint256"
        },
        {
          "indexed": true,
          "internalType": "address",
          "name": "creator",
          "type": "address"
        },
        {
          "indexed": true,
          "internalType": "address",
          "name": "lockOwner",
          "type": "address"
        },
        {
          "indexed": false,
          "internalType": "uint256",
          "name": "amount",
          "type": "uint256"
        },
        {
          "indexed": false,
          "internalType": "uint256",
          "name": "lockingDuration",
          "type": "uint256"
        }
      ],
      "name": "LockingPositionCreated",
      "type": "event"
    },
    {
      "anonymous": false,
      "inputs": [
        {
          "indexed": true,
          "internalType": "uint256",
          "name": "positionId",
          "type": "uint256"
        },
        {
          "indexed": false,
          "internalType": "uint256",
          "name": "amount",
          "type": "uint256"
        },
        {
          "indexed": false,
          "internalType": "uint256",
          "name": "expDate",
          "type": "uint256"
        },
        {
          "indexed": false,
          "internalType": "uint256",
          "name": "pausedLockingDuration",
          "type": "uint256"
        }
      ],
      "name": "LockingPositionModified",
      "type": "event"
    },
    {
      "anonymous": false,
      "inputs": [
        {
          "indexed": true,
          "internalType": "uint256",
          "name": "positionId",
          "type": "uint256"
        }
      ],
      "name": "LockingPositionRemoved",
      "type": "event"
    },
    {
      "anonymous": false,
      "inputs": [
        {
          "indexed": true,
          "internalType": "address",
          "name": "previousOwner",
          "type": "address"
        },
        {
          "indexed": true,
          "internalType": "address",
          "name": "newOwner",
          "type": "address"
        }
      ],
      "name": "OwnershipTransferStarted",
      "type": "event"
    },
    {
      "anonymous": false,
      "inputs": [
        {
          "indexed": true,
          "internalType": "address",
          "name": "previousOwner",
          "type": "address"
        },
        {
          "indexed": true,
          "internalType": "address",
          "name": "newOwner",
          "type": "address"
        }
      ],
      "name": "OwnershipTransferred",
      "type": "event"
    },
    {
      "anonymous": false,
      "inputs": [
        {
          "indexed": true,
          "internalType": "address",
          "name": "oldAddress",
          "type": "address"
        },
        {
          "indexed": true,
          "internalType": "address",
          "name": "newAddress",
          "type": "address"
        }
      ],
      "name": "StakingContractAddressChanged",
      "type": "event"
    },
    {
      "anonymous": false,
      "inputs": [
        {
          "indexed": true,
          "internalType": "address",
          "name": "from",
          "type": "address"
        },
        {
          "indexed": true,
          "internalType": "address",
          "name": "to",
          "type": "address"
        },
        {
          "indexed": true,
          "internalType": "uint256",
          "name": "tokenId",
          "type": "uint256"
        }
      ],
      "name": "Transfer",
      "type": "event"
    },
    {
      "anonymous": false,
      "inputs": [
        {
          "indexed": true,
          "internalType": "address",
          "name": "implementation",
          "type": "address"
        }
      ],
      "name": "Upgraded",
      "type": "event"
    },
    {
      "anonymous": false,
      "inputs": [
        {
          "indexed": true,
          "internalType": "address",
          "name": "oldAddress",
          "type": "address"
        },
        {
          "indexed": true,
          "internalType": "address",
          "name": "newAddress",
          "type": "address"
        }
      ],
      "name": "VotingPowerContractAddressChanged",
      "type": "event"
    },
    {
      "inputs": [],
      "name": "UPGRADE_INTERFACE_VERSION",
      "outputs": [
        {
          "internalType": "string",
          "name": "",
          "type": "string"
        }
      ],
      "stateMutability": "view",
      "type": "function"
    },
    {
      "inputs": [],
      "name": "acceptOwnership",
      "outputs": [],
      "stateMutability": "nonpayable",
      "type": "function"
    },
    {
      "inputs": [
        {
          "internalType": "address",
          "name": "to",
          "type": "address"
        },
        {
          "internalType": "uint256",
          "name": "tokenId",
          "type": "uint256"
        }
      ],
      "name": "approve",
      "outputs": [],
      "stateMutability": "nonpayable",
      "type": "function"
    },
    {
      "inputs": [
        {
          "internalType": "address",
          "name": "owner",
          "type": "address"
        }
      ],
      "name": "balanceOf",
      "outputs": [
        {
          "internalType": "uint256",
          "name": "",
          "type": "uint256"
        }
      ],
      "stateMutability": "view",
      "type": "function"
    },
    {
      "inputs": [
        {
          "internalType": "address",
          "name": "creator",
          "type": "address"
        },
        {
          "internalType": "address",
          "name": "lockOwner",
          "type": "address"
        },
        {
          "internalType": "uint256",
          "name": "amount",
          "type": "uint256"
        },
        {
          "internalType": "uint256",
          "name": "lockingDuration",
          "type": "uint256"
        }
      ],
      "name": "createLockingPosition",
      "outputs": [
        {
          "internalType": "uint256",
          "name": "",
          "type": "uint256"
        }
      ],
      "stateMutability": "nonpayable",
      "type": "function"
    },
    {
      "inputs": [
        {
          "internalType": "address",
          "name": "lockOwner",
          "type": "address"
        }
      ],
      "name": "getAllLockingPositionsByOwner",
      "outputs": [
        {
          "components": [
            {
              "internalType": "address",
              "name": "creator",
              "type": "address"
            },
            {
              "internalType": "uint256",
              "name": "amount",
              "type": "uint256"
            },
            {
              "internalType": "uint256",
              "name": "expDate",
              "type": "uint256"
            },
            {
              "internalType": "uint256",
              "name": "pausedLockingDuration",
              "type": "uint256"
            }
          ],
          "internalType": "struct IL2LockingPosition.LockingPosition[]",
          "name": "",
          "type": "tuple[]"
        }
      ],
      "stateMutability": "view",
      "type": "function"
    },
    {
      "inputs": [
        {
          "internalType": "uint256",
          "name": "tokenId",
          "type": "uint256"
        }
      ],
      "name": "getApproved",
      "outputs": [
        {
          "internalType": "address",
          "name": "",
          "type": "address"
        }
      ],
      "stateMutability": "view",
      "type": "function"
    },
    {
      "inputs": [
        {
          "internalType": "uint256",
          "name": "positionId",
          "type": "uint256"
        }
      ],
      "name": "getLockingPosition",
      "outputs": [
        {
          "components": [
            {
              "internalType": "address",
              "name": "creator",
              "type": "address"
            },
            {
              "internalType": "uint256",
              "name": "amount",
              "type": "uint256"
            },
            {
              "internalType": "uint256",
              "name": "expDate",
              "type": "uint256"
            },
            {
              "internalType": "uint256",
              "name": "pausedLockingDuration",
              "type": "uint256"
            }
          ],
          "internalType": "struct IL2LockingPosition.LockingPosition",
          "name": "",
          "type": "tuple"
        }
      ],
      "stateMutability": "view",
      "type": "function"
    },
    {
      "inputs": [
        {
          "internalType": "address",
          "name": "_stakingContract",
          "type": "address"
        }
      ],
      "name": "initialize",
      "outputs": [],
      "stateMutability": "nonpayable",
      "type": "function"
    },
    {
      "inputs": [
        {
          "internalType": "address",
          "name": "_votingPowerContract",
          "type": "address"
        }
      ],
      "name": "initializeVotingPower",
      "outputs": [],
      "stateMutability": "nonpayable",
      "type": "function"
    },
    {
      "inputs": [
        {
          "internalType": "address",
          "name": "owner",
          "type": "address"
        },
        {
          "internalType": "address",
          "name": "operator",
          "type": "address"
        }
      ],
      "name": "isApprovedForAll",
      "outputs": [
        {
          "internalType": "bool",
          "name": "",
          "type": "bool"
        }
      ],
      "stateMutability": "view",
      "type": "function"
    },
    {
      "inputs": [
        {
          "internalType": "uint256",
          "name": "",
          "type": "uint256"
        }
      ],
      "name": "lockingPositions",
      "outputs": [
        {
          "internalType": "address",
          "name": "creator",
          "type": "address"
        },
        {
          "internalType": "uint256",
          "name": "amount",
          "type": "uint256"
        },
        {
          "internalType": "uint256",
          "name": "expDate",
          "type": "uint256"
        },
        {
          "internalType": "uint256",
          "name": "pausedLockingDuration",
          "type": "uint256"
        }
      ],
      "stateMutability": "view",
      "type": "function"
    },
    {
      "inputs": [
        {
          "internalType": "uint256",
          "name": "positionId",
          "type": "uint256"
        },
        {
          "internalType": "uint256",
          "name": "amount",
          "type": "uint256"
        },
        {
          "internalType": "uint256",
          "name": "expDate",
          "type": "uint256"
        },
        {
          "internalType": "uint256",
          "name": "pausedLockingDuration",
          "type": "uint256"
        }
      ],
      "name": "modifyLockingPosition",
      "outputs": [],
      "stateMutability": "nonpayable",
      "type": "function"
    },
    {
      "inputs": [],
      "name": "name",
      "outputs": [
        {
          "internalType": "string",
          "name": "",
          "type": "string"
        }
      ],
      "stateMutability": "view",
      "type": "function"
    },
    {
      "inputs": [],
      "name": "owner",
      "outputs": [
        {
          "internalType": "address",
          "name": "",
          "type": "address"
        }
      ],
      "stateMutability": "view",
      "type": "function"
    },
    {
      "inputs": [
        {
          "internalType": "uint256",
          "name": "tokenId",
          "type": "uint256"
        }
      ],
      "name": "ownerOf",
      "outputs": [
        {
          "internalType": "address",
          "name": "",
          "type": "address"
        }
      ],
      "stateMutability": "view",
      "type": "function"
    },
    {
      "inputs": [],
      "name": "pendingOwner",
      "outputs": [
        {
          "internalType": "address",
          "name": "",
          "type": "address"
        }
      ],
      "stateMutability": "view",
      "type": "function"
    },
    {
      "inputs": [],
      "name": "proxiableUUID",
      "outputs": [
        {
          "internalType": "bytes32",
          "name": "",
          "type": "bytes32"
        }
      ],
      "stateMutability": "view",
      "type": "function"
    },
    {
      "inputs": [
        {
          "internalType": "uint256",
          "name": "positionId",
          "type": "uint256"
        }
      ],
      "name": "removeLockingPosition",
      "outputs": [],
      "stateMutability": "nonpayable",
      "type": "function"
    },
    {
      "inputs": [],
      "name": "renounceOwnership",
      "outputs": [],
      "stateMutability": "nonpayable",
      "type": "function"
    },
    {
      "inputs": [
        {
          "internalType": "address",
          "name": "from",
          "type": "address"
        },
        {
          "internalType": "address",
          "name": "to",
          "type": "address"
        },
        {
          "internalType": "uint256",
          "name": "tokenId",
          "type": "uint256"
        }
      ],
      "name": "safeTransferFrom",
      "outputs": [],
      "stateMutability": "nonpayable",
      "type": "function"
    },
    {
      "inputs": [
        {
          "internalType": "address",
          "name": "from",
          "type": "address"
        },
        {
          "internalType": "address",
          "name": "to",
          "type": "address"
        },
        {
          "internalType": "uint256",
          "name": "tokenId",
          "type": "uint256"
        },
        {
          "internalType": "bytes",
          "name": "data",
          "type": "bytes"
        }
      ],
      "name": "safeTransferFrom",
      "outputs": [],
      "stateMutability": "nonpayable",
      "type": "function"
    },
    {
      "inputs": [
        {
          "internalType": "address",
          "name": "operator",
          "type": "address"
        },
        {
          "internalType": "bool",
          "name": "approved",
          "type": "bool"
        }
      ],
      "name": "setApprovalForAll",
      "outputs": [],
      "stateMutability": "nonpayable",
      "type": "function"
    },
    {
      "inputs": [],
      "name": "stakingContract",
      "outputs": [
        {
          "internalType": "address",
          "name": "",
          "type": "address"
        }
      ],
      "stateMutability": "view",
      "type": "function"
    },
    {
      "inputs": [
        {
          "internalType": "bytes4",
          "name": "interfaceId",
          "type": "bytes4"
        }
      ],
      "name": "supportsInterface",
      "outputs": [
        {
          "internalType": "bool",
          "name": "",
          "type": "bool"
        }
      ],
      "stateMutability": "view",
      "type": "function"
    },
    {
      "inputs": [],
      "name": "symbol",
      "outputs": [
        {
          "internalType": "string",
          "name": "",
          "type": "string"
        }
      ],
      "stateMutability": "view",
      "type": "function"
    },
    {
      "inputs": [
        {
          "internalType": "uint256",
          "name": "index",
          "type": "uint256"
        }
      ],
      "name": "tokenByIndex",
      "outputs": [
        {
          "internalType": "uint256",
          "name": "",
          "type": "uint256"
        }
      ],
      "stateMutability": "view",
      "type": "function"
    },
    {
      "inputs": [
        {
          "internalType": "address",
          "name": "owner",
          "type": "address"
        },
        {
          "internalType": "uint256",
          "name": "index",
          "type": "uint256"
        }
      ],
      "name": "tokenOfOwnerByIndex",
      "outputs": [
        {
          "internalType": "uint256",
          "name": "",
          "type": "uint256"
        }
      ],
      "stateMutability": "view",
      "type": "function"
    },
    {
      "inputs": [
        {
          "internalType": "uint256",
          "name": "tokenId",
          "type": "uint256"
        }
      ],
      "name": "tokenURI",
      "outputs": [
        {
          "internalType": "string",
          "name": "",
          "type": "string"
        }
      ],
      "stateMutability": "view",
      "type": "function"
    },
    {
      "inputs": [],
      "name": "totalSupply",
      "outputs": [
        {
          "internalType": "uint256",
          "name": "",
          "type": "uint256"
        }
      ],
      "stateMutability": "view",
      "type": "function"
    },
    {
      "inputs": [
        {
          "internalType": "address",
          "name": "from",
          "type": "address"
        },
        {
          "internalType": "address",
          "name": "to",
          "type": "address"
        },
        {
          "internalType": "uint256",
          "name": "tokenId",
          "type": "uint256"
        }
      ],
      "name": "transferFrom",
      "outputs": [],
      "stateMutability": "nonpayable",
      "type": "function"
    },
    {
      "inputs": [
        {
          "internalType": "address",
          "name": "newOwner",
          "type": "address"
        }
      ],
      "name": "transferOwnership",
      "outputs": [],
      "stateMutability": "nonpayable",
      "type": "function"
    },
    {
      "inputs": [
        {
          "internalType": "address",
          "name": "newImplementation",
          "type": "address"
        },
        {
          "internalType": "bytes",
          "name": "data",
          "type": "bytes"
        }
      ],
      "name": "upgradeToAndCall",
      "outputs": [],
      "stateMutability": "payable",
      "type": "function"
    },
    {
      "inputs": [],
      "name": "votingPowerContract",
      "outputs": [
        {
          "internalType": "address",
          "name": "",
          "type": "address"
        }
      ],
      "stateMutability": "view",
      "type": "function"
    }
  ],
  "bytecode": "0x60a06040523073ffffffffffffffffffffffffffffffffffffffff1660809073ffffffffffffffffffffffffffffffffffffffff168152503480156200004457600080fd5b50620000556200005b60201b60201c565b620001cf565b60006200006d6200016560201b60201c565b90508060000160089054906101000a900460ff1615620000b9576040517ff92ee8a900000000000000000000000000000000000000000000000000000000815260040160405180910390fd5b67ffffffffffffffff80168160000160009054906101000a900467ffffffffffffffff1667ffffffffffffffff1614620001625767ffffffffffffffff8160000160006101000a81548167ffffffffffffffff021916908367ffffffffffffffff1602179055507fc7f505b2f371ae2175ee4913f4499e1f2633a7b5936321eed1cdaeb6115181d267ffffffffffffffff604051620001599190620001b2565b60405180910390a15b50565b60007ff0c57e16840df040f15088dc2f81fe391c3923bec73e23a9662efc9c229c6a00905090565b600067ffffffffffffffff82169050919050565b620001ac816200018d565b82525050565b6000602082019050620001c96000830184620001a1565b92915050565b608051615d7f620001f960003960008181612ac501528181612b1a0152612cd50152615d7f6000f3fe6080604052600436106101f95760003560e01c806370a082311161010d578063b88d4fde116100a0578063e43c2b741161006f578063e43c2b7414610736578063e985e9c514610773578063ee99205c146107b0578063f2fde38b146107db578063fc8f975414610804576101f9565b8063b88d4fde1461067c578063c4d66de8146106a5578063c87b56dd146106ce578063e30c39781461070b576101f9565b80638f644c4a116100dc5780638f644c4a146105c057806395d89b41146105fd578063a22cb46514610628578063ad3cb1cc14610651576101f9565b806370a082311461052a578063715018a61461056757806379ba50971461057e5780638da5cb5b14610595576101f9565b80632f745c59116101905780634ab867141161015f5780634ab86714146104405780634f1ef286146104695780634f6ccce71461048557806352d1902d146104c25780636352211e146104ed576101f9565b80632f745c59146103865780633e70d65d146103c357806342842e0e146103ee57806344fa7ec314610417576101f9565b80630dd8a598116101cc5780630dd8a598146102cc57806314dada971461030957806318160ddd1461033257806323b872dd1461035d576101f9565b806301ffc9a7146101fe57806306fdde031461023b578063081812fc14610266578063095ea7b3146102a3575b600080fd5b34801561020a57600080fd5b5061022560048036038101906102209190614546565b610844565b604051610232919061458e565b60405180910390f35b34801561024757600080fd5b506102506108be565b60405161025d9190614639565b60405180910390f35b34801561027257600080fd5b5061028d60048036038101906102889190614691565b61095f565b60405161029a91906146ff565b60405180910390f35b3480156102af57600080fd5b506102ca60048036038101906102c59190614746565b61097b565b005b3480156102d857600080fd5b506102f360048036038101906102ee9190614691565b610991565b60405161030091906147f9565b60405180910390f35b34801561031557600080fd5b50610330600480360381019061032b9190614691565b610a32565b005b34801561033e57600080fd5b50610347610d0f565b6040516103549190614823565b60405180910390f35b34801561036957600080fd5b50610384600480360381019061037f919061483e565b610d2a565b005b34801561039257600080fd5b506103ad60048036038101906103a89190614746565b610fce565b6040516103ba9190614823565b60405180910390f35b3480156103cf57600080fd5b506103d8611085565b6040516103e591906146ff565b60405180910390f35b3480156103fa57600080fd5b506104156004803603810190610410919061483e565b6110ab565b005b34801561042357600080fd5b5061043e60048036038101906104399190614891565b6110cb565b005b34801561044c57600080fd5b50610467600480360381019061046291906148f8565b611571565b005b610483600480360381019061047e9190614a5a565b61173a565b005b34801561049157600080fd5b506104ac60048036038101906104a79190614691565b611759565b6040516104b99190614823565b60405180910390f35b3480156104ce57600080fd5b506104d76117dd565b6040516104e49190614acf565b60405180910390f35b3480156104f957600080fd5b50610514600480360381019061050f9190614691565b611810565b60405161052191906146ff565b60405180910390f35b34801561053657600080fd5b50610551600480360381019061054c91906148f8565b611822565b60405161055e9190614823565b60405180910390f35b34801561057357600080fd5b5061057c6118eb565b005b34801561058a57600080fd5b506105936118ff565b005b3480156105a157600080fd5b506105aa61198e565b6040516105b791906146ff565b60405180910390f35b3480156105cc57600080fd5b506105e760048036038101906105e29190614aea565b6119c6565b6040516105f49190614823565b60405180910390f35b34801561060957600080fd5b50610612611e06565b60405161061f9190614639565b60405180910390f35b34801561063457600080fd5b5061064f600480360381019061064a9190614b7d565b611ea7565b005b34801561065d57600080fd5b50610666611ebd565b6040516106739190614639565b60405180910390f35b34801561068857600080fd5b506106a3600480360381019061069e9190614bbd565b611ef6565b005b3480156106b157600080fd5b506106cc60048036038101906106c791906148f8565b611f13565b005b3480156106da57600080fd5b506106f560048036038101906106f09190614691565b61225b565b6040516107029190614639565b60405180910390f35b34801561071757600080fd5b506107206122c4565b60405161072d91906146ff565b60405180910390f35b34801561074257600080fd5b5061075d600480360381019061075891906148f8565b6122fc565b60405161076a9190614d44565b60405180910390f35b34801561077f57600080fd5b5061079a60048036038101906107959190614d66565b61243f565b6040516107a7919061458e565b60405180910390f35b3480156107bc57600080fd5b506107c56124e1565b6040516107d291906146ff565b60405180910390f35b3480156107e757600080fd5b5061080260048036038101906107fd91906148f8565b612507565b005b34801561081057600080fd5b5061082b60048036038101906108269190614691565b6125c3565b60405161083b9493929190614da6565b60405180910390f35b60007f780e9d63000000000000000000000000000000000000000000000000000000007bffffffffffffffffffffffffffffffffffffffffffffffffffffffff1916827bffffffffffffffffffffffffffffffffffffffffffffffffffffffff191614806108b757506108b682612613565b5b9050919050565b606060006108ca6126f5565b90508060000180546108db90614e1a565b80601f016020809104026020016040519081016040528092919081815260200182805461090790614e1a565b80156109545780601f1061092957610100808354040283529160200191610954565b820191906000526020600020905b81548152906001019060200180831161093757829003601f168201915b505050505091505090565b600061096a8261271d565b50610974826127a5565b9050919050565b61098d82826109886127f0565b6127f8565b5050565b61099961449c565b600160008381526020019081526020016000206040518060800160405290816000820160009054906101000a900473ffffffffffffffffffffffffffffffffffffffff1673ffffffffffffffffffffffffffffffffffffffff1673ffffffffffffffffffffffffffffffffffffffff16815260200160018201548152602001600282015481526020016003820154815250509050919050565b600260009054906101000a900473ffffffffffffffffffffffffffffffffffffffff1673ffffffffffffffffffffffffffffffffffffffff163373ffffffffffffffffffffffffffffffffffffffff1614610ac2576040517f08c379a0000000000000000000000000000000000000000000000000000000008152600401610ab990614ebd565b60405180910390fd5b610b5c600160008381526020019081526020016000206040518060800160405290816000820160009054906101000a900473ffffffffffffffffffffffffffffffffffffffff1673ffffffffffffffffffffffffffffffffffffffff1673ffffffffffffffffffffffffffffffffffffffff168152602001600182015481526020016002820154815260200160038201548152505061280a565b15610b9c576040517f08c379a0000000000000000000000000000000000000000000000000000000008152600401610b9390614f4f565b60405180910390fd5b600360009054906101000a900473ffffffffffffffffffffffffffffffffffffffff1673ffffffffffffffffffffffffffffffffffffffff16630b813e00610be383611810565b600160008581526020019081526020016000206040518060800160405280600073ffffffffffffffffffffffffffffffffffffffff168152602001600081526020016000815260200160008152506040518463ffffffff1660e01b8152600401610c4f9392919061505d565b600060405180830381600087803b158015610c6957600080fd5b505af1158015610c7d573d6000803e3d6000fd5b50505050610c8a81612876565b60016000828152602001908152602001600020600080820160006101000a81549073ffffffffffffffffffffffffffffffffffffffff02191690556001820160009055600282016000905560038201600090555050807f4c34aa6e307a3abca8f46d91cf83dd8c2afc92b91b5919060279271b09d8ca1960405160405180910390a250565b600080610d1a6128fc565b9050806002018054905091505090565b610dc4600160008381526020019081526020016000206040518060800160405290816000820160009054906101000a900473ffffffffffffffffffffffffffffffffffffffff1673ffffffffffffffffffffffffffffffffffffffff1673ffffffffffffffffffffffffffffffffffffffff168152602001600182015481526020016002820154815260200160038201548152505061280a565b15610e04576040517f08c379a0000000000000000000000000000000000000000000000000000000008152600401610dfb90614f4f565b60405180910390fd5b610e0f838383612924565b600360009054906101000a900473ffffffffffffffffffffffffffffffffffffffff1673ffffffffffffffffffffffffffffffffffffffff16630b813e0084600160008581526020019081526020016000206040518060800160405280600073ffffffffffffffffffffffffffffffffffffffff168152602001600081526020016000815260200160008152506040518463ffffffff1660e01b8152600401610eba9392919061505d565b600060405180830381600087803b158015610ed457600080fd5b505af1158015610ee8573d6000803e3d6000fd5b50505050600360009054906101000a900473ffffffffffffffffffffffffffffffffffffffff1673ffffffffffffffffffffffffffffffffffffffff16630b813e00836040518060800160405280600073ffffffffffffffffffffffffffffffffffffffff16815260200160008152602001600081526020016000815250600160008681526020019081526020016000206040518463ffffffff1660e01b8152600401610f9793929190615095565b600060405180830381600087803b158015610fb157600080fd5b505af1158015610fc5573d6000803e3d6000fd5b50505050505050565b600080610fd96128fc565b9050610fe484611822565b83106110295783836040517fa57d13dc0000000000000000000000000000000000000000000000000000000081526004016110209291906150cd565b60405180910390fd5b8060000160008573ffffffffffffffffffffffffffffffffffffffff1673ffffffffffffffffffffffffffffffffffffffff16815260200190815260200160002060008481526020019081526020016000205491505092915050565b600360009054906101000a900473ffffffffffffffffffffffffffffffffffffffff1681565b6110c683838360405180602001604052806000815250611ef6565b505050565b600260009054906101000a900473ffffffffffffffffffffffffffffffffffffffff1673ffffffffffffffffffffffffffffffffffffffff163373ffffffffffffffffffffffffffffffffffffffff161461115b576040517f08c379a000000000000000000000000000000000000000000000000000000000815260040161115290614ebd565b60405180910390fd5b6000831161119e576040517f08c379a000000000000000000000000000000000000000000000000000000000815260040161119590615168565b60405180910390fd5b6111a6612a26565b821015806111b45750600081115b6111f3576040517f08c379a00000000000000000000000000000000000000000000000000000000081526004016111ea90615220565b60405180910390fd5b61128d600160008681526020019081526020016000206040518060800160405290816000820160009054906101000a900473ffffffffffffffffffffffffffffffffffffffff1673ffffffffffffffffffffffffffffffffffffffff1673ffffffffffffffffffffffffffffffffffffffff168152602001600182015481526020016002820154815260200160038201548152505061280a565b156112cd576040517f08c379a00000000000000000000000000000000000000000000000000000000081526004016112c490614f4f565b60405180910390fd5b6112d5612a26565b821015806112f85750816001600086815260200190815260200160002060020154145b611337576040517f08c379a000000000000000000000000000000000000000000000000000000000815260040161132e906152b2565b60405180910390fd5b6000600160008681526020019081526020016000206040518060800160405290816000820160009054906101000a900473ffffffffffffffffffffffffffffffffffffffff1673ffffffffffffffffffffffffffffffffffffffff1673ffffffffffffffffffffffffffffffffffffffff168152602001600182015481526020016002820154815260200160038201548152505090506040518060800160405280826000015173ffffffffffffffffffffffffffffffffffffffff168152602001858152602001848152602001838152506001600087815260200190815260200160002060008201518160000160006101000a81548173ffffffffffffffffffffffffffffffffffffffff021916908373ffffffffffffffffffffffffffffffffffffffff160217905550602082015181600101556040820151816002015560608201518160030155905050600360009054906101000a900473ffffffffffffffffffffffffffffffffffffffff1673ffffffffffffffffffffffffffffffffffffffff16630b813e006114ca87611810565b83600160008a81526020019081526020016000206040518463ffffffff1660e01b81526004016114fc93929190615095565b600060405180830381600087803b15801561151657600080fd5b505af115801561152a573d6000803e3d6000fd5b50505050847f8b2fca06f3fb2cfc9a247309b8cf59b90da5c00b918b05b5916d69c5a098fd52858585604051611562939291906152d2565b60405180910390a25050505050565b611579612a3c565b600073ffffffffffffffffffffffffffffffffffffffff16600360009054906101000a900473ffffffffffffffffffffffffffffffffffffffff1673ffffffffffffffffffffffffffffffffffffffff161461160a576040517f08c379a00000000000000000000000000000000000000000000000000000000081526004016116019061537b565b60405180910390fd5b600073ffffffffffffffffffffffffffffffffffffffff168173ffffffffffffffffffffffffffffffffffffffff1603611679576040517f08c379a00000000000000000000000000000000000000000000000000000000081526004016116709061540d565b60405180910390fd5b80600360006101000a81548173ffffffffffffffffffffffffffffffffffffffff021916908373ffffffffffffffffffffffffffffffffffffffff160217905550600360009054906101000a900473ffffffffffffffffffffffffffffffffffffffff1673ffffffffffffffffffffffffffffffffffffffff16600073ffffffffffffffffffffffffffffffffffffffff167ff25c169f726159a79d10606781d7397813553e627a84437cd801b32077d265d460405160405180910390a350565b611742612ac3565b61174b82612ba9565b6117558282612bb4565b5050565b6000806117646128fc565b905061176e610d0f565b83106117b4576000836040517fa57d13dc0000000000000000000000000000000000000000000000000000000081526004016117ab9291906150cd565b60405180910390fd5b8060020183815481106117ca576117c961542d565b5b9060005260206000200154915050919050565b60006117e7612cd3565b7f360894a13ba1a3210667c828492db98dca3e2076cc3735a920a3ca505d382bbc60001b905090565b600061181b8261271d565b9050919050565b60008061182d6126f5565b9050600073ffffffffffffffffffffffffffffffffffffffff168373ffffffffffffffffffffffffffffffffffffffff16036118a15760006040517f89c62b6400000000000000000000000000000000000000000000000000000000815260040161189891906146ff565b60405180910390fd5b8060030160008473ffffffffffffffffffffffffffffffffffffffff1673ffffffffffffffffffffffffffffffffffffffff16815260200190815260200160002054915050919050565b6118f3612a3c565b6118fd6000612d5a565b565b60006119096127f0565b90508073ffffffffffffffffffffffffffffffffffffffff1661192a6122c4565b73ffffffffffffffffffffffffffffffffffffffff161461198257806040517f118cdaa700000000000000000000000000000000000000000000000000000000815260040161197991906146ff565b60405180910390fd5b61198b81612d5a565b50565b600080611999612d9a565b90508060000160009054906101000a900473ffffffffffffffffffffffffffffffffffffffff1691505090565b6000600260009054906101000a900473ffffffffffffffffffffffffffffffffffffffff1673ffffffffffffffffffffffffffffffffffffffff163373ffffffffffffffffffffffffffffffffffffffff1614611a58576040517f08c379a0000000000000000000000000000000000000000000000000000000008152600401611a4f90614ebd565b60405180910390fd5b600073ffffffffffffffffffffffffffffffffffffffff168573ffffffffffffffffffffffffffffffffffffffff1603611ac7576040517f08c379a0000000000000000000000000000000000000000000000000000000008152600401611abe906154ce565b60405180910390fd5b600073ffffffffffffffffffffffffffffffffffffffff168473ffffffffffffffffffffffffffffffffffffffff1603611b36576040517f08c379a0000000000000000000000000000000000000000000000000000000008152600401611b2d90615560565b60405180910390fd5b60008311611b79576040517f08c379a0000000000000000000000000000000000000000000000000000000008152600401611b7090615168565b60405180910390fd5b60008211611bbc576040517f08c379a0000000000000000000000000000000000000000000000000000000008152600401611bb3906155f2565b60405180910390fd5b611bc884600054612dc2565b60405180608001604052808673ffffffffffffffffffffffffffffffffffffffff16815260200184815260200183611bfe612a26565b611c089190615641565b81526020016000815250600160008054815260200190815260200160002060008201518160000160006101000a81548173ffffffffffffffffffffffffffffffffffffffff021916908373ffffffffffffffffffffffffffffffffffffffff160217905550602082015181600101556040820151816002015560608201518160030155905050600360009054906101000a900473ffffffffffffffffffffffffffffffffffffffff1673ffffffffffffffffffffffffffffffffffffffff16630b813e00856040518060800160405280600073ffffffffffffffffffffffffffffffffffffffff1681526020016000815260200160008152602001600081525060016000805481526020019081526020016000206040518463ffffffff1660e01b8152600401611d3a93929190615095565b600060405180830381600087803b158015611d5457600080fd5b505af1158015611d68573d6000803e3d6000fd5b505050508373ffffffffffffffffffffffffffffffffffffffff168573ffffffffffffffffffffffffffffffffffffffff166000547f197e2f3a05b478d95dabd2c8e10b86c60ff1eb1225a29f50dc6235b4daf4b16d8686604051611dce929190615675565b60405180910390a4600080815480929190611de89061569e565b91905055506001600054611dfc91906156e6565b9050949350505050565b60606000611e126126f5565b9050806001018054611e2390614e1a565b80601f0160208091040260200160405190810160405280929190818152602001828054611e4f90614e1a565b8015611e9c5780601f10611e7157610100808354040283529160200191611e9c565b820191906000526020600020905b815481529060010190602001808311611e7f57829003601f168201915b505050505091505090565b611eb9611eb26127f0565b8383612ebb565b5050565b6040518060400160405280600581526020017f352e302e3000000000000000000000000000000000000000000000000000000081525081565b611f01848484610d2a565b611f0d84848484613039565b50505050565b6000611f1d6131f0565b905060008160000160089054906101000a900460ff1615905060008260000160009054906101000a900467ffffffffffffffff1690506000808267ffffffffffffffff16148015611f6b5750825b9050600060018367ffffffffffffffff16148015611fa0575060003073ffffffffffffffffffffffffffffffffffffffff163b145b905081158015611fae575080155b15611fe5576040517ff92ee8a900000000000000000000000000000000000000000000000000000000815260040160405180910390fd5b60018560000160006101000a81548167ffffffffffffffff021916908367ffffffffffffffff16021790555083156120355760018560000160086101000a81548160ff0219169083151502179055505b600073ffffffffffffffffffffffffffffffffffffffff168673ffffffffffffffffffffffffffffffffffffffff16036120a4576040517f08c379a000000000000000000000000000000000000000000000000000000000815260040161209b9061578c565b60405180910390fd5b6120ac613218565b6120b533613222565b6120bd613236565b6121316040518060400160405280601581526020017f4c69736b204c6f636b696e6720506f736974696f6e00000000000000000000008152506040518060400160405280600381526020017f4c4c500000000000000000000000000000000000000000000000000000000000815250613240565b600160008190555085600260006101000a81548173ffffffffffffffffffffffffffffffffffffffff021916908373ffffffffffffffffffffffffffffffffffffffff160217905550600260009054906101000a900473ffffffffffffffffffffffffffffffffffffffff1673ffffffffffffffffffffffffffffffffffffffff16600073ffffffffffffffffffffffffffffffffffffffff167f90bafc04ec1cbd41b6cdf5c44648e0dd0d23d000111a886301d74196efee8fa560405160405180910390a383156122535760008560000160086101000a81548160ff0219169083151502179055507fc7f505b2f371ae2175ee4913f4499e1f2633a7b5936321eed1cdaeb6115181d2600160405161224a9190615805565b60405180910390a15b505050505050565b60606122668261271d565b506000612271613256565b9050600081511161229157604051806020016040528060008152506122bc565b8061229b8461326d565b6040516020016122ac92919061585c565b6040516020818303038152906040525b915050919050565b6000806122cf61333b565b90508060000160009054906101000a900473ffffffffffffffffffffffffffffffffffffffff1691505090565b6060600061230983611822565b905060008167ffffffffffffffff8111156123275761232661492f565b5b60405190808252806020026020018201604052801561236057816020015b61234d61449c565b8152602001906001900390816123455790505b50905060005b82811015612434576001600061237c8784610fce565b81526020019081526020016000206040518060800160405290816000820160009054906101000a900473ffffffffffffffffffffffffffffffffffffffff1673ffffffffffffffffffffffffffffffffffffffff1673ffffffffffffffffffffffffffffffffffffffff168152602001600182015481526020016002820154815260200160038201548152505082828151811061241c5761241b61542d565b5b60200260200101819052508080600101915050612366565b508092505050919050565b60008061244a6126f5565b90508060050160008573ffffffffffffffffffffffffffffffffffffffff1673ffffffffffffffffffffffffffffffffffffffff16815260200190815260200160002060008473ffffffffffffffffffffffffffffffffffffffff1673ffffffffffffffffffffffffffffffffffffffff16815260200190815260200160002060009054906101000a900460ff1691505092915050565b600260009054906101000a900473ffffffffffffffffffffffffffffffffffffffff1681565b61250f612a3c565b600061251961333b565b9050818160000160006101000a81548173ffffffffffffffffffffffffffffffffffffffff021916908373ffffffffffffffffffffffffffffffffffffffff1602179055508173ffffffffffffffffffffffffffffffffffffffff1661257d61198e565b73ffffffffffffffffffffffffffffffffffffffff167f38d16b8cac22d99fc7c124b9cd0de2d3fa1faef420bfe791d8c362d765e2270060405160405180910390a35050565b60016020528060005260406000206000915090508060000160009054906101000a900473ffffffffffffffffffffffffffffffffffffffff16908060010154908060020154908060030154905084565b60007f80ac58cd000000000000000000000000000000000000000000000000000000007bffffffffffffffffffffffffffffffffffffffffffffffffffffffff1916827bffffffffffffffffffffffffffffffffffffffffffffffffffffffff191614806126de57507f5b5e139f000000000000000000000000000000000000000000000000000000007bffffffffffffffffffffffffffffffffffffffffffffffffffffffff1916827bffffffffffffffffffffffffffffffffffffffffffffffffffffffff1916145b806126ee57506126ed82613363565b5b9050919050565b60007f80bb2b638cc20bc4d0a60d66940f3ab4a00c1d7b313497ca82fb0b4ab0079300905090565b600080612729836133cd565b9050600073ffffffffffffffffffffffffffffffffffffffff168173ffffffffffffffffffffffffffffffffffffffff160361279c57826040517f7e2732890000000000000000000000000000000000000000000000000000000081526004016127939190614823565b60405180910390fd5b80915050919050565b6000806127b06126f5565b905080600401600084815260200190815260200160002060009054906101000a900473ffffffffffffffffffffffffffffffffffffffff16915050919050565b600033905090565b6128058383836001613418565b505050565b60008073ffffffffffffffffffffffffffffffffffffffff16826000015173ffffffffffffffffffffffffffffffffffffffff1614801561284f575060008260200151145b801561285f575060008260400151145b801561286f575060008260600151145b9050919050565b600061288560008360006135ec565b9050600073ffffffffffffffffffffffffffffffffffffffff168173ffffffffffffffffffffffffffffffffffffffff16036128f857816040517f7e2732890000000000000000000000000000000000000000000000000000000081526004016128ef9190614823565b60405180910390fd5b5050565b60007f645e039705490088daad89bae25049a34f4a9072d398537b1ab2425f24cbed00905090565b600073ffffffffffffffffffffffffffffffffffffffff168273ffffffffffffffffffffffffffffffffffffffff16036129965760006040517f64a0ae9200000000000000000000000000000000000000000000000000000000815260040161298d91906146ff565b60405180910390fd5b60006129aa83836129a56127f0565b6135ec565b90508373ffffffffffffffffffffffffffffffffffffffff168173ffffffffffffffffffffffffffffffffffffffff1614612a20578382826040517f64283d7b000000000000000000000000000000000000000000000000000000008152600401612a1793929190615880565b60405180910390fd5b50505050565b60006201518042612a3791906158e6565b905090565b612a446127f0565b73ffffffffffffffffffffffffffffffffffffffff16612a6261198e565b73ffffffffffffffffffffffffffffffffffffffff1614612ac157612a856127f0565b6040517f118cdaa7000000000000000000000000000000000000000000000000000000008152600401612ab891906146ff565b60405180910390fd5b565b7f000000000000000000000000000000000000000000000000000000000000000073ffffffffffffffffffffffffffffffffffffffff163073ffffffffffffffffffffffffffffffffffffffff161480612b7057507f000000000000000000000000000000000000000000000000000000000000000073ffffffffffffffffffffffffffffffffffffffff16612b57613709565b73ffffffffffffffffffffffffffffffffffffffff1614155b15612ba7576040517fe07c8dba00000000000000000000000000000000000000000000000000000000815260040160405180910390fd5b565b612bb1612a3c565b50565b8173ffffffffffffffffffffffffffffffffffffffff166352d1902d6040518163ffffffff1660e01b8152600401602060405180830381865afa925050508015612c1c57506040513d601f19601f82011682018060405250810190612c199190615943565b60015b612c5d57816040517f4c9c8ce3000000000000000000000000000000000000000000000000000000008152600401612c5491906146ff565b60405180910390fd5b7f360894a13ba1a3210667c828492db98dca3e2076cc3735a920a3ca505d382bbc60001b8114612cc457806040517faa1d49a4000000000000000000000000000000000000000000000000000000008152600401612cbb9190614acf565b60405180910390fd5b612cce8383613760565b505050565b7f000000000000000000000000000000000000000000000000000000000000000073ffffffffffffffffffffffffffffffffffffffff163073ffffffffffffffffffffffffffffffffffffffff1614612d58576040517fe07c8dba00000000000000000000000000000000000000000000000000000000815260040160405180910390fd5b565b6000612d6461333b565b90508060000160006101000a81549073ffffffffffffffffffffffffffffffffffffffff0219169055612d96826137d3565b5050565b60007f9016d09d72d40fdae2fd8ceac6b6234c7706214fd39c1cd1e609a0528c199300905090565b600073ffffffffffffffffffffffffffffffffffffffff168273ffffffffffffffffffffffffffffffffffffffff1603612e345760006040517f64a0ae92000000000000000000000000000000000000000000000000000000008152600401612e2b91906146ff565b60405180910390fd5b6000612e42838360006135ec565b9050600073ffffffffffffffffffffffffffffffffffffffff168173ffffffffffffffffffffffffffffffffffffffff1614612eb65760006040517f73c6ac6e000000000000000000000000000000000000000000000000000000008152600401612ead91906146ff565b60405180910390fd5b505050565b6000612ec56126f5565b9050600073ffffffffffffffffffffffffffffffffffffffff168373ffffffffffffffffffffffffffffffffffffffff1603612f3857826040517f5b08ba18000000000000000000000000000000000000000000000000000000008152600401612f2f91906146ff565b60405180910390fd5b818160050160008673ffffffffffffffffffffffffffffffffffffffff1673ffffffffffffffffffffffffffffffffffffffff16815260200190815260200160002060008573ffffffffffffffffffffffffffffffffffffffff1673ffffffffffffffffffffffffffffffffffffffff16815260200190815260200160002060006101000a81548160ff0219169083151502179055508273ffffffffffffffffffffffffffffffffffffffff168473ffffffffffffffffffffffffffffffffffffffff167f17307eab39ab6107e8899845ad3d59bd9653f200f220920489ca2b5937696c318460405161302b919061458e565b60405180910390a350505050565b60008373ffffffffffffffffffffffffffffffffffffffff163b11156131ea578273ffffffffffffffffffffffffffffffffffffffff1663150b7a0261307d6127f0565b8685856040518563ffffffff1660e01b815260040161309f94939291906159c5565b6020604051808303816000875af19250505080156130db57506040513d601f19601f820116820180604052508101906130d89190615a26565b60015b61315f573d806000811461310b576040519150601f19603f3d011682016040523d82523d6000602084013e613110565b606091505b50600081510361315757836040517f64a0ae9200000000000000000000000000000000000000000000000000000000815260040161314e91906146ff565b60405180910390fd5b805181602001fd5b63150b7a0260e01b7bffffffffffffffffffffffffffffffffffffffffffffffffffffffff1916817bffffffffffffffffffffffffffffffffffffffffffffffffffffffff1916146131e857836040517f64a0ae920000000000000000000000000000000000000000000000000000000081526004016131df91906146ff565b60405180910390fd5b505b50505050565b60007ff0c57e16840df040f15088dc2f81fe391c3923bec73e23a9662efc9c229c6a00905090565b6132206138aa565b565b61322a6138aa565b613233816138ea565b50565b61323e6138aa565b565b6132486138aa565b6132528282613970565b5050565b606060405180602001604052806000815250905090565b60606000600161327c846139ad565b01905060008167ffffffffffffffff81111561329b5761329a61492f565b5b6040519080825280601f01601f1916602001820160405280156132cd5781602001600182028036833780820191505090505b509050600082602001820190505b600115613330578080600190039150507f3031323334353637383961626364656600000000000000000000000000000000600a86061a8153600a8581613324576133236158b7565b5b049450600085036132db575b819350505050919050565b60007f237e158222e3e6968b72b9db0d8043aacf074ad9f650f0d1606b4d82ee432c00905090565b60007f01ffc9a7000000000000000000000000000000000000000000000000000000007bffffffffffffffffffffffffffffffffffffffffffffffffffffffff1916827bffffffffffffffffffffffffffffffffffffffffffffffffffffffff1916149050919050565b6000806133d86126f5565b905080600201600084815260200190815260200160002060009054906101000a900473ffffffffffffffffffffffffffffffffffffffff16915050919050565b60006134226126f5565b9050818061345d5750600073ffffffffffffffffffffffffffffffffffffffff168373ffffffffffffffffffffffffffffffffffffffff1614155b1561359157600061346d8561271d565b9050600073ffffffffffffffffffffffffffffffffffffffff168473ffffffffffffffffffffffffffffffffffffffff16141580156134d857508373ffffffffffffffffffffffffffffffffffffffff168173ffffffffffffffffffffffffffffffffffffffff1614155b80156134eb57506134e9818561243f565b155b1561352d57836040517fa9fbf51f00000000000000000000000000000000000000000000000000000000815260040161352491906146ff565b60405180910390fd5b821561358f57848673ffffffffffffffffffffffffffffffffffffffff168273ffffffffffffffffffffffffffffffffffffffff167f8c5be1e5ebec7d5bd14f71427d1e84f3dd0314c0f7b2291e5b200ac8c7c3b92560405160405180910390a45b505b8481600401600086815260200190815260200160002060006101000a81548173ffffffffffffffffffffffffffffffffffffffff021916908373ffffffffffffffffffffffffffffffffffffffff1602179055505050505050565b6000806135fa858585613b00565b9050600073ffffffffffffffffffffffffffffffffffffffff168173ffffffffffffffffffffffffffffffffffffffff160361363e5761363984613d2d565b61367d565b8473ffffffffffffffffffffffffffffffffffffffff168173ffffffffffffffffffffffffffffffffffffffff161461367c5761367b8185613d89565b5b5b600073ffffffffffffffffffffffffffffffffffffffff168573ffffffffffffffffffffffffffffffffffffffff16036136bf576136ba84613f03565b6136fe565b8473ffffffffffffffffffffffffffffffffffffffff168173ffffffffffffffffffffffffffffffffffffffff16146136fd576136fc8585613fef565b5b5b809150509392505050565b60006137377f360894a13ba1a3210667c828492db98dca3e2076cc3735a920a3ca505d382bbc60001b61408b565b60000160009054906101000a900473ffffffffffffffffffffffffffffffffffffffff16905090565b61376982614095565b8173ffffffffffffffffffffffffffffffffffffffff167fbc7cd75a20ee27fd9adebab32041f755214dbc6bffa90cc0225b39da2e5c2d3b60405160405180910390a26000815111156137c6576137c08282614162565b506137cf565b6137ce6141e6565b5b5050565b60006137dd612d9a565b905060008160000160009054906101000a900473ffffffffffffffffffffffffffffffffffffffff169050828260000160006101000a81548173ffffffffffffffffffffffffffffffffffffffff021916908373ffffffffffffffffffffffffffffffffffffffff1602179055508273ffffffffffffffffffffffffffffffffffffffff168173ffffffffffffffffffffffffffffffffffffffff167f8be0079c531659141344cd1fd0a4f28419497f9722a3daafe3b4186f6b6457e060405160405180910390a3505050565b6138b2614223565b6138e8576040517fd7e6bcf800000000000000000000000000000000000000000000000000000000815260040160405180910390fd5b565b6138f26138aa565b600073ffffffffffffffffffffffffffffffffffffffff168173ffffffffffffffffffffffffffffffffffffffff16036139645760006040517f1e4fbdf700000000000000000000000000000000000000000000000000000000815260040161395b91906146ff565b60405180910390fd5b61396d81612d5a565b50565b6139786138aa565b60006139826126f5565b9050828160000190816139959190615bf5565b50818160010190816139a79190615bf5565b50505050565b600080600090507a184f03e93ff9f4daa797ed6e38ed64bf6a1f0100000000000000008310613a0b577a184f03e93ff9f4daa797ed6e38ed64bf6a1f0100000000000000008381613a0157613a006158b7565b5b0492506040810190505b6d04ee2d6d415b85acef81000000008310613a48576d04ee2d6d415b85acef81000000008381613a3e57613a3d6158b7565b5b0492506020810190505b662386f26fc100008310613a7757662386f26fc100008381613a6d57613a6c6158b7565b5b0492506010810190505b6305f5e1008310613aa0576305f5e1008381613a9657613a956158b7565b5b0492506008810190505b6127108310613ac5576127108381613abb57613aba6158b7565b5b0492506004810190505b60648310613ae85760648381613ade57613add6158b7565b5b0492506002810190505b600a8310613af7576001810190505b80915050919050565b600080613b0b6126f5565b90506000613b18856133cd565b9050600073ffffffffffffffffffffffffffffffffffffffff168473ffffffffffffffffffffffffffffffffffffffff1614613b5a57613b59818587614243565b5b600073ffffffffffffffffffffffffffffffffffffffff168173ffffffffffffffffffffffffffffffffffffffff1614613bed57613b9c600086600080613418565b60018260030160008373ffffffffffffffffffffffffffffffffffffffff1673ffffffffffffffffffffffffffffffffffffffff168152602001908152602001600020600082825403925050819055505b600073ffffffffffffffffffffffffffffffffffffffff168673ffffffffffffffffffffffffffffffffffffffff1614613c725760018260030160008873ffffffffffffffffffffffffffffffffffffffff1673ffffffffffffffffffffffffffffffffffffffff168152602001908152602001600020600082825401925050819055505b8582600201600087815260200190815260200160002060006101000a81548173ffffffffffffffffffffffffffffffffffffffff021916908373ffffffffffffffffffffffffffffffffffffffff160217905550848673ffffffffffffffffffffffffffffffffffffffff168273ffffffffffffffffffffffffffffffffffffffff167fddf252ad1be2c89b69c2b068fc378daa952ba7f163c4a11628f55a4df523b3ef60405160405180910390a480925050509392505050565b6000613d376128fc565b9050806002018054905081600301600084815260200190815260200160002081905550806002018290806001815401808255809150506001900390600052602060002001600090919091909150555050565b6000613d936128fc565b90506000613da084611822565b90506000826001016000858152602001908152602001600020549050818114613e8d5760008360000160008773ffffffffffffffffffffffffffffffffffffffff1673ffffffffffffffffffffffffffffffffffffffff1681526020019081526020016000206000848152602001908152602001600020549050808460000160008873ffffffffffffffffffffffffffffffffffffffff1673ffffffffffffffffffffffffffffffffffffffff1681526020019081526020016000206000848152602001908152602001600020819055508184600101600083815260200190815260200160002081905550505b826001016000858152602001908152602001600020600090558260000160008673ffffffffffffffffffffffffffffffffffffffff1673ffffffffffffffffffffffffffffffffffffffff1681526020019081526020016000206000838152602001908152602001600020600090555050505050565b6000613f0d6128fc565b9050600060018260020180549050613f2591906156e6565b905060008260030160008581526020019081526020016000205490506000836002018381548110613f5957613f5861542d565b5b9060005260206000200154905080846002018381548110613f7d57613f7c61542d565b5b906000526020600020018190555081846003016000838152602001908152602001600020819055508360030160008681526020019081526020016000206000905583600201805480613fd257613fd1615cc7565b5b600190038181906000526020600020016000905590555050505050565b6000613ff96128fc565b90506000600161400885611822565b61401291906156e6565b9050828260000160008673ffffffffffffffffffffffffffffffffffffffff1673ffffffffffffffffffffffffffffffffffffffff168152602001908152602001600020600083815260200190815260200160002081905550808260010160008581526020019081526020016000208190555050505050565b6000819050919050565b60008173ffffffffffffffffffffffffffffffffffffffff163b036140f157806040517f4c9c8ce30000000000000000000000000000000000000000000000000000000081526004016140e891906146ff565b60405180910390fd5b8061411e7f360894a13ba1a3210667c828492db98dca3e2076cc3735a920a3ca505d382bbc60001b61408b565b60000160006101000a81548173ffffffffffffffffffffffffffffffffffffffff021916908373ffffffffffffffffffffffffffffffffffffffff16021790555050565b60606000808473ffffffffffffffffffffffffffffffffffffffff168460405161418c9190615d32565b600060405180830381855af49150503d80600081146141c7576040519150601f19603f3d011682016040523d82523d6000602084013e6141cc565b606091505b50915091506141dc858383614307565b9250505092915050565b6000341115614221576040517fb398979f00000000000000000000000000000000000000000000000000000000815260040160405180910390fd5b565b600061422d6131f0565b60000160089054906101000a900460ff16905090565b61424e838383614396565b61430257600073ffffffffffffffffffffffffffffffffffffffff168373ffffffffffffffffffffffffffffffffffffffff16036142c357806040517f7e2732890000000000000000000000000000000000000000000000000000000081526004016142ba9190614823565b60405180910390fd5b81816040517f177e802f0000000000000000000000000000000000000000000000000000000081526004016142f99291906150cd565b60405180910390fd5b505050565b60608261431c5761431782614457565b61438e565b60008251148015614344575060008473ffffffffffffffffffffffffffffffffffffffff163b145b1561438657836040517f9996b31500000000000000000000000000000000000000000000000000000000815260040161437d91906146ff565b60405180910390fd5b81905061438f565b5b9392505050565b60008073ffffffffffffffffffffffffffffffffffffffff168373ffffffffffffffffffffffffffffffffffffffff161415801561444e57508273ffffffffffffffffffffffffffffffffffffffff168473ffffffffffffffffffffffffffffffffffffffff16148061440f575061440e848461243f565b5b8061444d57508273ffffffffffffffffffffffffffffffffffffffff16614435836127a5565b73ffffffffffffffffffffffffffffffffffffffff16145b5b90509392505050565b60008151111561446a5780518082602001fd5b6040517f1425ea4200000000000000000000000000000000000000000000000000000000815260040160405180910390fd5b6040518060800160405280600073ffffffffffffffffffffffffffffffffffffffff1681526020016000815260200160008152602001600081525090565b6000604051905090565b600080fd5b600080fd5b60007fffffffff0000000000000000000000000000000000000000000000000000000082169050919050565b614523816144ee565b811461452e57600080fd5b50565b6000813590506145408161451a565b92915050565b60006020828403121561455c5761455b6144e4565b5b600061456a84828501614531565b91505092915050565b60008115159050919050565b61458881614573565b82525050565b60006020820190506145a3600083018461457f565b92915050565b600081519050919050565b600082825260208201905092915050565b60005b838110156145e35780820151818401526020810190506145c8565b60008484015250505050565b6000601f19601f8301169050919050565b600061460b826145a9565b61461581856145b4565b93506146258185602086016145c5565b61462e816145ef565b840191505092915050565b600060208201905081810360008301526146538184614600565b905092915050565b6000819050919050565b61466e8161465b565b811461467957600080fd5b50565b60008135905061468b81614665565b92915050565b6000602082840312156146a7576146a66144e4565b5b60006146b58482850161467c565b91505092915050565b600073ffffffffffffffffffffffffffffffffffffffff82169050919050565b60006146e9826146be565b9050919050565b6146f9816146de565b82525050565b600060208201905061471460008301846146f0565b92915050565b614723816146de565b811461472e57600080fd5b50565b6000813590506147408161471a565b92915050565b6000806040838503121561475d5761475c6144e4565b5b600061476b85828601614731565b925050602061477c8582860161467c565b9150509250929050565b61478f816146de565b82525050565b61479e8161465b565b82525050565b6080820160008201516147ba6000850182614786565b5060208201516147cd6020850182614795565b5060408201516147e06040850182614795565b5060608201516147f36060850182614795565b50505050565b600060808201905061480e60008301846147a4565b92915050565b61481d8161465b565b82525050565b60006020820190506148386000830184614814565b92915050565b600080600060608486031215614857576148566144e4565b5b600061486586828701614731565b935050602061487686828701614731565b92505060406148878682870161467c565b9150509250925092565b600080600080608085870312156148ab576148aa6144e4565b5b60006148b98782880161467c565b94505060206148ca8782880161467c565b93505060406148db8782880161467c565b92505060606148ec8782880161467c565b91505092959194509250565b60006020828403121561490e5761490d6144e4565b5b600061491c84828501614731565b91505092915050565b600080fd5b600080fd5b7f4e487b7100000000000000000000000000000000000000000000000000000000600052604160045260246000fd5b614967826145ef565b810181811067ffffffffffffffff821117156149865761498561492f565b5b80604052505050565b60006149996144da565b90506149a5828261495e565b919050565b600067ffffffffffffffff8211156149c5576149c461492f565b5b6149ce826145ef565b9050602081019050919050565b82818337600083830152505050565b60006149fd6149f8846149aa565b61498f565b905082815260208101848484011115614a1957614a1861492a565b5b614a248482856149db565b509392505050565b600082601f830112614a4157614a40614925565b5b8135614a518482602086016149ea565b91505092915050565b60008060408385031215614a7157614a706144e4565b5b6000614a7f85828601614731565b925050602083013567ffffffffffffffff811115614aa057614a9f6144e9565b5b614aac85828601614a2c565b9150509250929050565b6000819050919050565b614ac981614ab6565b82525050565b6000602082019050614ae46000830184614ac0565b92915050565b60008060008060808587031215614b0457614b036144e4565b5b6000614b1287828801614731565b9450506020614b2387828801614731565b9350506040614b348782880161467c565b9250506060614b458782880161467c565b91505092959194509250565b614b5a81614573565b8114614b6557600080fd5b50565b600081359050614b7781614b51565b92915050565b60008060408385031215614b9457614b936144e4565b5b6000614ba285828601614731565b9250506020614bb385828601614b68565b9150509250929050565b60008060008060808587031215614bd757614bd66144e4565b5b6000614be587828801614731565b9450506020614bf687828801614731565b9350506040614c078782880161467c565b925050606085013567ffffffffffffffff811115614c2857614c276144e9565b5b614c3487828801614a2c565b91505092959194509250565b600081519050919050565b600082825260208201905092915050565b6000819050602082019050919050565b608082016000820151614c826000850182614786565b506020820151614c956020850182614795565b506040820151614ca86040850182614795565b506060820151614cbb6060850182614795565b50505050565b6000614ccd8383614c6c565b60808301905092915050565b6000602082019050919050565b6000614cf182614c40565b614cfb8185614c4b565b9350614d0683614c5c565b8060005b83811015614d37578151614d1e8882614cc1565b9750614d2983614cd9565b925050600181019050614d0a565b5085935050505092915050565b60006020820190508181036000830152614d5e8184614ce6565b905092915050565b60008060408385031215614d7d57614d7c6144e4565b5b6000614d8b85828601614731565b9250506020614d9c85828601614731565b9150509250929050565b6000608082019050614dbb60008301876146f0565b614dc86020830186614814565b614dd56040830185614814565b614de26060830184614814565b95945050505050565b7f4e487b7100000000000000000000000000000000000000000000000000000000600052602260045260246000fd5b60006002820490506001821680614e3257607f821691505b602082108103614e4557614e44614deb565b5b50919050565b7f4c324c6f636b696e67506f736974696f6e3a206f6e6c79205374616b696e672060008201527f636f6e74726163742063616e2063616c6c20746869732066756e6374696f6e00602082015250565b6000614ea7603f836145b4565b9150614eb282614e4b565b604082019050919050565b60006020820190508181036000830152614ed681614e9a565b9050919050565b7f4c324c6f636b696e67506f736974696f6e3a206c6f636b696e6720706f73697460008201527f696f6e20646f6573206e6f742065786973740000000000000000000000000000602082015250565b6000614f396032836145b4565b9150614f4482614edd565b604082019050919050565b60006020820190508181036000830152614f6881614f2c565b9050919050565b60008160001c9050919050565b600073ffffffffffffffffffffffffffffffffffffffff82169050919050565b6000614faf614faa83614f6f565b614f7c565b9050919050565b6000819050919050565b6000614fd3614fce83614f6f565b614fb6565b9050919050565b608082016000808301549050614fef81614f9c565b614ffc6000860182614786565b506001830154905061500d81614fc0565b61501a6020860182614795565b506002830154905061502b81614fc0565b6150386040860182614795565b506003830154905061504981614fc0565b6150566060860182614795565b5050505050565b60006101208201905061507360008301866146f0565b6150806020830185614fda565b61508d60a08301846147a4565b949350505050565b6000610120820190506150ab60008301866146f0565b6150b860208301856147a4565b6150c560a0830184614fda565b949350505050565b60006040820190506150e260008301856146f0565b6150ef6020830184614814565b9392505050565b7f4c324c6f636b696e67506f736974696f6e3a20616d6f756e742073686f756c6460008201527f2062652067726561746572207468616e20300000000000000000000000000000602082015250565b60006151526032836145b4565b915061515d826150f6565b604082019050919050565b6000602082019050818103600083015261518181615145565b9050919050565b7f4c324c6f636b696e67506f736974696f6e3a20657870446174652073686f756c60008201527f642062652067726561746572207468616e206f7220657175616c20746f20746f60208201527f646179206f72207061757365644c6f636b696e674475726174696f6e203e2030604082015250565b600061520a6060836145b4565b915061521582615188565b606082019050919050565b60006020820190508181036000830152615239816151fd565b9050919050565b7f4c324c6f636b696e67506f736974696f6e3a2063616e206e6f74206d6f64696660008201527f7920706173742065787069726174696f6e206461746573000000000000000000602082015250565b600061529c6037836145b4565b91506152a782615240565b604082019050919050565b600060208201905081810360008301526152cb8161528f565b9050919050565b60006060820190506152e76000830186614814565b6152f46020830185614814565b6153016040830184614814565b949350505050565b7f4c324c6f636b696e67506f736974696f6e3a20566f74696e6720506f7765722060008201527f636f6e747261637420697320616c726561647920696e697469616c697a656400602082015250565b6000615365603f836145b4565b915061537082615309565b604082019050919050565b6000602082019050818103600083015261539481615358565b9050919050565b7f4c324c6f636b696e67506f736974696f6e3a20566f74696e6720506f7765722060008201527f636f6e747261637420616464726573732063616e206e6f74206265207a65726f602082015250565b60006153f76040836145b4565b91506154028261539b565b604082019050919050565b60006020820190508181036000830152615426816153ea565b9050919050565b7f4e487b7100000000000000000000000000000000000000000000000000000000600052603260045260246000fd5b7f4c324c6f636b696e67506f736974696f6e3a2063726561746f7220616464726560008201527f7373206973207265717569726564000000000000000000000000000000000000602082015250565b60006154b8602e836145b4565b91506154c38261545c565b604082019050919050565b600060208201905081810360008301526154e7816154ab565b9050919050565b7f4c324c6f636b696e67506f736974696f6e3a206c6f636b4f776e65722061646460008201527f7265737320697320726571756972656400000000000000000000000000000000602082015250565b600061554a6030836145b4565b9150615555826154ee565b604082019050919050565b600060208201905081810360008301526155798161553d565b9050919050565b7f4c324c6f636b696e67506f736974696f6e3a206c6f636b696e6720647572617460008201527f696f6e2073686f756c642062652067726561746572207468616e203000000000602082015250565b60006155dc603c836145b4565b91506155e782615580565b604082019050919050565b6000602082019050818103600083015261560b816155cf565b9050919050565b7f4e487b7100000000000000000000000000000000000000000000000000000000600052601160045260246000fd5b600061564c8261465b565b91506156578361465b565b925082820190508082111561566f5761566e615612565b5b92915050565b600060408201905061568a6000830185614814565b6156976020830184614814565b9392505050565b60006156a98261465b565b91507fffffffffffffffffffffffffffffffffffffffffffffffffffffffffffffffff82036156db576156da615612565b5b600182019050919050565b60006156f18261465b565b91506156fc8361465b565b925082820390508181111561571457615713615612565b5b92915050565b7f4c324c6f636b696e67506f736974696f6e3a205374616b696e6720636f6e747260008201527f61637420616464726573732063616e6e6f74206265207a65726f000000000000602082015250565b6000615776603a836145b4565b91506157818261571a565b604082019050919050565b600060208201905081810360008301526157a581615769565b9050919050565b6000819050919050565b600067ffffffffffffffff82169050919050565b6000819050919050565b60006157ef6157ea6157e5846157ac565b6157ca565b6157b6565b9050919050565b6157ff816157d4565b82525050565b600060208201905061581a60008301846157f6565b92915050565b600081905092915050565b6000615836826145a9565b6158408185615820565b93506158508185602086016145c5565b80840191505092915050565b6000615868828561582b565b9150615874828461582b565b91508190509392505050565b600060608201905061589560008301866146f0565b6158a26020830185614814565b6158af60408301846146f0565b949350505050565b7f4e487b7100000000000000000000000000000000000000000000000000000000600052601260045260246000fd5b60006158f18261465b565b91506158fc8361465b565b92508261590c5761590b6158b7565b5b828204905092915050565b61592081614ab6565b811461592b57600080fd5b50565b60008151905061593d81615917565b92915050565b600060208284031215615959576159586144e4565b5b60006159678482850161592e565b91505092915050565b600081519050919050565b600082825260208201905092915050565b600061599782615970565b6159a1818561597b565b93506159b18185602086016145c5565b6159ba816145ef565b840191505092915050565b60006080820190506159da60008301876146f0565b6159e760208301866146f0565b6159f46040830185614814565b8181036060830152615a06818461598c565b905095945050505050565b600081519050615a208161451a565b92915050565b600060208284031215615a3c57615a3b6144e4565b5b6000615a4a84828501615a11565b91505092915050565b60008190508160005260206000209050919050565b60006020601f8301049050919050565b600082821b905092915050565b600060088302615ab57fffffffffffffffffffffffffffffffffffffffffffffffffffffffffffffffff82615a78565b615abf8683615a78565b95508019841693508086168417925050509392505050565b6000615af2615aed615ae88461465b565b6157ca565b61465b565b9050919050565b6000819050919050565b615b0c83615ad7565b615b20615b1882615af9565b848454615a85565b825550505050565b600090565b615b35615b28565b615b40818484615b03565b505050565b5b81811015615b6457615b59600082615b2d565b600181019050615b46565b5050565b601f821115615ba957615b7a81615a53565b615b8384615a68565b81016020851015615b92578190505b615ba6615b9e85615a68565b830182615b45565b50505b505050565b600082821c905092915050565b6000615bcc60001984600802615bae565b1980831691505092915050565b6000615be58383615bbb565b9150826002028217905092915050565b615bfe826145a9565b67ffffffffffffffff811115615c1757615c1661492f565b5b615c218254614e1a565b615c2c828285615b68565b600060209050601f831160018114615c5f5760008415615c4d578287015190505b615c578582615bd9565b865550615cbf565b601f198416615c6d86615a53565b60005b82811015615c9557848901518255600182019150602085019450602081019050615c70565b86831015615cb25784890151615cae601f891682615bbb565b8355505b6001600288020188555050505b505050505050565b7f4e487b7100000000000000000000000000000000000000000000000000000000600052603160045260246000fd5b600081905092915050565b6000615d0c82615970565b615d168185615cf6565b9350615d268185602086016145c5565b80840191505092915050565b6000615d3e8284615d01565b91508190509291505056fea26469706673582212209ef26ac0e78cddc2543a39f4ec4973244dc6efc9f4dff6756fb1e2d002658b4164736f6c63430008170033",
  "linkReferences": {},
  "deployedLinkReferences": {}
}