{
  "_format": "hh-sol-artifact-1",
  "contractName": "L2Claim",
  "sourceName": "src/L2/L2Claim.sol",
  "abi": [
    {
      "inputs": [],
      "stateMutability": "nonpayable",
      "type": "constructor"
    },
    {
      "inputs": [
        {
          "internalType": "address",
          "name": "target",
          "type": "address"
        }
      ],
      "name": "AddressEmptyCode",
      "type": "error"
    },
    {
      "inputs": [
        {
          "internalType": "address",
          "name": "implementation",
          "type": "address"
        }
      ],
      "name": "ERC1967InvalidImplementation",
      "type": "error"
    },
    {
      "inputs": [],
      "name": "ERC1967NonPayable",
      "type": "error"
    },
    {
      "inputs": [],
      "name": "FailedInnerCall",
      "type": "error"
    },
    {
      "inputs": [],
      "name": "InvalidInitialization",
      "type": "error"
    },
    {
      "inputs": [],
      "name": "NotInitializing",
      "type": "error"
    },
    {
      "inputs": [
        {
          "internalType": "address",
          "name": "owner",
          "type": "address"
        }
      ],
      "name": "OwnableInvalidOwner",
      "type": "error"
    },
    {
      "inputs": [
        {
          "internalType": "address",
          "name": "account",
          "type": "address"
        }
      ],
      "name": "OwnableUnauthorizedAccount",
      "type": "error"
    },
    {
      "inputs": [
        {
          "internalType": "uint8",
          "name": "bits",
          "type": "uint8"
        },
        {
          "internalType": "uint256",
          "name": "value",
          "type": "uint256"
        }
      ],
      "name": "SafeCastOverflowedUintDowncast",
      "type": "error"
    },
    {
      "inputs": [],
      "name": "UUPSUnauthorizedCallContext",
      "type": "error"
    },
    {
      "inputs": [
        {
          "internalType": "bytes32",
          "name": "slot",
          "type": "bytes32"
        }
      ],
      "name": "UUPSUnsupportedProxiableUUID",
      "type": "error"
    },
    {
      "anonymous": false,
      "inputs": [],
      "name": "ClaimingEnded",
      "type": "event"
    },
    {
      "anonymous": false,
      "inputs": [
        {
          "indexed": true,
          "internalType": "address",
          "name": "daoAddress",
          "type": "address"
        }
      ],
      "name": "DaoAddressSet",
      "type": "event"
    },
    {
      "anonymous": false,
      "inputs": [
        {
          "indexed": false,
          "internalType": "uint64",
          "name": "version",
          "type": "uint64"
        }
      ],
      "name": "Initialized",
      "type": "event"
    },
    {
      "anonymous": false,
      "inputs": [
        {
          "indexed": true,
          "internalType": "bytes20",
          "name": "lskAddress",
          "type": "bytes20"
        },
        {
          "indexed": true,
          "internalType": "address",
          "name": "recipient",
          "type": "address"
        },
        {
          "indexed": false,
          "internalType": "uint256",
          "name": "amount",
          "type": "uint256"
        }
      ],
      "name": "LSKClaimed",
      "type": "event"
    },
    {
      "anonymous": false,
      "inputs": [
        {
          "indexed": true,
          "internalType": "address",
          "name": "previousOwner",
          "type": "address"
        },
        {
          "indexed": true,
          "internalType": "address",
          "name": "newOwner",
          "type": "address"
        }
      ],
      "name": "OwnershipTransferStarted",
      "type": "event"
    },
    {
      "anonymous": false,
      "inputs": [
        {
          "indexed": true,
          "internalType": "address",
          "name": "previousOwner",
          "type": "address"
        },
        {
          "indexed": true,
          "internalType": "address",
          "name": "newOwner",
          "type": "address"
        }
      ],
      "name": "OwnershipTransferred",
      "type": "event"
    },
    {
      "anonymous": false,
      "inputs": [
        {
          "indexed": true,
          "internalType": "address",
          "name": "implementation",
          "type": "address"
        }
      ],
      "name": "Upgraded",
      "type": "event"
    },
    {
      "inputs": [],
      "name": "LSK_MULTIPLIER",
      "outputs": [
        {
          "internalType": "uint256",
          "name": "",
          "type": "uint256"
        }
      ],
      "stateMutability": "view",
      "type": "function"
    },
    {
      "inputs": [],
      "name": "UPGRADE_INTERFACE_VERSION",
      "outputs": [
        {
          "internalType": "string",
          "name": "",
          "type": "string"
        }
      ],
      "stateMutability": "view",
      "type": "function"
    },
    {
      "inputs": [],
      "name": "acceptOwnership",
      "outputs": [],
      "stateMutability": "nonpayable",
      "type": "function"
    },
    {
      "inputs": [
        {
          "internalType": "bytes32[]",
          "name": "_proof",
          "type": "bytes32[]"
        },
        {
          "internalType": "bytes20",
          "name": "_lskAddress",
          "type": "bytes20"
        },
        {
          "internalType": "uint64",
          "name": "_amount",
          "type": "uint64"
        },
        {
          "components": [
            {
              "internalType": "bytes32[]",
              "name": "mandatoryKeys",
              "type": "bytes32[]"
            },
            {
              "internalType": "bytes32[]",
              "name": "optionalKeys",
              "type": "bytes32[]"
            }
          ],
          "internalType": "struct MultisigKeys",
          "name": "_keys",
          "type": "tuple"
        },
        {
          "internalType": "address",
          "name": "_recipient",
          "type": "address"
        },
        {
          "components": [
            {
              "internalType": "bytes32",
              "name": "r",
              "type": "bytes32"
            },
            {
              "internalType": "bytes32",
              "name": "s",
              "type": "bytes32"
            }
          ],
          "internalType": "struct ED25519Signature[]",
          "name": "_sigs",
          "type": "tuple[]"
        }
      ],
      "name": "claimMultisigAccount",
      "outputs": [],
      "stateMutability": "nonpayable",
      "type": "function"
    },
    {
      "inputs": [
        {
          "internalType": "bytes32[]",
          "name": "_proof",
          "type": "bytes32[]"
        },
        {
          "internalType": "bytes32",
          "name": "_pubKey",
          "type": "bytes32"
        },
        {
          "internalType": "uint64",
          "name": "_amount",
          "type": "uint64"
        },
        {
          "internalType": "address",
          "name": "_recipient",
          "type": "address"
        },
        {
          "components": [
            {
              "internalType": "bytes32",
              "name": "r",
              "type": "bytes32"
            },
            {
              "internalType": "bytes32",
              "name": "s",
              "type": "bytes32"
            }
          ],
          "internalType": "struct ED25519Signature",
          "name": "_sig",
          "type": "tuple"
        }
      ],
      "name": "claimRegularAccount",
      "outputs": [],
      "stateMutability": "nonpayable",
      "type": "function"
    },
    {
      "inputs": [
        {
          "internalType": "bytes20",
          "name": "",
          "type": "bytes20"
        }
      ],
      "name": "claimedTo",
      "outputs": [
        {
          "internalType": "address",
          "name": "",
          "type": "address"
        }
      ],
      "stateMutability": "view",
      "type": "function"
    },
    {
      "inputs": [],
      "name": "daoAddress",
      "outputs": [
        {
          "internalType": "address",
          "name": "",
          "type": "address"
        }
      ],
      "stateMutability": "view",
      "type": "function"
    },
    {
      "inputs": [
        {
          "internalType": "address",
          "name": "_l2LiskToken",
          "type": "address"
        },
        {
          "internalType": "bytes32",
          "name": "_merkleRoot",
          "type": "bytes32"
        },
        {
          "internalType": "uint256",
          "name": "_recoverPeriodTimestamp",
          "type": "uint256"
        }
      ],
      "name": "initialize",
      "outputs": [],
      "stateMutability": "nonpayable",
      "type": "function"
    },
    {
      "inputs": [],
      "name": "l2LiskToken",
      "outputs": [
        {
          "internalType": "contract IERC20",
          "name": "",
          "type": "address"
        }
      ],
      "stateMutability": "view",
      "type": "function"
    },
    {
      "inputs": [],
      "name": "merkleRoot",
      "outputs": [
        {
          "internalType": "bytes32",
          "name": "",
          "type": "bytes32"
        }
      ],
      "stateMutability": "view",
      "type": "function"
    },
    {
      "inputs": [],
      "name": "owner",
      "outputs": [
        {
          "internalType": "address",
          "name": "",
          "type": "address"
        }
      ],
      "stateMutability": "view",
      "type": "function"
    },
    {
      "inputs": [],
      "name": "pendingOwner",
      "outputs": [
        {
          "internalType": "address",
          "name": "",
          "type": "address"
        }
      ],
      "stateMutability": "view",
      "type": "function"
    },
    {
      "inputs": [],
      "name": "proxiableUUID",
      "outputs": [
        {
          "internalType": "bytes32",
          "name": "",
          "type": "bytes32"
        }
      ],
      "stateMutability": "view",
      "type": "function"
    },
    {
      "inputs": [],
      "name": "recoverLSK",
      "outputs": [],
      "stateMutability": "nonpayable",
      "type": "function"
    },
    {
      "inputs": [],
      "name": "recoverPeriodTimestamp",
      "outputs": [
        {
          "internalType": "uint256",
          "name": "",
          "type": "uint256"
        }
      ],
      "stateMutability": "view",
      "type": "function"
    },
    {
      "inputs": [],
      "name": "renounceOwnership",
      "outputs": [],
      "stateMutability": "nonpayable",
      "type": "function"
    },
    {
      "inputs": [
        {
          "internalType": "address",
          "name": "_daoAddress",
          "type": "address"
        }
      ],
      "name": "setDAOAddress",
      "outputs": [],
      "stateMutability": "nonpayable",
      "type": "function"
    },
    {
      "inputs": [
        {
          "internalType": "address",
          "name": "newOwner",
          "type": "address"
        }
      ],
      "name": "transferOwnership",
      "outputs": [],
      "stateMutability": "nonpayable",
      "type": "function"
    },
    {
      "inputs": [
        {
          "internalType": "address",
          "name": "newImplementation",
          "type": "address"
        },
        {
          "internalType": "bytes",
          "name": "data",
          "type": "bytes"
        }
      ],
      "name": "upgradeToAndCall",
      "outputs": [],
      "stateMutability": "payable",
      "type": "function"
    },
    {
      "inputs": [],
      "name": "version",
      "outputs": [
        {
          "internalType": "string",
          "name": "",
          "type": "string"
        }
      ],
      "stateMutability": "view",
      "type": "function"
    }
  ],
  "bytecode": "0x60a06040523073ffffffffffffffffffffffffffffffffffffffff1660809073ffffffffffffffffffffffffffffffffffffffff168152503480156200004457600080fd5b50620000556200005b60201b60201c565b620001cf565b60006200006d6200016560201b60201c565b90508060000160089054906101000a900460ff1615620000b9576040517ff92ee8a900000000000000000000000000000000000000000000000000000000815260040160405180910390fd5b67ffffffffffffffff80168160000160009054906101000a900467ffffffffffffffff1667ffffffffffffffff1614620001625767ffffffffffffffff8160000160006101000a81548167ffffffffffffffff021916908367ffffffffffffffff1602179055507fc7f505b2f371ae2175ee4913f4499e1f2633a7b5936321eed1cdaeb6115181d267ffffffffffffffff604051620001599190620001b2565b60405180910390a15b50565b60007ff0c57e16840df040f15088dc2f81fe391c3923bec73e23a9662efc9c229c6a00905090565b600067ffffffffffffffff82169050919050565b620001ac816200018d565b82525050565b6000602082019050620001c96000830184620001a1565b92915050565b608051613983620001f960003960008181611802015281816118570152611a1201526139836000f3fe60806040526004361061011f5760003560e01c806379ba5097116100a0578063dd1dc8df11610064578063dd1dc8df1461037e578063e30c397814610395578063f2fde38b146103c0578063f5710c38146103e9578063f6de242d146104145761011f565b806379ba5097146102bd57806380991d52146102d45780638da5cb5b146102ff578063965afa891461032a578063ad3cb1cc146103535761011f565b80634f1ef286116100e75780634f1ef2861461020b57806352d1902d1461022757806354fd4d5014610252578063684560a21461027d578063715018a6146102a65761011f565b806303ec7e9d14610124578063132cebed1461014f5780632131c68c1461018c5780632eb4a7ab146101b75780632f559f68146101e2575b600080fd5b34801561013057600080fd5b5061013961043d565b6040516101469190612217565b60405180910390f35b34801561015b57600080fd5b506101766004803603810190610171919061229e565b610461565b60405161018391906122ec565b60405180910390f35b34801561019857600080fd5b506101a1610494565b6040516101ae91906122ec565b60405180910390f35b3480156101c357600080fd5b506101cc6104ba565b6040516101d99190612320565b60405180910390f35b3480156101ee57600080fd5b5061020960048036038101906102049190612486565b6104c0565b005b610225600480360381019061022091906126b2565b610886565b005b34801561023357600080fd5b5061023c6108a5565b6040516102499190612320565b60405180910390f35b34801561025e57600080fd5b506102676108d8565b604051610274919061278d565b60405180910390f35b34801561028957600080fd5b506102a4600480360381019061029f9190612811565b610966565b005b3480156102b257600080fd5b506102bb610c89565b005b3480156102c957600080fd5b506102d2610c9d565b005b3480156102e057600080fd5b506102e9610d2c565b6040516102f69190612873565b60405180910390f35b34801561030b57600080fd5b50610314610d32565b60405161032191906122ec565b60405180910390f35b34801561033657600080fd5b50610351600480360381019061034c919061288e565b610d6a565b005b34801561035f57600080fd5b50610368610ef9565b604051610375919061278d565b60405180910390f35b34801561038a57600080fd5b50610393610f32565b005b3480156103a157600080fd5b506103aa611107565b6040516103b791906122ec565b60405180910390f35b3480156103cc57600080fd5b506103e760048036038101906103e2919061288e565b61113f565b005b3480156103f557600080fd5b506103fe6111fb565b60405161040b9190612873565b60405180910390f35b34801561042057600080fd5b5061043b600480360381019061043691906128da565b611204565b005b60008054906101000a900473ffffffffffffffffffffffffffffffffffffffff1681565b60046020528060005260406000206000915054906101000a900473ffffffffffffffffffffffffffffffffffffffff1681565b600360009054906101000a900473ffffffffffffffffffffffffffffffffffffffff1681565b60015481565b60008282905011610506576040517f08c379a00000000000000000000000000000000000000000000000000000000081526004016104fd906129e6565b60405180910390fd5b8380600001906105169190612a15565b90508480602001906105289190612a15565b90506105349190612aa7565b8282905014610578576040517f08c379a000000000000000000000000000000000000000000000000000000000815260040161056f90612b4d565b60405180910390fd5b600061059485806000019061058d9190612a15565b90506113c7565b905060005b8580602001906105a99190612a15565b9050811015610611576000801b84848880600001906105c89190612a15565b9050846105d59190612aa7565b8181106105e5576105e4612b6d565b5b90506040020160000135031561060457818061060090612bac565b9250505b8080600101915050610599565b50600061066488888489806000019061062a9190612a15565b8b806020019061063a9190612a15565b6040516020016106509796959493929190612c80565b60405160208183030381529060405261141f565b90506000818660405160200161067b929190612ce5565b60405160208183030381529060405280519060200120905060005b8780600001906106a69190612a15565b9050811015610740576107338880600001906106c29190612a15565b838181106106d3576106d2612b6d565b5b905060200201358787848181106106ed576106ec612b6d565b5b9050604002016000013588888581811061070a57610709612b6d565b5b90506040020160200135856040518060600160405280603e81526020016138d3603e9139611456565b8080600101915050610696565b5060005b8780602001906107549190612a15565b905081101561086a576000801b86868a80600001906107739190612a15565b9050846107809190612aa7565b8181106107905761078f612b6d565b5b90506040020160000135031561085d5761085c8880602001906107b39190612a15565b838181106107c4576107c3612b6d565b5b9050602002013587878b80600001906107dd9190612a15565b9050856107ea9190612aa7565b8181106107fa576107f9612b6d565b5b9050604002016000013588888c80600001906108169190612a15565b9050866108239190612aa7565b81811061083357610832612b6d565b5b90506040020160200135856040518060600160405280603d8152602001613911603d9139611456565b5b8080600101915050610744565b5061087989898d8d868b611524565b5050505050505050505050565b61088e611800565b610897826118e6565b6108a182826118f1565b5050565b60006108af611a10565b7f360894a13ba1a3210667c828492db98dca3e2076cc3735a920a3ca505d382bbc60001b905090565b600580546108e590612d3d565b80601f016020809104026020016040519081016040528092919081815260200182805461091190612d3d565b801561095e5780601f106109335761010080835404028352916020019161095e565b820191906000526020600020905b81548152906001019060200180831161094157829003601f168201915b505050505081565b6000610970611a97565b905060008160000160089054906101000a900460ff1615905060008260000160009054906101000a900467ffffffffffffffff1690506000808267ffffffffffffffff161480156109be5750825b9050600060018367ffffffffffffffff161480156109f3575060003073ffffffffffffffffffffffffffffffffffffffff163b145b905081158015610a01575080155b15610a38576040517ff92ee8a900000000000000000000000000000000000000000000000000000000815260040160405180910390fd5b60018560000160006101000a81548167ffffffffffffffff021916908367ffffffffffffffff1602179055508315610a885760018560000160086101000a81548160ff0219169083151502179055505b600073ffffffffffffffffffffffffffffffffffffffff168873ffffffffffffffffffffffffffffffffffffffff1603610af7576040517f08c379a0000000000000000000000000000000000000000000000000000000008152600401610aee90612de0565b60405180910390fd5b6000801b8703610b3c576040517f08c379a0000000000000000000000000000000000000000000000000000000008152600401610b3390612e72565b60405180910390fd5b42861015610b7f576040517f08c379a0000000000000000000000000000000000000000000000000000000008152600401610b7690612f04565b60405180910390fd5b610b87611abf565b610b9033611ac9565b876000806101000a81548173ffffffffffffffffffffffffffffffffffffffff021916908373ffffffffffffffffffffffffffffffffffffffff16021790555086600181905550856002819055506040518060400160405280600581526020017f312e302e3000000000000000000000000000000000000000000000000000000081525060059081610c2291906130c6565b508315610c7f5760008560000160086101000a81548160ff0219169083151502179055507fc7f505b2f371ae2175ee4913f4499e1f2633a7b5936321eed1cdaeb6115181d26001604051610c7691906131d3565b60405180910390a15b5050505050505050565b610c91611add565b610c9b6000611b64565b565b6000610ca7611ba4565b90508073ffffffffffffffffffffffffffffffffffffffff16610cc8611107565b73ffffffffffffffffffffffffffffffffffffffff1614610d2057806040517f118cdaa7000000000000000000000000000000000000000000000000000000008152600401610d1791906122ec565b60405180910390fd5b610d2981611b64565b50565b60025481565b600080610d3d611bac565b90508060000160009054906101000a900473ffffffffffffffffffffffffffffffffffffffff1691505090565b610d72611add565b600073ffffffffffffffffffffffffffffffffffffffff16600360009054906101000a900473ffffffffffffffffffffffffffffffffffffffff1673ffffffffffffffffffffffffffffffffffffffff1614610e03576040517f08c379a0000000000000000000000000000000000000000000000000000000008152600401610dfa90613260565b60405180910390fd5b600073ffffffffffffffffffffffffffffffffffffffff168173ffffffffffffffffffffffffffffffffffffffff1603610e72576040517f08c379a0000000000000000000000000000000000000000000000000000000008152600401610e69906132f2565b60405180910390fd5b80600360006101000a81548173ffffffffffffffffffffffffffffffffffffffff021916908373ffffffffffffffffffffffffffffffffffffffff1602179055508073ffffffffffffffffffffffffffffffffffffffff167ff1034ad6b4d45dc33a4142b9c51c2b7f89bf4a410696e426cc0f3224869e0aca60405160405180910390a250565b6040518060400160405280600581526020017f352e302e3000000000000000000000000000000000000000000000000000000081525081565b610f3a611add565b600254421015610f7f576040517f08c379a0000000000000000000000000000000000000000000000000000000008152600401610f7690613384565b60405180910390fd5b60008054906101000a900473ffffffffffffffffffffffffffffffffffffffff1673ffffffffffffffffffffffffffffffffffffffff1663a9059cbb600360009054906101000a900473ffffffffffffffffffffffffffffffffffffffff1660008054906101000a900473ffffffffffffffffffffffffffffffffffffffff1673ffffffffffffffffffffffffffffffffffffffff166370a08231306040518263ffffffff1660e01b815260040161103791906122ec565b602060405180830381865afa158015611054573d6000803e3d6000fd5b505050506040513d601f19601f8201168201806040525081019061107891906133b9565b6040518363ffffffff1660e01b81526004016110959291906133e6565b6020604051808303816000875af11580156110b4573d6000803e3d6000fd5b505050506040513d601f19601f820116820180604052508101906110d89190613447565b507fd9ac601c19a8ca63ee66bfdaa64a0baffcd22279fb7442c981bb14a862b3315e60405160405180910390a1565b600080611112611bd4565b90508060000160009054906101000a900473ffffffffffffffffffffffffffffffffffffffff1691505090565b611147611add565b6000611151611bd4565b9050818160000160006101000a81548173ffffffffffffffffffffffffffffffffffffffff021916908373ffffffffffffffffffffffffffffffffffffffff1602179055508173ffffffffffffffffffffffffffffffffffffffff166111b5610d32565b73ffffffffffffffffffffffffffffffffffffffff167f38d16b8cac22d99fc7c124b9cd0de2d3fa1faef420bfe791d8c362d765e2270060405160405180910390a35050565b6402540be40081565b60006002856040516020016112199190612320565b60405160208183030381529060405260405161123591906134bb565b602060405180830381855afa158015611252573d6000803e3d6000fd5b5050506040513d601f19601f8201168201806040525081019061127591906134e7565b9050600061133b828660008067ffffffffffffffff81111561129a57611299612587565b5b6040519080825280602002602001820160405280156112c85781602001602082028036833780820191505090505b50600067ffffffffffffffff8111156112e4576112e3612587565b5b6040519080825280602002602001820160405280156113125781602001602082028036833780820191505090505b506040516020016113279594939291906135c1565b60405160208183030381529060405261141f565b90506113af8684600001358560200135848860405160200161135e929190612ce5565b604051602081830303815290604052805190602001206040518060400160405280601a81526020017f4c32436c61696d3a20696e76616c6964207369676e6174757265000000000000815250611456565b6113bd82868a8a8589611524565b5050505050505050565b600063ffffffff8016821115611417576020826040517f6dfcc65000000000000000000000000000000000000000000000000000000000815260040161140e92919061366a565b60405180910390fd5b819050919050565b6000818051906020012060405160200161143991906136b4565b604051602081830303815290604052805190602001209050919050565b73__$90d359bc8bff54bff1b1df560f11d62474$__63ebd1b95186868686600060b81b6040518663ffffffff1660e01b8152600401611499959493929190613719565b602060405180830381865af41580156114b6573d6000803e3d6000fd5b505050506040513d601f19601f820116820180604052508101906114da9190613447565b819061151c576040517f08c379a0000000000000000000000000000000000000000000000000000000008152600401611513919061278d565b60405180910390fd5b505050505050565b600073ffffffffffffffffffffffffffffffffffffffff1660046000886bffffffffffffffffffffffff19166bffffffffffffffffffffffff1916815260200190815260200160002060009054906101000a900473ffffffffffffffffffffffffffffffffffffffff1673ffffffffffffffffffffffffffffffffffffffff16146115e4576040517f08c379a00000000000000000000000000000000000000000000000000000000081526004016115db906137b8565b60405180910390fd5b611632848480806020026020016040519081016040528093929190818152602001838360200280828437600081840152601f19601f8201169050808301925050505050505060015484611bfc565b611671576040517f08c379a000000000000000000000000000000000000000000000000000000000815260040161166890613824565b60405180910390fd5b8060046000886bffffffffffffffffffffffff19166bffffffffffffffffffffffff1916815260200190815260200160002060006101000a81548173ffffffffffffffffffffffffffffffffffffffff021916908373ffffffffffffffffffffffffffffffffffffffff16021790555060008054906101000a900473ffffffffffffffffffffffffffffffffffffffff1673ffffffffffffffffffffffffffffffffffffffff1663a9059cbb826402540be4008867ffffffffffffffff166117399190613844565b6040518363ffffffff1660e01b81526004016117569291906133e6565b6020604051808303816000875af1158015611775573d6000803e3d6000fd5b505050506040513d601f19601f820116820180604052508101906117999190613447565b508073ffffffffffffffffffffffffffffffffffffffff16866bffffffffffffffffffffffff19167f6dbd4efb0b849aba15ae9ec7df0abecd22aa8fb7e05fb327fcd2461635471b33876040516117f091906138b7565b60405180910390a3505050505050565b7f000000000000000000000000000000000000000000000000000000000000000073ffffffffffffffffffffffffffffffffffffffff163073ffffffffffffffffffffffffffffffffffffffff1614806118ad57507f000000000000000000000000000000000000000000000000000000000000000073ffffffffffffffffffffffffffffffffffffffff16611894611c13565b73ffffffffffffffffffffffffffffffffffffffff1614155b156118e4576040517fe07c8dba00000000000000000000000000000000000000000000000000000000815260040160405180910390fd5b565b6118ee611add565b50565b8173ffffffffffffffffffffffffffffffffffffffff166352d1902d6040518163ffffffff1660e01b8152600401602060405180830381865afa92505050801561195957506040513d601f19601f8201168201806040525081019061195691906134e7565b60015b61199a57816040517f4c9c8ce300000000000000000000000000000000000000000000000000000000815260040161199191906122ec565b60405180910390fd5b7f360894a13ba1a3210667c828492db98dca3e2076cc3735a920a3ca505d382bbc60001b8114611a0157806040517faa1d49a40000000000000000000000000000000000000000000000000000000081526004016119f89190612320565b60405180910390fd5b611a0b8383611c6a565b505050565b7f000000000000000000000000000000000000000000000000000000000000000073ffffffffffffffffffffffffffffffffffffffff163073ffffffffffffffffffffffffffffffffffffffff1614611a95576040517fe07c8dba00000000000000000000000000000000000000000000000000000000815260040160405180910390fd5b565b60007ff0c57e16840df040f15088dc2f81fe391c3923bec73e23a9662efc9c229c6a00905090565b611ac7611cdd565b565b611ad1611cdd565b611ada81611d1d565b50565b611ae5611ba4565b73ffffffffffffffffffffffffffffffffffffffff16611b03610d32565b73ffffffffffffffffffffffffffffffffffffffff1614611b6257611b26611ba4565b6040517f118cdaa7000000000000000000000000000000000000000000000000000000008152600401611b5991906122ec565b60405180910390fd5b565b6000611b6e611bd4565b90508060000160006101000a81549073ffffffffffffffffffffffffffffffffffffffff0219169055611ba082611da3565b5050565b600033905090565b60007f9016d09d72d40fdae2fd8ceac6b6234c7706214fd39c1cd1e609a0528c199300905090565b60007f237e158222e3e6968b72b9db0d8043aacf074ad9f650f0d1606b4d82ee432c00905090565b600082611c098584611e7a565b1490509392505050565b6000611c417f360894a13ba1a3210667c828492db98dca3e2076cc3735a920a3ca505d382bbc60001b611eca565b60000160009054906101000a900473ffffffffffffffffffffffffffffffffffffffff16905090565b611c7382611ed4565b8173ffffffffffffffffffffffffffffffffffffffff167fbc7cd75a20ee27fd9adebab32041f755214dbc6bffa90cc0225b39da2e5c2d3b60405160405180910390a2600081511115611cd057611cca8282611fa1565b50611cd9565b611cd8612025565b5b5050565b611ce5612062565b611d1b576040517fd7e6bcf800000000000000000000000000000000000000000000000000000000815260040160405180910390fd5b565b611d25611cdd565b600073ffffffffffffffffffffffffffffffffffffffff168173ffffffffffffffffffffffffffffffffffffffff1603611d975760006040517f1e4fbdf7000000000000000000000000000000000000000000000000000000008152600401611d8e91906122ec565b60405180910390fd5b611da081611b64565b50565b6000611dad611bac565b905060008160000160009054906101000a900473ffffffffffffffffffffffffffffffffffffffff169050828260000160006101000a81548173ffffffffffffffffffffffffffffffffffffffff021916908373ffffffffffffffffffffffffffffffffffffffff1602179055508273ffffffffffffffffffffffffffffffffffffffff168173ffffffffffffffffffffffffffffffffffffffff167f8be0079c531659141344cd1fd0a4f28419497f9722a3daafe3b4186f6b6457e060405160405180910390a3505050565b60008082905060005b8451811015611ebf57611eb082868381518110611ea357611ea2612b6d565b5b6020026020010151612082565b91508080600101915050611e83565b508091505092915050565b6000819050919050565b60008173ffffffffffffffffffffffffffffffffffffffff163b03611f3057806040517f4c9c8ce3000000000000000000000000000000000000000000000000000000008152600401611f2791906122ec565b60405180910390fd5b80611f5d7f360894a13ba1a3210667c828492db98dca3e2076cc3735a920a3ca505d382bbc60001b611eca565b60000160006101000a81548173ffffffffffffffffffffffffffffffffffffffff021916908373ffffffffffffffffffffffffffffffffffffffff16021790555050565b60606000808473ffffffffffffffffffffffffffffffffffffffff1684604051611fcb91906134bb565b600060405180830381855af49150503d8060008114612006576040519150601f19603f3d011682016040523d82523d6000602084013e61200b565b606091505b509150915061201b8583836120ad565b9250505092915050565b6000341115612060576040517fb398979f00000000000000000000000000000000000000000000000000000000815260040160405180910390fd5b565b600061206c611a97565b60000160089054906101000a900460ff16905090565b600081831061209a57612095828461213c565b6120a5565b6120a4838361213c565b5b905092915050565b6060826120c2576120bd82612153565b612134565b600082511480156120ea575060008473ffffffffffffffffffffffffffffffffffffffff163b145b1561212c57836040517f9996b31500000000000000000000000000000000000000000000000000000000815260040161212391906122ec565b60405180910390fd5b819050612135565b5b9392505050565b600082600052816020526040600020905092915050565b6000815111156121665780518082602001fd5b6040517f1425ea4200000000000000000000000000000000000000000000000000000000815260040160405180910390fd5b600073ffffffffffffffffffffffffffffffffffffffff82169050919050565b6000819050919050565b60006121dd6121d86121d384612198565b6121b8565b612198565b9050919050565b60006121ef826121c2565b9050919050565b6000612201826121e4565b9050919050565b612211816121f6565b82525050565b600060208201905061222c6000830184612208565b92915050565b6000604051905090565b600080fd5b600080fd5b60007fffffffffffffffffffffffffffffffffffffffff00000000000000000000000082169050919050565b61227b81612246565b811461228657600080fd5b50565b60008135905061229881612272565b92915050565b6000602082840312156122b4576122b361223c565b5b60006122c284828501612289565b91505092915050565b60006122d682612198565b9050919050565b6122e6816122cb565b82525050565b600060208201905061230160008301846122dd565b92915050565b6000819050919050565b61231a81612307565b82525050565b60006020820190506123356000830184612311565b92915050565b600080fd5b600080fd5b600080fd5b60008083601f8401126123605761235f61233b565b5b8235905067ffffffffffffffff81111561237d5761237c612340565b5b60208301915083602082028301111561239957612398612345565b5b9250929050565b600067ffffffffffffffff82169050919050565b6123bd816123a0565b81146123c857600080fd5b50565b6000813590506123da816123b4565b92915050565b600080fd5b6000604082840312156123fb576123fa6123e0565b5b81905092915050565b61240d816122cb565b811461241857600080fd5b50565b60008135905061242a81612404565b92915050565b60008083601f8401126124465761244561233b565b5b8235905067ffffffffffffffff81111561246357612462612340565b5b60208301915083604082028301111561247f5761247e612345565b5b9250929050565b60008060008060008060008060c0898b0312156124a6576124a561223c565b5b600089013567ffffffffffffffff8111156124c4576124c3612241565b5b6124d08b828c0161234a565b985098505060206124e38b828c01612289565b96505060406124f48b828c016123cb565b955050606089013567ffffffffffffffff81111561251557612514612241565b5b6125218b828c016123e5565b94505060806125328b828c0161241b565b93505060a089013567ffffffffffffffff81111561255357612552612241565b5b61255f8b828c01612430565b92509250509295985092959890939650565b600080fd5b6000601f19601f8301169050919050565b7f4e487b7100000000000000000000000000000000000000000000000000000000600052604160045260246000fd5b6125bf82612576565b810181811067ffffffffffffffff821117156125de576125dd612587565b5b80604052505050565b60006125f1612232565b90506125fd82826125b6565b919050565b600067ffffffffffffffff82111561261d5761261c612587565b5b61262682612576565b9050602081019050919050565b82818337600083830152505050565b600061265561265084612602565b6125e7565b90508281526020810184848401111561267157612670612571565b5b61267c848285612633565b509392505050565b600082601f8301126126995761269861233b565b5b81356126a9848260208601612642565b91505092915050565b600080604083850312156126c9576126c861223c565b5b60006126d78582860161241b565b925050602083013567ffffffffffffffff8111156126f8576126f7612241565b5b61270485828601612684565b9150509250929050565b600081519050919050565b600082825260208201905092915050565b60005b8381101561274857808201518184015260208101905061272d565b60008484015250505050565b600061275f8261270e565b6127698185612719565b935061277981856020860161272a565b61278281612576565b840191505092915050565b600060208201905081810360008301526127a78184612754565b905092915050565b6127b881612307565b81146127c357600080fd5b50565b6000813590506127d5816127af565b92915050565b6000819050919050565b6127ee816127db565b81146127f957600080fd5b50565b60008135905061280b816127e5565b92915050565b60008060006060848603121561282a5761282961223c565b5b60006128388682870161241b565b9350506020612849868287016127c6565b925050604061285a868287016127fc565b9150509250925092565b61286d816127db565b82525050565b60006020820190506128886000830184612864565b92915050565b6000602082840312156128a4576128a361223c565b5b60006128b28482850161241b565b91505092915050565b6000604082840312156128d1576128d06123e0565b5b81905092915050565b60008060008060008060c087890312156128f7576128f661223c565b5b600087013567ffffffffffffffff81111561291557612914612241565b5b61292189828a0161234a565b9650965050602061293489828a016127c6565b945050604061294589828a016123cb565b935050606061295689828a0161241b565b925050608061296789828a016128bb565b9150509295509295509295565b7f4c32436c61696d3a207369676e61747572657320617272617920697320656d7060008201527f7479000000000000000000000000000000000000000000000000000000000000602082015250565b60006129d0602283612719565b91506129db82612974565b604082019050919050565b600060208201905081810360008301526129ff816129c3565b9050919050565b600080fd5b600080fd5b600080fd5b60008083356001602003843603038112612a3257612a31612a06565b5b80840192508235915067ffffffffffffffff821115612a5457612a53612a0b565b5b602083019250602082023603831315612a7057612a6f612a10565b5b509250929050565b7f4e487b7100000000000000000000000000000000000000000000000000000000600052601160045260246000fd5b6000612ab2826127db565b9150612abd836127db565b9250828201905080821115612ad557612ad4612a78565b5b92915050565b7f4c32436c61696d3a207369676e6174757265732061727261792068617320696e60008201527f76616c6964206c656e6774680000000000000000000000000000000000000000602082015250565b6000612b37602c83612719565b9150612b4282612adb565b604082019050919050565b60006020820190508181036000830152612b6681612b2a565b9050919050565b7f4e487b7100000000000000000000000000000000000000000000000000000000600052603260045260246000fd5b600063ffffffff82169050919050565b6000612bb782612b9c565b915063ffffffff8203612bcd57612bcc612a78565b5b600182019050919050565b612be181612246565b82525050565b612bf0816123a0565b82525050565b612bff81612b9c565b82525050565b600082825260208201905092915050565b600080fd5b82818337505050565b6000612c308385612c05565b93507f07ffffffffffffffffffffffffffffffffffffffffffffffffffffffffffffff831115612c6357612c62612c16565b5b602083029250612c74838584612c1b565b82840190509392505050565b600060a082019050612c95600083018a612bd8565b612ca26020830189612be7565b612caf6040830188612bf6565b8181036060830152612cc2818688612c24565b90508181036080830152612cd7818486612c24565b905098975050505050505050565b6000604082019050612cfa6000830185612311565b612d0760208301846122dd565b9392505050565b7f4e487b7100000000000000000000000000000000000000000000000000000000600052602260045260246000fd5b60006002820490506001821680612d5557607f821691505b602082108103612d6857612d67612d0e565b5b50919050565b7f4c32436c61696d3a204c32204c69736b20546f6b656e2061646472657373206360008201527f616e6e6f74206265207a65726f00000000000000000000000000000000000000602082015250565b6000612dca602d83612719565b9150612dd582612d6e565b604082019050919050565b60006020820190508181036000830152612df981612dbd565b9050919050565b7f4c32436c61696d3a204d65726b6c6520526f6f742063616e6e6f74206265207a60008201527f65726f0000000000000000000000000000000000000000000000000000000000602082015250565b6000612e5c602383612719565b9150612e6782612e00565b604082019050919050565b60006020820190508181036000830152612e8b81612e4f565b9050919050565b7f4c32436c61696d3a207265636f76657220706572696f64206d7573742062652060008201527f696e207468652066757475726500000000000000000000000000000000000000602082015250565b6000612eee602d83612719565b9150612ef982612e92565b604082019050919050565b60006020820190508181036000830152612f1d81612ee1565b9050919050565b60008190508160005260206000209050919050565b60006020601f8301049050919050565b600082821b905092915050565b600060088302612f867fffffffffffffffffffffffffffffffffffffffffffffffffffffffffffffffff82612f49565b612f908683612f49565b95508019841693508086168417925050509392505050565b6000612fc3612fbe612fb9846127db565b6121b8565b6127db565b9050919050565b6000819050919050565b612fdd83612fa8565b612ff1612fe982612fca565b848454612f56565b825550505050565b600090565b613006612ff9565b613011818484612fd4565b505050565b5b818110156130355761302a600082612ffe565b600181019050613017565b5050565b601f82111561307a5761304b81612f24565b61305484612f39565b81016020851015613063578190505b61307761306f85612f39565b830182613016565b50505b505050565b600082821c905092915050565b600061309d6000198460080261307f565b1980831691505092915050565b60006130b6838361308c565b9150826002028217905092915050565b6130cf8261270e565b67ffffffffffffffff8111156130e8576130e7612587565b5b6130f28254612d3d565b6130fd828285613039565b600060209050601f831160018114613130576000841561311e578287015190505b61312885826130aa565b865550613190565b601f19841661313e86612f24565b60005b8281101561316657848901518255600182019150602085019450602081019050613141565b86831015613183578489015161317f601f89168261308c565b8355505b6001600288020188555050505b505050505050565b6000819050919050565b60006131bd6131b86131b384613198565b6121b8565b6123a0565b9050919050565b6131cd816131a2565b82525050565b60006020820190506131e860008301846131c4565b92915050565b7f4c32436c61696d3a2044414f20416464726573732068617320616c726561647960008201527f206265656e207365740000000000000000000000000000000000000000000000602082015250565b600061324a602983612719565b9150613255826131ee565b604082019050919050565b600060208201905081810360008301526132798161323d565b9050919050565b7f4c32436c61696d3a2044414f20416464726573732063616e6e6f74206265207a60008201527f65726f0000000000000000000000000000000000000000000000000000000000602082015250565b60006132dc602383612719565b91506132e782613280565b604082019050919050565b6000602082019050818103600083015261330b816132cf565b9050919050565b7f4c32436c61696d3a207265636f76657220706572696f64206e6f74207265616360008201527f6865640000000000000000000000000000000000000000000000000000000000602082015250565b600061336e602383612719565b915061337982613312565b604082019050919050565b6000602082019050818103600083015261339d81613361565b9050919050565b6000815190506133b3816127e5565b92915050565b6000602082840312156133cf576133ce61223c565b5b60006133dd848285016133a4565b91505092915050565b60006040820190506133fb60008301856122dd565b6134086020830184612864565b9392505050565b60008115159050919050565b6134248161340f565b811461342f57600080fd5b50565b6000815190506134418161341b565b92915050565b60006020828403121561345d5761345c61223c565b5b600061346b84828501613432565b91505092915050565b600081519050919050565b600081905092915050565b600061349582613474565b61349f818561347f565b93506134af81856020860161272a565b80840191505092915050565b60006134c7828461348a565b915081905092915050565b6000815190506134e1816127af565b92915050565b6000602082840312156134fd576134fc61223c565b5b600061350b848285016134d2565b91505092915050565b600081519050919050565b6000819050602082019050919050565b61353881612307565b82525050565b600061354a838361352f565b60208301905092915050565b6000602082019050919050565b600061356e82613514565b6135788185612c05565b93506135838361351f565b8060005b838110156135b457815161359b888261353e565b97506135a683613556565b925050600181019050613587565b5085935050505092915050565b600060a0820190506135d66000830188612bd8565b6135e36020830187612be7565b6135f06040830186612bf6565b81810360608301526136028185613563565b905081810360808301526136168184613563565b90509695505050505050565b6000819050919050565b600060ff82169050919050565b600061365461364f61364a84613622565b6121b8565b61362c565b9050919050565b61366481613639565b82525050565b600060408201905061367f600083018561365b565b61368c6020830184612864565b9392505050565b6000819050919050565b6136ae6136a982612307565b613693565b82525050565b60006136c0828461369d565b60208201915081905092915050565b6136d881612307565b82525050565b60007fffffffffffffffffff000000000000000000000000000000000000000000000082169050919050565b613713816136de565b82525050565b600060a08201905061372e60008301886136cf565b61373b60208301876136cf565b61374860408301866136cf565b61375560608301856136cf565b613762608083018461370a565b9695505050505050565b7f4c32436c61696d3a20616c726561647920436c61696d65640000000000000000600082015250565b60006137a2601883612719565b91506137ad8261376c565b602082019050919050565b600060208201905081810360008301526137d181613795565b9050919050565b7f4c32436c61696d3a20696e76616c69642050726f6f6600000000000000000000600082015250565b600061380e601683612719565b9150613819826137d8565b602082019050919050565b6000602082019050818103600083015261383d81613801565b9050919050565b600061384f826127db565b915061385a836127db565b9250828202613868816127db565b9150828204841483151761387f5761387e612a78565b5b5092915050565b60006138a161389c613897846123a0565b6121b8565b6127db565b9050919050565b6138b181613886565b82525050565b60006020820190506138cc60008301846138a8565b9291505056fe4c32436c61696d3a20696e76616c6964207369676e6174757265207768656e20766572696679696e672077697468206d616e6461746f72794b6579735b5d4c32436c61696d3a20696e76616c6964207369676e6174757265207768656e20766572696679696e672077697468206f7074696f6e616c4b6579735b5da26469706673582212203620a3573ae114de6ac43bd44137d8e0217a11573c41561c6379c3431e0e5f4064736f6c63430008170033",
  "linkReferences": {
    "src/utils/Ed25519.sol": {
      "Ed25519": [
        {
          "length": 20,
          "start": 5713
        }
      ]
    }
  },
  "deployedLinkReferences": {
    "src/utils/Ed25519.sol": {
      "Ed25519": [
        {
          "length": 20,
          "start": 5208
        }
      ]
    }
  }
}