{
  "_format": "hh-sol-artifact-1",
  "contractName": "L2VestingWallet",
  "sourceName": "src/L2/L2VestingWallet.sol",
  "abi": [
    {
      "inputs": [],
      "stateMutability": "nonpayable",
      "type": "constructor"
    },
    {
      "inputs": [
        {
          "internalType": "address",
          "name": "target",
          "type": "address"
        }
      ],
      "name": "AddressEmptyCode",
      "type": "error"
    },
    {
      "inputs": [
        {
          "internalType": "address",
          "name": "account",
          "type": "address"
        }
      ],
      "name": "AddressInsufficientBalance",
      "type": "error"
    },
    {
      "inputs": [
        {
          "internalType": "address",
          "name": "implementation",
          "type": "address"
        }
      ],
      "name": "ERC1967InvalidImplementation",
      "type": "error"
    },
    {
      "inputs": [],
      "name": "ERC1967NonPayable",
      "type": "error"
    },
    {
      "inputs": [],
      "name": "FailedInnerCall",
      "type": "error"
    },
    {
      "inputs": [],
      "name": "InvalidInitialization",
      "type": "error"
    },
    {
      "inputs": [],
      "name": "NotInitializing",
      "type": "error"
    },
    {
      "inputs": [
        {
          "internalType": "address",
          "name": "owner",
          "type": "address"
        }
      ],
      "name": "OwnableInvalidOwner",
      "type": "error"
    },
    {
      "inputs": [
        {
          "internalType": "address",
          "name": "account",
          "type": "address"
        }
      ],
      "name": "OwnableUnauthorizedAccount",
      "type": "error"
    },
    {
      "inputs": [
        {
          "internalType": "address",
          "name": "token",
          "type": "address"
        }
      ],
      "name": "SafeERC20FailedOperation",
      "type": "error"
    },
    {
      "inputs": [],
      "name": "UUPSUnauthorizedCallContext",
      "type": "error"
    },
    {
      "inputs": [
        {
          "internalType": "bytes32",
          "name": "slot",
          "type": "bytes32"
        }
      ],
      "name": "UUPSUnsupportedProxiableUUID",
      "type": "error"
    },
    {
      "anonymous": false,
      "inputs": [
        {
          "indexed": true,
          "internalType": "address",
          "name": "token",
          "type": "address"
        },
        {
          "indexed": false,
          "internalType": "uint256",
          "name": "amount",
          "type": "uint256"
        }
      ],
      "name": "ERC20Released",
      "type": "event"
    },
    {
      "anonymous": false,
      "inputs": [
        {
          "indexed": false,
          "internalType": "uint256",
          "name": "amount",
          "type": "uint256"
        }
      ],
      "name": "EtherReleased",
      "type": "event"
    },
    {
      "anonymous": false,
      "inputs": [
        {
          "indexed": false,
          "internalType": "uint64",
          "name": "version",
          "type": "uint64"
        }
      ],
      "name": "Initialized",
      "type": "event"
    },
    {
      "anonymous": false,
      "inputs": [
        {
          "indexed": true,
          "internalType": "address",
          "name": "previousOwner",
          "type": "address"
        },
        {
          "indexed": true,
          "internalType": "address",
          "name": "newOwner",
          "type": "address"
        }
      ],
      "name": "OwnershipTransferStarted",
      "type": "event"
    },
    {
      "anonymous": false,
      "inputs": [
        {
          "indexed": true,
          "internalType": "address",
          "name": "previousOwner",
          "type": "address"
        },
        {
          "indexed": true,
          "internalType": "address",
          "name": "newOwner",
          "type": "address"
        }
      ],
      "name": "OwnershipTransferred",
      "type": "event"
    },
    {
      "anonymous": false,
      "inputs": [
        {
          "indexed": true,
          "internalType": "address",
          "name": "implementation",
          "type": "address"
        }
      ],
      "name": "Upgraded",
      "type": "event"
    },
    {
      "inputs": [],
      "name": "UPGRADE_INTERFACE_VERSION",
      "outputs": [
        {
          "internalType": "string",
          "name": "",
          "type": "string"
        }
      ],
      "stateMutability": "view",
      "type": "function"
    },
    {
      "inputs": [],
      "name": "acceptOwnership",
      "outputs": [],
      "stateMutability": "nonpayable",
      "type": "function"
    },
    {
      "inputs": [],
      "name": "duration",
      "outputs": [
        {
          "internalType": "uint256",
          "name": "",
          "type": "uint256"
        }
      ],
      "stateMutability": "view",
      "type": "function"
    },
    {
      "inputs": [],
      "name": "end",
      "outputs": [
        {
          "internalType": "uint256",
          "name": "",
          "type": "uint256"
        }
      ],
      "stateMutability": "view",
      "type": "function"
    },
    {
      "inputs": [
        {
          "internalType": "address",
          "name": "_beneficiary",
          "type": "address"
        },
        {
          "internalType": "uint64",
          "name": "_startTimestamp",
          "type": "uint64"
        },
        {
          "internalType": "uint64",
          "name": "_durationSeconds",
          "type": "uint64"
        },
        {
          "internalType": "string",
          "name": "_name",
          "type": "string"
        }
      ],
      "name": "initialize",
      "outputs": [],
      "stateMutability": "nonpayable",
      "type": "function"
    },
    {
      "inputs": [],
      "name": "name",
      "outputs": [
        {
          "internalType": "string",
          "name": "",
          "type": "string"
        }
      ],
      "stateMutability": "view",
      "type": "function"
    },
    {
      "inputs": [],
      "name": "owner",
      "outputs": [
        {
          "internalType": "address",
          "name": "",
          "type": "address"
        }
      ],
      "stateMutability": "view",
      "type": "function"
    },
    {
      "inputs": [],
      "name": "pendingOwner",
      "outputs": [
        {
          "internalType": "address",
          "name": "",
          "type": "address"
        }
      ],
      "stateMutability": "view",
      "type": "function"
    },
    {
      "inputs": [],
      "name": "proxiableUUID",
      "outputs": [
        {
          "internalType": "bytes32",
          "name": "",
          "type": "bytes32"
        }
      ],
      "stateMutability": "view",
      "type": "function"
    },
    {
      "inputs": [
        {
          "internalType": "address",
          "name": "token",
          "type": "address"
        }
      ],
      "name": "releasable",
      "outputs": [
        {
          "internalType": "uint256",
          "name": "",
          "type": "uint256"
        }
      ],
      "stateMutability": "view",
      "type": "function"
    },
    {
      "inputs": [],
      "name": "releasable",
      "outputs": [
        {
          "internalType": "uint256",
          "name": "",
          "type": "uint256"
        }
      ],
      "stateMutability": "view",
      "type": "function"
    },
    {
      "inputs": [
        {
          "internalType": "address",
          "name": "token",
          "type": "address"
        }
      ],
      "name": "release",
      "outputs": [],
      "stateMutability": "nonpayable",
      "type": "function"
    },
    {
      "inputs": [],
      "name": "release",
      "outputs": [],
      "stateMutability": "nonpayable",
      "type": "function"
    },
    {
      "inputs": [],
      "name": "released",
      "outputs": [
        {
          "internalType": "uint256",
          "name": "",
          "type": "uint256"
        }
      ],
      "stateMutability": "view",
      "type": "function"
    },
    {
      "inputs": [
        {
          "internalType": "address",
          "name": "token",
          "type": "address"
        }
      ],
      "name": "released",
      "outputs": [
        {
          "internalType": "uint256",
          "name": "",
          "type": "uint256"
        }
      ],
      "stateMutability": "view",
      "type": "function"
    },
    {
      "inputs": [],
      "name": "renounceOwnership",
      "outputs": [],
      "stateMutability": "nonpayable",
      "type": "function"
    },
    {
      "inputs": [],
      "name": "start",
      "outputs": [
        {
          "internalType": "uint256",
          "name": "",
          "type": "uint256"
        }
      ],
      "stateMutability": "view",
      "type": "function"
    },
    {
      "inputs": [
        {
          "internalType": "address",
          "name": "_newOwner",
          "type": "address"
        }
      ],
      "name": "transferOwnership",
      "outputs": [],
      "stateMutability": "nonpayable",
      "type": "function"
    },
    {
      "inputs": [
        {
          "internalType": "address",
          "name": "newImplementation",
          "type": "address"
        },
        {
          "internalType": "bytes",
          "name": "data",
          "type": "bytes"
        }
      ],
      "name": "upgradeToAndCall",
      "outputs": [],
      "stateMutability": "payable",
      "type": "function"
    },
    {
      "inputs": [],
      "name": "version",
      "outputs": [
        {
          "internalType": "string",
          "name": "",
          "type": "string"
        }
      ],
      "stateMutability": "view",
      "type": "function"
    },
    {
      "inputs": [
        {
          "internalType": "uint64",
          "name": "timestamp",
          "type": "uint64"
        }
      ],
      "name": "vestedAmount",
      "outputs": [
        {
          "internalType": "uint256",
          "name": "",
          "type": "uint256"
        }
      ],
      "stateMutability": "view",
      "type": "function"
    },
    {
      "inputs": [
        {
          "internalType": "address",
          "name": "token",
          "type": "address"
        },
        {
          "internalType": "uint64",
          "name": "timestamp",
          "type": "uint64"
        }
      ],
      "name": "vestedAmount",
      "outputs": [
        {
          "internalType": "uint256",
          "name": "",
          "type": "uint256"
        }
      ],
      "stateMutability": "view",
      "type": "function"
    },
    {
      "stateMutability": "payable",
      "type": "receive"
    }
  ],
  "bytecode": "0x60a06040523073ffffffffffffffffffffffffffffffffffffffff1660809073ffffffffffffffffffffffffffffffffffffffff168152503480156200004457600080fd5b50620000556200005b60201b60201c565b620001cf565b60006200006d6200016560201b60201c565b90508060000160089054906101000a900460ff1615620000b9576040517ff92ee8a900000000000000000000000000000000000000000000000000000000815260040160405180910390fd5b67ffffffffffffffff80168160000160009054906101000a900467ffffffffffffffff1667ffffffffffffffff1614620001625767ffffffffffffffff8160000160006101000a81548167ffffffffffffffff021916908367ffffffffffffffff1602179055507fc7f505b2f371ae2175ee4913f4499e1f2633a7b5936321eed1cdaeb6115181d267ffffffffffffffff604051620001599190620001b2565b60405180910390a15b50565b60007ff0c57e16840df040f15088dc2f81fe391c3923bec73e23a9662efc9c229c6a00905090565b600067ffffffffffffffff82169050919050565b620001ac816200018d565b82525050565b6000602082019050620001c96000830184620001a1565b92915050565b6080516126a7620001f960003960008181610ea001528181610ef501526110b001526126a76000f3fe6080604052600436106101395760003560e01c806386d1a69f116100ab578063ad3cb1cc1161006f578063ad3cb1cc146103ee578063be9a655514610419578063e30c397814610444578063efbe1c1c1461046f578063f2fde38b1461049a578063fbccedae146104c357610140565b806386d1a69f146103075780638da5cb5b1461031e57806396132521146103495780639852595c14610374578063a3f8eace146103b157610140565b80634f1ef286116100fd5780634f1ef2861461022a57806352d1902d1461024657806354fd4d5014610271578063715018a61461029c57806379ba5097146102b3578063810ec23b146102ca57610140565b806306fdde03146101455780630a17b06b146101705780630fb5a6b4146101ad57806319165587146101d85780632a4e2c811461020157610140565b3661014057005b600080fd5b34801561015157600080fd5b5061015a6104ee565b6040516101679190611b76565b60405180910390f35b34801561017c57600080fd5b5061019760048036038101906101929190611bec565b61057c565b6040516101a49190611c32565b60405180910390f35b3480156101b957600080fd5b506101c26105a1565b6040516101cf9190611c32565b60405180910390f35b3480156101e457600080fd5b506101ff60048036038101906101fa9190611cab565b6105d7565b005b34801561020d57600080fd5b5061022860048036038101906102239190611e0d565b6106ad565b005b610244600480360381019061023f9190611f31565b6108a6565b005b34801561025257600080fd5b5061025b6108c5565b6040516102689190611fa6565b60405180910390f35b34801561027d57600080fd5b506102866108f8565b6040516102939190611b76565b60405180910390f35b3480156102a857600080fd5b506102b1610986565b005b3480156102bf57600080fd5b506102c861099a565b005b3480156102d657600080fd5b506102f160048036038101906102ec9190611fc1565b610a29565b6040516102fe9190611c32565b60405180910390f35b34801561031357600080fd5b5061031c610ac9565b005b34801561032a57600080fd5b50610333610b48565b6040516103409190612010565b60405180910390f35b34801561035557600080fd5b5061035e610b80565b60405161036b9190611c32565b60405180910390f35b34801561038057600080fd5b5061039b60048036038101906103969190611cab565b610b98565b6040516103a89190611c32565b60405180910390f35b3480156103bd57600080fd5b506103d860048036038101906103d39190611cab565b610bef565b6040516103e59190611c32565b60405180910390f35b3480156103fa57600080fd5b50610403610c15565b6040516104109190611b76565b60405180910390f35b34801561042557600080fd5b5061042e610c4e565b60405161043b9190611c32565b60405180910390f35b34801561045057600080fd5b50610459610c84565b6040516104669190612010565b60405180910390f35b34801561047b57600080fd5b50610484610cbc565b6040516104919190611c32565b60405180910390f35b3480156104a657600080fd5b506104c160048036038101906104bc9190611cab565b610cdd565b005b3480156104cf57600080fd5b506104d8610cf1565b6040516104e59190611c32565b60405180910390f35b600080546104fb9061205a565b80601f01602080910402602001604051908101604052809291908181526020018280546105279061205a565b80156105745780601f1061054957610100808354040283529160200191610574565b820191906000526020600020905b81548152906001019060200180831161055757829003601f168201915b505050505081565b600061059a610589610b80565b4761059491906120ba565b83610d13565b9050919050565b6000806105ac610d9a565b90508060020160089054906101000a900467ffffffffffffffff1667ffffffffffffffff1691505090565b60006105e1610d9a565b905060006105ee83610bef565b9050808260010160008573ffffffffffffffffffffffffffffffffffffffff1673ffffffffffffffffffffffffffffffffffffffff168152602001908152602001600020600082825461064191906120ba565b925050819055508273ffffffffffffffffffffffffffffffffffffffff167fc0e523490dd523c33b1878c9eb14ff46991e3f5b2cd33710918618f2a39cba1b8260405161068e9190611c32565b60405180910390a26106a8836106a2610b48565b83610dc2565b505050565b60006106b7610e41565b905060008160000160089054906101000a900460ff1615905060008260000160009054906101000a900467ffffffffffffffff1690506000808267ffffffffffffffff161480156107055750825b9050600060018367ffffffffffffffff1614801561073a575060003073ffffffffffffffffffffffffffffffffffffffff163b145b905081158015610748575080155b1561077f576040517ff92ee8a900000000000000000000000000000000000000000000000000000000815260040160405180910390fd5b60018560000160006101000a81548167ffffffffffffffff021916908367ffffffffffffffff16021790555083156107cf5760018560000160086101000a81548160ff0219169083151502179055505b6107d7610e69565b6107df610e73565b6107ea898989610e7d565b6040518060400160405280600581526020017f312e302e300000000000000000000000000000000000000000000000000000008152506001908161082e919061229a565b50856000908161083e919061229a565b50831561089b5760008560000160086101000a81548160ff0219169083151502179055507fc7f505b2f371ae2175ee4913f4499e1f2633a7b5936321eed1cdaeb6115181d2600160405161089291906123a7565b60405180910390a15b505050505050505050565b6108ae610e9e565b6108b782610f84565b6108c18282610f8f565b5050565b60006108cf6110ae565b7f360894a13ba1a3210667c828492db98dca3e2076cc3735a920a3ca505d382bbc60001b905090565b600180546109059061205a565b80601f01602080910402602001604051908101604052809291908181526020018280546109319061205a565b801561097e5780601f106109535761010080835404028352916020019161097e565b820191906000526020600020905b81548152906001019060200180831161096157829003601f168201915b505050505081565b61098e611135565b61099860006111bc565b565b60006109a46111c8565b90508073ffffffffffffffffffffffffffffffffffffffff166109c5610c84565b73ffffffffffffffffffffffffffffffffffffffff1614610a1d57806040517f118cdaa7000000000000000000000000000000000000000000000000000000008152600401610a149190612010565b60405180910390fd5b610a26816111bc565b50565b6000610ac1610a3784610b98565b8473ffffffffffffffffffffffffffffffffffffffff166370a08231306040518263ffffffff1660e01b8152600401610a709190612010565b602060405180830381865afa158015610a8d573d6000803e3d6000fd5b505050506040513d601f19601f82011682018060405250810190610ab191906123ee565b610abb91906120ba565b83610d13565b905092915050565b6000610ad3610d9a565b90506000610adf610cf1565b905080826000016000828254610af591906120ba565b925050819055507fda9d4e5f101b8b9b1c5b76d0c5a9f7923571acfc02376aa076b75a8c080c956b81604051610b2b9190611c32565b60405180910390a1610b44610b3e610b48565b826111d0565b5050565b600080610b536112bd565b90508060000160009054906101000a900473ffffffffffffffffffffffffffffffffffffffff1691505090565b600080610b8b610d9a565b9050806000015491505090565b600080610ba3610d9a565b90508060010160008473ffffffffffffffffffffffffffffffffffffffff1673ffffffffffffffffffffffffffffffffffffffff16815260200190815260200160002054915050919050565b6000610bfa82610b98565b610c048342610a29565b610c0e919061241b565b9050919050565b6040518060400160405280600581526020017f352e302e3000000000000000000000000000000000000000000000000000000081525081565b600080610c59610d9a565b90508060020160009054906101000a900467ffffffffffffffff1667ffffffffffffffff1691505090565b600080610c8f6112e5565b90508060000160009054906101000a900473ffffffffffffffffffffffffffffffffffffffff1691505090565b6000610cc66105a1565b610cce610c4e565b610cd891906120ba565b905090565b610ce5611135565b610cee8161130d565b50565b6000610cfb610b80565b610d044261057c565b610d0e919061241b565b905090565b6000610d1d610c4e565b8267ffffffffffffffff161015610d375760009050610d94565b610d3f610cbc565b8267ffffffffffffffff1610610d5757829050610d94565b610d5f6105a1565b610d67610c4e565b8367ffffffffffffffff16610d7c919061241b565b84610d87919061244f565b610d9191906124c0565b90505b92915050565b60007fa1eac494560f7591e4da38ed031587f09556afdfc4399dd2e205b935fdfa3900905090565b610e3c838473ffffffffffffffffffffffffffffffffffffffff1663a9059cbb8585604051602401610df59291906124f1565b604051602081830303815290604052915060e01b6020820180517bffffffffffffffffffffffffffffffffffffffffffffffffffffffff83818316178352505050506113c9565b505050565b60007ff0c57e16840df040f15088dc2f81fe391c3923bec73e23a9662efc9c229c6a00905090565b610e71611460565b565b610e7b611460565b565b610e85611460565b610e8e836114a0565b610e99838383611526565b505050565b7f000000000000000000000000000000000000000000000000000000000000000073ffffffffffffffffffffffffffffffffffffffff163073ffffffffffffffffffffffffffffffffffffffff161480610f4b57507f000000000000000000000000000000000000000000000000000000000000000073ffffffffffffffffffffffffffffffffffffffff16610f32611596565b73ffffffffffffffffffffffffffffffffffffffff1614155b15610f82576040517fe07c8dba00000000000000000000000000000000000000000000000000000000815260040160405180910390fd5b565b610f8c611135565b50565b8173ffffffffffffffffffffffffffffffffffffffff166352d1902d6040518163ffffffff1660e01b8152600401602060405180830381865afa925050508015610ff757506040513d601f19601f82011682018060405250810190610ff49190612546565b60015b61103857816040517f4c9c8ce300000000000000000000000000000000000000000000000000000000815260040161102f9190612010565b60405180910390fd5b7f360894a13ba1a3210667c828492db98dca3e2076cc3735a920a3ca505d382bbc60001b811461109f57806040517faa1d49a40000000000000000000000000000000000000000000000000000000081526004016110969190611fa6565b60405180910390fd5b6110a983836115ed565b505050565b7f000000000000000000000000000000000000000000000000000000000000000073ffffffffffffffffffffffffffffffffffffffff163073ffffffffffffffffffffffffffffffffffffffff1614611133576040517fe07c8dba00000000000000000000000000000000000000000000000000000000815260040160405180910390fd5b565b61113d6111c8565b73ffffffffffffffffffffffffffffffffffffffff1661115b610b48565b73ffffffffffffffffffffffffffffffffffffffff16146111ba5761117e6111c8565b6040517f118cdaa70000000000000000000000000000000000000000000000000000000081526004016111b19190612010565b60405180910390fd5b565b6111c581611660565b50565b600033905090565b8047101561121557306040517fcd78605900000000000000000000000000000000000000000000000000000000815260040161120c9190612010565b60405180910390fd5b60008273ffffffffffffffffffffffffffffffffffffffff168260405161123b906125a4565b60006040518083038185875af1925050503d8060008114611278576040519150601f19603f3d011682016040523d82523d6000602084013e61127d565b606091505b50509050806112b8576040517f1425ea4200000000000000000000000000000000000000000000000000000000815260040160405180910390fd5b505050565b60007f9016d09d72d40fdae2fd8ceac6b6234c7706214fd39c1cd1e609a0528c199300905090565b60007f237e158222e3e6968b72b9db0d8043aacf074ad9f650f0d1606b4d82ee432c00905090565b611315611135565b600061131f6112e5565b9050818160000160006101000a81548173ffffffffffffffffffffffffffffffffffffffff021916908373ffffffffffffffffffffffffffffffffffffffff1602179055508173ffffffffffffffffffffffffffffffffffffffff16611383610b48565b73ffffffffffffffffffffffffffffffffffffffff167f38d16b8cac22d99fc7c124b9cd0de2d3fa1faef420bfe791d8c362d765e2270060405160405180910390a35050565b60006113f4828473ffffffffffffffffffffffffffffffffffffffff166116a090919063ffffffff16565b9050600081511415801561141957508080602001905181019061141791906125f1565b155b1561145b57826040517f5274afe70000000000000000000000000000000000000000000000000000000081526004016114529190612010565b60405180910390fd5b505050565b6114686116b6565b61149e576040517fd7e6bcf800000000000000000000000000000000000000000000000000000000815260040160405180910390fd5b565b6114a8611460565b600073ffffffffffffffffffffffffffffffffffffffff168173ffffffffffffffffffffffffffffffffffffffff160361151a5760006040517f1e4fbdf70000000000000000000000000000000000000000000000000000000081526004016115119190612010565b60405180910390fd5b611523816111bc565b50565b61152e611460565b6000611538610d9a565b9050828160020160006101000a81548167ffffffffffffffff021916908367ffffffffffffffff160217905550818160020160086101000a81548167ffffffffffffffff021916908367ffffffffffffffff16021790555050505050565b60006115c47f360894a13ba1a3210667c828492db98dca3e2076cc3735a920a3ca505d382bbc60001b6116d6565b60000160009054906101000a900473ffffffffffffffffffffffffffffffffffffffff16905090565b6115f6826116e0565b8173ffffffffffffffffffffffffffffffffffffffff167fbc7cd75a20ee27fd9adebab32041f755214dbc6bffa90cc0225b39da2e5c2d3b60405160405180910390a26000815111156116535761164d82826117ad565b5061165c565b61165b611831565b5b5050565b600061166a6112e5565b90508060000160006101000a81549073ffffffffffffffffffffffffffffffffffffffff021916905561169c8261186e565b5050565b60606116ae83836000611945565b905092915050565b60006116c0610e41565b60000160089054906101000a900460ff16905090565b6000819050919050565b60008173ffffffffffffffffffffffffffffffffffffffff163b0361173c57806040517f4c9c8ce30000000000000000000000000000000000000000000000000000000081526004016117339190612010565b60405180910390fd5b806117697f360894a13ba1a3210667c828492db98dca3e2076cc3735a920a3ca505d382bbc60001b6116d6565b60000160006101000a81548173ffffffffffffffffffffffffffffffffffffffff021916908373ffffffffffffffffffffffffffffffffffffffff16021790555050565b60606000808473ffffffffffffffffffffffffffffffffffffffff16846040516117d7919061265a565b600060405180830381855af49150503d8060008114611812576040519150601f19603f3d011682016040523d82523d6000602084013e611817565b606091505b5091509150611827858383611a12565b9250505092915050565b600034111561186c576040517fb398979f00000000000000000000000000000000000000000000000000000000815260040160405180910390fd5b565b60006118786112bd565b905060008160000160009054906101000a900473ffffffffffffffffffffffffffffffffffffffff169050828260000160006101000a81548173ffffffffffffffffffffffffffffffffffffffff021916908373ffffffffffffffffffffffffffffffffffffffff1602179055508273ffffffffffffffffffffffffffffffffffffffff168173ffffffffffffffffffffffffffffffffffffffff167f8be0079c531659141344cd1fd0a4f28419497f9722a3daafe3b4186f6b6457e060405160405180910390a3505050565b60608147101561198c57306040517fcd7860590000000000000000000000000000000000000000000000000000000081526004016119839190612010565b60405180910390fd5b6000808573ffffffffffffffffffffffffffffffffffffffff1684866040516119b5919061265a565b60006040518083038185875af1925050503d80600081146119f2576040519150601f19603f3d011682016040523d82523d6000602084013e6119f7565b606091505b5091509150611a07868383611a12565b925050509392505050565b606082611a2757611a2282611aa1565b611a99565b60008251148015611a4f575060008473ffffffffffffffffffffffffffffffffffffffff163b145b15611a9157836040517f9996b315000000000000000000000000000000000000000000000000000000008152600401611a889190612010565b60405180910390fd5b819050611a9a565b5b9392505050565b600081511115611ab45780518082602001fd5b6040517f1425ea4200000000000000000000000000000000000000000000000000000000815260040160405180910390fd5b600081519050919050565b600082825260208201905092915050565b60005b83811015611b20578082015181840152602081019050611b05565b60008484015250505050565b6000601f19601f8301169050919050565b6000611b4882611ae6565b611b528185611af1565b9350611b62818560208601611b02565b611b6b81611b2c565b840191505092915050565b60006020820190508181036000830152611b908184611b3d565b905092915050565b6000604051905090565b600080fd5b600080fd5b600067ffffffffffffffff82169050919050565b611bc981611bac565b8114611bd457600080fd5b50565b600081359050611be681611bc0565b92915050565b600060208284031215611c0257611c01611ba2565b5b6000611c1084828501611bd7565b91505092915050565b6000819050919050565b611c2c81611c19565b82525050565b6000602082019050611c476000830184611c23565b92915050565b600073ffffffffffffffffffffffffffffffffffffffff82169050919050565b6000611c7882611c4d565b9050919050565b611c8881611c6d565b8114611c9357600080fd5b50565b600081359050611ca581611c7f565b92915050565b600060208284031215611cc157611cc0611ba2565b5b6000611ccf84828501611c96565b91505092915050565b600080fd5b600080fd5b7f4e487b7100000000000000000000000000000000000000000000000000000000600052604160045260246000fd5b611d1a82611b2c565b810181811067ffffffffffffffff82111715611d3957611d38611ce2565b5b80604052505050565b6000611d4c611b98565b9050611d588282611d11565b919050565b600067ffffffffffffffff821115611d7857611d77611ce2565b5b611d8182611b2c565b9050602081019050919050565b82818337600083830152505050565b6000611db0611dab84611d5d565b611d42565b905082815260208101848484011115611dcc57611dcb611cdd565b5b611dd7848285611d8e565b509392505050565b600082601f830112611df457611df3611cd8565b5b8135611e04848260208601611d9d565b91505092915050565b60008060008060808587031215611e2757611e26611ba2565b5b6000611e3587828801611c96565b9450506020611e4687828801611bd7565b9350506040611e5787828801611bd7565b925050606085013567ffffffffffffffff811115611e7857611e77611ba7565b5b611e8487828801611ddf565b91505092959194509250565b600067ffffffffffffffff821115611eab57611eaa611ce2565b5b611eb482611b2c565b9050602081019050919050565b6000611ed4611ecf84611e90565b611d42565b905082815260208101848484011115611ef057611eef611cdd565b5b611efb848285611d8e565b509392505050565b600082601f830112611f1857611f17611cd8565b5b8135611f28848260208601611ec1565b91505092915050565b60008060408385031215611f4857611f47611ba2565b5b6000611f5685828601611c96565b925050602083013567ffffffffffffffff811115611f7757611f76611ba7565b5b611f8385828601611f03565b9150509250929050565b6000819050919050565b611fa081611f8d565b82525050565b6000602082019050611fbb6000830184611f97565b92915050565b60008060408385031215611fd857611fd7611ba2565b5b6000611fe685828601611c96565b9250506020611ff785828601611bd7565b9150509250929050565b61200a81611c6d565b82525050565b60006020820190506120256000830184612001565b92915050565b7f4e487b7100000000000000000000000000000000000000000000000000000000600052602260045260246000fd5b6000600282049050600182168061207257607f821691505b6020821081036120855761208461202b565b5b50919050565b7f4e487b7100000000000000000000000000000000000000000000000000000000600052601160045260246000fd5b60006120c582611c19565b91506120d083611c19565b92508282019050808211156120e8576120e761208b565b5b92915050565b60008190508160005260206000209050919050565b60006020601f8301049050919050565b600082821b905092915050565b6000600883026121507fffffffffffffffffffffffffffffffffffffffffffffffffffffffffffffffff82612113565b61215a8683612113565b95508019841693508086168417925050509392505050565b6000819050919050565b600061219761219261218d84611c19565b612172565b611c19565b9050919050565b6000819050919050565b6121b18361217c565b6121c56121bd8261219e565b848454612120565b825550505050565b600090565b6121da6121cd565b6121e58184846121a8565b505050565b5b81811015612209576121fe6000826121d2565b6001810190506121eb565b5050565b601f82111561224e5761221f816120ee565b61222884612103565b81016020851015612237578190505b61224b61224385612103565b8301826121ea565b50505b505050565b600082821c905092915050565b600061227160001984600802612253565b1980831691505092915050565b600061228a8383612260565b9150826002028217905092915050565b6122a382611ae6565b67ffffffffffffffff8111156122bc576122bb611ce2565b5b6122c6825461205a565b6122d182828561220d565b600060209050601f83116001811461230457600084156122f2578287015190505b6122fc858261227e565b865550612364565b601f198416612312866120ee565b60005b8281101561233a57848901518255600182019150602085019450602081019050612315565b868310156123575784890151612353601f891682612260565b8355505b6001600288020188555050505b505050505050565b6000819050919050565b600061239161238c6123878461236c565b612172565b611bac565b9050919050565b6123a181612376565b82525050565b60006020820190506123bc6000830184612398565b92915050565b6123cb81611c19565b81146123d657600080fd5b50565b6000815190506123e8816123c2565b92915050565b60006020828403121561240457612403611ba2565b5b6000612412848285016123d9565b91505092915050565b600061242682611c19565b915061243183611c19565b92508282039050818111156124495761244861208b565b5b92915050565b600061245a82611c19565b915061246583611c19565b925082820261247381611c19565b9150828204841483151761248a5761248961208b565b5b5092915050565b7f4e487b7100000000000000000000000000000000000000000000000000000000600052601260045260246000fd5b60006124cb82611c19565b91506124d683611c19565b9250826124e6576124e5612491565b5b828204905092915050565b60006040820190506125066000830185612001565b6125136020830184611c23565b9392505050565b61252381611f8d565b811461252e57600080fd5b50565b6000815190506125408161251a565b92915050565b60006020828403121561255c5761255b611ba2565b5b600061256a84828501612531565b91505092915050565b600081905092915050565b50565b600061258e600083612573565b91506125998261257e565b600082019050919050565b60006125af82612581565b9150819050919050565b60008115159050919050565b6125ce816125b9565b81146125d957600080fd5b50565b6000815190506125eb816125c5565b92915050565b60006020828403121561260757612606611ba2565b5b6000612615848285016125dc565b91505092915050565b600081519050919050565b60006126348261261e565b61263e8185612573565b935061264e818560208601611b02565b80840191505092915050565b60006126668284612629565b91508190509291505056fea26469706673582212209c94a7757cc7490f7563236b793c3fc6148774b59a051b7b26965027c9c50bf664736f6c63430008170033",
  "linkReferences": {},
  "deployedLinkReferences": {}
}