{
  "_format": "hh-sol-artifact-1",
  "contractName": "L2VotingPower",
  "sourceName": "src/L2/L2VotingPower.sol",
  "abi": [
    {
      "inputs": [],
      "stateMutability": "nonpayable",
      "type": "constructor"
    },
    {
      "inputs": [
        {
          "internalType": "address",
          "name": "target",
          "type": "address"
        }
      ],
      "name": "AddressEmptyCode",
      "type": "error"
    },
    {
      "inputs": [],
      "name": "ApproveDisabled",
      "type": "error"
    },
    {
      "inputs": [],
      "name": "CheckpointUnorderedInsertion",
      "type": "error"
    },
    {
      "inputs": [],
      "name": "ECDSAInvalidSignature",
      "type": "error"
    },
    {
      "inputs": [
        {
          "internalType": "uint256",
          "name": "length",
          "type": "uint256"
        }
      ],
      "name": "ECDSAInvalidSignatureLength",
      "type": "error"
    },
    {
      "inputs": [
        {
          "internalType": "bytes32",
          "name": "s",
          "type": "bytes32"
        }
      ],
      "name": "ECDSAInvalidSignatureS",
      "type": "error"
    },
    {
      "inputs": [
        {
          "internalType": "address",
          "name": "implementation",
          "type": "address"
        }
      ],
      "name": "ERC1967InvalidImplementation",
      "type": "error"
    },
    {
      "inputs": [],
      "name": "ERC1967NonPayable",
      "type": "error"
    },
    {
      "inputs": [
        {
          "internalType": "uint256",
          "name": "increasedSupply",
          "type": "uint256"
        },
        {
          "internalType": "uint256",
          "name": "cap",
          "type": "uint256"
        }
      ],
      "name": "ERC20ExceededSafeSupply",
      "type": "error"
    },
    {
      "inputs": [
        {
          "internalType": "address",
          "name": "spender",
          "type": "address"
        },
        {
          "internalType": "uint256",
          "name": "allowance",
          "type": "uint256"
        },
        {
          "internalType": "uint256",
          "name": "needed",
          "type": "uint256"
        }
      ],
      "name": "ERC20InsufficientAllowance",
      "type": "error"
    },
    {
      "inputs": [
        {
          "internalType": "address",
          "name": "sender",
          "type": "address"
        },
        {
          "internalType": "uint256",
          "name": "balance",
          "type": "uint256"
        },
        {
          "internalType": "uint256",
          "name": "needed",
          "type": "uint256"
        }
      ],
      "name": "ERC20InsufficientBalance",
      "type": "error"
    },
    {
      "inputs": [
        {
          "internalType": "address",
          "name": "approver",
          "type": "address"
        }
      ],
      "name": "ERC20InvalidApprover",
      "type": "error"
    },
    {
      "inputs": [
        {
          "internalType": "address",
          "name": "receiver",
          "type": "address"
        }
      ],
      "name": "ERC20InvalidReceiver",
      "type": "error"
    },
    {
      "inputs": [
        {
          "internalType": "address",
          "name": "sender",
          "type": "address"
        }
      ],
      "name": "ERC20InvalidSender",
      "type": "error"
    },
    {
      "inputs": [
        {
          "internalType": "address",
          "name": "spender",
          "type": "address"
        }
      ],
      "name": "ERC20InvalidSpender",
      "type": "error"
    },
    {
      "inputs": [
        {
          "internalType": "uint256",
          "name": "timepoint",
          "type": "uint256"
        },
        {
          "internalType": "uint48",
          "name": "clock",
          "type": "uint48"
        }
      ],
      "name": "ERC5805FutureLookup",
      "type": "error"
    },
    {
      "inputs": [],
      "name": "ERC6372InconsistentClock",
      "type": "error"
    },
    {
      "inputs": [],
      "name": "FailedInnerCall",
      "type": "error"
    },
    {
      "inputs": [
        {
          "internalType": "address",
          "name": "account",
          "type": "address"
        },
        {
          "internalType": "uint256",
          "name": "currentNonce",
          "type": "uint256"
        }
      ],
      "name": "InvalidAccountNonce",
      "type": "error"
    },
    {
      "inputs": [],
      "name": "InvalidInitialization",
      "type": "error"
    },
    {
      "inputs": [],
      "name": "NotInitializing",
      "type": "error"
    },
    {
      "inputs": [
        {
          "internalType": "address",
          "name": "owner",
          "type": "address"
        }
      ],
      "name": "OwnableInvalidOwner",
      "type": "error"
    },
    {
      "inputs": [
        {
          "internalType": "address",
          "name": "account",
          "type": "address"
        }
      ],
      "name": "OwnableUnauthorizedAccount",
      "type": "error"
    },
    {
      "inputs": [
        {
          "internalType": "uint8",
          "name": "bits",
          "type": "uint8"
        },
        {
          "internalType": "uint256",
          "name": "value",
          "type": "uint256"
        }
      ],
      "name": "SafeCastOverflowedUintDowncast",
      "type": "error"
    },
    {
      "inputs": [],
      "name": "TransferDisabled",
      "type": "error"
    },
    {
      "inputs": [],
      "name": "UUPSUnauthorizedCallContext",
      "type": "error"
    },
    {
      "inputs": [
        {
          "internalType": "bytes32",
          "name": "slot",
          "type": "bytes32"
        }
      ],
      "name": "UUPSUnsupportedProxiableUUID",
      "type": "error"
    },
    {
      "inputs": [
        {
          "internalType": "uint256",
          "name": "expiry",
          "type": "uint256"
        }
      ],
      "name": "VotesExpiredSignature",
      "type": "error"
    },
    {
      "anonymous": false,
      "inputs": [
        {
          "indexed": true,
          "internalType": "address",
          "name": "owner",
          "type": "address"
        },
        {
          "indexed": true,
          "internalType": "address",
          "name": "spender",
          "type": "address"
        },
        {
          "indexed": false,
          "internalType": "uint256",
          "name": "value",
          "type": "uint256"
        }
      ],
      "name": "Approval",
      "type": "event"
    },
    {
      "anonymous": false,
      "inputs": [
        {
          "indexed": true,
          "internalType": "address",
          "name": "delegator",
          "type": "address"
        },
        {
          "indexed": true,
          "internalType": "address",
          "name": "fromDelegate",
          "type": "address"
        },
        {
          "indexed": true,
          "internalType": "address",
          "name": "toDelegate",
          "type": "address"
        }
      ],
      "name": "DelegateChanged",
      "type": "event"
    },
    {
      "anonymous": false,
      "inputs": [
        {
          "indexed": true,
          "internalType": "address",
          "name": "delegate",
          "type": "address"
        },
        {
          "indexed": false,
          "internalType": "uint256",
          "name": "previousVotes",
          "type": "uint256"
        },
        {
          "indexed": false,
          "internalType": "uint256",
          "name": "newVotes",
          "type": "uint256"
        }
      ],
      "name": "DelegateVotesChanged",
      "type": "event"
    },
    {
      "anonymous": false,
      "inputs": [],
      "name": "EIP712DomainChanged",
      "type": "event"
    },
    {
      "anonymous": false,
      "inputs": [
        {
          "indexed": false,
          "internalType": "uint64",
          "name": "version",
          "type": "uint64"
        }
      ],
      "name": "Initialized",
      "type": "event"
    },
    {
      "anonymous": false,
      "inputs": [
        {
          "indexed": true,
          "internalType": "address",
          "name": "oldAddress",
          "type": "address"
        },
        {
          "indexed": true,
          "internalType": "address",
          "name": "newAddress",
          "type": "address"
        }
      ],
      "name": "LockingPositionContractAddressChanged",
      "type": "event"
    },
    {
      "anonymous": false,
      "inputs": [
        {
          "indexed": true,
          "internalType": "address",
          "name": "previousOwner",
          "type": "address"
        },
        {
          "indexed": true,
          "internalType": "address",
          "name": "newOwner",
          "type": "address"
        }
      ],
      "name": "OwnershipTransferStarted",
      "type": "event"
    },
    {
      "anonymous": false,
      "inputs": [
        {
          "indexed": true,
          "internalType": "address",
          "name": "previousOwner",
          "type": "address"
        },
        {
          "indexed": true,
          "internalType": "address",
          "name": "newOwner",
          "type": "address"
        }
      ],
      "name": "OwnershipTransferred",
      "type": "event"
    },
    {
      "anonymous": false,
      "inputs": [
        {
          "indexed": true,
          "internalType": "address",
          "name": "from",
          "type": "address"
        },
        {
          "indexed": true,
          "internalType": "address",
          "name": "to",
          "type": "address"
        },
        {
          "indexed": false,
          "internalType": "uint256",
          "name": "value",
          "type": "uint256"
        }
      ],
      "name": "Transfer",
      "type": "event"
    },
    {
      "anonymous": false,
      "inputs": [
        {
          "indexed": true,
          "internalType": "address",
          "name": "implementation",
          "type": "address"
        }
      ],
      "name": "Upgraded",
      "type": "event"
    },
    {
      "inputs": [],
      "name": "CLOCK_MODE",
      "outputs": [
        {
          "internalType": "string",
          "name": "",
          "type": "string"
        }
      ],
      "stateMutability": "pure",
      "type": "function"
    },
    {
      "inputs": [],
      "name": "UPGRADE_INTERFACE_VERSION",
      "outputs": [
        {
          "internalType": "string",
          "name": "",
          "type": "string"
        }
      ],
      "stateMutability": "view",
      "type": "function"
    },
    {
      "inputs": [],
      "name": "acceptOwnership",
      "outputs": [],
      "stateMutability": "nonpayable",
      "type": "function"
    },
    {
      "inputs": [
        {
          "internalType": "address",
          "name": "ownerAddress",
          "type": "address"
        },
        {
          "components": [
            {
              "internalType": "address",
              "name": "creator",
              "type": "address"
            },
            {
              "internalType": "uint256",
              "name": "amount",
              "type": "uint256"
            },
            {
              "internalType": "uint256",
              "name": "expDate",
              "type": "uint256"
            },
            {
              "internalType": "uint256",
              "name": "pausedLockingDuration",
              "type": "uint256"
            }
          ],
          "internalType": "struct IL2LockingPosition.LockingPosition",
          "name": "positionBefore",
          "type": "tuple"
        },
        {
          "components": [
            {
              "internalType": "address",
              "name": "creator",
              "type": "address"
            },
            {
              "internalType": "uint256",
              "name": "amount",
              "type": "uint256"
            },
            {
              "internalType": "uint256",
              "name": "expDate",
              "type": "uint256"
            },
            {
              "internalType": "uint256",
              "name": "pausedLockingDuration",
              "type": "uint256"
            }
          ],
          "internalType": "struct IL2LockingPosition.LockingPosition",
          "name": "positionAfter",
          "type": "tuple"
        }
      ],
      "name": "adjustVotingPower",
      "outputs": [],
      "stateMutability": "nonpayable",
      "type": "function"
    },
    {
      "inputs": [
        {
          "internalType": "address",
          "name": "owner",
          "type": "address"
        },
        {
          "internalType": "address",
          "name": "spender",
          "type": "address"
        }
      ],
      "name": "allowance",
      "outputs": [
        {
          "internalType": "uint256",
          "name": "",
          "type": "uint256"
        }
      ],
      "stateMutability": "view",
      "type": "function"
    },
    {
      "inputs": [
        {
          "internalType": "address",
          "name": "",
          "type": "address"
        },
        {
          "internalType": "uint256",
          "name": "",
          "type": "uint256"
        }
      ],
      "name": "approve",
      "outputs": [
        {
          "internalType": "bool",
          "name": "",
          "type": "bool"
        }
      ],
      "stateMutability": "pure",
      "type": "function"
    },
    {
      "inputs": [
        {
          "internalType": "address",
          "name": "account",
          "type": "address"
        }
      ],
      "name": "balanceOf",
      "outputs": [
        {
          "internalType": "uint256",
          "name": "",
          "type": "uint256"
        }
      ],
      "stateMutability": "view",
      "type": "function"
    },
    {
      "inputs": [
        {
          "internalType": "address",
          "name": "account",
          "type": "address"
        },
        {
          "internalType": "uint32",
          "name": "pos",
          "type": "uint32"
        }
      ],
      "name": "checkpoints",
      "outputs": [
        {
          "components": [
            {
              "internalType": "uint48",
              "name": "_key",
              "type": "uint48"
            },
            {
              "internalType": "uint208",
              "name": "_value",
              "type": "uint208"
            }
          ],
          "internalType": "struct Checkpoints.Checkpoint208",
          "name": "",
          "type": "tuple"
        }
      ],
      "stateMutability": "view",
      "type": "function"
    },
    {
      "inputs": [],
      "name": "clock",
      "outputs": [
        {
          "internalType": "uint48",
          "name": "",
          "type": "uint48"
        }
      ],
      "stateMutability": "view",
      "type": "function"
    },
    {
      "inputs": [],
      "name": "decimals",
      "outputs": [
        {
          "internalType": "uint8",
          "name": "",
          "type": "uint8"
        }
      ],
      "stateMutability": "view",
      "type": "function"
    },
    {
      "inputs": [
        {
          "internalType": "address",
          "name": "delegatee",
          "type": "address"
        }
      ],
      "name": "delegate",
      "outputs": [],
      "stateMutability": "nonpayable",
      "type": "function"
    },
    {
      "inputs": [
        {
          "internalType": "address",
          "name": "delegatee",
          "type": "address"
        },
        {
          "internalType": "uint256",
          "name": "nonce",
          "type": "uint256"
        },
        {
          "internalType": "uint256",
          "name": "expiry",
          "type": "uint256"
        },
        {
          "internalType": "uint8",
          "name": "v",
          "type": "uint8"
        },
        {
          "internalType": "bytes32",
          "name": "r",
          "type": "bytes32"
        },
        {
          "internalType": "bytes32",
          "name": "s",
          "type": "bytes32"
        }
      ],
      "name": "delegateBySig",
      "outputs": [],
      "stateMutability": "nonpayable",
      "type": "function"
    },
    {
      "inputs": [
        {
          "internalType": "address",
          "name": "account",
          "type": "address"
        }
      ],
      "name": "delegates",
      "outputs": [
        {
          "internalType": "address",
          "name": "",
          "type": "address"
        }
      ],
      "stateMutability": "view",
      "type": "function"
    },
    {
      "inputs": [],
      "name": "eip712Domain",
      "outputs": [
        {
          "internalType": "bytes1",
          "name": "fields",
          "type": "bytes1"
        },
        {
          "internalType": "string",
          "name": "name",
          "type": "string"
        },
        {
          "internalType": "string",
          "name": "version",
          "type": "string"
        },
        {
          "internalType": "uint256",
          "name": "chainId",
          "type": "uint256"
        },
        {
          "internalType": "address",
          "name": "verifyingContract",
          "type": "address"
        },
        {
          "internalType": "bytes32",
          "name": "salt",
          "type": "bytes32"
        },
        {
          "internalType": "uint256[]",
          "name": "extensions",
          "type": "uint256[]"
        }
      ],
      "stateMutability": "view",
      "type": "function"
    },
    {
      "inputs": [
        {
          "internalType": "uint256",
          "name": "timepoint",
          "type": "uint256"
        }
      ],
      "name": "getPastTotalSupply",
      "outputs": [
        {
          "internalType": "uint256",
          "name": "",
          "type": "uint256"
        }
      ],
      "stateMutability": "view",
      "type": "function"
    },
    {
      "inputs": [
        {
          "internalType": "address",
          "name": "account",
          "type": "address"
        },
        {
          "internalType": "uint256",
          "name": "timepoint",
          "type": "uint256"
        }
      ],
      "name": "getPastVotes",
      "outputs": [
        {
          "internalType": "uint256",
          "name": "",
          "type": "uint256"
        }
      ],
      "stateMutability": "view",
      "type": "function"
    },
    {
      "inputs": [
        {
          "internalType": "address",
          "name": "account",
          "type": "address"
        }
      ],
      "name": "getVotes",
      "outputs": [
        {
          "internalType": "uint256",
          "name": "",
          "type": "uint256"
        }
      ],
      "stateMutability": "view",
      "type": "function"
    },
    {
      "inputs": [
        {
          "internalType": "address",
          "name": "_lockingPositionAddresss",
          "type": "address"
        }
      ],
      "name": "initialize",
      "outputs": [],
      "stateMutability": "nonpayable",
      "type": "function"
    },
    {
      "inputs": [],
      "name": "lockingPositionAddress",
      "outputs": [
        {
          "internalType": "address",
          "name": "",
          "type": "address"
        }
      ],
      "stateMutability": "view",
      "type": "function"
    },
    {
      "inputs": [],
      "name": "name",
      "outputs": [
        {
          "internalType": "string",
          "name": "",
          "type": "string"
        }
      ],
      "stateMutability": "view",
      "type": "function"
    },
    {
      "inputs": [
        {
          "internalType": "address",
          "name": "owner",
          "type": "address"
        }
      ],
      "name": "nonces",
      "outputs": [
        {
          "internalType": "uint256",
          "name": "",
          "type": "uint256"
        }
      ],
      "stateMutability": "view",
      "type": "function"
    },
    {
      "inputs": [
        {
          "internalType": "address",
          "name": "account",
          "type": "address"
        }
      ],
      "name": "numCheckpoints",
      "outputs": [
        {
          "internalType": "uint32",
          "name": "",
          "type": "uint32"
        }
      ],
      "stateMutability": "view",
      "type": "function"
    },
    {
      "inputs": [],
      "name": "owner",
      "outputs": [
        {
          "internalType": "address",
          "name": "",
          "type": "address"
        }
      ],
      "stateMutability": "view",
      "type": "function"
    },
    {
      "inputs": [],
      "name": "pendingOwner",
      "outputs": [
        {
          "internalType": "address",
          "name": "",
          "type": "address"
        }
      ],
      "stateMutability": "view",
      "type": "function"
    },
    {
      "inputs": [],
      "name": "proxiableUUID",
      "outputs": [
        {
          "internalType": "bytes32",
          "name": "",
          "type": "bytes32"
        }
      ],
      "stateMutability": "view",
      "type": "function"
    },
    {
      "inputs": [],
      "name": "renounceOwnership",
      "outputs": [],
      "stateMutability": "nonpayable",
      "type": "function"
    },
    {
      "inputs": [],
      "name": "symbol",
      "outputs": [
        {
          "internalType": "string",
          "name": "",
          "type": "string"
        }
      ],
      "stateMutability": "view",
      "type": "function"
    },
    {
      "inputs": [],
      "name": "totalSupply",
      "outputs": [
        {
          "internalType": "uint256",
          "name": "",
          "type": "uint256"
        }
      ],
      "stateMutability": "view",
      "type": "function"
    },
    {
      "inputs": [
        {
          "internalType": "address",
          "name": "",
          "type": "address"
        },
        {
          "internalType": "uint256",
          "name": "",
          "type": "uint256"
        }
      ],
      "name": "transfer",
      "outputs": [
        {
          "internalType": "bool",
          "name": "",
          "type": "bool"
        }
      ],
      "stateMutability": "pure",
      "type": "function"
    },
    {
      "inputs": [
        {
          "internalType": "address",
          "name": "",
          "type": "address"
        },
        {
          "internalType": "address",
          "name": "",
          "type": "address"
        },
        {
          "internalType": "uint256",
          "name": "",
          "type": "uint256"
        }
      ],
      "name": "transferFrom",
      "outputs": [
        {
          "internalType": "bool",
          "name": "",
          "type": "bool"
        }
      ],
      "stateMutability": "pure",
      "type": "function"
    },
    {
      "inputs": [
        {
          "internalType": "address",
          "name": "newOwner",
          "type": "address"
        }
      ],
      "name": "transferOwnership",
      "outputs": [],
      "stateMutability": "nonpayable",
      "type": "function"
    },
    {
      "inputs": [
        {
          "internalType": "address",
          "name": "newImplementation",
          "type": "address"
        },
        {
          "internalType": "bytes",
          "name": "data",
          "type": "bytes"
        }
      ],
      "name": "upgradeToAndCall",
      "outputs": [],
      "stateMutability": "payable",
      "type": "function"
    },
    {
      "inputs": [],
      "name": "version",
      "outputs": [
        {
          "internalType": "string",
          "name": "",
          "type": "string"
        }
      ],
      "stateMutability": "view",
      "type": "function"
    }
  ],
  "bytecode": "0x60a06040523073ffffffffffffffffffffffffffffffffffffffff1660809073ffffffffffffffffffffffffffffffffffffffff168152503480156200004457600080fd5b50620000556200005b60201b60201c565b620001cf565b60006200006d6200016560201b60201c565b90508060000160089054906101000a900460ff1615620000b9576040517ff92ee8a900000000000000000000000000000000000000000000000000000000815260040160405180910390fd5b67ffffffffffffffff80168160000160009054906101000a900467ffffffffffffffff1667ffffffffffffffff1614620001625767ffffffffffffffff8160000160006101000a81548167ffffffffffffffff021916908367ffffffffffffffff1602179055507fc7f505b2f371ae2175ee4913f4499e1f2633a7b5936321eed1cdaeb6115181d267ffffffffffffffff604051620001599190620001b2565b60405180910390a15b50565b60007ff0c57e16840df040f15088dc2f81fe391c3923bec73e23a9662efc9c229c6a00905090565b600067ffffffffffffffff82169050919050565b620001ac816200018d565b82525050565b6000602082019050620001c96000830184620001a1565b92915050565b60805161516e620001f960003960008181611b0c01528181611b610152611d1c015261516e6000f3fe6080604052600436106101ee5760003560e01c806379ba50971161010d578063a9059cbb116100a0578063c4d66de81161006f578063c4d66de814610724578063dd62ed3e1461074d578063e30c39781461078a578063f1127ed8146107b5578063f2fde38b146107f2576101ee565b8063a9059cbb14610668578063ad3cb1cc146106a5578063b6377ca8146106d0578063c3cda520146106fb576101ee565b80638e539e8c116100dc5780638e539e8c1461059857806391ddadf4146105d557806395d89b41146106005780639ab24eb01461062b576101ee565b806379ba5097146104e85780637ecebe00146104ff57806384b0196e1461053c5780638da5cb5b1461056d576101ee565b80634f1ef286116101855780635c19a95c116101545780635c19a95c1461042e5780636fcfff451461045757806370a0823114610494578063715018a6146104d1576101ee565b80634f1ef2861461037f57806352d1902d1461039b57806354fd4d50146103c6578063587cde1e146103f1576101ee565b806323b872dd116101c157806323b872dd146102af578063313ce567146102ec5780633a46b1a8146103175780634bf5d7e914610354576101ee565b806306fdde03146101f3578063095ea7b31461021e5780630b813e001461025b57806318160ddd14610284575b600080fd5b3480156101ff57600080fd5b5061020861081b565b6040516102159190613cfa565b60405180910390f35b34801561022a57600080fd5b5061024560048036038101906102409190613dc4565b6108bc565b6040516102529190613e1f565b60405180910390f35b34801561026757600080fd5b50610282600480360381019061027d9190613f32565b6108f0565b005b34801561029057600080fd5b50610299610a4f565b6040516102a69190613f95565b60405180910390f35b3480156102bb57600080fd5b506102d660048036038101906102d19190613fb0565b610a67565b6040516102e39190613e1f565b60405180910390f35b3480156102f857600080fd5b50610301610a9b565b60405161030e919061401f565b60405180910390f35b34801561032357600080fd5b5061033e60048036038101906103399190613dc4565b610aa4565b60405161034b9190613f95565b60405180910390f35b34801561036057600080fd5b50610369610b8c565b6040516103769190613cfa565b60405180910390f35b610399600480360381019061039491906140f4565b610bc9565b005b3480156103a757600080fd5b506103b0610be8565b6040516103bd9190614169565b60405180910390f35b3480156103d257600080fd5b506103db610c1b565b6040516103e89190613cfa565b60405180910390f35b3480156103fd57600080fd5b5061041860048036038101906104139190614184565b610ca9565b60405161042591906141c0565b60405180910390f35b34801561043a57600080fd5b5061045560048036038101906104509190614184565b610d20565b005b34801561046357600080fd5b5061047e60048036038101906104799190614184565b610d3a565b60405161048b91906141fa565b60405180910390f35b3480156104a057600080fd5b506104bb60048036038101906104b69190614184565b610d4c565b6040516104c89190613f95565b60405180910390f35b3480156104dd57600080fd5b506104e6610da3565b005b3480156104f457600080fd5b506104fd610db7565b005b34801561050b57600080fd5b5061052660048036038101906105219190614184565b610e46565b6040516105339190613f95565b60405180910390f35b34801561054857600080fd5b50610551610e9d565b604051610564979695949392919061430e565b60405180910390f35b34801561057957600080fd5b50610582610faf565b60405161058f91906141c0565b60405180910390f35b3480156105a457600080fd5b506105bf60048036038101906105ba9190614392565b610fe7565b6040516105cc9190613f95565b60405180910390f35b3480156105e157600080fd5b506105ea611091565b6040516105f791906143e0565b60405180910390f35b34801561060c57600080fd5b50610615611099565b6040516106229190613cfa565b60405180910390f35b34801561063757600080fd5b50610652600480360381019061064d9190614184565b61113a565b60405161065f9190613f95565b60405180910390f35b34801561067457600080fd5b5061068f600480360381019061068a9190613dc4565b6111b4565b60405161069c9190613e1f565b60405180910390f35b3480156106b157600080fd5b506106ba6111e8565b6040516106c79190613cfa565b60405180910390f35b3480156106dc57600080fd5b506106e5611221565b6040516106f291906141c0565b60405180910390f35b34801561070757600080fd5b50610722600480360381019061071d9190614453565b611245565b005b34801561073057600080fd5b5061074b60048036038101906107469190614184565b61130b565b005b34801561075957600080fd5b50610774600480360381019061076f91906144e0565b61166d565b6040516107819190613f95565b60405180910390f35b34801561079657600080fd5b5061079f611702565b6040516107ac91906141c0565b60405180910390f35b3480156107c157600080fd5b506107dc60048036038101906107d7919061454c565b61173a565b6040516107e991906145ff565b60405180910390f35b3480156107fe57600080fd5b5061081960048036038101906108149190614184565b611754565b005b60606000610827611810565b905080600301805461083890614649565b80601f016020809104026020016040519081016040528092919081815260200182805461086490614649565b80156108b15780601f10610886576101008083540402835291602001916108b1565b820191906000526020600020905b81548152906001019060200180831161089457829003601f168201915b505050505091505090565b60006040517feb60c2c400000000000000000000000000000000000000000000000000000000815260040160405180910390fd5b60008054906101000a900473ffffffffffffffffffffffffffffffffffffffff1673ffffffffffffffffffffffffffffffffffffffff163373ffffffffffffffffffffffffffffffffffffffff161461097e576040517f08c379a000000000000000000000000000000000000000000000000000000000815260040161097590614712565b60405180910390fd5b600073ffffffffffffffffffffffffffffffffffffffff168373ffffffffffffffffffffffffffffffffffffffff16036109ed576040517f08c379a00000000000000000000000000000000000000000000000000000000081526004016109e4906147a4565b60405180910390fd5b60006109f882611838565b90506000610a0584611838565b905080821115610a2957610a24858284610a1f91906147f3565b61188a565b610a48565b80821015610a4757610a46858383610a4191906147f3565b61190c565b5b5b5050505050565b600080610a5a611810565b9050806002015491505090565b60006040517fa24e573d00000000000000000000000000000000000000000000000000000000815260040160405180910390fd5b60006012905090565b600080610aaf61198e565b90506000610abb611091565b90508065ffffffffffff168410610b0b5783816040517fecd3f81e000000000000000000000000000000000000000000000000000000008152600401610b02929190614827565b60405180910390fd5b610b66610b17856119b6565b8360010160008873ffffffffffffffffffffffffffffffffffffffff1673ffffffffffffffffffffffffffffffffffffffff168152602001908152602001600020611a1090919063ffffffff16565b79ffffffffffffffffffffffffffffffffffffffffffffffffffff169250505092915050565b60606040518060400160405280600e81526020017f6d6f64653d74696d657374616d70000000000000000000000000000000000000815250905090565b610bd1611b0a565b610bda82611bf0565b610be48282611bfb565b5050565b6000610bf2611d1a565b7f360894a13ba1a3210667c828492db98dca3e2076cc3735a920a3ca505d382bbc60001b905090565b60018054610c2890614649565b80601f0160208091040260200160405190810160405280929190818152602001828054610c5490614649565b8015610ca15780601f10610c7657610100808354040283529160200191610ca1565b820191906000526020600020905b815481529060010190602001808311610c8457829003601f168201915b505050505081565b600080610cb461198e565b90508060000160008473ffffffffffffffffffffffffffffffffffffffff1673ffffffffffffffffffffffffffffffffffffffff16815260200190815260200160002060009054906101000a900473ffffffffffffffffffffffffffffffffffffffff16915050919050565b6000610d2a611da1565b9050610d368183611da9565b5050565b6000610d4582611ecc565b9050919050565b600080610d57611810565b90508060000160008473ffffffffffffffffffffffffffffffffffffffff1673ffffffffffffffffffffffffffffffffffffffff16815260200190815260200160002054915050919050565b610dab611f32565b610db56000611fb9565b565b6000610dc1611da1565b90508073ffffffffffffffffffffffffffffffffffffffff16610de2611702565b73ffffffffffffffffffffffffffffffffffffffff1614610e3a57806040517f118cdaa7000000000000000000000000000000000000000000000000000000008152600401610e3191906141c0565b60405180910390fd5b610e4381611fb9565b50565b600080610e51611ff9565b90508060000160008473ffffffffffffffffffffffffffffffffffffffff1673ffffffffffffffffffffffffffffffffffffffff16815260200190815260200160002054915050919050565b6000606080600080600060606000610eb3612021565b90506000801b8160000154148015610ed157506000801b8160010154145b610f10576040517f08c379a0000000000000000000000000000000000000000000000000000000008152600401610f079061489c565b60405180910390fd5b610f18612049565b610f206120ea565b46306000801b600067ffffffffffffffff811115610f4157610f40613e3f565b5b604051908082528060200260200182016040528015610f6f5781602001602082028036833780820191505090505b507f0f0000000000000000000000000000000000000000000000000000000000000095949392919097509750975097509750975097505090919293949596565b600080610fba61218b565b90508060000160009054906101000a900473ffffffffffffffffffffffffffffffffffffffff1691505090565b600080610ff261198e565b90506000610ffe611091565b90508065ffffffffffff16841061104e5783816040517fecd3f81e000000000000000000000000000000000000000000000000000000008152600401611045929190614827565b60405180910390fd5b61106c61105a856119b6565b83600201611a1090919063ffffffff16565b79ffffffffffffffffffffffffffffffffffffffffffffffffffff1692505050919050565b600042905090565b606060006110a5611810565b90508060040180546110b690614649565b80601f01602080910402602001604051908101604052809291908181526020018280546110e290614649565b801561112f5780601f106111045761010080835404028352916020019161112f565b820191906000526020600020905b81548152906001019060200180831161111257829003601f168201915b505050505091505090565b60008061114561198e565b90506111908160010160008573ffffffffffffffffffffffffffffffffffffffff1673ffffffffffffffffffffffffffffffffffffffff1681526020019081526020016000206121b3565b79ffffffffffffffffffffffffffffffffffffffffffffffffffff16915050919050565b60006040517fa24e573d00000000000000000000000000000000000000000000000000000000815260040160405180910390fd5b6040518060400160405280600581526020017f352e302e3000000000000000000000000000000000000000000000000000000081525081565b60008054906101000a900473ffffffffffffffffffffffffffffffffffffffff1681565b8342111561128a57836040517f4683af0e0000000000000000000000000000000000000000000000000000000081526004016112819190613f95565b60405180910390fd5b60006112ec6112e47fe48329057bfd03d55e49b547132e39cffd9c1820ad7b9d4c5307691425d15adf8989896040516020016112c994939291906148bc565b6040516020818303038152906040528051906020012061221b565b858585612235565b90506112f88187612265565b6113028188611da9565b50505050505050565b60006113156122bd565b905060008160000160089054906101000a900460ff1615905060008260000160009054906101000a900467ffffffffffffffff1690506000808267ffffffffffffffff161480156113635750825b9050600060018367ffffffffffffffff16148015611398575060003073ffffffffffffffffffffffffffffffffffffffff163b145b9050811580156113a6575080155b156113dd576040517ff92ee8a900000000000000000000000000000000000000000000000000000000815260040160405180910390fd5b60018560000160006101000a81548167ffffffffffffffff021916908367ffffffffffffffff160217905550831561142d5760018560000160086101000a81548160ff0219169083151502179055505b600073ffffffffffffffffffffffffffffffffffffffff168673ffffffffffffffffffffffffffffffffffffffff160361149c576040517f08c379a000000000000000000000000000000000000000000000000000000000815260040161149390614973565b60405180910390fd5b6114a46122e5565b6114ad336122ef565b6115216040518060400160405280601181526020017f4c69736b20566f74696e6720506f7765720000000000000000000000000000008152506040518060400160405280600581526020017f76704c534b000000000000000000000000000000000000000000000000000000815250612303565b611529612319565b856000806101000a81548173ffffffffffffffffffffffffffffffffffffffff021916908373ffffffffffffffffffffffffffffffffffffffff1602179055506040518060400160405280600581526020017f312e302e30000000000000000000000000000000000000000000000000000000815250600190816115ad9190614b3f565b508573ffffffffffffffffffffffffffffffffffffffff16600073ffffffffffffffffffffffffffffffffffffffff167fecc30bcf908eae6ef06b6d3cd3b86ceffa1a42c05bd5b69e27bc9c31f43860d860405160405180910390a383156116655760008560000160086101000a81548160ff0219169083151502179055507fc7f505b2f371ae2175ee4913f4499e1f2633a7b5936321eed1cdaeb6115181d2600160405161165c9190614c60565b60405180910390a15b505050505050565b600080611678611810565b90508060010160008573ffffffffffffffffffffffffffffffffffffffff1673ffffffffffffffffffffffffffffffffffffffff16815260200190815260200160002060008473ffffffffffffffffffffffffffffffffffffffff1673ffffffffffffffffffffffffffffffffffffffff1681526020019081526020016000205491505092915050565b60008061170d612323565b90508060000160009054906101000a900473ffffffffffffffffffffffffffffffffffffffff1691505090565b611742613c2c565b61174c838361234b565b905092915050565b61175c611f32565b6000611766612323565b9050818160000160006101000a81548173ffffffffffffffffffffffffffffffffffffffff021916908373ffffffffffffffffffffffffffffffffffffffff1602179055508173ffffffffffffffffffffffffffffffffffffffff166117ca610faf565b73ffffffffffffffffffffffffffffffffffffffff167f38d16b8cac22d99fc7c124b9cd0de2d3fa1faef420bfe791d8c362d765e2270060405160405180910390a35050565b60007f52c63247e1f47db19d5ce0460030c497f067ca4cebf71ba98eeadabe20bace00905090565b6000808260600151111561187d5761016d8260600151836020015161185d9190614c7b565b6118679190614cec565b82602001516118769190614d1d565b9050611885565b816020015190505b919050565b600073ffffffffffffffffffffffffffffffffffffffff168273ffffffffffffffffffffffffffffffffffffffff16036118fc5760006040517fec442f050000000000000000000000000000000000000000000000000000000081526004016118f391906141c0565b60405180910390fd5b611908600083836123bb565b5050565b600073ffffffffffffffffffffffffffffffffffffffff168273ffffffffffffffffffffffffffffffffffffffff160361197e5760006040517f96c6fd1e00000000000000000000000000000000000000000000000000000000815260040161197591906141c0565b60405180910390fd5b61198a826000836123bb565b5050565b60007fe8b26c30fad74198956032a3533d903385d56dd795af560196f9c78d4af40d00905090565b600065ffffffffffff8016821115611a08576030826040517f6dfcc6500000000000000000000000000000000000000000000000000000000081526004016119ff929190614d8c565b60405180910390fd5b819050919050565b600080836000018054905090506000808290506005831115611a98576000611a378461246c565b84611a4291906147f3565b9050611a518760000182612565565b60000160009054906101000a900465ffffffffffff1665ffffffffffff168665ffffffffffff161015611a8657809150611a96565b600181611a939190614d1d565b92505b505b6000611aa98760000187858561257a565b905060008114611afb57611acc87600001600183611ac791906147f3565b612565565b60000160069054906101000a900479ffffffffffffffffffffffffffffffffffffffffffffffffffff16611afe565b60005b94505050505092915050565b7f000000000000000000000000000000000000000000000000000000000000000073ffffffffffffffffffffffffffffffffffffffff163073ffffffffffffffffffffffffffffffffffffffff161480611bb757507f000000000000000000000000000000000000000000000000000000000000000073ffffffffffffffffffffffffffffffffffffffff16611b9e6125f3565b73ffffffffffffffffffffffffffffffffffffffff1614155b15611bee576040517fe07c8dba00000000000000000000000000000000000000000000000000000000815260040160405180910390fd5b565b611bf8611f32565b50565b8173ffffffffffffffffffffffffffffffffffffffff166352d1902d6040518163ffffffff1660e01b8152600401602060405180830381865afa925050508015611c6357506040513d601f19601f82011682018060405250810190611c609190614dca565b60015b611ca457816040517f4c9c8ce3000000000000000000000000000000000000000000000000000000008152600401611c9b91906141c0565b60405180910390fd5b7f360894a13ba1a3210667c828492db98dca3e2076cc3735a920a3ca505d382bbc60001b8114611d0b57806040517faa1d49a4000000000000000000000000000000000000000000000000000000008152600401611d029190614169565b60405180910390fd5b611d15838361264a565b505050565b7f000000000000000000000000000000000000000000000000000000000000000073ffffffffffffffffffffffffffffffffffffffff163073ffffffffffffffffffffffffffffffffffffffff1614611d9f576040517fe07c8dba00000000000000000000000000000000000000000000000000000000815260040160405180910390fd5b565b600033905090565b6000611db361198e565b90506000611dc084610ca9565b9050828260000160008673ffffffffffffffffffffffffffffffffffffffff1673ffffffffffffffffffffffffffffffffffffffff16815260200190815260200160002060006101000a81548173ffffffffffffffffffffffffffffffffffffffff021916908373ffffffffffffffffffffffffffffffffffffffff1602179055508273ffffffffffffffffffffffffffffffffffffffff168173ffffffffffffffffffffffffffffffffffffffff168573ffffffffffffffffffffffffffffffffffffffff167f3134e8a2e6d97e929a7e54011ea5485d7d196dd5f0ba4d4ef95803e8e3fc257f60405160405180910390a4611ec68184611ec1876126bd565b6126cf565b50505050565b600080611ed761198e565b9050611f2a611f258260010160008673ffffffffffffffffffffffffffffffffffffffff1673ffffffffffffffffffffffffffffffffffffffff168152602001908152602001600020612959565b61296a565b915050919050565b611f3a611da1565b73ffffffffffffffffffffffffffffffffffffffff16611f58610faf565b73ffffffffffffffffffffffffffffffffffffffff1614611fb757611f7b611da1565b6040517f118cdaa7000000000000000000000000000000000000000000000000000000008152600401611fae91906141c0565b60405180910390fd5b565b6000611fc3612323565b90508060000160006101000a81549073ffffffffffffffffffffffffffffffffffffffff0219169055611ff5826129c2565b5050565b60007f5ab42ced628888259c08ac98db1eb0cf702fc1501344311d8b100cd1bfe4bb00905090565b60007fa16a46d94261c7517cc8ff89f61c0ce93598e3c849801011dee649a6a557d100905090565b60606000612055612021565b905080600201805461206690614649565b80601f016020809104026020016040519081016040528092919081815260200182805461209290614649565b80156120df5780601f106120b4576101008083540402835291602001916120df565b820191906000526020600020905b8154815290600101906020018083116120c257829003601f168201915b505050505091505090565b606060006120f6612021565b905080600301805461210790614649565b80601f016020809104026020016040519081016040528092919081815260200182805461213390614649565b80156121805780601f1061215557610100808354040283529160200191612180565b820191906000526020600020905b81548152906001019060200180831161216357829003601f168201915b505050505091505090565b60007f9016d09d72d40fdae2fd8ceac6b6234c7706214fd39c1cd1e609a0528c199300905090565b6000808260000180549050905060008114612210576121e1836000016001836121dc91906147f3565b612565565b60000160069054906101000a900479ffffffffffffffffffffffffffffffffffffffffffffffffffff16612213565b60005b915050919050565b600061222e612228612a99565b83612aa8565b9050919050565b60008060008061224788888888612ae9565b9250925092506122578282612bdd565b829350505050949350505050565b600061227083612d41565b90508082146122b85782816040517f752d88c00000000000000000000000000000000000000000000000000000000081526004016122af929190614df7565b60405180910390fd5b505050565b60007ff0c57e16840df040f15088dc2f81fe391c3923bec73e23a9662efc9c229c6a00905090565b6122ed612da6565b565b6122f7612da6565b61230081612de6565b50565b61230b612da6565b6123158282612e6c565b5050565b612321612da6565b565b60007f237e158222e3e6968b72b9db0d8043aacf074ad9f650f0d1606b4d82ee432c00905090565b612353613c2c565b600061235d61198e565b90506123b2838260010160008773ffffffffffffffffffffffffffffffffffffffff1673ffffffffffffffffffffffffffffffffffffffff168152602001908152602001600020612ea990919063ffffffff16565b91505092915050565b6123c6838383612f7e565b600073ffffffffffffffffffffffffffffffffffffffff168373ffffffffffffffffffffffffffffffffffffffff160361245c576000612404610a4f565b905060006124106131bd565b9050808211156124595781816040517f1cb15d26000000000000000000000000000000000000000000000000000000008152600401612450929190614e20565b60405180910390fd5b50505b6124678383836131e1565b505050565b600080820361247e5760009050612560565b6000600161248b846132ac565b901c6001901b905060018184816124a5576124a4614cbd565b5b048201901c905060018184816124be576124bd614cbd565b5b048201901c905060018184816124d7576124d6614cbd565b5b048201901c905060018184816124f0576124ef614cbd565b5b048201901c9050600181848161250957612508614cbd565b5b048201901c9050600181848161252257612521614cbd565b5b048201901c9050600181848161253b5761253a614cbd565b5b048201901c905061255c8182858161255657612555614cbd565b5b0461338d565b9150505b919050565b60008260005281602060002001905092915050565b60005b818310156125e857600061259184846133a6565b90508465ffffffffffff166125a68783612565565b60000160009054906101000a900465ffffffffffff1665ffffffffffff1611156125d2578092506125e2565b6001816125df9190614d1d565b93505b5061257d565b819050949350505050565b60006126217f360894a13ba1a3210667c828492db98dca3e2076cc3735a920a3ca505d382bbc60001b6133cc565b60000160009054906101000a900473ffffffffffffffffffffffffffffffffffffffff16905090565b612653826133d6565b8173ffffffffffffffffffffffffffffffffffffffff167fbc7cd75a20ee27fd9adebab32041f755214dbc6bffa90cc0225b39da2e5c2d3b60405160405180910390a26000815111156126b0576126aa82826134a3565b506126b9565b6126b8613527565b5b5050565b60006126c882610d4c565b9050919050565b60006126d961198e565b90508273ffffffffffffffffffffffffffffffffffffffff168473ffffffffffffffffffffffffffffffffffffffff16141580156127175750600082115b1561295357600073ffffffffffffffffffffffffffffffffffffffff168473ffffffffffffffffffffffffffffffffffffffff1614612837576000806127a88360010160008873ffffffffffffffffffffffffffffffffffffffff1673ffffffffffffffffffffffffffffffffffffffff1681526020019081526020016000206135646127a38761357a565b6135e8565b79ffffffffffffffffffffffffffffffffffffffffffffffffffff16915079ffffffffffffffffffffffffffffffffffffffffffffffffffff1691508573ffffffffffffffffffffffffffffffffffffffff167fdec2bacdd2f05b59de34da9b523dff8be42e5e38e818c82fdb0bae774387a724838360405161282c929190614e20565b60405180910390a250505b600073ffffffffffffffffffffffffffffffffffffffff168373ffffffffffffffffffffffffffffffffffffffff1614612952576000806128c38360010160008773ffffffffffffffffffffffffffffffffffffffff1673ffffffffffffffffffffffffffffffffffffffff1681526020019081526020016000206136286128be8761357a565b6135e8565b79ffffffffffffffffffffffffffffffffffffffffffffffffffff16915079ffffffffffffffffffffffffffffffffffffffffffffffffffff1691508473ffffffffffffffffffffffffffffffffffffffff167fdec2bacdd2f05b59de34da9b523dff8be42e5e38e818c82fdb0bae774387a7248383604051612947929190614e20565b60405180910390a250505b5b50505050565b600081600001805490509050919050565b600063ffffffff80168211156129ba576020826040517f6dfcc6500000000000000000000000000000000000000000000000000000000081526004016129b1929190614e84565b60405180910390fd5b819050919050565b60006129cc61218b565b905060008160000160009054906101000a900473ffffffffffffffffffffffffffffffffffffffff169050828260000160006101000a81548173ffffffffffffffffffffffffffffffffffffffff021916908373ffffffffffffffffffffffffffffffffffffffff1602179055508273ffffffffffffffffffffffffffffffffffffffff168173ffffffffffffffffffffffffffffffffffffffff167f8be0079c531659141344cd1fd0a4f28419497f9722a3daafe3b4186f6b6457e060405160405180910390a3505050565b6000612aa361363e565b905090565b60006040517f190100000000000000000000000000000000000000000000000000000000000081528360028201528260228201526042812091505092915050565b60008060007f7fffffffffffffffffffffffffffffff5d576e7357a4501ddfe92f46681b20a08460001c1115612b29576000600385925092509250612bd3565b600060018888888860405160008152602001604052604051612b4e9493929190614ead565b6020604051602081039080840390855afa158015612b70573d6000803e3d6000fd5b505050602060405103519050600073ffffffffffffffffffffffffffffffffffffffff168173ffffffffffffffffffffffffffffffffffffffff1603612bc457600060016000801b93509350935050612bd3565b8060008060001b935093509350505b9450945094915050565b60006003811115612bf157612bf0614ef2565b5b826003811115612c0457612c03614ef2565b5b0315612d3d5760016003811115612c1e57612c1d614ef2565b5b826003811115612c3157612c30614ef2565b5b03612c68576040517ff645eedf00000000000000000000000000000000000000000000000000000000815260040160405180910390fd5b60026003811115612c7c57612c7b614ef2565b5b826003811115612c8f57612c8e614ef2565b5b03612cd4578060001c6040517ffce698f7000000000000000000000000000000000000000000000000000000008152600401612ccb9190613f95565b60405180910390fd5b600380811115612ce757612ce6614ef2565b5b826003811115612cfa57612cf9614ef2565b5b03612d3c57806040517fd78bce0c000000000000000000000000000000000000000000000000000000008152600401612d339190614169565b60405180910390fd5b5b5050565b600080612d4c611ff9565b90508060000160008473ffffffffffffffffffffffffffffffffffffffff1673ffffffffffffffffffffffffffffffffffffffff168152602001908152602001600020600081548092919060010191905055915050919050565b612dae6136a2565b612de4576040517fd7e6bcf800000000000000000000000000000000000000000000000000000000815260040160405180910390fd5b565b612dee612da6565b600073ffffffffffffffffffffffffffffffffffffffff168173ffffffffffffffffffffffffffffffffffffffff1603612e605760006040517f1e4fbdf7000000000000000000000000000000000000000000000000000000008152600401612e5791906141c0565b60405180910390fd5b612e6981611fb9565b50565b612e74612da6565b6000612e7e611810565b905082816003019081612e919190614b3f565b5081816004019081612ea39190614b3f565b50505050565b612eb1613c2c565b826000018263ffffffff1681548110612ecd57612ecc614f21565b5b906000526020600020016040518060400160405290816000820160009054906101000a900465ffffffffffff1665ffffffffffff1665ffffffffffff1681526020016000820160069054906101000a900479ffffffffffffffffffffffffffffffffffffffffffffffffffff1679ffffffffffffffffffffffffffffffffffffffffffffffffffff1679ffffffffffffffffffffffffffffffffffffffffffffffffffff1681525050905092915050565b6000612f88611810565b9050600073ffffffffffffffffffffffffffffffffffffffff168473ffffffffffffffffffffffffffffffffffffffff1603612fde5781816002016000828254612fd29190614d1d565b925050819055506130b7565b60008160000160008673ffffffffffffffffffffffffffffffffffffffff1673ffffffffffffffffffffffffffffffffffffffff1681526020019081526020016000205490508281101561306d578481846040517fe450d38c00000000000000000000000000000000000000000000000000000000815260040161306493929190614f50565b60405180910390fd5b8281038260000160008773ffffffffffffffffffffffffffffffffffffffff1673ffffffffffffffffffffffffffffffffffffffff16815260200190815260200160002081905550505b600073ffffffffffffffffffffffffffffffffffffffff168373ffffffffffffffffffffffffffffffffffffffff160361310257818160020160008282540392505081905550613152565b818160000160008573ffffffffffffffffffffffffffffffffffffffff1673ffffffffffffffffffffffffffffffffffffffff168152602001908152602001600020600082825401925050819055505b8273ffffffffffffffffffffffffffffffffffffffff168473ffffffffffffffffffffffffffffffffffffffff167fddf252ad1be2c89b69c2b068fc378daa952ba7f163c4a11628f55a4df523b3ef846040516131af9190613f95565b60405180910390a350505050565b600079ffffffffffffffffffffffffffffffffffffffffffffffffffff8016905090565b60006131eb61198e565b9050600073ffffffffffffffffffffffffffffffffffffffff168473ffffffffffffffffffffffffffffffffffffffff160361323c57613239816002016136286132348561357a565b6135e8565b50505b600073ffffffffffffffffffffffffffffffffffffffff168373ffffffffffffffffffffffffffffffffffffffff160361328b57613288816002016135646132838561357a565b6135e8565b50505b6132a661329785610ca9565b6132a085610ca9565b846126cf565b50505050565b600080600090506000608084901c11156132ce57608083901c92506080810190505b6000604084901c11156132e957604083901c92506040810190505b6000602084901c111561330457602083901c92506020810190505b6000601084901c111561331f57601083901c92506010810190505b6000600884901c111561333a57600883901c92506008810190505b6000600484901c111561335557600483901c92506004810190505b6000600284901c111561337057600283901c92506002810190505b6000600184901c1115613384576001810190505b80915050919050565b600081831061339c578161339e565b825b905092915050565b600060028284186133b79190614cec565b8284166133c49190614d1d565b905092915050565b6000819050919050565b60008173ffffffffffffffffffffffffffffffffffffffff163b0361343257806040517f4c9c8ce300000000000000000000000000000000000000000000000000000000815260040161342991906141c0565b60405180910390fd5b8061345f7f360894a13ba1a3210667c828492db98dca3e2076cc3735a920a3ca505d382bbc60001b6133cc565b60000160006101000a81548173ffffffffffffffffffffffffffffffffffffffff021916908373ffffffffffffffffffffffffffffffffffffffff16021790555050565b60606000808473ffffffffffffffffffffffffffffffffffffffff16846040516134cd9190614fce565b600060405180830381855af49150503d8060008114613508576040519150601f19603f3d011682016040523d82523d6000602084013e61350d565b606091505b509150915061351d8583836136c2565b9250505092915050565b6000341115613562576040517fb398979f00000000000000000000000000000000000000000000000000000000815260040160405180910390fd5b565b600081836135729190614fe5565b905092915050565b600079ffffffffffffffffffffffffffffffffffffffffffffffffffff80168211156135e05760d0826040517f6dfcc6500000000000000000000000000000000000000000000000000000000081526004016135d792919061506e565b60405180910390fd5b819050919050565b60008061361c6135f6611091565b61360c613602886121b3565b868863ffffffff16565b876137519092919063ffffffff16565b91509150935093915050565b600081836136369190615097565b905092915050565b60007f8b73c3c69bb8fe3d512ecc4cf759cc79239f7b179b0ffacaa9a75d522b39400f61366961376e565b6136716137ea565b46306040516020016136879594939291906150e5565b60405160208183030381529060405280519060200120905090565b60006136ac6122bd565b60000160089054906101000a900460ff16905090565b6060826136d7576136d282613866565b613749565b600082511480156136ff575060008473ffffffffffffffffffffffffffffffffffffffff163b145b1561374157836040517f9996b31500000000000000000000000000000000000000000000000000000000815260040161373891906141c0565b60405180910390fd5b81905061374a565b5b9392505050565b6000806137628560000185856138ab565b91509150935093915050565b600080613779612021565b90506000613785612049565b90506000815111156137a2578080519060200120925050506137e7565b6000826000015490506000801b81146137c0578093505050506137e7565b7fc5d2460186f7233c927e7db2dcc703c0e500b653ca82273b7bfad8045d85a47093505050505b90565b6000806137f5612021565b905060006138016120ea565b905060008151111561381e57808051906020012092505050613863565b6000826001015490506000801b811461383c57809350505050613863565b7fc5d2460186f7233c927e7db2dcc703c0e500b653ca82273b7bfad8045d85a47093505050505b90565b6000815111156138795780518082602001fd5b6040517f1425ea4200000000000000000000000000000000000000000000000000000000815260040160405180910390fd5b6000806000858054905090506000811115613b3c5760006138d8876001846138d391906147f3565b612565565b6040518060400160405290816000820160009054906101000a900465ffffffffffff1665ffffffffffff1665ffffffffffff1681526020016000820160069054906101000a900479ffffffffffffffffffffffffffffffffffffffffffffffffffff1679ffffffffffffffffffffffffffffffffffffffffffffffffffff1679ffffffffffffffffffffffffffffffffffffffffffffffffffff168152505090508565ffffffffffff16816000015165ffffffffffff1611156139c7576040517f2520601d00000000000000000000000000000000000000000000000000000000815260040160405180910390fd5b8565ffffffffffff16816000015165ffffffffffff1603613a4b57846139f9886001856139f491906147f3565b612565565b60000160066101000a81548179ffffffffffffffffffffffffffffffffffffffffffffffffffff021916908379ffffffffffffffffffffffffffffffffffffffffffffffffffff160217905550613b2b565b8660405180604001604052808865ffffffffffff1681526020018779ffffffffffffffffffffffffffffffffffffffffffffffffffff168152509080600181540180825580915050600190039060005260206000200160009091909190915060008201518160000160006101000a81548165ffffffffffff021916908365ffffffffffff16021790555060208201518160000160066101000a81548179ffffffffffffffffffffffffffffffffffffffffffffffffffff021916908379ffffffffffffffffffffffffffffffffffffffffffffffffffff16021790555050505b806020015185935093505050613c24565b8560405180604001604052808765ffffffffffff1681526020018679ffffffffffffffffffffffffffffffffffffffffffffffffffff168152509080600181540180825580915050600190039060005260206000200160009091909190915060008201518160000160006101000a81548165ffffffffffff021916908365ffffffffffff16021790555060208201518160000160066101000a81548179ffffffffffffffffffffffffffffffffffffffffffffffffffff021916908379ffffffffffffffffffffffffffffffffffffffffffffffffffff160217905550505060008492509250505b935093915050565b6040518060400160405280600065ffffffffffff168152602001600079ffffffffffffffffffffffffffffffffffffffffffffffffffff1681525090565b600081519050919050565b600082825260208201905092915050565b60005b83811015613ca4578082015181840152602081019050613c89565b60008484015250505050565b6000601f19601f8301169050919050565b6000613ccc82613c6a565b613cd68185613c75565b9350613ce6818560208601613c86565b613cef81613cb0565b840191505092915050565b60006020820190508181036000830152613d148184613cc1565b905092915050565b6000604051905090565b600080fd5b600080fd5b600073ffffffffffffffffffffffffffffffffffffffff82169050919050565b6000613d5b82613d30565b9050919050565b613d6b81613d50565b8114613d7657600080fd5b50565b600081359050613d8881613d62565b92915050565b6000819050919050565b613da181613d8e565b8114613dac57600080fd5b50565b600081359050613dbe81613d98565b92915050565b60008060408385031215613ddb57613dda613d26565b5b6000613de985828601613d79565b9250506020613dfa85828601613daf565b9150509250929050565b60008115159050919050565b613e1981613e04565b82525050565b6000602082019050613e346000830184613e10565b92915050565b600080fd5b7f4e487b7100000000000000000000000000000000000000000000000000000000600052604160045260246000fd5b613e7782613cb0565b810181811067ffffffffffffffff82111715613e9657613e95613e3f565b5b80604052505050565b6000613ea9613d1c565b9050613eb58282613e6e565b919050565b600060808284031215613ed057613ecf613e3a565b5b613eda6080613e9f565b90506000613eea84828501613d79565b6000830152506020613efe84828501613daf565b6020830152506040613f1284828501613daf565b6040830152506060613f2684828501613daf565b60608301525092915050565b60008060006101208486031215613f4c57613f4b613d26565b5b6000613f5a86828701613d79565b9350506020613f6b86828701613eba565b92505060a0613f7c86828701613eba565b9150509250925092565b613f8f81613d8e565b82525050565b6000602082019050613faa6000830184613f86565b92915050565b600080600060608486031215613fc957613fc8613d26565b5b6000613fd786828701613d79565b9350506020613fe886828701613d79565b9250506040613ff986828701613daf565b9150509250925092565b600060ff82169050919050565b61401981614003565b82525050565b60006020820190506140346000830184614010565b92915050565b600080fd5b600080fd5b600067ffffffffffffffff82111561405f5761405e613e3f565b5b61406882613cb0565b9050602081019050919050565b82818337600083830152505050565b600061409761409284614044565b613e9f565b9050828152602081018484840111156140b3576140b261403f565b5b6140be848285614075565b509392505050565b600082601f8301126140db576140da61403a565b5b81356140eb848260208601614084565b91505092915050565b6000806040838503121561410b5761410a613d26565b5b600061411985828601613d79565b925050602083013567ffffffffffffffff81111561413a57614139613d2b565b5b614146858286016140c6565b9150509250929050565b6000819050919050565b61416381614150565b82525050565b600060208201905061417e600083018461415a565b92915050565b60006020828403121561419a57614199613d26565b5b60006141a884828501613d79565b91505092915050565b6141ba81613d50565b82525050565b60006020820190506141d560008301846141b1565b92915050565b600063ffffffff82169050919050565b6141f4816141db565b82525050565b600060208201905061420f60008301846141eb565b92915050565b60007fff0000000000000000000000000000000000000000000000000000000000000082169050919050565b61424a81614215565b82525050565b600081519050919050565b600082825260208201905092915050565b6000819050602082019050919050565b61428581613d8e565b82525050565b6000614297838361427c565b60208301905092915050565b6000602082019050919050565b60006142bb82614250565b6142c5818561425b565b93506142d08361426c565b8060005b838110156143015781516142e8888261428b565b97506142f3836142a3565b9250506001810190506142d4565b5085935050505092915050565b600060e082019050614323600083018a614241565b81810360208301526143358189613cc1565b905081810360408301526143498188613cc1565b90506143586060830187613f86565b61436560808301866141b1565b61437260a083018561415a565b81810360c083015261438481846142b0565b905098975050505050505050565b6000602082840312156143a8576143a7613d26565b5b60006143b684828501613daf565b91505092915050565b600065ffffffffffff82169050919050565b6143da816143bf565b82525050565b60006020820190506143f560008301846143d1565b92915050565b61440481614003565b811461440f57600080fd5b50565b600081359050614421816143fb565b92915050565b61443081614150565b811461443b57600080fd5b50565b60008135905061444d81614427565b92915050565b60008060008060008060c087890312156144705761446f613d26565b5b600061447e89828a01613d79565b965050602061448f89828a01613daf565b95505060406144a089828a01613daf565b94505060606144b189828a01614412565b93505060806144c289828a0161443e565b92505060a06144d389828a0161443e565b9150509295509295509295565b600080604083850312156144f7576144f6613d26565b5b600061450585828601613d79565b925050602061451685828601613d79565b9150509250929050565b614529816141db565b811461453457600080fd5b50565b60008135905061454681614520565b92915050565b6000806040838503121561456357614562613d26565b5b600061457185828601613d79565b925050602061458285828601614537565b9150509250929050565b614595816143bf565b82525050565b600079ffffffffffffffffffffffffffffffffffffffffffffffffffff82169050919050565b6145ca8161459b565b82525050565b6040820160008201516145e6600085018261458c565b5060208201516145f960208501826145c1565b50505050565b600060408201905061461460008301846145d0565b92915050565b7f4e487b7100000000000000000000000000000000000000000000000000000000600052602260045260246000fd5b6000600282049050600182168061466157607f821691505b6020821081036146745761467361461a565b5b50919050565b7f4c32566f74696e67506f7765723a206f6e6c79204c6f636b696e67506f73697460008201527f696f6e20636f6e74726163742063616e2063616c6c20746869732066756e637460208201527f696f6e0000000000000000000000000000000000000000000000000000000000604082015250565b60006146fc604383613c75565b91506147078261467a565b606082019050919050565b6000602082019050818103600083015261472b816146ef565b9050919050565b7f4c32566f74696e67506f7765723a206f776e657220616464726573732063616e60008201527f6e6f742062652030000000000000000000000000000000000000000000000000602082015250565b600061478e602883613c75565b915061479982614732565b604082019050919050565b600060208201905081810360008301526147bd81614781565b9050919050565b7f4e487b7100000000000000000000000000000000000000000000000000000000600052601160045260246000fd5b60006147fe82613d8e565b915061480983613d8e565b9250828203905081811115614821576148206147c4565b5b92915050565b600060408201905061483c6000830185613f86565b61484960208301846143d1565b9392505050565b7f4549503731323a20556e696e697469616c697a65640000000000000000000000600082015250565b6000614886601583613c75565b915061489182614850565b602082019050919050565b600060208201905081810360008301526148b581614879565b9050919050565b60006080820190506148d1600083018761415a565b6148de60208301866141b1565b6148eb6040830185613f86565b6148f86060830184613f86565b95945050505050565b7f4c32566f74696e67506f7765723a204c6f636b696e67506f736974696f6e206360008201527f6f6e747261637420616464726573732063616e6e6f7420626520300000000000602082015250565b600061495d603b83613c75565b915061496882614901565b604082019050919050565b6000602082019050818103600083015261498c81614950565b9050919050565b60008190508160005260206000209050919050565b60006020601f8301049050919050565b600082821b905092915050565b6000600883026149f57fffffffffffffffffffffffffffffffffffffffffffffffffffffffffffffffff826149b8565b6149ff86836149b8565b95508019841693508086168417925050509392505050565b6000819050919050565b6000614a3c614a37614a3284613d8e565b614a17565b613d8e565b9050919050565b6000819050919050565b614a5683614a21565b614a6a614a6282614a43565b8484546149c5565b825550505050565b600090565b614a7f614a72565b614a8a818484614a4d565b505050565b5b81811015614aae57614aa3600082614a77565b600181019050614a90565b5050565b601f821115614af357614ac481614993565b614acd846149a8565b81016020851015614adc578190505b614af0614ae8856149a8565b830182614a8f565b50505b505050565b600082821c905092915050565b6000614b1660001984600802614af8565b1980831691505092915050565b6000614b2f8383614b05565b9150826002028217905092915050565b614b4882613c6a565b67ffffffffffffffff811115614b6157614b60613e3f565b5b614b6b8254614649565b614b76828285614ab2565b600060209050601f831160018114614ba95760008415614b97578287015190505b614ba18582614b23565b865550614c09565b601f198416614bb786614993565b60005b82811015614bdf57848901518255600182019150602085019450602081019050614bba565b86831015614bfc5784890151614bf8601f891682614b05565b8355505b6001600288020188555050505b505050505050565b6000819050919050565b600067ffffffffffffffff82169050919050565b6000614c4a614c45614c4084614c11565b614a17565b614c1b565b9050919050565b614c5a81614c2f565b82525050565b6000602082019050614c756000830184614c51565b92915050565b6000614c8682613d8e565b9150614c9183613d8e565b9250828202614c9f81613d8e565b91508282048414831517614cb657614cb56147c4565b5b5092915050565b7f4e487b7100000000000000000000000000000000000000000000000000000000600052601260045260246000fd5b6000614cf782613d8e565b9150614d0283613d8e565b925082614d1257614d11614cbd565b5b828204905092915050565b6000614d2882613d8e565b9150614d3383613d8e565b9250828201905080821115614d4b57614d4a6147c4565b5b92915050565b6000819050919050565b6000614d76614d71614d6c84614d51565b614a17565b614003565b9050919050565b614d8681614d5b565b82525050565b6000604082019050614da16000830185614d7d565b614dae6020830184613f86565b9392505050565b600081519050614dc481614427565b92915050565b600060208284031215614de057614ddf613d26565b5b6000614dee84828501614db5565b91505092915050565b6000604082019050614e0c60008301856141b1565b614e196020830184613f86565b9392505050565b6000604082019050614e356000830185613f86565b614e426020830184613f86565b9392505050565b6000819050919050565b6000614e6e614e69614e6484614e49565b614a17565b614003565b9050919050565b614e7e81614e53565b82525050565b6000604082019050614e996000830185614e75565b614ea66020830184613f86565b9392505050565b6000608082019050614ec2600083018761415a565b614ecf6020830186614010565b614edc604083018561415a565b614ee9606083018461415a565b95945050505050565b7f4e487b7100000000000000000000000000000000000000000000000000000000600052602160045260246000fd5b7f4e487b7100000000000000000000000000000000000000000000000000000000600052603260045260246000fd5b6000606082019050614f6560008301866141b1565b614f726020830185613f86565b614f7f6040830184613f86565b949350505050565b600081519050919050565b600081905092915050565b6000614fa882614f87565b614fb28185614f92565b9350614fc2818560208601613c86565b80840191505092915050565b6000614fda8284614f9d565b915081905092915050565b6000614ff08261459b565b9150614ffb8361459b565b9250828203905079ffffffffffffffffffffffffffffffffffffffffffffffffffff81111561502d5761502c6147c4565b5b92915050565b6000819050919050565b600061505861505361504e84615033565b614a17565b614003565b9050919050565b6150688161503d565b82525050565b6000604082019050615083600083018561505f565b6150906020830184613f86565b9392505050565b60006150a28261459b565b91506150ad8361459b565b9250828201905079ffffffffffffffffffffffffffffffffffffffffffffffffffff8111156150df576150de6147c4565b5b92915050565b600060a0820190506150fa600083018861415a565b615107602083018761415a565b615114604083018661415a565b6151216060830185613f86565b61512e60808301846141b1565b969550505050505056fea2646970667358221220558aa6833510e79488302af9891c57cba3277f4e2977983019eeb4fa0d0f508064736f6c63430008170033",
  "linkReferences": {},
  "deployedLinkReferences": {}
}