{
  "_format": "hh-sol-artifact-1",
  "contractName": "L2Reward",
  "sourceName": "src/L2/L2Reward.sol",
  "abi": [
    {
      "inputs": [],
      "stateMutability": "nonpayable",
      "type": "constructor"
    },
    {
      "inputs": [
        {
          "internalType": "address",
          "name": "target",
          "type": "address"
        }
      ],
      "name": "AddressEmptyCode",
      "type": "error"
    },
    {
      "inputs": [
        {
          "internalType": "address",
          "name": "implementation",
          "type": "address"
        }
      ],
      "name": "ERC1967InvalidImplementation",
      "type": "error"
    },
    {
      "inputs": [],
      "name": "ERC1967NonPayable",
      "type": "error"
    },
    {
      "inputs": [],
      "name": "FailedInnerCall",
      "type": "error"
    },
    {
      "inputs": [],
      "name": "InvalidInitialization",
      "type": "error"
    },
    {
      "inputs": [],
      "name": "NotInitializing",
      "type": "error"
    },
    {
      "inputs": [
        {
          "internalType": "address",
          "name": "owner",
          "type": "address"
        }
      ],
      "name": "OwnableInvalidOwner",
      "type": "error"
    },
    {
      "inputs": [
        {
          "internalType": "address",
          "name": "account",
          "type": "address"
        }
      ],
      "name": "OwnableUnauthorizedAccount",
      "type": "error"
    },
    {
      "inputs": [],
      "name": "UUPSUnauthorizedCallContext",
      "type": "error"
    },
    {
      "inputs": [
        {
          "internalType": "bytes32",
          "name": "slot",
          "type": "bytes32"
        }
      ],
      "name": "UUPSUnsupportedProxiableUUID",
      "type": "error"
    },
    {
      "anonymous": false,
      "inputs": [
        {
          "indexed": true,
          "internalType": "uint256",
          "name": "lockID",
          "type": "uint256"
        }
      ],
      "name": "FastUnlockInitiated",
      "type": "event"
    },
    {
      "anonymous": false,
      "inputs": [
        {
          "indexed": false,
          "internalType": "uint64",
          "name": "version",
          "type": "uint64"
        }
      ],
      "name": "Initialized",
      "type": "event"
    },
    {
      "anonymous": false,
      "inputs": [
        {
          "indexed": true,
          "internalType": "address",
          "name": "oldAddress",
          "type": "address"
        },
        {
          "indexed": true,
          "internalType": "address",
          "name": "newAddress",
          "type": "address"
        }
      ],
      "name": "LiskTokenContractAddressChanged",
      "type": "event"
    },
    {
      "anonymous": false,
      "inputs": [
        {
          "indexed": true,
          "internalType": "uint256",
          "name": "lockID",
          "type": "uint256"
        },
        {
          "indexed": false,
          "internalType": "uint256",
          "name": "amountIncrease",
          "type": "uint256"
        }
      ],
      "name": "LockingAmountIncreased",
      "type": "event"
    },
    {
      "anonymous": false,
      "inputs": [
        {
          "indexed": true,
          "internalType": "uint256",
          "name": "lockID",
          "type": "uint256"
        },
        {
          "indexed": false,
          "internalType": "uint256",
          "name": "durationExtension",
          "type": "uint256"
        }
      ],
      "name": "LockingDurationExtended",
      "type": "event"
    },
    {
      "anonymous": false,
      "inputs": [
        {
          "indexed": true,
          "internalType": "address",
          "name": "oldAddress",
          "type": "address"
        },
        {
          "indexed": true,
          "internalType": "address",
          "name": "newAddress",
          "type": "address"
        }
      ],
      "name": "LockingPositionContractAddressChanged",
      "type": "event"
    },
    {
      "anonymous": false,
      "inputs": [
        {
          "indexed": true,
          "internalType": "uint256",
          "name": "lockID",
          "type": "uint256"
        }
      ],
      "name": "LockingPositionCreated",
      "type": "event"
    },
    {
      "anonymous": false,
      "inputs": [
        {
          "indexed": true,
          "internalType": "uint256",
          "name": "lockID",
          "type": "uint256"
        }
      ],
      "name": "LockingPositionDeleted",
      "type": "event"
    },
    {
      "anonymous": false,
      "inputs": [
        {
          "indexed": true,
          "internalType": "uint256",
          "name": "lockID",
          "type": "uint256"
        }
      ],
      "name": "LockingPositionPaused",
      "type": "event"
    },
    {
      "anonymous": false,
      "inputs": [
        {
          "indexed": true,
          "internalType": "address",
          "name": "previousOwner",
          "type": "address"
        },
        {
          "indexed": true,
          "internalType": "address",
          "name": "newOwner",
          "type": "address"
        }
      ],
      "name": "OwnershipTransferStarted",
      "type": "event"
    },
    {
      "anonymous": false,
      "inputs": [
        {
          "indexed": true,
          "internalType": "address",
          "name": "previousOwner",
          "type": "address"
        },
        {
          "indexed": true,
          "internalType": "address",
          "name": "newOwner",
          "type": "address"
        }
      ],
      "name": "OwnershipTransferred",
      "type": "event"
    },
    {
      "anonymous": false,
      "inputs": [
        {
          "indexed": true,
          "internalType": "uint256",
          "name": "amount",
          "type": "uint256"
        },
        {
          "indexed": true,
          "internalType": "uint256",
          "name": "duration",
          "type": "uint256"
        },
        {
          "indexed": true,
          "internalType": "uint256",
          "name": "delay",
          "type": "uint256"
        }
      ],
      "name": "RewardsAdded",
      "type": "event"
    },
    {
      "anonymous": false,
      "inputs": [
        {
          "indexed": true,
          "internalType": "uint256",
          "name": "lockID",
          "type": "uint256"
        },
        {
          "indexed": false,
          "internalType": "uint256",
          "name": "amount",
          "type": "uint256"
        }
      ],
      "name": "RewardsClaimed",
      "type": "event"
    },
    {
      "anonymous": false,
      "inputs": [
        {
          "indexed": true,
          "internalType": "address",
          "name": "oldAddress",
          "type": "address"
        },
        {
          "indexed": true,
          "internalType": "address",
          "name": "newAddress",
          "type": "address"
        }
      ],
      "name": "StakingContractAddressChanged",
      "type": "event"
    },
    {
      "anonymous": false,
      "inputs": [
        {
          "indexed": true,
          "internalType": "uint256",
          "name": "lockID",
          "type": "uint256"
        }
      ],
      "name": "UnlockingCountdownResumed",
      "type": "event"
    },
    {
      "anonymous": false,
      "inputs": [
        {
          "indexed": true,
          "internalType": "address",
          "name": "implementation",
          "type": "address"
        }
      ],
      "name": "Upgraded",
      "type": "event"
    },
    {
      "inputs": [],
      "name": "OFFSET",
      "outputs": [
        {
          "internalType": "uint256",
          "name": "",
          "type": "uint256"
        }
      ],
      "stateMutability": "view",
      "type": "function"
    },
    {
      "inputs": [],
      "name": "REWARD_DURATION",
      "outputs": [
        {
          "internalType": "uint16",
          "name": "",
          "type": "uint16"
        }
      ],
      "stateMutability": "view",
      "type": "function"
    },
    {
      "inputs": [],
      "name": "REWARD_DURATION_DELAY",
      "outputs": [
        {
          "internalType": "uint16",
          "name": "",
          "type": "uint16"
        }
      ],
      "stateMutability": "view",
      "type": "function"
    },
    {
      "inputs": [],
      "name": "UPGRADE_INTERFACE_VERSION",
      "outputs": [
        {
          "internalType": "string",
          "name": "",
          "type": "string"
        }
      ],
      "stateMutability": "view",
      "type": "function"
    },
    {
      "inputs": [],
      "name": "acceptOwnership",
      "outputs": [],
      "stateMutability": "nonpayable",
      "type": "function"
    },
    {
      "inputs": [
        {
          "internalType": "uint256",
          "name": "amount",
          "type": "uint256"
        },
        {
          "internalType": "uint16",
          "name": "duration",
          "type": "uint16"
        },
        {
          "internalType": "uint16",
          "name": "delay",
          "type": "uint16"
        }
      ],
      "name": "addUnusedRewards",
      "outputs": [],
      "stateMutability": "nonpayable",
      "type": "function"
    },
    {
      "inputs": [
        {
          "internalType": "uint256",
          "name": "lockID",
          "type": "uint256"
        }
      ],
      "name": "calculateRewards",
      "outputs": [
        {
          "internalType": "uint256",
          "name": "",
          "type": "uint256"
        }
      ],
      "stateMutability": "view",
      "type": "function"
    },
    {
      "inputs": [
        {
          "internalType": "uint256[]",
          "name": "lockIDs",
          "type": "uint256[]"
        }
      ],
      "name": "claimRewards",
      "outputs": [],
      "stateMutability": "nonpayable",
      "type": "function"
    },
    {
      "inputs": [
        {
          "internalType": "uint256",
          "name": "amount",
          "type": "uint256"
        },
        {
          "internalType": "uint256",
          "name": "duration",
          "type": "uint256"
        }
      ],
      "name": "createPosition",
      "outputs": [
        {
          "internalType": "uint256",
          "name": "",
          "type": "uint256"
        }
      ],
      "stateMutability": "nonpayable",
      "type": "function"
    },
    {
      "inputs": [
        {
          "internalType": "uint256",
          "name": "",
          "type": "uint256"
        }
      ],
      "name": "dailyRewards",
      "outputs": [
        {
          "internalType": "uint256",
          "name": "",
          "type": "uint256"
        }
      ],
      "stateMutability": "view",
      "type": "function"
    },
    {
      "inputs": [
        {
          "internalType": "uint256",
          "name": "",
          "type": "uint256"
        }
      ],
      "name": "dailyUnlockedAmounts",
      "outputs": [
        {
          "internalType": "uint256",
          "name": "",
          "type": "uint256"
        }
      ],
      "stateMutability": "view",
      "type": "function"
    },
    {
      "inputs": [
        {
          "internalType": "uint256[]",
          "name": "lockIDs",
          "type": "uint256[]"
        }
      ],
      "name": "deletePositions",
      "outputs": [],
      "stateMutability": "nonpayable",
      "type": "function"
    },
    {
      "inputs": [
        {
          "components": [
            {
              "internalType": "uint256",
              "name": "lockID",
              "type": "uint256"
            },
            {
              "internalType": "uint256",
              "name": "durationExtension",
              "type": "uint256"
            }
          ],
          "internalType": "struct L2Reward.ExtendedDuration[]",
          "name": "locks",
          "type": "tuple[]"
        }
      ],
      "name": "extendDuration",
      "outputs": [],
      "stateMutability": "nonpayable",
      "type": "function"
    },
    {
      "inputs": [
        {
          "internalType": "uint256",
          "name": "amount",
          "type": "uint256"
        },
        {
          "internalType": "uint16",
          "name": "duration",
          "type": "uint16"
        },
        {
          "internalType": "uint16",
          "name": "delay",
          "type": "uint16"
        }
      ],
      "name": "fundStakingRewards",
      "outputs": [],
      "stateMutability": "nonpayable",
      "type": "function"
    },
    {
      "inputs": [
        {
          "components": [
            {
              "internalType": "uint256",
              "name": "lockID",
              "type": "uint256"
            },
            {
              "internalType": "uint256",
              "name": "amountIncrease",
              "type": "uint256"
            }
          ],
          "internalType": "struct L2Reward.IncreasedAmount[]",
          "name": "locks",
          "type": "tuple[]"
        }
      ],
      "name": "increaseLockingAmount",
      "outputs": [],
      "stateMutability": "nonpayable",
      "type": "function"
    },
    {
      "inputs": [
        {
          "internalType": "address",
          "name": "_l2LiskTokenContract",
          "type": "address"
        }
      ],
      "name": "initialize",
      "outputs": [],
      "stateMutability": "nonpayable",
      "type": "function"
    },
    {
      "inputs": [
        {
          "internalType": "address",
          "name": "_lockingPositionContract",
          "type": "address"
        }
      ],
      "name": "initializeLockingPosition",
      "outputs": [],
      "stateMutability": "nonpayable",
      "type": "function"
    },
    {
      "inputs": [
        {
          "internalType": "address",
          "name": "_stakingContract",
          "type": "address"
        }
      ],
      "name": "initializeStaking",
      "outputs": [],
      "stateMutability": "nonpayable",
      "type": "function"
    },
    {
      "inputs": [
        {
          "internalType": "uint256[]",
          "name": "lockIDs",
          "type": "uint256[]"
        }
      ],
      "name": "initiateFastUnlock",
      "outputs": [],
      "stateMutability": "nonpayable",
      "type": "function"
    },
    {
      "inputs": [],
      "name": "l2TokenContract",
      "outputs": [
        {
          "internalType": "address",
          "name": "",
          "type": "address"
        }
      ],
      "stateMutability": "view",
      "type": "function"
    },
    {
      "inputs": [
        {
          "internalType": "uint256",
          "name": "",
          "type": "uint256"
        }
      ],
      "name": "lastClaimDate",
      "outputs": [
        {
          "internalType": "uint256",
          "name": "",
          "type": "uint256"
        }
      ],
      "stateMutability": "view",
      "type": "function"
    },
    {
      "inputs": [],
      "name": "lastTrsDate",
      "outputs": [
        {
          "internalType": "uint256",
          "name": "",
          "type": "uint256"
        }
      ],
      "stateMutability": "view",
      "type": "function"
    },
    {
      "inputs": [],
      "name": "lockingPositionContract",
      "outputs": [
        {
          "internalType": "address",
          "name": "",
          "type": "address"
        }
      ],
      "stateMutability": "view",
      "type": "function"
    },
    {
      "inputs": [],
      "name": "owner",
      "outputs": [
        {
          "internalType": "address",
          "name": "",
          "type": "address"
        }
      ],
      "stateMutability": "view",
      "type": "function"
    },
    {
      "inputs": [
        {
          "internalType": "uint256[]",
          "name": "lockIDs",
          "type": "uint256[]"
        }
      ],
      "name": "pauseUnlocking",
      "outputs": [],
      "stateMutability": "nonpayable",
      "type": "function"
    },
    {
      "inputs": [],
      "name": "pendingOwner",
      "outputs": [
        {
          "internalType": "address",
          "name": "",
          "type": "address"
        }
      ],
      "stateMutability": "view",
      "type": "function"
    },
    {
      "inputs": [],
      "name": "pendingUnlockAmount",
      "outputs": [
        {
          "internalType": "uint256",
          "name": "",
          "type": "uint256"
        }
      ],
      "stateMutability": "view",
      "type": "function"
    },
    {
      "inputs": [],
      "name": "proxiableUUID",
      "outputs": [
        {
          "internalType": "bytes32",
          "name": "",
          "type": "bytes32"
        }
      ],
      "stateMutability": "view",
      "type": "function"
    },
    {
      "inputs": [],
      "name": "renounceOwnership",
      "outputs": [],
      "stateMutability": "nonpayable",
      "type": "function"
    },
    {
      "inputs": [
        {
          "internalType": "uint256[]",
          "name": "lockIDs",
          "type": "uint256[]"
        }
      ],
      "name": "resumeUnlockingCountdown",
      "outputs": [],
      "stateMutability": "nonpayable",
      "type": "function"
    },
    {
      "inputs": [],
      "name": "rewardsSurplus",
      "outputs": [
        {
          "internalType": "uint256",
          "name": "",
          "type": "uint256"
        }
      ],
      "stateMutability": "view",
      "type": "function"
    },
    {
      "inputs": [],
      "name": "stakingContract",
      "outputs": [
        {
          "internalType": "address",
          "name": "",
          "type": "address"
        }
      ],
      "stateMutability": "view",
      "type": "function"
    },
    {
      "inputs": [],
      "name": "todayDay",
      "outputs": [
        {
          "internalType": "uint256",
          "name": "",
          "type": "uint256"
        }
      ],
      "stateMutability": "view",
      "type": "function"
    },
    {
      "inputs": [],
      "name": "totalAmountLocked",
      "outputs": [
        {
          "internalType": "uint256",
          "name": "",
          "type": "uint256"
        }
      ],
      "stateMutability": "view",
      "type": "function"
    },
    {
      "inputs": [],
      "name": "totalWeight",
      "outputs": [
        {
          "internalType": "uint256",
          "name": "",
          "type": "uint256"
        }
      ],
      "stateMutability": "view",
      "type": "function"
    },
    {
      "inputs": [
        {
          "internalType": "uint256",
          "name": "",
          "type": "uint256"
        }
      ],
      "name": "totalWeights",
      "outputs": [
        {
          "internalType": "uint256",
          "name": "",
          "type": "uint256"
        }
      ],
      "stateMutability": "view",
      "type": "function"
    },
    {
      "inputs": [
        {
          "internalType": "address",
          "name": "newOwner",
          "type": "address"
        }
      ],
      "name": "transferOwnership",
      "outputs": [],
      "stateMutability": "nonpayable",
      "type": "function"
    },
    {
      "inputs": [
        {
          "internalType": "address",
          "name": "newImplementation",
          "type": "address"
        },
        {
          "internalType": "bytes",
          "name": "data",
          "type": "bytes"
        }
      ],
      "name": "upgradeToAndCall",
      "outputs": [],
      "stateMutability": "payable",
      "type": "function"
    },
    {
      "inputs": [],
      "name": "version",
      "outputs": [
        {
          "internalType": "string",
          "name": "",
          "type": "string"
        }
      ],
      "stateMutability": "view",
      "type": "function"
    }
  ],
  "bytecode": "0x60a06040523073ffffffffffffffffffffffffffffffffffffffff1660809073ffffffffffffffffffffffffffffffffffffffff168152503480156200004457600080fd5b50620000556200005b60201b60201c565b620001cf565b60006200006d6200016560201b60201c565b90508060000160089054906101000a900460ff1615620000b9576040517ff92ee8a900000000000000000000000000000000000000000000000000000000815260040160405180910390fd5b67ffffffffffffffff80168160000160009054906101000a900467ffffffffffffffff1667ffffffffffffffff1614620001625767ffffffffffffffff8160000160006101000a81548167ffffffffffffffff021916908367ffffffffffffffff1602179055507fc7f505b2f371ae2175ee4913f4499e1f2633a7b5936321eed1cdaeb6115181d267ffffffffffffffff604051620001599190620001b2565b60405180910390a15b50565b60007ff0c57e16840df040f15088dc2f81fe391c3923bec73e23a9662efc9c229c6a00905090565b600067ffffffffffffffff82169050919050565b620001ac816200018d565b82525050565b6000602082019050620001c96000830184620001a1565b92915050565b608051615b1f620001f960003960008181612cc301528181612d180152612ed30152615b1f6000f3fe6080604052600436106102305760003560e01c8063ad3cb1cc1161012e578063da4e9f55116100ab578063ee99205c1161006f578063ee99205c1461080c578063f2fde38b14610837578063f94415ca14610860578063fbd9eccf14610889578063fe042b5b146108b457610230565b8063da4e9f5514610713578063dedef8801461073e578063e30c39781461077b578063e508dda0146107a6578063ebcb3818146107e357610230565b8063bb9a91a4116100f2578063bb9a91a41461061c578063c4d66de814610645578063ce665dd81461066e578063d1aaef0514610699578063d3ea4350146106d657610230565b8063ad3cb1cc14610521578063b203dc601461054c578063b62e1efc14610589578063b6fe611e146105c6578063bb7aea83146105f157610230565b806354fd4d50116101bc57806382d4ae581161018057806382d4ae581461044e578063864c8725146104775780638da5cb5b146104a057806396c82e57146104cb578063a3937dcb146104f657610230565b806354fd4d50146103a15780635ade228a146103cc5780635eac6239146103f7578063715018a61461042057806379ba50971461043757610230565b80632d412a71116102035780632d412a71146102dd578063315d42221461030657806333ff88551461032f5780634f1ef2861461035a57806352d1902d1461037657610230565b806304ad7a83146102355780631e04c8691461025e578063221b2b4114610289578063230206cd146102b2575b600080fd5b34801561024157600080fd5b5061025c6004803603810190610257919061428f565b6108dd565b005b34801561026a57600080fd5b50610273610aa6565b60405161028091906142cb565b60405180910390f35b34801561029557600080fd5b506102b060048036038101906102ab9190614475565b610acc565b005b3480156102be57600080fd5b506102c7610c46565b6040516102d491906144cd565b60405180910390f35b3480156102e957600080fd5b5061030460048036038101906102ff9190614600565b610c4c565b005b34801561031257600080fd5b5061032d60048036038101906103289190614683565b610e54565b005b34801561033b57600080fd5b50610344610f48565b60405161035191906142cb565b60405180910390f35b610374600480360381019061036f919061478b565b610f6e565b005b34801561038257600080fd5b5061038b610f8d565b6040516103989190614800565b60405180910390f35b3480156103ad57600080fd5b506103b6610fc0565b6040516103c3919061489a565b60405180910390f35b3480156103d857600080fd5b506103e161104e565b6040516103ee91906148cb565b60405180910390f35b34801561040357600080fd5b5061041e60048036038101906104199190614475565b611053565b005b34801561042c57600080fd5b506104356111cd565b005b34801561044357600080fd5b5061044c6111e1565b005b34801561045a57600080fd5b5061047560048036038101906104709190614475565b611270565b005b34801561048357600080fd5b5061049e60048036038101906104999190614475565b6113ea565b005b3480156104ac57600080fd5b506104b5611564565b6040516104c291906142cb565b60405180910390f35b3480156104d757600080fd5b506104e061159c565b6040516104ed91906144cd565b60405180910390f35b34801561050257600080fd5b5061050b6115a2565b60405161051891906148cb565b60405180910390f35b34801561052d57600080fd5b506105366115a7565b604051610543919061489a565b60405180910390f35b34801561055857600080fd5b50610573600480360381019061056e91906148e6565b6115e0565b60405161058091906144cd565b60405180910390f35b34801561059557600080fd5b506105b060048036038101906105ab91906148e6565b6115f8565b6040516105bd91906144cd565b60405180910390f35b3480156105d257600080fd5b506105db611610565b6040516105e891906144cd565b60405180910390f35b3480156105fd57600080fd5b50610606611616565b60405161061391906144cd565b60405180910390f35b34801561062857600080fd5b50610643600480360381019061063e919061428f565b61162c565b005b34801561065157600080fd5b5061066c6004803603810190610667919061428f565b6117f5565b005b34801561067a57600080fd5b50610683611af2565b60405161069091906144cd565b60405180910390f35b3480156106a557600080fd5b506106c060048036038101906106bb9190614913565b611af7565b6040516106cd91906144cd565b60405180910390f35b3480156106e257600080fd5b506106fd60048036038101906106f891906148e6565b611e00565b60405161070a91906144cd565b60405180910390f35b34801561071f57600080fd5b50610728611fe5565b60405161073591906144cd565b60405180910390f35b34801561074a57600080fd5b50610765600480360381019061076091906148e6565b611feb565b60405161077291906144cd565b60405180910390f35b34801561078757600080fd5b50610790612003565b60405161079d91906142cb565b60405180910390f35b3480156107b257600080fd5b506107cd60048036038101906107c891906148e6565b61203b565b6040516107da91906144cd565b60405180910390f35b3480156107ef57600080fd5b5061080a60048036038101906108059190614683565b612053565b005b34801561081857600080fd5b5061082161218c565b60405161082e91906142cb565b60405180910390f35b34801561084357600080fd5b5061085e6004803603810190610859919061428f565b6121b2565b005b34801561086c57600080fd5b5061088760048036038101906108829190614a66565b61226e565b005b34801561089557600080fd5b5061089e612476565b6040516108ab91906144cd565b60405180910390f35b3480156108c057600080fd5b506108db60048036038101906108d69190614475565b61247c565b005b6108e56125f6565b600073ffffffffffffffffffffffffffffffffffffffff16600a60009054906101000a900473ffffffffffffffffffffffffffffffffffffffff1673ffffffffffffffffffffffffffffffffffffffff1614610976576040517f08c379a000000000000000000000000000000000000000000000000000000000815260040161096d90614b21565b60405180910390fd5b600073ffffffffffffffffffffffffffffffffffffffff168173ffffffffffffffffffffffffffffffffffffffff16036109e5576040517f08c379a00000000000000000000000000000000000000000000000000000000081526004016109dc90614bb3565b60405180910390fd5b80600a60006101000a81548173ffffffffffffffffffffffffffffffffffffffff021916908373ffffffffffffffffffffffffffffffffffffffff160217905550600a60009054906101000a900473ffffffffffffffffffffffffffffffffffffffff1673ffffffffffffffffffffffffffffffffffffffff16600073ffffffffffffffffffffffffffffffffffffffff167f90bafc04ec1cbd41b6cdf5c44648e0dd0d23d000111a886301d74196efee8fa560405160405180910390a350565b600b60009054906101000a900473ffffffffffffffffffffffffffffffffffffffff1681565b610ad461267d565b60005b81518160ff161015610c42573373ffffffffffffffffffffffffffffffffffffffff16600b60009054906101000a900473ffffffffffffffffffffffffffffffffffffffff1673ffffffffffffffffffffffffffffffffffffffff16636352211e848460ff1681518110610b4e57610b4d614bd3565b5b60200260200101516040518263ffffffff1660e01b8152600401610b7291906144cd565b602060405180830381865afa158015610b8f573d6000803e3d6000fd5b505050506040513d601f19601f82011682018060405250810190610bb39190614c17565b73ffffffffffffffffffffffffffffffffffffffff1614610c09576040517f08c379a0000000000000000000000000000000000000000000000000000000008152600401610c0090614cb6565b60405180910390fd5b610c2f828260ff1681518110610c2257610c21614bd3565b5b6020026020010151612828565b8080610c3a90614d12565b915050610ad7565b5050565b60055481565b610c5461267d565b60005b81518160ff161015610e50573373ffffffffffffffffffffffffffffffffffffffff16600b60009054906101000a900473ffffffffffffffffffffffffffffffffffffffff1673ffffffffffffffffffffffffffffffffffffffff16636352211e848460ff1681518110610cce57610ccd614bd3565b5b6020026020010151600001516040518263ffffffff1660e01b8152600401610cf691906144cd565b602060405180830381865afa158015610d13573d6000803e3d6000fd5b505050506040513d601f19601f82011682018060405250810190610d379190614c17565b73ffffffffffffffffffffffffffffffffffffffff1614610d8d576040517f08c379a0000000000000000000000000000000000000000000000000000000008152600401610d8490614cb6565b60405180910390fd5b6000828260ff1681518110610da557610da4614bd3565b5b60200260200101516020015111610df1576040517f08c379a0000000000000000000000000000000000000000000000000000000008152600401610de890614dad565b60405180910390fd5b610e3d828260ff1681518110610e0a57610e09614bd3565b5b602002602001015160000151838360ff1681518110610e2c57610e2b614bd3565b5b602002602001015160200151612905565b8080610e4890614d12565b915050610c57565b5050565b610e5c6125f6565b60008161ffff1611610ea3576040517f08c379a0000000000000000000000000000000000000000000000000000000008152600401610e9a90614e3f565b60405180910390fd5b600954831115610ee8576040517f08c379a0000000000000000000000000000000000000000000000000000000008152600401610edf90614ef7565b60405180910390fd5b610ef3838383612bda565b8260096000828254610f059190614f17565b925050819055508061ffff168261ffff16847fbff8d5ced955e6f69a19ecc71d313996f6ddfed652cdb458859af89e2f07683560405160405180910390a4505050565b600c60009054906101000a900473ffffffffffffffffffffffffffffffffffffffff1681565b610f76612cc1565b610f7f82612da7565b610f898282612db2565b5050565b6000610f97612ed1565b7f360894a13ba1a3210667c828492db98dca3e2076cc3735a920a3ca505d382bbc60001b905090565b60088054610fcd90614f7a565b80601f0160208091040260200160405190810160405280929190818152602001828054610ff990614f7a565b80156110465780601f1061101b57610100808354040283529160200191611046565b820191906000526020600020905b81548152906001019060200180831161102957829003601f168201915b505050505081565b601e81565b61105b61267d565b60005b81518160ff1610156111c9573373ffffffffffffffffffffffffffffffffffffffff16600b60009054906101000a900473ffffffffffffffffffffffffffffffffffffffff1673ffffffffffffffffffffffffffffffffffffffff16636352211e848460ff16815181106110d5576110d4614bd3565b5b60200260200101516040518263ffffffff1660e01b81526004016110f991906144cd565b602060405180830381865afa158015611116573d6000803e3d6000fd5b505050506040513d601f19601f8201168201806040525081019061113a9190614c17565b73ffffffffffffffffffffffffffffffffffffffff1614611190576040517f08c379a000000000000000000000000000000000000000000000000000000000815260040161118790614cb6565b60405180910390fd5b6111b6828260ff16815181106111a9576111a8614bd3565b5b6020026020010151612f58565b80806111c190614d12565b91505061105e565b5050565b6111d56125f6565b6111df6000613121565b565b60006111eb613161565b90508073ffffffffffffffffffffffffffffffffffffffff1661120c612003565b73ffffffffffffffffffffffffffffffffffffffff161461126457806040517f118cdaa700000000000000000000000000000000000000000000000000000000815260040161125b91906142cb565b60405180910390fd5b61126d81613121565b50565b61127861267d565b60005b81518160ff1610156113e6573373ffffffffffffffffffffffffffffffffffffffff16600b60009054906101000a900473ffffffffffffffffffffffffffffffffffffffff1673ffffffffffffffffffffffffffffffffffffffff16636352211e848460ff16815181106112f2576112f1614bd3565b5b60200260200101516040518263ffffffff1660e01b815260040161131691906144cd565b602060405180830381865afa158015611333573d6000803e3d6000fd5b505050506040513d601f19601f820116820180604052508101906113579190614c17565b73ffffffffffffffffffffffffffffffffffffffff16146113ad576040517f08c379a00000000000000000000000000000000000000000000000000000000081526004016113a490614cb6565b60405180910390fd5b6113d3828260ff16815181106113c6576113c5614bd3565b5b6020026020010151613169565b80806113de90614d12565b91505061127b565b5050565b6113f261267d565b60005b81518160ff161015611560573373ffffffffffffffffffffffffffffffffffffffff16600b60009054906101000a900473ffffffffffffffffffffffffffffffffffffffff1673ffffffffffffffffffffffffffffffffffffffff16636352211e848460ff168151811061146c5761146b614bd3565b5b60200260200101516040518263ffffffff1660e01b815260040161149091906144cd565b602060405180830381865afa1580156114ad573d6000803e3d6000fd5b505050506040513d601f19601f820116820180604052508101906114d19190614c17565b73ffffffffffffffffffffffffffffffffffffffff1614611527576040517f08c379a000000000000000000000000000000000000000000000000000000000815260040161151e90614cb6565b60405180910390fd5b61154d828260ff16815181106115405761153f614bd3565b5b602002602001015161331f565b808061155890614d12565b9150506113f5565b5050565b60008061156f6136c6565b90508060000160009054906101000a900473ffffffffffffffffffffffffffffffffffffffff1691505090565b60045481565b600181565b6040518060400160405280600581526020017f352e302e3000000000000000000000000000000000000000000000000000000081525081565b60026020528060005260406000206000915090505481565b60006020528060005260406000206000915090505481565b60095481565b600062015180426116279190614fda565b905090565b6116346125f6565b600073ffffffffffffffffffffffffffffffffffffffff16600b60009054906101000a900473ffffffffffffffffffffffffffffffffffffffff1673ffffffffffffffffffffffffffffffffffffffff16146116c5576040517f08c379a00000000000000000000000000000000000000000000000000000000081526004016116bc9061507d565b60405180910390fd5b600073ffffffffffffffffffffffffffffffffffffffff168173ffffffffffffffffffffffffffffffffffffffff1603611734576040517f08c379a000000000000000000000000000000000000000000000000000000000815260040161172b9061510f565b60405180910390fd5b80600b60006101000a81548173ffffffffffffffffffffffffffffffffffffffff021916908373ffffffffffffffffffffffffffffffffffffffff160217905550600b60009054906101000a900473ffffffffffffffffffffffffffffffffffffffff1673ffffffffffffffffffffffffffffffffffffffff16600073ffffffffffffffffffffffffffffffffffffffff167fecc30bcf908eae6ef06b6d3cd3b86ceffa1a42c05bd5b69e27bc9c31f43860d860405160405180910390a350565b60006117ff6136ee565b905060008160000160089054906101000a900460ff1615905060008260000160009054906101000a900467ffffffffffffffff1690506000808267ffffffffffffffff1614801561184d5750825b9050600060018367ffffffffffffffff16148015611882575060003073ffffffffffffffffffffffffffffffffffffffff163b145b905081158015611890575080155b156118c7576040517ff92ee8a900000000000000000000000000000000000000000000000000000000815260040160405180910390fd5b60018560000160006101000a81548167ffffffffffffffff021916908367ffffffffffffffff16021790555083156119175760018560000160086101000a81548160ff0219169083151502179055505b600073ffffffffffffffffffffffffffffffffffffffff168673ffffffffffffffffffffffffffffffffffffffff1603611986576040517f08c379a000000000000000000000000000000000000000000000000000000000815260040161197d906151a1565b60405180910390fd5b61198e613716565b61199733613720565b61199f613734565b85600c60006101000a81548173ffffffffffffffffffffffffffffffffffffffff021916908373ffffffffffffffffffffffffffffffffffffffff1602179055506119e8611616565b6007819055506040518060400160405280600581526020017f312e302e3000000000000000000000000000000000000000000000000000000081525060089081611a32919061536d565b508573ffffffffffffffffffffffffffffffffffffffff16600073ffffffffffffffffffffffffffffffffffffffff167fff8455f28389115884b403b7576bbe59ea1a5ae18a63c59bbfb61ba7dec6fa1760405160405180910390a38315611aea5760008560000160086101000a81548160ff0219169083151502179055507fc7f505b2f371ae2175ee4913f4499e1f2633a7b5936321eed1cdaeb6115181d26001604051611ae1919061548e565b60405180910390a15b505050505050565b609681565b6000611b0161267d565b600c60009054906101000a900473ffffffffffffffffffffffffffffffffffffffff1673ffffffffffffffffffffffffffffffffffffffff166323b872dd3330866040518463ffffffff1660e01b8152600401611b60939291906154a9565b6020604051808303816000875af1158015611b7f573d6000803e3d6000fd5b505050506040513d601f19601f82011682018060405250810190611ba39190615518565b50600c60009054906101000a900473ffffffffffffffffffffffffffffffffffffffff1673ffffffffffffffffffffffffffffffffffffffff1663095ea7b3600a60009054906101000a900473ffffffffffffffffffffffffffffffffffffffff16856040518363ffffffff1660e01b8152600401611c23929190615545565b6020604051808303816000875af1158015611c42573d6000803e3d6000fd5b505050506040513d601f19601f82011682018060405250810190611c669190615518565b506000600a60009054906101000a900473ffffffffffffffffffffffffffffffffffffffff1673ffffffffffffffffffffffffffffffffffffffff16631c319c2d3386866040518463ffffffff1660e01b8152600401611cc89392919061556e565b6020604051808303816000875af1158015611ce7573d6000803e3d6000fd5b505050506040513d601f19601f82011682018060405250810190611d0b91906155ba565b90506000611d17611616565b9050806003600084815260200190815260200160002081905550609684611d3e91906155e7565b85611d49919061561b565b60046000828254611d5a91906155e7565b925050819055508460056000828254611d7391906155e7565b9250508190555084600160008684611d8b91906155e7565b81526020019081526020016000206000828254611da891906155e7565b925050819055508460066000828254611dc191906155e7565b92505081905550817f04e23937958737438fef03160961e006a635f8ceec2e8fd884e077ee28ca003e60405160405180910390a2819250505092915050565b600080600b60009054906101000a900473ffffffffffffffffffffffffffffffffffffffff1673ffffffffffffffffffffffffffffffffffffffff16630dd8a598846040518263ffffffff1660e01b8152600401611e5e91906144cd565b608060405180830381865afa158015611e7b573d6000803e3d6000fd5b505050506040513d601f19601f82011682018060405250810190611e9f91906156d5565b90506000611eab611616565b9050600080600080856060015103611ef957611ede8560400151600360008a81526020019081526020016000205461373e565b905080935050611ef2856040015185613766565b9150611f04565b846060015192508391505b600080841115611f3157609684611f1b91906155e7565b8660200151611f2a919061561b565b9150611f3f565b809650505050505050611fe0565b6000600360008a81526020019081526020016000205490505b83811015611fd55760008082815260200190815260200160002054600260008381526020019081526020016000205484611f92919061561b565b611f9c9190614fda565b82611fa791906155e7565b91506000876060015103611fc857866020015183611fc59190614f17565b92505b8080600101915050611f58565b508096505050505050505b919050565b60075481565b60016020528060005260406000206000915090505481565b60008061200e61377f565b90508060000160009054906101000a900473ffffffffffffffffffffffffffffffffffffffff1691505090565b60036020528060005260406000206000915090505481565b61205b6125f6565b60008161ffff16116120a2576040517f08c379a000000000000000000000000000000000000000000000000000000000815260040161209990615774565b60405180910390fd5b600c60009054906101000a900473ffffffffffffffffffffffffffffffffffffffff1673ffffffffffffffffffffffffffffffffffffffff166323b872dd3330866040518463ffffffff1660e01b8152600401612101939291906154a9565b6020604051808303816000875af1158015612120573d6000803e3d6000fd5b505050506040513d601f19601f820116820180604052508101906121449190615518565b50612150838383612bda565b8061ffff168261ffff16847fbff8d5ced955e6f69a19ecc71d313996f6ddfed652cdb458859af89e2f07683560405160405180910390a4505050565b600a60009054906101000a900473ffffffffffffffffffffffffffffffffffffffff1681565b6121ba6125f6565b60006121c461377f565b9050818160000160006101000a81548173ffffffffffffffffffffffffffffffffffffffff021916908373ffffffffffffffffffffffffffffffffffffffff1602179055508173ffffffffffffffffffffffffffffffffffffffff16612228611564565b73ffffffffffffffffffffffffffffffffffffffff167f38d16b8cac22d99fc7c124b9cd0de2d3fa1faef420bfe791d8c362d765e2270060405160405180910390a35050565b61227661267d565b60005b81518160ff161015612472573373ffffffffffffffffffffffffffffffffffffffff16600b60009054906101000a900473ffffffffffffffffffffffffffffffffffffffff1673ffffffffffffffffffffffffffffffffffffffff16636352211e848460ff16815181106122f0576122ef614bd3565b5b6020026020010151600001516040518263ffffffff1660e01b815260040161231891906144cd565b602060405180830381865afa158015612335573d6000803e3d6000fd5b505050506040513d601f19601f820116820180604052508101906123599190614c17565b73ffffffffffffffffffffffffffffffffffffffff16146123af576040517f08c379a00000000000000000000000000000000000000000000000000000000081526004016123a690614cb6565b60405180910390fd5b6000828260ff16815181106123c7576123c6614bd3565b5b60200260200101516020015111612413576040517f08c379a000000000000000000000000000000000000000000000000000000000815260040161240a90615806565b60405180910390fd5b61245f828260ff168151811061242c5761242b614bd3565b5b602002602001015160000151838360ff168151811061244e5761244d614bd3565b5b6020026020010151602001516137a7565b808061246a90614d12565b915050612279565b5050565b60065481565b61248461267d565b60005b81518160ff1610156125f2573373ffffffffffffffffffffffffffffffffffffffff16600b60009054906101000a900473ffffffffffffffffffffffffffffffffffffffff1673ffffffffffffffffffffffffffffffffffffffff16636352211e848460ff16815181106124fe576124fd614bd3565b5b60200260200101516040518263ffffffff1660e01b815260040161252291906144cd565b602060405180830381865afa15801561253f573d6000803e3d6000fd5b505050506040513d601f19601f820116820180604052508101906125639190614c17565b73ffffffffffffffffffffffffffffffffffffffff16146125b9576040517f08c379a00000000000000000000000000000000000000000000000000000000081526004016125b090614cb6565b60405180910390fd5b6125df828260ff16815181106125d2576125d1614bd3565b5b6020026020010151613b74565b80806125ea90614d12565b915050612487565b5050565b6125fe613161565b73ffffffffffffffffffffffffffffffffffffffff1661261c611564565b73ffffffffffffffffffffffffffffffffffffffff161461267b5761263f613161565b6040517f118cdaa700000000000000000000000000000000000000000000000000000000815260040161267291906142cb565b60405180910390fd5b565b6000612687611616565b90506000600754905080821161269e575050612826565b60005b8282101561281b576004546000808481526020019081526020016000208190555061016d6005546126d29190614fda565b9050806002600084815260200190815260200160002054111561273f5780600260008481526020019081526020016000205461270e9190614f17565b6009600082825461271f91906155e7565b925050819055508060026000848152602001908152602001600020819055505b600654600460008282546127539190614f17565b925050819055506001600060018461276b91906155e7565b8152602001908152602001600020546096612786919061561b565b600460008282546127979190614f17565b92505081905550600160006001846127af91906155e7565b815260200190815260200160002054600560008282546127cf9190614f17565b92505081905550600160006001846127e791906155e7565b815260200190815260200160002054600660008282546128079190614f17565b9250508190555081806001019250506126a1565b826007819055505050505b565b61283181612f58565b600a60009054906101000a900473ffffffffffffffffffffffffffffffffffffffff1673ffffffffffffffffffffffffffffffffffffffff16636198e339826040518263ffffffff1660e01b815260040161288c91906144cd565b600060405180830381600087803b1580156128a657600080fd5b505af11580156128ba573d6000803e3d6000fd5b505050506003600082815260200190815260200160002060009055807f670cf901ec1ed035c5f3f905dfd1393aad44bbf90012654cf0423ef0f8d5409a60405160405180910390a250565b6000600b60009054906101000a900473ffffffffffffffffffffffffffffffffffffffff1673ffffffffffffffffffffffffffffffffffffffff16630dd8a598846040518263ffffffff1660e01b815260040161296291906144cd565b608060405180830381865afa15801561297f573d6000803e3d6000fd5b505050506040513d601f19601f820116820180604052508101906129a391906156d5565b90506129ae83612f58565b600a60009054906101000a900473ffffffffffffffffffffffffffffffffffffffff1673ffffffffffffffffffffffffffffffffffffffff16633f39f61884846040518363ffffffff1660e01b8152600401612a0b929190615826565b600060405180830381600087803b158015612a2557600080fd5b505af1158015612a39573d6000803e3d6000fd5b50505050818160200151612a4d919061561b565b60046000828254612a5e91906155e7565b925050819055506000816060015103612b9d57612a79611616565b81604001511115612af857806020015160016000836040015181526020019081526020016000206000828254612aaf9190614f17565b92505081905550806020015160016000848460400151612acf91906155e7565b81526020019081526020016000206000828254612aec91906155e7565b92505081905550612b9c565b80602001516001600084612b0a611616565b612b1491906155e7565b81526020019081526020016000206000828254612b3191906155e7565b92505081905550806020015160056000828254612b4e91906155e7565b92505081905550806020015160066000828254612b6b91906155e7565b9250508190555060968160200151612b83919061561b565b60046000828254612b9491906155e7565b925050819055505b5b827fee812bf9972cc78e6bebd887615ac7e7300d9f6c0231a9bb13936e2511fb42b983604051612bcd91906144cd565b60405180910390a2505050565b60008161ffff1611612c21576040517f08c379a0000000000000000000000000000000000000000000000000000000008152600401612c18906158c1565b60405180910390fd5b60008261ffff1684612c339190614fda565b90506000612c3f611616565b905060008461ffff168461ffff1683612c5891906155e7565b612c6291906155e7565b905060008461ffff1683612c7691906155e7565b90505b81811015612cb85783600260008381526020019081526020016000206000828254612ca491906155e7565b925050819055508080600101915050612c79565b50505050505050565b7f000000000000000000000000000000000000000000000000000000000000000073ffffffffffffffffffffffffffffffffffffffff163073ffffffffffffffffffffffffffffffffffffffff161480612d6e57507f000000000000000000000000000000000000000000000000000000000000000073ffffffffffffffffffffffffffffffffffffffff16612d55613d2a565b73ffffffffffffffffffffffffffffffffffffffff1614155b15612da5576040517fe07c8dba00000000000000000000000000000000000000000000000000000000815260040160405180910390fd5b565b612daf6125f6565b50565b8173ffffffffffffffffffffffffffffffffffffffff166352d1902d6040518163ffffffff1660e01b8152600401602060405180830381865afa925050508015612e1a57506040513d601f19601f82011682018060405250810190612e17919061590d565b60015b612e5b57816040517f4c9c8ce3000000000000000000000000000000000000000000000000000000008152600401612e5291906142cb565b60405180910390fd5b7f360894a13ba1a3210667c828492db98dca3e2076cc3735a920a3ca505d382bbc60001b8114612ec257806040517faa1d49a4000000000000000000000000000000000000000000000000000000008152600401612eb99190614800565b60405180910390fd5b612ecc8383613d81565b505050565b7f000000000000000000000000000000000000000000000000000000000000000073ffffffffffffffffffffffffffffffffffffffff163073ffffffffffffffffffffffffffffffffffffffff1614612f56576040517fe07c8dba00000000000000000000000000000000000000000000000000000000815260040160405180910390fd5b565b6000600360008381526020019081526020016000205403612fae576040517f08c379a0000000000000000000000000000000000000000000000000000000008152600401612fa5906159ac565b60405180910390fd5b6000612fb8611616565b905060008160036000858152602001908152602001600020541061301657827f38be9b012e428704c0fb2b81dfd53444b76ac4cd45c46cfd2d661f73d97cf47b60006040516130079190615a07565b60405180910390a2505061311e565b61301f83611e00565b9050827f38be9b012e428704c0fb2b81dfd53444b76ac4cd45c46cfd2d661f73d97cf47b8260405161305191906144cd565b60405180910390a28160036000858152602001908152602001600020819055506000811461311b57600c60009054906101000a900473ffffffffffffffffffffffffffffffffffffffff1673ffffffffffffffffffffffffffffffffffffffff1663a9059cbb33836040518363ffffffff1660e01b81526004016130d6929190615545565b6020604051808303816000875af11580156130f5573d6000803e3d6000fd5b505050506040513d601f19601f820116820180604052508101906131199190615518565b505b50505b50565b600061312b61377f565b90508060000160006101000a81549073ffffffffffffffffffffffffffffffffffffffff021916905561315d82613df4565b5050565b600033905090565b61317281612f58565b600a60009054906101000a900473ffffffffffffffffffffffffffffffffffffffff1673ffffffffffffffffffffffffffffffffffffffff166327343374826040518263ffffffff1660e01b81526004016131cd91906144cd565b600060405180830381600087803b1580156131e757600080fd5b505af11580156131fb573d6000803e3d6000fd5b505050506000600b60009054906101000a900473ffffffffffffffffffffffffffffffffffffffff1673ffffffffffffffffffffffffffffffffffffffff16630dd8a598836040518263ffffffff1660e01b815260040161325c91906144cd565b608060405180830381865afa158015613279573d6000803e3d6000fd5b505050506040513d601f19601f8201168201806040525081019061329d91906156d5565b90508060200151600660008282546132b591906155e7565b925050819055508060200151600160008360400151815260200190815260200160002060008282546132e791906155e7565b92505081905550817fefc7e08b1e9dc27823bfbae3dd5427d9e44fdcda048938099ccf4c6e86d681cf60405160405180910390a25050565b61332881612f58565b6000600b60009054906101000a900473ffffffffffffffffffffffffffffffffffffffff1673ffffffffffffffffffffffffffffffffffffffff16630dd8a598836040518263ffffffff1660e01b815260040161338591906144cd565b608060405180830381865afa1580156133a2573d6000803e3d6000fd5b505050506040513d601f19601f820116820180604052508101906133c691906156d5565b90506000600a60009054906101000a900473ffffffffffffffffffffffffffffffffffffffff1673ffffffffffffffffffffffffffffffffffffffff1663598e630e846040518263ffffffff1660e01b815260040161342591906144cd565b6020604051808303816000875af1158015613444573d6000803e3d6000fd5b505050506040513d601f19601f8201168201806040525081019061346891906155ba565b905061347781601e6001612bda565b6000613481611616565b90506000600a60009054906101000a900473ffffffffffffffffffffffffffffffffffffffff1673ffffffffffffffffffffffffffffffffffffffff1663688701296040518163ffffffff1660e01b8152600401602060405180830381865afa1580156134f2573d6000803e3d6000fd5b505050506040513d601f19601f820116820180604052508101906135169190615a5e565b63ffffffff1690506000808560600151036135915782856040015161353b9190614f17565b90508460200151600160008760400151815260200190815260200160002060008282546135689190614f17565b925050819055508460200151600660008282546135859190614f17565b92505081905550613599565b846060015190505b84602001516096826135ab91906155e7565b6135b5919061561b565b600460008282546135c69190614f17565b925050819055508385602001516135dd9190614f17565b6096836135ea91906155e7565b6135f4919061561b565b6004600082825461360591906155e7565b9250508190555083856020015161361c9190614f17565b60016000848661362c91906155e7565b8152602001908152602001600020600082825461364991906155e7565b925050819055508385602001516136609190614f17565b6006600082825461367191906155e7565b92505081905550836005600082825461368a9190614f17565b92505081905550857f4a1793a0ec86b0ad2e7b4ab04f11e5cd0aed65e21fdb1763eced615c57c4887660405160405180910390a2505050505050565b60007f9016d09d72d40fdae2fd8ceac6b6234c7706214fd39c1cd1e609a0528c199300905090565b60007ff0c57e16840df040f15088dc2f81fe391c3923bec73e23a9662efc9c229c6a00905090565b61371e613ecb565b565b613728613ecb565b61373181613f0b565b50565b61373c613ecb565b565b60008083831115613755576000809150915061375f565b6001838503915091505b9250929050565b60008183106137755781613777565b825b905092915050565b60007f237e158222e3e6968b72b9db0d8043aacf074ad9f650f0d1606b4d82ee432c00905090565b6137b082612f58565b600c60009054906101000a900473ffffffffffffffffffffffffffffffffffffffff1673ffffffffffffffffffffffffffffffffffffffff166323b872dd3330846040518463ffffffff1660e01b815260040161380f939291906154a9565b6020604051808303816000875af115801561382e573d6000803e3d6000fd5b505050506040513d601f19601f820116820180604052508101906138529190615518565b50600c60009054906101000a900473ffffffffffffffffffffffffffffffffffffffff1673ffffffffffffffffffffffffffffffffffffffff1663095ea7b3600a60009054906101000a900473ffffffffffffffffffffffffffffffffffffffff16836040518363ffffffff1660e01b81526004016138d2929190615545565b6020604051808303816000875af11580156138f1573d6000803e3d6000fd5b505050506040513d601f19601f820116820180604052508101906139159190615518565b50600a60009054906101000a900473ffffffffffffffffffffffffffffffffffffffff1673ffffffffffffffffffffffffffffffffffffffff16632ecf3da183836040518363ffffffff1660e01b8152600401613973929190615826565b600060405180830381600087803b15801561398d57600080fd5b505af11580156139a1573d6000803e3d6000fd5b505050506000600b60009054906101000a900473ffffffffffffffffffffffffffffffffffffffff1673ffffffffffffffffffffffffffffffffffffffff16630dd8a598846040518263ffffffff1660e01b8152600401613a0291906144cd565b608060405180830381865afa158015613a1f573d6000803e3d6000fd5b505050506040513d601f19601f82011682018060405250810190613a4391906156d5565b90506000613a4f611616565b90508260056000828254613a6391906155e7565b925050819055506000826060015103613b01576096818360400151613a889190614f17565b613a9291906155e7565b83613a9d919061561b565b60046000828254613aae91906155e7565b925050819055508260016000846040015181526020019081526020016000206000828254613adc91906155e7565b925050819055508260066000828254613af591906155e7565b92505081905550613b36565b60968260600151613b1291906155e7565b83613b1d919061561b565b60046000828254613b2e91906155e7565b925050819055505b837f40f165645e1887a4eedf8a20bf663f9fd6d674acd00289b75985f5727166a14984604051613b6691906144cd565b60405180910390a250505050565b613b7d81612f58565b600a60009054906101000a900473ffffffffffffffffffffffffffffffffffffffff1673ffffffffffffffffffffffffffffffffffffffff1663b948ee88826040518263ffffffff1660e01b8152600401613bd891906144cd565b600060405180830381600087803b158015613bf257600080fd5b505af1158015613c06573d6000803e3d6000fd5b505050506000600b60009054906101000a900473ffffffffffffffffffffffffffffffffffffffff1673ffffffffffffffffffffffffffffffffffffffff16630dd8a598836040518263ffffffff1660e01b8152600401613c6791906144cd565b608060405180830381865afa158015613c84573d6000803e3d6000fd5b505050506040513d601f19601f82011682018060405250810190613ca891906156d5565b9050806020015160066000828254613cc09190614f17565b92505081905550806020015160016000836040015181526020019081526020016000206000828254613cf29190614f17565b92505081905550817f634d198cd30b3f44c88b0d4cbf2fe771a14df5bb6c7076bed33c32d4f9410a5360405160405180910390a25050565b6000613d587f360894a13ba1a3210667c828492db98dca3e2076cc3735a920a3ca505d382bbc60001b613f91565b60000160009054906101000a900473ffffffffffffffffffffffffffffffffffffffff16905090565b613d8a82613f9b565b8173ffffffffffffffffffffffffffffffffffffffff167fbc7cd75a20ee27fd9adebab32041f755214dbc6bffa90cc0225b39da2e5c2d3b60405160405180910390a2600081511115613de757613de18282614068565b50613df0565b613def6140ec565b5b5050565b6000613dfe6136c6565b905060008160000160009054906101000a900473ffffffffffffffffffffffffffffffffffffffff169050828260000160006101000a81548173ffffffffffffffffffffffffffffffffffffffff021916908373ffffffffffffffffffffffffffffffffffffffff1602179055508273ffffffffffffffffffffffffffffffffffffffff168173ffffffffffffffffffffffffffffffffffffffff167f8be0079c531659141344cd1fd0a4f28419497f9722a3daafe3b4186f6b6457e060405160405180910390a3505050565b613ed3614129565b613f09576040517fd7e6bcf800000000000000000000000000000000000000000000000000000000815260040160405180910390fd5b565b613f13613ecb565b600073ffffffffffffffffffffffffffffffffffffffff168173ffffffffffffffffffffffffffffffffffffffff1603613f855760006040517f1e4fbdf7000000000000000000000000000000000000000000000000000000008152600401613f7c91906142cb565b60405180910390fd5b613f8e81613121565b50565b6000819050919050565b60008173ffffffffffffffffffffffffffffffffffffffff163b03613ff757806040517f4c9c8ce3000000000000000000000000000000000000000000000000000000008152600401613fee91906142cb565b60405180910390fd5b806140247f360894a13ba1a3210667c828492db98dca3e2076cc3735a920a3ca505d382bbc60001b613f91565b60000160006101000a81548173ffffffffffffffffffffffffffffffffffffffff021916908373ffffffffffffffffffffffffffffffffffffffff16021790555050565b60606000808473ffffffffffffffffffffffffffffffffffffffff16846040516140929190615ad2565b600060405180830381855af49150503d80600081146140cd576040519150601f19603f3d011682016040523d82523d6000602084013e6140d2565b606091505b50915091506140e2858383614149565b9250505092915050565b6000341115614127576040517fb398979f00000000000000000000000000000000000000000000000000000000815260040160405180910390fd5b565b60006141336136ee565b60000160089054906101000a900460ff16905090565b60608261415e57614159826141d8565b6141d0565b60008251148015614186575060008473ffffffffffffffffffffffffffffffffffffffff163b145b156141c857836040517f9996b3150000000000000000000000000000000000000000000000000000000081526004016141bf91906142cb565b60405180910390fd5b8190506141d1565b5b9392505050565b6000815111156141eb5780518082602001fd5b6040517f1425ea4200000000000000000000000000000000000000000000000000000000815260040160405180910390fd5b6000604051905090565b600080fd5b600080fd5b600073ffffffffffffffffffffffffffffffffffffffff82169050919050565b600061425c82614231565b9050919050565b61426c81614251565b811461427757600080fd5b50565b60008135905061428981614263565b92915050565b6000602082840312156142a5576142a4614227565b5b60006142b38482850161427a565b91505092915050565b6142c581614251565b82525050565b60006020820190506142e060008301846142bc565b92915050565b600080fd5b6000601f19601f8301169050919050565b7f4e487b7100000000000000000000000000000000000000000000000000000000600052604160045260246000fd5b614334826142eb565b810181811067ffffffffffffffff82111715614353576143526142fc565b5b80604052505050565b600061436661421d565b9050614372828261432b565b919050565b600067ffffffffffffffff821115614392576143916142fc565b5b602082029050602081019050919050565b600080fd5b6000819050919050565b6143bb816143a8565b81146143c657600080fd5b50565b6000813590506143d8816143b2565b92915050565b60006143f16143ec84614377565b61435c565b90508083825260208201905060208402830185811115614414576144136143a3565b5b835b8181101561443d578061442988826143c9565b845260208401935050602081019050614416565b5050509392505050565b600082601f83011261445c5761445b6142e6565b5b813561446c8482602086016143de565b91505092915050565b60006020828403121561448b5761448a614227565b5b600082013567ffffffffffffffff8111156144a9576144a861422c565b5b6144b584828501614447565b91505092915050565b6144c7816143a8565b82525050565b60006020820190506144e260008301846144be565b92915050565b600067ffffffffffffffff821115614503576145026142fc565b5b602082029050602081019050919050565b600080fd5b60006040828403121561452f5761452e614514565b5b614539604061435c565b90506000614549848285016143c9565b600083015250602061455d848285016143c9565b60208301525092915050565b600061457c614577846144e8565b61435c565b9050808382526020820190506040840283018581111561459f5761459e6143a3565b5b835b818110156145c857806145b48882614519565b8452602084019350506040810190506145a1565b5050509392505050565b600082601f8301126145e7576145e66142e6565b5b81356145f7848260208601614569565b91505092915050565b60006020828403121561461657614615614227565b5b600082013567ffffffffffffffff8111156146345761463361422c565b5b614640848285016145d2565b91505092915050565b600061ffff82169050919050565b61466081614649565b811461466b57600080fd5b50565b60008135905061467d81614657565b92915050565b60008060006060848603121561469c5761469b614227565b5b60006146aa868287016143c9565b93505060206146bb8682870161466e565b92505060406146cc8682870161466e565b9150509250925092565b600080fd5b600067ffffffffffffffff8211156146f6576146f56142fc565b5b6146ff826142eb565b9050602081019050919050565b82818337600083830152505050565b600061472e614729846146db565b61435c565b90508281526020810184848401111561474a576147496146d6565b5b61475584828561470c565b509392505050565b600082601f830112614772576147716142e6565b5b813561478284826020860161471b565b91505092915050565b600080604083850312156147a2576147a1614227565b5b60006147b08582860161427a565b925050602083013567ffffffffffffffff8111156147d1576147d061422c565b5b6147dd8582860161475d565b9150509250929050565b6000819050919050565b6147fa816147e7565b82525050565b600060208201905061481560008301846147f1565b92915050565b600081519050919050565b600082825260208201905092915050565b60005b8381101561485557808201518184015260208101905061483a565b60008484015250505050565b600061486c8261481b565b6148768185614826565b9350614886818560208601614837565b61488f816142eb565b840191505092915050565b600060208201905081810360008301526148b48184614861565b905092915050565b6148c581614649565b82525050565b60006020820190506148e060008301846148bc565b92915050565b6000602082840312156148fc576148fb614227565b5b600061490a848285016143c9565b91505092915050565b6000806040838503121561492a57614929614227565b5b6000614938858286016143c9565b9250506020614949858286016143c9565b9150509250929050565b600067ffffffffffffffff82111561496e5761496d6142fc565b5b602082029050602081019050919050565b60006040828403121561499557614994614514565b5b61499f604061435c565b905060006149af848285016143c9565b60008301525060206149c3848285016143c9565b60208301525092915050565b60006149e26149dd84614953565b61435c565b90508083825260208201905060408402830185811115614a0557614a046143a3565b5b835b81811015614a2e5780614a1a888261497f565b845260208401935050604081019050614a07565b5050509392505050565b600082601f830112614a4d57614a4c6142e6565b5b8135614a5d8482602086016149cf565b91505092915050565b600060208284031215614a7c57614a7b614227565b5b600082013567ffffffffffffffff811115614a9a57614a9961422c565b5b614aa684828501614a38565b91505092915050565b7f4c325265776172643a205374616b696e6720636f6e747261637420697320616c60008201527f726561647920696e697469616c697a6564000000000000000000000000000000602082015250565b6000614b0b603183614826565b9150614b1682614aaf565b604082019050919050565b60006020820190508181036000830152614b3a81614afe565b9050919050565b7f4c325265776172643a205374616b696e6720636f6e747261637420616464726560008201527f73732063616e206e6f74206265207a65726f0000000000000000000000000000602082015250565b6000614b9d603283614826565b9150614ba882614b41565b604082019050919050565b60006020820190508181036000830152614bcc81614b90565b9050919050565b7f4e487b7100000000000000000000000000000000000000000000000000000000600052603260045260246000fd5b600081519050614c1181614263565b92915050565b600060208284031215614c2d57614c2c614227565b5b6000614c3b84828501614c02565b91505092915050565b7f4c325265776172643a206d73672e73656e64657220646f6573206e6f74206f7760008201527f6e20746865206c6f636b696e6720706f736974696f6e00000000000000000000602082015250565b6000614ca0603683614826565b9150614cab82614c44565b604082019050919050565b60006020820190508181036000830152614ccf81614c93565b9050919050565b7f4e487b7100000000000000000000000000000000000000000000000000000000600052601160045260246000fd5b600060ff82169050919050565b6000614d1d82614d05565b915060ff8203614d3057614d2f614cd6565b5b600182019050919050565b7f4c325265776172643a20457874656e646564206475726174696f6e2073686f7560008201527f6c642062652067726561746572207468616e207a65726f000000000000000000602082015250565b6000614d97603783614826565b9150614da282614d3b565b604082019050919050565b60006020820190508181036000830152614dc681614d8a565b9050919050565b7f4c325265776172643a20526577617264732063616e206f6e6c7920626520616460008201527f6465642066726f6d206e65787420646179206f72206c61746572000000000000602082015250565b6000614e29603a83614826565b9150614e3482614dcd565b604082019050919050565b60006020820190508181036000830152614e5881614e1c565b9050919050565b7f4c325265776172643a2052657761726420616d6f756e742073686f756c64206e60008201527f6f742065786365656420617661696c61626c6520737572706c75732066756e6460208201527f7300000000000000000000000000000000000000000000000000000000000000604082015250565b6000614ee1604183614826565b9150614eec82614e5f565b606082019050919050565b60006020820190508181036000830152614f1081614ed4565b9050919050565b6000614f22826143a8565b9150614f2d836143a8565b9250828203905081811115614f4557614f44614cd6565b5b92915050565b7f4e487b7100000000000000000000000000000000000000000000000000000000600052602260045260246000fd5b60006002820490506001821680614f9257607f821691505b602082108103614fa557614fa4614f4b565b5b50919050565b7f4e487b7100000000000000000000000000000000000000000000000000000000600052601260045260246000fd5b6000614fe5826143a8565b9150614ff0836143a8565b92508261500057614fff614fab565b5b828204905092915050565b7f4c325265776172643a204c6f636b696e67506f736974696f6e20636f6e74726160008201527f637420697320616c726561647920696e697469616c697a656400000000000000602082015250565b6000615067603983614826565b91506150728261500b565b604082019050919050565b600060208201905081810360008301526150968161505a565b9050919050565b7f4c325265776172643a204c6f636b696e67506f736974696f6e20636f6e74726160008201527f637420616464726573732063616e206e6f74206265207a65726f000000000000602082015250565b60006150f9603a83614826565b91506151048261509d565b604082019050919050565b60006020820190508181036000830152615128816150ec565b9050919050565b7f4c325265776172643a204c534b20746f6b656e20636f6e74726163742061646460008201527f726573732063616e206e6f74206265207a65726f000000000000000000000000602082015250565b600061518b603483614826565b91506151968261512f565b604082019050919050565b600060208201905081810360008301526151ba8161517e565b9050919050565b60008190508160005260206000209050919050565b60006020601f8301049050919050565b600082821b905092915050565b6000600883026152237fffffffffffffffffffffffffffffffffffffffffffffffffffffffffffffffff826151e6565b61522d86836151e6565b95508019841693508086168417925050509392505050565b6000819050919050565b600061526a615265615260846143a8565b615245565b6143a8565b9050919050565b6000819050919050565b6152848361524f565b61529861529082615271565b8484546151f3565b825550505050565b600090565b6152ad6152a0565b6152b881848461527b565b505050565b5b818110156152dc576152d16000826152a5565b6001810190506152be565b5050565b601f821115615321576152f2816151c1565b6152fb846151d6565b8101602085101561530a578190505b61531e615316856151d6565b8301826152bd565b50505b505050565b600082821c905092915050565b600061534460001984600802615326565b1980831691505092915050565b600061535d8383615333565b9150826002028217905092915050565b6153768261481b565b67ffffffffffffffff81111561538f5761538e6142fc565b5b6153998254614f7a565b6153a48282856152e0565b600060209050601f8311600181146153d757600084156153c5578287015190505b6153cf8582615351565b865550615437565b601f1984166153e5866151c1565b60005b8281101561540d578489015182556001820191506020850194506020810190506153e8565b8683101561542a5784890151615426601f891682615333565b8355505b6001600288020188555050505b505050505050565b6000819050919050565b600067ffffffffffffffff82169050919050565b600061547861547361546e8461543f565b615245565b615449565b9050919050565b6154888161545d565b82525050565b60006020820190506154a3600083018461547f565b92915050565b60006060820190506154be60008301866142bc565b6154cb60208301856142bc565b6154d860408301846144be565b949350505050565b60008115159050919050565b6154f5816154e0565b811461550057600080fd5b50565b600081519050615512816154ec565b92915050565b60006020828403121561552e5761552d614227565b5b600061553c84828501615503565b91505092915050565b600060408201905061555a60008301856142bc565b61556760208301846144be565b9392505050565b600060608201905061558360008301866142bc565b61559060208301856144be565b61559d60408301846144be565b949350505050565b6000815190506155b4816143b2565b92915050565b6000602082840312156155d0576155cf614227565b5b60006155de848285016155a5565b91505092915050565b60006155f2826143a8565b91506155fd836143a8565b925082820190508082111561561557615614614cd6565b5b92915050565b6000615626826143a8565b9150615631836143a8565b925082820261563f816143a8565b9150828204841483151761565657615655614cd6565b5b5092915050565b60006080828403121561567357615672614514565b5b61567d608061435c565b9050600061568d84828501614c02565b60008301525060206156a1848285016155a5565b60208301525060406156b5848285016155a5565b60408301525060606156c9848285016155a5565b60608301525092915050565b6000608082840312156156eb576156ea614227565b5b60006156f98482850161565d565b91505092915050565b7f4c325265776172643a2046756e64696e672073686f756c64207374617274206660008201527f726f6d206e65787420646179206f72206c617465720000000000000000000000602082015250565b600061575e603583614826565b915061576982615702565b604082019050919050565b6000602082019050818103600083015261578d81615751565b9050919050565b7f4c325265776172643a20496e6372656173656420616d6f756e742073686f756c60008201527f642062652067726561746572207468616e207a65726f00000000000000000000602082015250565b60006157f0603683614826565b91506157fb82615794565b604082019050919050565b6000602082019050818103600083015261581f816157e3565b9050919050565b600060408201905061583b60008301856144be565b61584860208301846144be565b9392505050565b7f46756e64696e672073686f756c642073746172742066726f6d206e657874206460008201527f6179206f72206c61746572000000000000000000000000000000000000000000602082015250565b60006158ab602b83614826565b91506158b68261584f565b604082019050919050565b600060208201905081810360008301526158da8161589e565b9050919050565b6158ea816147e7565b81146158f557600080fd5b50565b600081519050615907816158e1565b92915050565b60006020828403121561592357615922614227565b5b6000615931848285016158f8565b91505092915050565b7f4c325265776172643a204c6f636b696e6720706f736974696f6e20646f65732060008201527f6e6f742065786973740000000000000000000000000000000000000000000000602082015250565b6000615996602983614826565b91506159a18261593a565b604082019050919050565b600060208201905081810360008301526159c581615989565b9050919050565b6000819050919050565b60006159f16159ec6159e7846159cc565b615245565b6143a8565b9050919050565b615a01816159d6565b82525050565b6000602082019050615a1c60008301846159f8565b92915050565b600063ffffffff82169050919050565b615a3b81615a22565b8114615a4657600080fd5b50565b600081519050615a5881615a32565b92915050565b600060208284031215615a7457615a73614227565b5b6000615a8284828501615a49565b91505092915050565b600081519050919050565b600081905092915050565b6000615aac82615a8b565b615ab68185615a96565b9350615ac6818560208601614837565b80840191505092915050565b6000615ade8284615aa1565b91508190509291505056fea2646970667358221220c2e1677096d4c4d590eab3c132ee30375e34ff0bbc5503b83daa1d6a9a65f83a64736f6c63430008170033",
  "linkReferences": {},
  "deployedLinkReferences": {}
}