{
  "_format": "hh-sol-artifact-1",
  "contractName": "L2Staking",
  "sourceName": "src/L2/L2Staking.sol",
  "abi": [
    {
      "inputs": [],
      "stateMutability": "nonpayable",
      "type": "constructor"
    },
    {
      "inputs": [
        {
          "internalType": "address",
          "name": "target",
          "type": "address"
        }
      ],
      "name": "AddressEmptyCode",
      "type": "error"
    },
    {
      "inputs": [
        {
          "internalType": "address",
          "name": "implementation",
          "type": "address"
        }
      ],
      "name": "ERC1967InvalidImplementation",
      "type": "error"
    },
    {
      "inputs": [],
      "name": "ERC1967NonPayable",
      "type": "error"
    },
    {
      "inputs": [],
      "name": "FailedInnerCall",
      "type": "error"
    },
    {
      "inputs": [],
      "name": "InvalidInitialization",
      "type": "error"
    },
    {
      "inputs": [],
      "name": "NotInitializing",
      "type": "error"
    },
    {
      "inputs": [
        {
          "internalType": "address",
          "name": "owner",
          "type": "address"
        }
      ],
      "name": "OwnableInvalidOwner",
      "type": "error"
    },
    {
      "inputs": [
        {
          "internalType": "address",
          "name": "account",
          "type": "address"
        }
      ],
      "name": "OwnableUnauthorizedAccount",
      "type": "error"
    },
    {
      "inputs": [],
      "name": "UUPSUnauthorizedCallContext",
      "type": "error"
    },
    {
      "inputs": [
        {
          "internalType": "bytes32",
          "name": "slot",
          "type": "bytes32"
        }
      ],
      "name": "UUPSUnsupportedProxiableUUID",
      "type": "error"
    },
    {
      "anonymous": false,
      "inputs": [
        {
          "indexed": true,
          "internalType": "address",
          "name": "creator",
          "type": "address"
        }
      ],
      "name": "AllowedCreatorAdded",
      "type": "event"
    },
    {
      "anonymous": false,
      "inputs": [
        {
          "indexed": true,
          "internalType": "address",
          "name": "creator",
          "type": "address"
        }
      ],
      "name": "AllowedCreatorRemoved",
      "type": "event"
    },
    {
      "anonymous": false,
      "inputs": [
        {
          "indexed": true,
          "internalType": "uint256",
          "name": "lockId",
          "type": "uint256"
        },
        {
          "indexed": true,
          "internalType": "address",
          "name": "lockOwner",
          "type": "address"
        },
        {
          "indexed": false,
          "internalType": "uint256",
          "name": "amount",
          "type": "uint256"
        },
        {
          "indexed": false,
          "internalType": "uint256",
          "name": "lockingDuration",
          "type": "uint256"
        }
      ],
      "name": "AmountLocked",
      "type": "event"
    },
    {
      "anonymous": false,
      "inputs": [
        {
          "indexed": true,
          "internalType": "uint256",
          "name": "lockId",
          "type": "uint256"
        }
      ],
      "name": "AmountUnlocked",
      "type": "event"
    },
    {
      "anonymous": false,
      "inputs": [
        {
          "indexed": true,
          "internalType": "uint256",
          "name": "lockId",
          "type": "uint256"
        }
      ],
      "name": "CountdownResumed",
      "type": "event"
    },
    {
      "anonymous": false,
      "inputs": [
        {
          "indexed": true,
          "internalType": "address",
          "name": "oldAddress",
          "type": "address"
        },
        {
          "indexed": true,
          "internalType": "address",
          "name": "newAddress",
          "type": "address"
        }
      ],
      "name": "DaoTreasuryAddressChanged",
      "type": "event"
    },
    {
      "anonymous": false,
      "inputs": [
        {
          "indexed": true,
          "internalType": "bool",
          "name": "oldEmergencyExitEnabled",
          "type": "bool"
        },
        {
          "indexed": true,
          "internalType": "bool",
          "name": "newEmergencyExitEnabled",
          "type": "bool"
        }
      ],
      "name": "EmergencyExitEnabledChanged",
      "type": "event"
    },
    {
      "anonymous": false,
      "inputs": [
        {
          "indexed": true,
          "internalType": "uint256",
          "name": "lockId",
          "type": "uint256"
        },
        {
          "indexed": false,
          "internalType": "uint256",
          "name": "penalty",
          "type": "uint256"
        }
      ],
      "name": "FastUnlockInitiated",
      "type": "event"
    },
    {
      "anonymous": false,
      "inputs": [
        {
          "indexed": false,
          "internalType": "uint64",
          "name": "version",
          "type": "uint64"
        }
      ],
      "name": "Initialized",
      "type": "event"
    },
    {
      "anonymous": false,
      "inputs": [
        {
          "indexed": true,
          "internalType": "address",
          "name": "oldAddress",
          "type": "address"
        },
        {
          "indexed": true,
          "internalType": "address",
          "name": "newAddress",
          "type": "address"
        }
      ],
      "name": "LiskTokenContractAddressChanged",
      "type": "event"
    },
    {
      "anonymous": false,
      "inputs": [
        {
          "indexed": true,
          "internalType": "uint256",
          "name": "lockId",
          "type": "uint256"
        },
        {
          "indexed": false,
          "internalType": "uint256",
          "name": "amountIncrease",
          "type": "uint256"
        }
      ],
      "name": "LockingAmountIncreased",
      "type": "event"
    },
    {
      "anonymous": false,
      "inputs": [
        {
          "indexed": true,
          "internalType": "uint256",
          "name": "lockId",
          "type": "uint256"
        },
        {
          "indexed": false,
          "internalType": "uint256",
          "name": "extendDays",
          "type": "uint256"
        }
      ],
      "name": "LockingDurationExtended",
      "type": "event"
    },
    {
      "anonymous": false,
      "inputs": [
        {
          "indexed": true,
          "internalType": "address",
          "name": "oldAddress",
          "type": "address"
        },
        {
          "indexed": true,
          "internalType": "address",
          "name": "newAddress",
          "type": "address"
        }
      ],
      "name": "LockingPositionContractAddressChanged",
      "type": "event"
    },
    {
      "anonymous": false,
      "inputs": [
        {
          "indexed": true,
          "internalType": "address",
          "name": "previousOwner",
          "type": "address"
        },
        {
          "indexed": true,
          "internalType": "address",
          "name": "newOwner",
          "type": "address"
        }
      ],
      "name": "OwnershipTransferStarted",
      "type": "event"
    },
    {
      "anonymous": false,
      "inputs": [
        {
          "indexed": true,
          "internalType": "address",
          "name": "previousOwner",
          "type": "address"
        },
        {
          "indexed": true,
          "internalType": "address",
          "name": "newOwner",
          "type": "address"
        }
      ],
      "name": "OwnershipTransferred",
      "type": "event"
    },
    {
      "anonymous": false,
      "inputs": [
        {
          "indexed": true,
          "internalType": "uint256",
          "name": "lockId",
          "type": "uint256"
        }
      ],
      "name": "RemainingLockingDurationPaused",
      "type": "event"
    },
    {
      "anonymous": false,
      "inputs": [
        {
          "indexed": true,
          "internalType": "address",
          "name": "implementation",
          "type": "address"
        }
      ],
      "name": "Upgraded",
      "type": "event"
    },
    {
      "inputs": [],
      "name": "FAST_UNLOCK_DURATION",
      "outputs": [
        {
          "internalType": "uint32",
          "name": "",
          "type": "uint32"
        }
      ],
      "stateMutability": "view",
      "type": "function"
    },
    {
      "inputs": [],
      "name": "MAX_LOCKING_DURATION",
      "outputs": [
        {
          "internalType": "uint32",
          "name": "",
          "type": "uint32"
        }
      ],
      "stateMutability": "view",
      "type": "function"
    },
    {
      "inputs": [],
      "name": "MIN_LOCKING_AMOUNT",
      "outputs": [
        {
          "internalType": "uint256",
          "name": "",
          "type": "uint256"
        }
      ],
      "stateMutability": "view",
      "type": "function"
    },
    {
      "inputs": [],
      "name": "MIN_LOCKING_DURATION",
      "outputs": [
        {
          "internalType": "uint32",
          "name": "",
          "type": "uint32"
        }
      ],
      "stateMutability": "view",
      "type": "function"
    },
    {
      "inputs": [],
      "name": "PENALTY_DENOMINATOR",
      "outputs": [
        {
          "internalType": "uint32",
          "name": "",
          "type": "uint32"
        }
      ],
      "stateMutability": "view",
      "type": "function"
    },
    {
      "inputs": [],
      "name": "UPGRADE_INTERFACE_VERSION",
      "outputs": [
        {
          "internalType": "string",
          "name": "",
          "type": "string"
        }
      ],
      "stateMutability": "view",
      "type": "function"
    },
    {
      "inputs": [],
      "name": "acceptOwnership",
      "outputs": [],
      "stateMutability": "nonpayable",
      "type": "function"
    },
    {
      "inputs": [
        {
          "internalType": "address",
          "name": "newCreator",
          "type": "address"
        }
      ],
      "name": "addCreator",
      "outputs": [],
      "stateMutability": "nonpayable",
      "type": "function"
    },
    {
      "inputs": [
        {
          "internalType": "address",
          "name": "",
          "type": "address"
        }
      ],
      "name": "allowedCreators",
      "outputs": [
        {
          "internalType": "bool",
          "name": "",
          "type": "bool"
        }
      ],
      "stateMutability": "view",
      "type": "function"
    },
    {
      "inputs": [],
      "name": "daoTreasury",
      "outputs": [
        {
          "internalType": "address",
          "name": "",
          "type": "address"
        }
      ],
      "stateMutability": "view",
      "type": "function"
    },
    {
      "inputs": [],
      "name": "emergencyExitEnabled",
      "outputs": [
        {
          "internalType": "bool",
          "name": "",
          "type": "bool"
        }
      ],
      "stateMutability": "view",
      "type": "function"
    },
    {
      "inputs": [
        {
          "internalType": "uint256",
          "name": "lockId",
          "type": "uint256"
        },
        {
          "internalType": "uint256",
          "name": "extendDays",
          "type": "uint256"
        }
      ],
      "name": "extendLockingDuration",
      "outputs": [],
      "stateMutability": "nonpayable",
      "type": "function"
    },
    {
      "inputs": [
        {
          "internalType": "uint256",
          "name": "lockId",
          "type": "uint256"
        },
        {
          "internalType": "uint256",
          "name": "amountIncrease",
          "type": "uint256"
        }
      ],
      "name": "increaseLockingAmount",
      "outputs": [],
      "stateMutability": "nonpayable",
      "type": "function"
    },
    {
      "inputs": [
        {
          "internalType": "address",
          "name": "_l2LiskTokenContract",
          "type": "address"
        }
      ],
      "name": "initialize",
      "outputs": [],
      "stateMutability": "nonpayable",
      "type": "function"
    },
    {
      "inputs": [
        {
          "internalType": "address",
          "name": "_daoTreasury",
          "type": "address"
        }
      ],
      "name": "initializeDaoTreasury",
      "outputs": [],
      "stateMutability": "nonpayable",
      "type": "function"
    },
    {
      "inputs": [
        {
          "internalType": "address",
          "name": "_lockingPositionContract",
          "type": "address"
        }
      ],
      "name": "initializeLockingPosition",
      "outputs": [],
      "stateMutability": "nonpayable",
      "type": "function"
    },
    {
      "inputs": [
        {
          "internalType": "uint256",
          "name": "lockId",
          "type": "uint256"
        }
      ],
      "name": "initiateFastUnlock",
      "outputs": [
        {
          "internalType": "uint256",
          "name": "",
          "type": "uint256"
        }
      ],
      "stateMutability": "nonpayable",
      "type": "function"
    },
    {
      "inputs": [],
      "name": "l2LiskTokenContract",
      "outputs": [
        {
          "internalType": "address",
          "name": "",
          "type": "address"
        }
      ],
      "stateMutability": "view",
      "type": "function"
    },
    {
      "inputs": [
        {
          "internalType": "address",
          "name": "lockOwner",
          "type": "address"
        },
        {
          "internalType": "uint256",
          "name": "amount",
          "type": "uint256"
        },
        {
          "internalType": "uint256",
          "name": "lockingDuration",
          "type": "uint256"
        }
      ],
      "name": "lockAmount",
      "outputs": [
        {
          "internalType": "uint256",
          "name": "",
          "type": "uint256"
        }
      ],
      "stateMutability": "nonpayable",
      "type": "function"
    },
    {
      "inputs": [],
      "name": "lockingPositionContract",
      "outputs": [
        {
          "internalType": "address",
          "name": "",
          "type": "address"
        }
      ],
      "stateMutability": "view",
      "type": "function"
    },
    {
      "inputs": [],
      "name": "owner",
      "outputs": [
        {
          "internalType": "address",
          "name": "",
          "type": "address"
        }
      ],
      "stateMutability": "view",
      "type": "function"
    },
    {
      "inputs": [
        {
          "internalType": "uint256",
          "name": "lockId",
          "type": "uint256"
        }
      ],
      "name": "pauseRemainingLockingDuration",
      "outputs": [],
      "stateMutability": "nonpayable",
      "type": "function"
    },
    {
      "inputs": [],
      "name": "pendingOwner",
      "outputs": [
        {
          "internalType": "address",
          "name": "",
          "type": "address"
        }
      ],
      "stateMutability": "view",
      "type": "function"
    },
    {
      "inputs": [],
      "name": "proxiableUUID",
      "outputs": [
        {
          "internalType": "bytes32",
          "name": "",
          "type": "bytes32"
        }
      ],
      "stateMutability": "view",
      "type": "function"
    },
    {
      "inputs": [
        {
          "internalType": "address",
          "name": "creator",
          "type": "address"
        }
      ],
      "name": "removeCreator",
      "outputs": [],
      "stateMutability": "nonpayable",
      "type": "function"
    },
    {
      "inputs": [],
      "name": "renounceOwnership",
      "outputs": [],
      "stateMutability": "nonpayable",
      "type": "function"
    },
    {
      "inputs": [
        {
          "internalType": "uint256",
          "name": "lockId",
          "type": "uint256"
        }
      ],
      "name": "resumeCountdown",
      "outputs": [],
      "stateMutability": "nonpayable",
      "type": "function"
    },
    {
      "inputs": [
        {
          "internalType": "bool",
          "name": "_emergencyExitEnabled",
          "type": "bool"
        }
      ],
      "name": "setEmergencyExitEnabled",
      "outputs": [],
      "stateMutability": "nonpayable",
      "type": "function"
    },
    {
      "inputs": [
        {
          "internalType": "address",
          "name": "newOwner",
          "type": "address"
        }
      ],
      "name": "transferOwnership",
      "outputs": [],
      "stateMutability": "nonpayable",
      "type": "function"
    },
    {
      "inputs": [
        {
          "internalType": "uint256",
          "name": "lockId",
          "type": "uint256"
        }
      ],
      "name": "unlock",
      "outputs": [],
      "stateMutability": "nonpayable",
      "type": "function"
    },
    {
      "inputs": [
        {
          "internalType": "address",
          "name": "newImplementation",
          "type": "address"
        },
        {
          "internalType": "bytes",
          "name": "data",
          "type": "bytes"
        }
      ],
      "name": "upgradeToAndCall",
      "outputs": [],
      "stateMutability": "payable",
      "type": "function"
    },
    {
      "inputs": [],
      "name": "version",
      "outputs": [
        {
          "internalType": "string",
          "name": "",
          "type": "string"
        }
      ],
      "stateMutability": "view",
      "type": "function"
    }
  ],
  "bytecode": "0x60a06040523073ffffffffffffffffffffffffffffffffffffffff1660809073ffffffffffffffffffffffffffffffffffffffff168152503480156200004457600080fd5b50620000556200005b60201b60201c565b620001cf565b60006200006d6200016560201b60201c565b90508060000160089054906101000a900460ff1615620000b9576040517ff92ee8a900000000000000000000000000000000000000000000000000000000815260040160405180910390fd5b67ffffffffffffffff80168160000160009054906101000a900467ffffffffffffffff1667ffffffffffffffff1614620001625767ffffffffffffffff8160000160006101000a81548167ffffffffffffffff021916908367ffffffffffffffff1602179055507fc7f505b2f371ae2175ee4913f4499e1f2633a7b5936321eed1cdaeb6115181d267ffffffffffffffff604051620001599190620001b2565b60405180910390a15b50565b60007ff0c57e16840df040f15088dc2f81fe391c3923bec73e23a9662efc9c229c6a00905090565b600067ffffffffffffffff82169050919050565b620001ac816200018d565b82525050565b6000602082019050620001c96000830184620001a1565b92915050565b608051615b21620001f96000396000818161314c015281816131a1015261335c0152615b216000f3fe6080604052600436106101e35760003560e01c8063715018a611610102578063adf6487511610095578063bd6018bb11610064578063bd6018bb14610689578063c4d66de8146106b2578063e30c3978146106db578063f2fde38b14610706576101e3565b8063adf64875146105e1578063b948ee881461060c578063bb9a91a414610635578063bc5542c01461065e576101e3565b80637d8cafaf116100d15780637d8cafaf146105395780637eb68f0f146105625780638da5cb5b1461058b578063ad3cb1cc146105b6576101e3565b8063715018a6146104b557806379022a9f146104cc57806379ba5097146104f75780637d65bbaf1461050e576101e3565b80634722d0861161017a5780635813ae5f116101495780635813ae5f146103f9578063598e630e146104245780636198e33914610461578063688701291461048a576101e3565b80634722d0861461035c5780634f1ef2861461038757806352d1902d146103a357806354fd4d50146103ce576101e3565b806327343374116101b657806327343374146102b85780632ecf3da1146102e15780633b9dce051461030a5780633f39f61814610333576101e3565b80630be67dde146101e85780630d36a9e9146102255780631c319c2d146102505780631e04c8691461028d575b600080fd5b3480156101f457600080fd5b5061020f600480360381019061020a9190613c30565b61072f565b60405161021c9190613c78565b60405180910390f35b34801561023157600080fd5b5061023a61074f565b6040516102479190613c78565b60405180910390f35b34801561025c57600080fd5b5061027760048036038101906102729190613cc9565b610762565b6040516102849190613d2b565b60405180910390f35b34801561029957600080fd5b506102a2610b99565b6040516102af9190613d55565b60405180910390f35b3480156102c457600080fd5b506102df60048036038101906102da9190613d70565b610bbf565b005b3480156102ed57600080fd5b5061030860048036038101906103039190613d9d565b610e39565b005b34801561031657600080fd5b50610331600480360381019061032c9190613c30565b6111d2565b005b34801561033f57600080fd5b5061035a60048036038101906103559190613d9d565b611354565b005b34801561036857600080fd5b5061037161165e565b60405161037e9190613d2b565b60405180910390f35b6103a1600480360381019061039c9190613f23565b611669565b005b3480156103af57600080fd5b506103b8611688565b6040516103c59190613f98565b60405180910390f35b3480156103da57600080fd5b506103e36116bb565b6040516103f09190614032565b60405180910390f35b34801561040557600080fd5b5061040e611749565b60405161041b9190614073565b60405180910390f35b34801561043057600080fd5b5061044b60048036038101906104469190613d70565b61174e565b6040516104589190613d2b565b60405180910390f35b34801561046d57600080fd5b5061048860048036038101906104839190613d70565b611c25565b005b34801561049657600080fd5b5061049f612007565b6040516104ac9190614073565b60405180910390f35b3480156104c157600080fd5b506104ca61200c565b005b3480156104d857600080fd5b506104e1612020565b6040516104ee9190613d55565b60405180910390f35b34801561050357600080fd5b5061050c612046565b005b34801561051a57600080fd5b506105236120d5565b6040516105309190613d55565b60405180910390f35b34801561054557600080fd5b50610560600480360381019061055b9190613c30565b6120f9565b005b34801561056e57600080fd5b50610589600480360381019061058491906140ba565b6122c2565b005b34801561059757600080fd5b506105a0612338565b6040516105ad9190613d55565b60405180910390f35b3480156105c257600080fd5b506105cb612370565b6040516105d89190614032565b60405180910390f35b3480156105ed57600080fd5b506105f66123a9565b6040516106039190614073565b60405180910390f35b34801561061857600080fd5b50610633600480360381019061062e9190613d70565b6123af565b005b34801561064157600080fd5b5061065c60048036038101906106579190613c30565b61266a565b005b34801561066a57600080fd5b50610673612833565b6040516106809190614073565b60405180910390f35b34801561069557600080fd5b506106b060048036038101906106ab9190613c30565b612838565b005b3480156106be57600080fd5b506106d960048036038101906106d49190613c30565b612943565b005b3480156106e757600080fd5b506106f0612c51565b6040516106fd9190613d55565b60405180910390f35b34801561071257600080fd5b5061072d60048036038101906107289190613c30565b612c89565b005b60006020528060005260406000206000915054906101000a900460ff1681565b600160009054906101000a900460ff1681565b60008073ffffffffffffffffffffffffffffffffffffffff168473ffffffffffffffffffffffffffffffffffffffff16036107d2576040517f08c379a00000000000000000000000000000000000000000000000000000000081526004016107c990614159565b60405180910390fd5b662386f26fc100008310156107ed662386f26fc10000612d45565b6040516020016107fd9190614227565b6040516020818303038152906040529061084d576040517f08c379a00000000000000000000000000000000000000000000000000000000081526004016108449190614032565b60405180910390fd5b50600e63ffffffff16821015610898576040517f08c379a000000000000000000000000000000000000000000000000000000000815260040161088f906142e1565b60405180910390fd5b6102da63ffffffff168211156108e3576040517f08c379a00000000000000000000000000000000000000000000000000000000081526004016108da90614399565b60405180910390fd5b600080803373ffffffffffffffffffffffffffffffffffffffff1673ffffffffffffffffffffffffffffffffffffffff16815260200190815260200160002060009054906101000a900460ff161561093d573390506109af565b3090508473ffffffffffffffffffffffffffffffffffffffff163373ffffffffffffffffffffffffffffffffffffffff16146109ae576040517f08c379a00000000000000000000000000000000000000000000000000000000081526004016109a590614451565b60405180910390fd5b5b600060018054906101000a900473ffffffffffffffffffffffffffffffffffffffff1673ffffffffffffffffffffffffffffffffffffffff166323b872dd3330886040518463ffffffff1660e01b8152600401610a0e93929190614471565b6020604051808303816000875af1158015610a2d573d6000803e3d6000fd5b505050506040513d601f19601f82011682018060405250810190610a5191906144bd565b905080610a93576040517f08c379a0000000000000000000000000000000000000000000000000000000008152600401610a8a90614582565b60405180910390fd5b6000600260009054906101000a900473ffffffffffffffffffffffffffffffffffffffff1673ffffffffffffffffffffffffffffffffffffffff16638f644c4a848989896040518563ffffffff1660e01b8152600401610af694939291906145a2565b6020604051808303816000875af1158015610b15573d6000803e3d6000fd5b505050506040513d601f19601f82011682018060405250810190610b3991906145fc565b90508673ffffffffffffffffffffffffffffffffffffffff16817fcb6d402bd9c967330931fd380cc28031109b3dd00fa83209d98556a84f3098728888604051610b84929190614629565b60405180910390a38093505050509392505050565b600260009054906101000a900473ffffffffffffffffffffffffffffffffffffffff1681565b6000600260009054906101000a900473ffffffffffffffffffffffffffffffffffffffff1673ffffffffffffffffffffffffffffffffffffffff16630dd8a598836040518263ffffffff1660e01b8152600401610c1c9190613d2b565b608060405180830381865afa158015610c39573d6000803e3d6000fd5b505050506040513d601f19601f82011682018060405250810190610c5d91906146e4565b905060001515610c6c82612e13565b151514610cae576040517f08c379a0000000000000000000000000000000000000000000000000000000008152600401610ca590614783565b60405180910390fd5b610cb88282612e7f565b610cf7576040517f08c379a0000000000000000000000000000000000000000000000000000000008152600401610cee90614815565b60405180910390fd5b6000816060015111610d3e576040517f08c379a0000000000000000000000000000000000000000000000000000000008152600401610d35906148a7565b60405180910390fd5b8060600151610d4b613041565b610d5591906148f6565b8160400181815250506000816060018181525050600260009054906101000a900473ffffffffffffffffffffffffffffffffffffffff1673ffffffffffffffffffffffffffffffffffffffff166344fa7ec3838360200151846040015185606001516040518563ffffffff1660e01b8152600401610dd6949392919061492a565b600060405180830381600087803b158015610df057600080fd5b505af1158015610e04573d6000803e3d6000fd5b50505050817fe2336b0f019b6d64d983b633cc91553784425a1291913a8866cc5ec4109a516660405160405180910390a25050565b6000600260009054906101000a900473ffffffffffffffffffffffffffffffffffffffff1673ffffffffffffffffffffffffffffffffffffffff16630dd8a598846040518263ffffffff1660e01b8152600401610e969190613d2b565b608060405180830381865afa158015610eb3573d6000803e3d6000fd5b505050506040513d601f19601f82011682018060405250810190610ed791906146e4565b905060001515610ee682612e13565b151514610f28576040517f08c379a0000000000000000000000000000000000000000000000000000000008152600401610f1f90614783565b60405180910390fd5b610f328382612e7f565b610f71576040517f08c379a0000000000000000000000000000000000000000000000000000000008152600401610f6890614815565b60405180910390fd5b60008211610fb4576040517f08c379a0000000000000000000000000000000000000000000000000000000008152600401610fab906149e1565b60405180910390fd5b600e63ffffffff16610fc582613057565b1015611006576040517f08c379a0000000000000000000000000000000000000000000000000000000008152600401610ffd90614a99565b60405180910390fd5b600060018054906101000a900473ffffffffffffffffffffffffffffffffffffffff1673ffffffffffffffffffffffffffffffffffffffff166323b872dd3330866040518463ffffffff1660e01b815260040161106593929190614471565b6020604051808303816000875af1158015611084573d6000803e3d6000fd5b505050506040513d601f19601f820116820180604052508101906110a891906144bd565b9050806110ea576040517f08c379a00000000000000000000000000000000000000000000000000000000081526004016110e190614582565b60405180910390fd5b600260009054906101000a900473ffffffffffffffffffffffffffffffffffffffff1673ffffffffffffffffffffffffffffffffffffffff166344fa7ec38585856020015161113991906148f6565b856040015186606001516040518563ffffffff1660e01b8152600401611162949392919061492a565b600060405180830381600087803b15801561117c57600080fd5b505af1158015611190573d6000803e3d6000fd5b50505050837f40f165645e1887a4eedf8a20bf663f9fd6d674acd00289b75985f5727166a149846040516111c49190613d2b565b60405180910390a250505050565b6111da6130aa565b600073ffffffffffffffffffffffffffffffffffffffff168173ffffffffffffffffffffffffffffffffffffffff1603611249576040517f08c379a000000000000000000000000000000000000000000000000000000000815260040161124090614b2b565b60405180910390fd5b3073ffffffffffffffffffffffffffffffffffffffff168173ffffffffffffffffffffffffffffffffffffffff16036112b7576040517f08c379a00000000000000000000000000000000000000000000000000000000081526004016112ae90614bbd565b60405180910390fd5b60016000808373ffffffffffffffffffffffffffffffffffffffff1673ffffffffffffffffffffffffffffffffffffffff16815260200190815260200160002060006101000a81548160ff0219169083151502179055508073ffffffffffffffffffffffffffffffffffffffff167fdb104e1416f68d399ce5c964fd1e78982eb3e26a36dfc60b3cea7558bba531f260405160405180910390a250565b6000600260009054906101000a900473ffffffffffffffffffffffffffffffffffffffff1673ffffffffffffffffffffffffffffffffffffffff16630dd8a598846040518263ffffffff1660e01b81526004016113b19190613d2b565b608060405180830381865afa1580156113ce573d6000803e3d6000fd5b505050506040513d601f19601f820116820180604052508101906113f291906146e4565b90506000151561140182612e13565b151514611443576040517f08c379a000000000000000000000000000000000000000000000000000000000815260040161143a90614783565b60405180910390fd5b61144d8382612e7f565b61148c576040517f08c379a000000000000000000000000000000000000000000000000000000000815260040161148390614815565b60405180910390fd5b600082116114cf576040517f08c379a00000000000000000000000000000000000000000000000000000000081526004016114c690614c4f565b60405180910390fd5b6102da63ffffffff16826114e283613057565b6114ec91906148f6565b111561152d576040517f08c379a000000000000000000000000000000000000000000000000000000000815260040161152490614d07565b60405180910390fd5b60008160600151111561155857818160600181815161154c91906148f6565b91508181525050611582565b8161156e8260400151611569613041565b613131565b61157891906148f6565b8160400181815250505b600260009054906101000a900473ffffffffffffffffffffffffffffffffffffffff1673ffffffffffffffffffffffffffffffffffffffff166344fa7ec3848360200151846040015185606001516040518563ffffffff1660e01b81526004016115ef949392919061492a565b600060405180830381600087803b15801561160957600080fd5b505af115801561161d573d6000803e3d6000fd5b50505050827fee812bf9972cc78e6bebd887615ac7e7300d9f6c0231a9bb13936e2511fb42b9836040516116519190613d2b565b60405180910390a2505050565b662386f26fc1000081565b61167161314a565b61167a82613230565b611684828261323b565b5050565b600061169261335a565b7f360894a13ba1a3210667c828492db98dca3e2076cc3735a920a3ca505d382bbc60001b905090565b600480546116c890614d56565b80601f01602080910402602001604051908101604052809291908181526020018280546116f490614d56565b80156117415780601f1061171657610100808354040283529160200191611741565b820191906000526020600020905b81548152906001019060200180831161172457829003601f168201915b505050505081565b600e81565b600080600260009054906101000a900473ffffffffffffffffffffffffffffffffffffffff1673ffffffffffffffffffffffffffffffffffffffff16630dd8a598846040518263ffffffff1660e01b81526004016117ac9190613d2b565b608060405180830381865afa1580156117c9573d6000803e3d6000fd5b505050506040513d601f19601f820116820180604052508101906117ed91906146e4565b9050600015156117fc82612e13565b15151461183e576040517f08c379a000000000000000000000000000000000000000000000000000000000815260040161183590614783565b60405180910390fd5b6118488382612e7f565b611887576040517f08c379a000000000000000000000000000000000000000000000000000000000815260040161187e90614815565b60405180910390fd5b600363ffffffff1661189882613057565b116118d8576040517f08c379a00000000000000000000000000000000000000000000000000000000081526004016118cf90614df9565b60405180910390fd5b60006118f082602001516118eb84613057565b6133e1565b905060008183602001516119049190614e19565b90506000600363ffffffff16611918613041565b61192291906148f6565b9050600260009054906101000a900473ffffffffffffffffffffffffffffffffffffffff1673ffffffffffffffffffffffffffffffffffffffff166344fa7ec387848460006040518563ffffffff1660e01b81526004016119869493929190614e92565b600060405180830381600087803b1580156119a057600080fd5b505af11580156119b4573d6000803e3d6000fd5b505050503073ffffffffffffffffffffffffffffffffffffffff16846000015173ffffffffffffffffffffffffffffffffffffffff1603611af957600060018054906101000a900473ffffffffffffffffffffffffffffffffffffffff1673ffffffffffffffffffffffffffffffffffffffff1663a9059cbb600360009054906101000a900473ffffffffffffffffffffffffffffffffffffffff16866040518363ffffffff1660e01b8152600401611a6e929190614ed7565b6020604051808303816000875af1158015611a8d573d6000803e3d6000fd5b505050506040513d601f19601f82011682018060405250810190611ab191906144bd565b905080611af3576040517f08c379a0000000000000000000000000000000000000000000000000000000008152600401611aea90614f98565b60405180910390fd5b50611be1565b600060018054906101000a900473ffffffffffffffffffffffffffffffffffffffff1673ffffffffffffffffffffffffffffffffffffffff1663a9059cbb8660000151866040518363ffffffff1660e01b8152600401611b5a929190614ed7565b6020604051808303816000875af1158015611b79573d6000803e3d6000fd5b505050506040513d601f19601f82011682018060405250810190611b9d91906144bd565b905080611bdf576040517f08c379a0000000000000000000000000000000000000000000000000000000008152600401611bd690615050565b60405180910390fd5b505b857feb33483064b8cdd45c0d423e56ccdb7bd92bf41b7639e3cc43f0827569ea8ef084604051611c119190613d2b565b60405180910390a282945050505050919050565b6000600260009054906101000a900473ffffffffffffffffffffffffffffffffffffffff1673ffffffffffffffffffffffffffffffffffffffff16630dd8a598836040518263ffffffff1660e01b8152600401611c829190613d2b565b608060405180830381865afa158015611c9f573d6000803e3d6000fd5b505050506040513d601f19601f82011682018060405250810190611cc391906146e4565b905060001515611cd282612e13565b151514611d14576040517f08c379a0000000000000000000000000000000000000000000000000000000008152600401611d0b90614783565b60405180910390fd5b611d1e8282612e7f565b611d5d576040517f08c379a0000000000000000000000000000000000000000000000000000000008152600401611d5490614815565b60405180910390fd5b611d65613041565b816040015111158015611d7c575060008160600151145b15611f9b576000600260009054906101000a900473ffffffffffffffffffffffffffffffffffffffff1673ffffffffffffffffffffffffffffffffffffffff16636352211e846040518263ffffffff1660e01b8152600401611dde9190613d2b565b602060405180830381865afa158015611dfb573d6000803e3d6000fd5b505050506040513d601f19601f82011682018060405250810190611e1f9190615070565b9050600060018054906101000a900473ffffffffffffffffffffffffffffffffffffffff1673ffffffffffffffffffffffffffffffffffffffff1663a9059cbb8385602001516040518363ffffffff1660e01b8152600401611e82929190614ed7565b6020604051808303816000875af1158015611ea1573d6000803e3d6000fd5b505050506040513d601f19601f82011682018060405250810190611ec591906144bd565b905080611f07576040517f08c379a0000000000000000000000000000000000000000000000000000000008152600401611efe90615135565b60405180910390fd5b600260009054906101000a900473ffffffffffffffffffffffffffffffffffffffff1673ffffffffffffffffffffffffffffffffffffffff166314dada97856040518263ffffffff1660e01b8152600401611f629190613d2b565b600060405180830381600087803b158015611f7c57600080fd5b505af1158015611f90573d6000803e3d6000fd5b505050505050611fd6565b6040517f08c379a0000000000000000000000000000000000000000000000000000000008152600401611fcd906151c7565b60405180910390fd5b817feee647db6c0a03db5d39e16a06c406c207433efb223094007a77ecfbd0169a2360405160405180910390a25050565b600381565b6120146130aa565b61201e6000613490565b565b600360009054906101000a900473ffffffffffffffffffffffffffffffffffffffff1681565b60006120506134d0565b90508073ffffffffffffffffffffffffffffffffffffffff16612071612c51565b73ffffffffffffffffffffffffffffffffffffffff16146120c957806040517f118cdaa70000000000000000000000000000000000000000000000000000000081526004016120c09190613d55565b60405180910390fd5b6120d281613490565b50565b60018054906101000a900473ffffffffffffffffffffffffffffffffffffffff1681565b6121016130aa565b600073ffffffffffffffffffffffffffffffffffffffff16600360009054906101000a900473ffffffffffffffffffffffffffffffffffffffff1673ffffffffffffffffffffffffffffffffffffffff1614612192576040517f08c379a000000000000000000000000000000000000000000000000000000000815260040161218990615259565b60405180910390fd5b600073ffffffffffffffffffffffffffffffffffffffff168173ffffffffffffffffffffffffffffffffffffffff1603612201576040517f08c379a00000000000000000000000000000000000000000000000000000000081526004016121f8906152eb565b60405180910390fd5b80600360006101000a81548173ffffffffffffffffffffffffffffffffffffffff021916908373ffffffffffffffffffffffffffffffffffffffff160217905550600360009054906101000a900473ffffffffffffffffffffffffffffffffffffffff1673ffffffffffffffffffffffffffffffffffffffff16600073ffffffffffffffffffffffffffffffffffffffff167fcd00453eb43db44612ec2c91157e3cadc2b78bfbedb7c32f0be76c172e46de1a60405160405180910390a350565b6122ca6130aa565b80600160006101000a81548160ff021916908315150217905550600160009054906101000a900460ff161515600160009054906101000a900460ff161515157f0c6b707b92614f56075ef31510cebfcc59ff7e9f77ff68a3bbdb32203781bd5860405160405180910390a350565b6000806123436134d8565b90508060000160009054906101000a900473ffffffffffffffffffffffffffffffffffffffff1691505090565b6040518060400160405280600581526020017f352e302e3000000000000000000000000000000000000000000000000000000081525081565b6102da81565b6000600260009054906101000a900473ffffffffffffffffffffffffffffffffffffffff1673ffffffffffffffffffffffffffffffffffffffff16630dd8a598836040518263ffffffff1660e01b815260040161240c9190613d2b565b608060405180830381865afa158015612429573d6000803e3d6000fd5b505050506040513d601f19601f8201168201806040525081019061244d91906146e4565b90506000151561245c82612e13565b15151461249e576040517f08c379a000000000000000000000000000000000000000000000000000000000815260040161249590614783565b60405180910390fd5b6124a88282612e7f565b6124e7576040517f08c379a00000000000000000000000000000000000000000000000000000000081526004016124de90614815565b60405180910390fd5b600081606001511461252e576040517f08c379a00000000000000000000000000000000000000000000000000000000081526004016125259061537d565b60405180910390fd5b6000612538613041565b905080826040015111612580576040517f08c379a00000000000000000000000000000000000000000000000000000000081526004016125779061540f565b60405180910390fd5b8082604001516125909190614e19565b826060018181525050600260009054906101000a900473ffffffffffffffffffffffffffffffffffffffff1673ffffffffffffffffffffffffffffffffffffffff166344fa7ec3848460200151856040015186606001516040518563ffffffff1660e01b8152600401612606949392919061492a565b600060405180830381600087803b15801561262057600080fd5b505af1158015612634573d6000803e3d6000fd5b50505050827fc4ebe34a45cc33aa3d72178425edc09be9c875ad0f29497f6d61904dbaba080760405160405180910390a2505050565b6126726130aa565b600073ffffffffffffffffffffffffffffffffffffffff16600260009054906101000a900473ffffffffffffffffffffffffffffffffffffffff1673ffffffffffffffffffffffffffffffffffffffff1614612703576040517f08c379a00000000000000000000000000000000000000000000000000000000081526004016126fa906154a1565b60405180910390fd5b600073ffffffffffffffffffffffffffffffffffffffff168173ffffffffffffffffffffffffffffffffffffffff1603612772576040517f08c379a000000000000000000000000000000000000000000000000000000000815260040161276990615533565b60405180910390fd5b80600260006101000a81548173ffffffffffffffffffffffffffffffffffffffff021916908373ffffffffffffffffffffffffffffffffffffffff160217905550600260009054906101000a900473ffffffffffffffffffffffffffffffffffffffff1673ffffffffffffffffffffffffffffffffffffffff16600073ffffffffffffffffffffffffffffffffffffffff167fecc30bcf908eae6ef06b6d3cd3b86ceffa1a42c05bd5b69e27bc9c31f43860d860405160405180910390a350565b600281565b6128406130aa565b600073ffffffffffffffffffffffffffffffffffffffff168173ffffffffffffffffffffffffffffffffffffffff16036128af576040517f08c379a00000000000000000000000000000000000000000000000000000000081526004016128a690614b2b565b60405180910390fd5b6000808273ffffffffffffffffffffffffffffffffffffffff1673ffffffffffffffffffffffffffffffffffffffff16815260200190815260200160002060006101000a81549060ff02191690558073ffffffffffffffffffffffffffffffffffffffff167f713a0e858d9c5d2dfd1dc6611ca6da626d48ef0515d3f83e8d609e790a13c65560405160405180910390a250565b600061294d613500565b905060008160000160089054906101000a900460ff1615905060008260000160009054906101000a900467ffffffffffffffff1690506000808267ffffffffffffffff1614801561299b5750825b9050600060018367ffffffffffffffff161480156129d0575060003073ffffffffffffffffffffffffffffffffffffffff163b145b9050811580156129de575080155b15612a15576040517ff92ee8a900000000000000000000000000000000000000000000000000000000815260040160405180910390fd5b60018560000160006101000a81548167ffffffffffffffff021916908367ffffffffffffffff1602179055508315612a655760018560000160086101000a81548160ff0219169083151502179055505b600073ffffffffffffffffffffffffffffffffffffffff168673ffffffffffffffffffffffffffffffffffffffff1603612ad4576040517f08c379a0000000000000000000000000000000000000000000000000000000008152600401612acb906155c5565b60405180910390fd5b612adc613528565b612ae533613532565b612aed613546565b856001806101000a81548173ffffffffffffffffffffffffffffffffffffffff021916908373ffffffffffffffffffffffffffffffffffffffff1602179055506040518060400160405280600581526020017f312e302e3000000000000000000000000000000000000000000000000000000081525060049081612b719190615787565b5060018054906101000a900473ffffffffffffffffffffffffffffffffffffffff1673ffffffffffffffffffffffffffffffffffffffff16600073ffffffffffffffffffffffffffffffffffffffff167fff8455f28389115884b403b7576bbe59ea1a5ae18a63c59bbfb61ba7dec6fa1760405160405180910390a38315612c495760008560000160086101000a81548160ff0219169083151502179055507fc7f505b2f371ae2175ee4913f4499e1f2633a7b5936321eed1cdaeb6115181d26001604051612c4091906158a8565b60405180910390a15b505050505050565b600080612c5c613550565b90508060000160009054906101000a900473ffffffffffffffffffffffffffffffffffffffff1691505090565b612c916130aa565b6000612c9b613550565b9050818160000160006101000a81548173ffffffffffffffffffffffffffffffffffffffff021916908373ffffffffffffffffffffffffffffffffffffffff1602179055508173ffffffffffffffffffffffffffffffffffffffff16612cff612338565b73ffffffffffffffffffffffffffffffffffffffff167f38d16b8cac22d99fc7c124b9cd0de2d3fa1faef420bfe791d8c362d765e2270060405160405180910390a35050565b606060006001612d5484613578565b01905060008167ffffffffffffffff811115612d7357612d72613df8565b5b6040519080825280601f01601f191660200182016040528015612da55781602001600182028036833780820191505090505b509050600082602001820190505b600115612e08578080600190039150507f3031323334353637383961626364656600000000000000000000000000000000600a86061a8153600a8581612dfc57612dfb6158c3565b5b04945060008503612db3575b819350505050919050565b60008073ffffffffffffffffffffffffffffffffffffffff16826000015173ffffffffffffffffffffffffffffffffffffffff16148015612e58575060008260200151145b8015612e68575060008260400151145b8015612e78575060008260600151145b9050919050565b600080600260009054906101000a900473ffffffffffffffffffffffffffffffffffffffff1673ffffffffffffffffffffffffffffffffffffffff16636352211e856040518263ffffffff1660e01b8152600401612edd9190613d2b565b602060405180830381865afa158015612efa573d6000803e3d6000fd5b505050506040513d601f19601f82011682018060405250810190612f1e9190615070565b905060008060003373ffffffffffffffffffffffffffffffffffffffff1673ffffffffffffffffffffffffffffffffffffffff16815260200190815260200160002060009054906101000a900460ff168015612fa957503373ffffffffffffffffffffffffffffffffffffffff16846000015173ffffffffffffffffffffffffffffffffffffffff16145b905060003373ffffffffffffffffffffffffffffffffffffffff168373ffffffffffffffffffffffffffffffffffffffff1614801561301757503073ffffffffffffffffffffffffffffffffffffffff16856000015173ffffffffffffffffffffffffffffffffffffffff16145b905081806130225750805b15613033576001935050505061303b565b600093505050505b92915050565b6000620151804261305291906158f2565b905090565b60008082606001510361309d57600061306e613041565b9050808360400151116130855760009150506130a5565b8083604001516130959190614e19565b9150506130a5565b816060015190505b919050565b6130b26134d0565b73ffffffffffffffffffffffffffffffffffffffff166130d0612338565b73ffffffffffffffffffffffffffffffffffffffff161461312f576130f36134d0565b6040517f118cdaa70000000000000000000000000000000000000000000000000000000081526004016131269190613d55565b60405180910390fd5b565b60008183116131405781613142565b825b905092915050565b7f000000000000000000000000000000000000000000000000000000000000000073ffffffffffffffffffffffffffffffffffffffff163073ffffffffffffffffffffffffffffffffffffffff1614806131f757507f000000000000000000000000000000000000000000000000000000000000000073ffffffffffffffffffffffffffffffffffffffff166131de6136cb565b73ffffffffffffffffffffffffffffffffffffffff1614155b1561322e576040517fe07c8dba00000000000000000000000000000000000000000000000000000000815260040160405180910390fd5b565b6132386130aa565b50565b8173ffffffffffffffffffffffffffffffffffffffff166352d1902d6040518163ffffffff1660e01b8152600401602060405180830381865afa9250505080156132a357506040513d601f19601f820116820180604052508101906132a0919061594f565b60015b6132e457816040517f4c9c8ce30000000000000000000000000000000000000000000000000000000081526004016132db9190613d55565b60405180910390fd5b7f360894a13ba1a3210667c828492db98dca3e2076cc3735a920a3ca505d382bbc60001b811461334b57806040517faa1d49a40000000000000000000000000000000000000000000000000000000081526004016133429190613f98565b60405180910390fd5b6133558383613722565b505050565b7f000000000000000000000000000000000000000000000000000000000000000073ffffffffffffffffffffffffffffffffffffffff163073ffffffffffffffffffffffffffffffffffffffff16146133df576040517fe07c8dba00000000000000000000000000000000000000000000000000000000815260040160405180910390fd5b565b6000600160009054906101000a900460ff1615613401576000905061348a565b600363ffffffff16821161344a576040517f08c379a0000000000000000000000000000000000000000000000000000000008152600401613441906159ee565b60405180910390fd5b60026102da6134599190615a0e565b63ffffffff16600363ffffffff16836134729190614e19565b8461347d9190615a4b565b61348791906158f2565b90505b92915050565b600061349a613550565b90508060000160006101000a81549073ffffffffffffffffffffffffffffffffffffffff02191690556134cc82613795565b5050565b600033905090565b60007f9016d09d72d40fdae2fd8ceac6b6234c7706214fd39c1cd1e609a0528c199300905090565b60007ff0c57e16840df040f15088dc2f81fe391c3923bec73e23a9662efc9c229c6a00905090565b61353061386c565b565b61353a61386c565b613543816138ac565b50565b61354e61386c565b565b60007f237e158222e3e6968b72b9db0d8043aacf074ad9f650f0d1606b4d82ee432c00905090565b600080600090507a184f03e93ff9f4daa797ed6e38ed64bf6a1f01000000000000000083106135d6577a184f03e93ff9f4daa797ed6e38ed64bf6a1f01000000000000000083816135cc576135cb6158c3565b5b0492506040810190505b6d04ee2d6d415b85acef81000000008310613613576d04ee2d6d415b85acef81000000008381613609576136086158c3565b5b0492506020810190505b662386f26fc10000831061364257662386f26fc100008381613638576136376158c3565b5b0492506010810190505b6305f5e100831061366b576305f5e1008381613661576136606158c3565b5b0492506008810190505b6127108310613690576127108381613686576136856158c3565b5b0492506004810190505b606483106136b357606483816136a9576136a86158c3565b5b0492506002810190505b600a83106136c2576001810190505b80915050919050565b60006136f97f360894a13ba1a3210667c828492db98dca3e2076cc3735a920a3ca505d382bbc60001b613932565b60000160009054906101000a900473ffffffffffffffffffffffffffffffffffffffff16905090565b61372b8261393c565b8173ffffffffffffffffffffffffffffffffffffffff167fbc7cd75a20ee27fd9adebab32041f755214dbc6bffa90cc0225b39da2e5c2d3b60405160405180910390a2600081511115613788576137828282613a09565b50613791565b613790613a8d565b5b5050565b600061379f6134d8565b905060008160000160009054906101000a900473ffffffffffffffffffffffffffffffffffffffff169050828260000160006101000a81548173ffffffffffffffffffffffffffffffffffffffff021916908373ffffffffffffffffffffffffffffffffffffffff1602179055508273ffffffffffffffffffffffffffffffffffffffff168173ffffffffffffffffffffffffffffffffffffffff167f8be0079c531659141344cd1fd0a4f28419497f9722a3daafe3b4186f6b6457e060405160405180910390a3505050565b613874613aca565b6138aa576040517fd7e6bcf800000000000000000000000000000000000000000000000000000000815260040160405180910390fd5b565b6138b461386c565b600073ffffffffffffffffffffffffffffffffffffffff168173ffffffffffffffffffffffffffffffffffffffff16036139265760006040517f1e4fbdf700000000000000000000000000000000000000000000000000000000815260040161391d9190613d55565b60405180910390fd5b61392f81613490565b50565b6000819050919050565b60008173ffffffffffffffffffffffffffffffffffffffff163b0361399857806040517f4c9c8ce300000000000000000000000000000000000000000000000000000000815260040161398f9190613d55565b60405180910390fd5b806139c57f360894a13ba1a3210667c828492db98dca3e2076cc3735a920a3ca505d382bbc60001b613932565b60000160006101000a81548173ffffffffffffffffffffffffffffffffffffffff021916908373ffffffffffffffffffffffffffffffffffffffff16021790555050565b60606000808473ffffffffffffffffffffffffffffffffffffffff1684604051613a339190615ad4565b600060405180830381855af49150503d8060008114613a6e576040519150601f19603f3d011682016040523d82523d6000602084013e613a73565b606091505b5091509150613a83858383613aea565b9250505092915050565b6000341115613ac8576040517fb398979f00000000000000000000000000000000000000000000000000000000815260040160405180910390fd5b565b6000613ad4613500565b60000160089054906101000a900460ff16905090565b606082613aff57613afa82613b79565b613b71565b60008251148015613b27575060008473ffffffffffffffffffffffffffffffffffffffff163b145b15613b6957836040517f9996b315000000000000000000000000000000000000000000000000000000008152600401613b609190613d55565b60405180910390fd5b819050613b72565b5b9392505050565b600081511115613b8c5780518082602001fd5b6040517f1425ea4200000000000000000000000000000000000000000000000000000000815260040160405180910390fd5b6000604051905090565b600080fd5b600080fd5b600073ffffffffffffffffffffffffffffffffffffffff82169050919050565b6000613bfd82613bd2565b9050919050565b613c0d81613bf2565b8114613c1857600080fd5b50565b600081359050613c2a81613c04565b92915050565b600060208284031215613c4657613c45613bc8565b5b6000613c5484828501613c1b565b91505092915050565b60008115159050919050565b613c7281613c5d565b82525050565b6000602082019050613c8d6000830184613c69565b92915050565b6000819050919050565b613ca681613c93565b8114613cb157600080fd5b50565b600081359050613cc381613c9d565b92915050565b600080600060608486031215613ce257613ce1613bc8565b5b6000613cf086828701613c1b565b9350506020613d0186828701613cb4565b9250506040613d1286828701613cb4565b9150509250925092565b613d2581613c93565b82525050565b6000602082019050613d406000830184613d1c565b92915050565b613d4f81613bf2565b82525050565b6000602082019050613d6a6000830184613d46565b92915050565b600060208284031215613d8657613d85613bc8565b5b6000613d9484828501613cb4565b91505092915050565b60008060408385031215613db457613db3613bc8565b5b6000613dc285828601613cb4565b9250506020613dd385828601613cb4565b9150509250929050565b600080fd5b600080fd5b6000601f19601f8301169050919050565b7f4e487b7100000000000000000000000000000000000000000000000000000000600052604160045260246000fd5b613e3082613de7565b810181811067ffffffffffffffff82111715613e4f57613e4e613df8565b5b80604052505050565b6000613e62613bbe565b9050613e6e8282613e27565b919050565b600067ffffffffffffffff821115613e8e57613e8d613df8565b5b613e9782613de7565b9050602081019050919050565b82818337600083830152505050565b6000613ec6613ec184613e73565b613e58565b905082815260208101848484011115613ee257613ee1613de2565b5b613eed848285613ea4565b509392505050565b600082601f830112613f0a57613f09613ddd565b5b8135613f1a848260208601613eb3565b91505092915050565b60008060408385031215613f3a57613f39613bc8565b5b6000613f4885828601613c1b565b925050602083013567ffffffffffffffff811115613f6957613f68613bcd565b5b613f7585828601613ef5565b9150509250929050565b6000819050919050565b613f9281613f7f565b82525050565b6000602082019050613fad6000830184613f89565b92915050565b600081519050919050565b600082825260208201905092915050565b60005b83811015613fed578082015181840152602081019050613fd2565b60008484015250505050565b600061400482613fb3565b61400e8185613fbe565b935061401e818560208601613fcf565b61402781613de7565b840191505092915050565b6000602082019050818103600083015261404c8184613ff9565b905092915050565b600063ffffffff82169050919050565b61406d81614054565b82525050565b60006020820190506140886000830184614064565b92915050565b61409781613c5d565b81146140a257600080fd5b50565b6000813590506140b48161408e565b92915050565b6000602082840312156140d0576140cf613bc8565b5b60006140de848285016140a5565b91505092915050565b7f4c325374616b696e673a206c6f636b4f776e657220616464726573732063616e60008201527f206e6f74206265207a65726f0000000000000000000000000000000000000000602082015250565b6000614143602c83613fbe565b915061414e826140e7565b604082019050919050565b6000602082019050818103600083015261417281614136565b9050919050565b600081905092915050565b7f4c325374616b696e673a20616d6f756e742073686f756c64206265206772656160008201527f746572207468616e206f7220657175616c20746f200000000000000000000000602082015250565b60006141e0603583614179565b91506141eb82614184565b603582019050919050565b600061420182613fb3565b61420b8185614179565b935061421b818560208601613fcf565b80840191505092915050565b6000614232826141d3565b915061423e82846141f6565b915081905092915050565b7f4c325374616b696e673a206c6f636b696e674475726174696f6e2073686f756c60008201527f64206265206174206c65617374204d494e5f4c4f434b494e475f44555241544960208201527f4f4e000000000000000000000000000000000000000000000000000000000000604082015250565b60006142cb604283613fbe565b91506142d682614249565b606082019050919050565b600060208201905081810360008301526142fa816142be565b9050919050565b7f4c325374616b696e673a206c6f636b696e674475726174696f6e2063616e206e60008201527f6f742062652067726561746572207468616e204d41585f4c4f434b494e475f4460208201527f55524154494f4e00000000000000000000000000000000000000000000000000604082015250565b6000614383604783613fbe565b915061438e82614301565b606082019050919050565b600060208201905081810360008301526143b281614376565b9050919050565b7f4c325374616b696e673a206f776e657220646966666572656e74207468616e2060008201527f6d6573736167652073656e6465722c2063616e206e6f7420637265617465206c60208201527f6f636b696e6720706f736974696f6e0000000000000000000000000000000000604082015250565b600061443b604f83613fbe565b9150614446826143b9565b606082019050919050565b6000602082019050818103600083015261446a8161442e565b9050919050565b60006060820190506144866000830186613d46565b6144936020830185613d46565b6144a06040830184613d1c565b949350505050565b6000815190506144b78161408e565b92915050565b6000602082840312156144d3576144d2613bc8565b5b60006144e1848285016144a8565b91505092915050565b7f4c325374616b696e673a204c534b20746f6b656e207472616e7366657220667260008201527f6f6d206f776e6572206f722063726561746f7220746f205374616b696e67206360208201527f6f6e7472616374206661696c6564000000000000000000000000000000000000604082015250565b600061456c604e83613fbe565b9150614577826144ea565b606082019050919050565b6000602082019050818103600083015261459b8161455f565b9050919050565b60006080820190506145b76000830187613d46565b6145c46020830186613d46565b6145d16040830185613d1c565b6145de6060830184613d1c565b95945050505050565b6000815190506145f681613c9d565b92915050565b60006020828403121561461257614611613bc8565b5b6000614620848285016145e7565b91505092915050565b600060408201905061463e6000830185613d1c565b61464b6020830184613d1c565b9392505050565b600080fd5b60008151905061466681613c04565b92915050565b60006080828403121561468257614681614652565b5b61468c6080613e58565b9050600061469c84828501614657565b60008301525060206146b0848285016145e7565b60208301525060406146c4848285016145e7565b60408301525060606146d8848285016145e7565b60608301525092915050565b6000608082840312156146fa576146f9613bc8565b5b60006147088482850161466c565b91505092915050565b7f4c325374616b696e673a206c6f636b696e6720706f736974696f6e20646f657360008201527f206e6f7420657869737400000000000000000000000000000000000000000000602082015250565b600061476d602a83613fbe565b915061477882614711565b604082019050919050565b6000602082019050818103600083015261479c81614760565b9050919050565b7f4c325374616b696e673a206f6e6c79206f776e6572206f722063726561746f7260008201527f2063616e2063616c6c20746869732066756e6374696f6e000000000000000000602082015250565b60006147ff603783613fbe565b915061480a826147a3565b604082019050919050565b6000602082019050818103600083015261482e816147f2565b9050919050565b7f4c325374616b696e673a20636f756e74646f776e206973206e6f74207061757360008201527f6564000000000000000000000000000000000000000000000000000000000000602082015250565b6000614891602283613fbe565b915061489c82614835565b604082019050919050565b600060208201905081810360008301526148c081614884565b9050919050565b7f4e487b7100000000000000000000000000000000000000000000000000000000600052601160045260246000fd5b600061490182613c93565b915061490c83613c93565b9250828201905080821115614924576149236148c7565b5b92915050565b600060808201905061493f6000830187613d1c565b61494c6020830186613d1c565b6149596040830185613d1c565b6149666060830184613d1c565b95945050505050565b7f4c325374616b696e673a20696e6372656173656420616d6f756e742073686f7560008201527f6c642062652067726561746572207468616e207a65726f000000000000000000602082015250565b60006149cb603783613fbe565b91506149d68261496f565b604082019050919050565b600060208201905081810360008301526149fa816149be565b9050919050565b7f4c325374616b696e673a2063616e206e6f7420696e63726561736520616d6f7560008201527f6e742c206c657373207468616e206d696e696d756d206c6f636b696e6720647560208201527f726174696f6e2072656d61696e696e6700000000000000000000000000000000604082015250565b6000614a83605083613fbe565b9150614a8e82614a01565b606082019050919050565b60006020820190508181036000830152614ab281614a76565b9050919050565b7f4c325374616b696e673a2063726561746f7220616464726573732063616e206e60008201527f6f74206265207a65726f00000000000000000000000000000000000000000000602082015250565b6000614b15602a83613fbe565b9150614b2082614ab9565b604082019050919050565b60006020820190508181036000830152614b4481614b08565b9050919050565b7f4c325374616b696e673a205374616b696e6720636f6e74726163742063616e2060008201527f6e6f7420626520616464656420617320612063726561746f7200000000000000602082015250565b6000614ba7603983613fbe565b9150614bb282614b4b565b604082019050919050565b60006020820190508181036000830152614bd681614b9a565b9050919050565b7f4c325374616b696e673a20657874656e64446179732073686f756c642062652060008201527f67726561746572207468616e207a65726f000000000000000000000000000000602082015250565b6000614c39603183613fbe565b9150614c4482614bdd565b604082019050919050565b60006020820190508181036000830152614c6881614c2c565b9050919050565b7f4c325374616b696e673a206c6f636b696e67206475726174696f6e2063616e2060008201527f6e6f7420626520657874656e64656420746f206d6f7265207468616e204d415860208201527f5f4c4f434b494e475f4455524154494f4e000000000000000000000000000000604082015250565b6000614cf1605183613fbe565b9150614cfc82614c6f565b606082019050919050565b60006020820190508181036000830152614d2081614ce4565b9050919050565b7f4e487b7100000000000000000000000000000000000000000000000000000000600052602260045260246000fd5b60006002820490506001821680614d6e57607f821691505b602082108103614d8157614d80614d27565b5b50919050565b7f4c325374616b696e673a206c657373207468616e2033206461797320756e746960008201527f6c20756e6c6f636b000000000000000000000000000000000000000000000000602082015250565b6000614de3602883613fbe565b9150614dee82614d87565b604082019050919050565b60006020820190508181036000830152614e1281614dd6565b9050919050565b6000614e2482613c93565b9150614e2f83613c93565b9250828203905081811115614e4757614e466148c7565b5b92915050565b6000819050919050565b6000819050919050565b6000614e7c614e77614e7284614e4d565b614e57565b613c93565b9050919050565b614e8c81614e61565b82525050565b6000608082019050614ea76000830187613d1c565b614eb46020830186613d1c565b614ec16040830185613d1c565b614ece6060830184614e83565b95945050505050565b6000604082019050614eec6000830185613d46565b614ef96020830184613d1c565b9392505050565b7f4c325374616b696e673a204c534b20746f6b656e207472616e7366657220667260008201527f6f6d205374616b696e6720636f6e747261637420746f2044414f206661696c6560208201527f6400000000000000000000000000000000000000000000000000000000000000604082015250565b6000614f82604183613fbe565b9150614f8d82614f00565b606082019050919050565b60006020820190508181036000830152614fb181614f75565b9050919050565b7f4c325374616b696e673a204c534b20746f6b656e207472616e7366657220667260008201527f6f6d205374616b696e6720636f6e747261637420746f2063726561746f72206660208201527f61696c6564000000000000000000000000000000000000000000000000000000604082015250565b600061503a604583613fbe565b915061504582614fb8565b606082019050919050565b600060208201905081810360008301526150698161502d565b9050919050565b60006020828403121561508657615085613bc8565b5b600061509484828501614657565b91505092915050565b7f4c325374616b696e673a204c534b20746f6b656e207472616e7366657220667260008201527f6f6d205374616b696e6720636f6e747261637420746f206f776e65722066616960208201527f6c65640000000000000000000000000000000000000000000000000000000000604082015250565b600061511f604383613fbe565b915061512a8261509d565b606082019050919050565b6000602082019050818103600083015261514e81615112565b9050919050565b7f4c325374616b696e673a206c6f636b696e67206475726174696f6e206163746960008201527f76652c2063616e206e6f7420756e6c6f636b0000000000000000000000000000602082015250565b60006151b1603283613fbe565b91506151bc82615155565b604082019050919050565b600060208201905081810360008301526151e0816151a4565b9050919050565b7f4c325374616b696e673a204c69736b2044414f20547265617375727920636f6e60008201527f747261637420697320616c726561647920696e697469616c697a656400000000602082015250565b6000615243603c83613fbe565b915061524e826151e7565b604082019050919050565b6000602082019050818103600083015261527281615236565b9050919050565b7f4c325374616b696e673a204c69736b2044414f20547265617375727920636f6e60008201527f747261637420616464726573732063616e206e6f74206265207a65726f000000602082015250565b60006152d5603d83613fbe565b91506152e082615279565b604082019050919050565b60006020820190508181036000830152615304816152c8565b9050919050565b7f4c325374616b696e673a2072656d61696e696e67206475726174696f6e20697360008201527f20616c7265616479207061757365640000000000000000000000000000000000602082015250565b6000615367602f83613fbe565b91506153728261530b565b604082019050919050565b600060208201905081810360008301526153968161535a565b9050919050565b7f4c325374616b696e673a206c6f636b696e6720706572696f642068617320656e60008201527f6465640000000000000000000000000000000000000000000000000000000000602082015250565b60006153f9602383613fbe565b91506154048261539d565b604082019050919050565b60006020820190508181036000830152615428816153ec565b9050919050565b7f4c325374616b696e673a204c6f636b696e6720506f736974696f6e20636f6e7460008201527f7261637420697320616c726561647920696e697469616c697a65640000000000602082015250565b600061548b603b83613fbe565b91506154968261542f565b604082019050919050565b600060208201905081810360008301526154ba8161547e565b9050919050565b7f4c325374616b696e673a204c6f636b696e6720506f736974696f6e20636f6e7460008201527f7261637420616464726573732063616e206e6f74206265207a65726f00000000602082015250565b600061551d603c83613fbe565b9150615528826154c1565b604082019050919050565b6000602082019050818103600083015261554c81615510565b9050919050565b7f4c325374616b696e673a204c534b20746f6b656e20636f6e747261637420616460008201527f64726573732063616e206e6f74206265207a65726f0000000000000000000000602082015250565b60006155af603583613fbe565b91506155ba82615553565b604082019050919050565b600060208201905081810360008301526155de816155a2565b9050919050565b60008190508160005260206000209050919050565b60006020601f8301049050919050565b600082821b905092915050565b6000600883026156477fffffffffffffffffffffffffffffffffffffffffffffffffffffffffffffffff8261560a565b615651868361560a565b95508019841693508086168417925050509392505050565b600061568461567f61567a84613c93565b614e57565b613c93565b9050919050565b6000819050919050565b61569e83615669565b6156b26156aa8261568b565b848454615617565b825550505050565b600090565b6156c76156ba565b6156d2818484615695565b505050565b5b818110156156f6576156eb6000826156bf565b6001810190506156d8565b5050565b601f82111561573b5761570c816155e5565b615715846155fa565b81016020851015615724578190505b615738615730856155fa565b8301826156d7565b50505b505050565b600082821c905092915050565b600061575e60001984600802615740565b1980831691505092915050565b6000615777838361574d565b9150826002028217905092915050565b61579082613fb3565b67ffffffffffffffff8111156157a9576157a8613df8565b5b6157b38254614d56565b6157be8282856156fa565b600060209050601f8311600181146157f157600084156157df578287015190505b6157e9858261576b565b865550615851565b601f1984166157ff866155e5565b60005b8281101561582757848901518255600182019150602085019450602081019050615802565b868310156158445784890151615840601f89168261574d565b8355505b6001600288020188555050505b505050505050565b6000819050919050565b600067ffffffffffffffff82169050919050565b600061589261588d61588884615859565b614e57565b615863565b9050919050565b6158a281615877565b82525050565b60006020820190506158bd6000830184615899565b92915050565b7f4e487b7100000000000000000000000000000000000000000000000000000000600052601260045260246000fd5b60006158fd82613c93565b915061590883613c93565b925082615918576159176158c3565b5b828204905092915050565b61592c81613f7f565b811461593757600080fd5b50565b60008151905061594981615923565b92915050565b60006020828403121561596557615964613bc8565b5b60006159738482850161593a565b91505092915050565b7f4c325374616b696e673a206c657373207468616e2033206461797320756e746960008201527f6c20756e6c6f636b207265717569726564000000000000000000000000000000602082015250565b60006159d8603183613fbe565b91506159e38261597c565b604082019050919050565b60006020820190508181036000830152615a07816159cb565b9050919050565b6000615a1982614054565b9150615a2483614054565b9250828202615a3281614054565b9150808214615a4457615a436148c7565b5b5092915050565b6000615a5682613c93565b9150615a6183613c93565b9250828202615a6f81613c93565b91508282048414831517615a8657615a856148c7565b5b5092915050565b600081519050919050565b600081905092915050565b6000615aae82615a8d565b615ab88185615a98565b9350615ac8818560208601613fcf565b80840191505092915050565b6000615ae08284615aa3565b91508190509291505056fea264697066735822122081a773b062a60e9815f8093998d872910469085d6e190a00caeb77ba461b77c264736f6c63430008170033",
  "linkReferences": {},
  "deployedLinkReferences": {}
}